{
  "_format": "hh-sol-artifact-1",
  "contractName": "A",
  "sourceName": "contracts/A.sol",
  "abi": [
    {
      "inputs": [
        {
          "internalType": "string",
          "name": "name_",
          "type": "string"
        },
        {
          "internalType": "string",
          "name": "symbol_",
          "type": "string"
        }
      ],
      "stateMutability": "nonpayable",
      "type": "constructor"
    },
    {
      "anonymous": false,
      "inputs": [
        {
          "indexed": true,
          "internalType": "address",
          "name": "owner",
          "type": "address"
        },
        {
          "indexed": true,
          "internalType": "address",
          "name": "spender",
          "type": "address"
        },
        {
          "indexed": false,
          "internalType": "uint256",
          "name": "value",
          "type": "uint256"
        }
      ],
      "name": "Approval",
      "type": "event"
    },
    {
      "anonymous": false,
      "inputs": [
        {
          "indexed": true,
          "internalType": "address",
          "name": "from",
          "type": "address"
        },
        {
          "indexed": true,
          "internalType": "address",
          "name": "to",
          "type": "address"
        },
        {
          "indexed": false,
          "internalType": "uint256",
          "name": "value",
          "type": "uint256"
        }
      ],
      "name": "Transfer",
      "type": "event"
    },
    {
      "inputs": [
        {
          "internalType": "address",
          "name": "owner",
          "type": "address"
        },
        {
          "internalType": "address",
          "name": "spender",
          "type": "address"
        }
      ],
      "name": "allowance",
      "outputs": [
        {
          "internalType": "uint256",
          "name": "",
          "type": "uint256"
        }
      ],
      "stateMutability": "view",
      "type": "function"
    },
    {
      "inputs": [
        {
          "internalType": "address",
          "name": "spender",
          "type": "address"
        },
        {
          "internalType": "uint256",
          "name": "amount",
          "type": "uint256"
        }
      ],
      "name": "approve",
      "outputs": [
        {
          "internalType": "bool",
          "name": "",
          "type": "bool"
        }
      ],
      "stateMutability": "nonpayable",
      "type": "function"
    },
    {
      "inputs": [
        {
          "internalType": "address",
          "name": "account",
          "type": "address"
        }
      ],
      "name": "balanceOf",
      "outputs": [
        {
          "internalType": "uint256",
          "name": "",
          "type": "uint256"
        }
      ],
      "stateMutability": "view",
      "type": "function"
    },
    {
      "inputs": [],
      "name": "contractAddress",
      "outputs": [
        {
          "internalType": "address",
          "name": "",
          "type": "address"
        }
      ],
      "stateMutability": "view",
      "type": "function"
    },
    {
      "inputs": [],
      "name": "decimals",
      "outputs": [
        {
          "internalType": "uint8",
          "name": "",
          "type": "uint8"
        }
      ],
      "stateMutability": "view",
      "type": "function"
    },
    {
      "inputs": [
        {
          "internalType": "address",
          "name": "spender",
          "type": "address"
        },
        {
          "internalType": "uint256",
          "name": "subtractedValue",
          "type": "uint256"
        }
      ],
      "name": "decreaseAllowance",
      "outputs": [
        {
          "internalType": "bool",
          "name": "",
          "type": "bool"
        }
      ],
      "stateMutability": "nonpayable",
      "type": "function"
    },
    {
      "inputs": [
        {
          "internalType": "uint256",
          "name": "b",
          "type": "uint256"
        }
      ],
      "name": "getTokens",
      "outputs": [],
      "stateMutability": "nonpayable",
      "type": "function"
    },
    {
      "inputs": [
        {
          "internalType": "address",
          "name": "spender",
          "type": "address"
        },
        {
          "internalType": "uint256",
          "name": "addedValue",
          "type": "uint256"
        }
      ],
      "name": "increaseAllowance",
      "outputs": [
        {
          "internalType": "bool",
          "name": "",
          "type": "bool"
        }
      ],
      "stateMutability": "nonpayable",
      "type": "function"
    },
    {
      "inputs": [],
      "name": "name",
      "outputs": [
        {
          "internalType": "string",
          "name": "",
          "type": "string"
        }
      ],
      "stateMutability": "view",
      "type": "function"
    },
    {
      "inputs": [],
      "name": "symbol",
      "outputs": [
        {
          "internalType": "string",
          "name": "",
          "type": "string"
        }
      ],
      "stateMutability": "view",
      "type": "function"
    },
    {
      "inputs": [],
      "name": "totalSupply",
      "outputs": [
        {
          "internalType": "uint256",
          "name": "",
          "type": "uint256"
        }
      ],
      "stateMutability": "view",
      "type": "function"
    },
    {
      "inputs": [
        {
          "internalType": "address",
          "name": "to",
          "type": "address"
        },
        {
          "internalType": "uint256",
          "name": "amount",
          "type": "uint256"
        }
      ],
      "name": "transfer",
      "outputs": [
        {
          "internalType": "bool",
          "name": "",
          "type": "bool"
        }
      ],
      "stateMutability": "nonpayable",
      "type": "function"
    },
    {
      "inputs": [
        {
          "internalType": "address",
          "name": "from",
          "type": "address"
        },
        {
          "internalType": "address",
          "name": "to",
          "type": "address"
        },
        {
          "internalType": "uint256",
          "name": "amount",
          "type": "uint256"
        }
      ],
      "name": "transferFrom",
      "outputs": [
        {
          "internalType": "bool",
          "name": "",
          "type": "bool"
        }
      ],
      "stateMutability": "nonpayable",
      "type": "function"
    }
  ],
  "bytecode": "0x608060405260646002553480156200001657600080fd5b50604051620018bd380380620018bd83398181016040528101906200003c9190620002c3565b81600390805190602001906200005492919062000076565b5080600490805190602001906200006d92919062000076565b505050620003ad565b828054620000849062000377565b90600052602060002090601f016020900481019282620000a85760008555620000f4565b82601f10620000c357805160ff1916838001178555620000f4565b82800160010185558215620000f4579182015b82811115620000f3578251825591602001919060010190620000d6565b5b50905062000103919062000107565b5090565b5b808211156200012257600081600090555060010162000108565b5090565b6000604051905090565b600080fd5b600080fd5b600080fd5b600080fd5b6000601f19601f8301169050919050565b7f4e487b7100000000000000000000000000000000000000000000000000000000600052604160045260246000fd5b6200018f8262000144565b810181811067ffffffffffffffff82111715620001b157620001b062000155565b5b80604052505050565b6000620001c662000126565b9050620001d4828262000184565b919050565b600067ffffffffffffffff821115620001f757620001f662000155565b5b620002028262000144565b9050602081019050919050565b60005b838110156200022f57808201518184015260208101905062000212565b838111156200023f576000848401525b50505050565b60006200025c6200025684620001d9565b620001ba565b9050828152602081018484840111156200027b576200027a6200013f565b5b620002888482856200020f565b509392505050565b600082601f830112620002a857620002a76200013a565b5b8151620002ba84826020860162000245565b91505092915050565b60008060408385031215620002dd57620002dc62000130565b5b600083015167ffffffffffffffff811115620002fe57620002fd62000135565b5b6200030c8582860162000290565b925050602083015167ffffffffffffffff81111562000330576200032f62000135565b5b6200033e8582860162000290565b9150509250929050565b7f4e487b7100000000000000000000000000000000000000000000000000000000600052602260045260246000fd5b600060028204905060018216806200039057607f821691505b60208210811415620003a757620003a662000348565b5b50919050565b61150080620003bd6000396000f3fe608060405234801561001057600080fd5b50600436106100cf5760003560e01c806370a082311161008c578063a9059cbb11610066578063a9059cbb1461023c578063d3c9cc261461026c578063dd62ed3e14610288578063f6b4dfb4146102b8576100cf565b806370a08231146101be57806395d89b41146101ee578063a457c2d71461020c576100cf565b806306fdde03146100d4578063095ea7b3146100f257806318160ddd1461012257806323b872dd14610140578063313ce56714610170578063395093511461018e575b600080fd5b6100dc6102d6565b6040516100e99190610cf7565b60405180910390f35b61010c60048036038101906101079190610db2565b610368565b6040516101199190610e0d565b60405180910390f35b61012a61038b565b6040516101379190610e37565b60405180910390f35b61015a60048036038101906101559190610e52565b610395565b6040516101679190610e0d565b60405180910390f35b6101786103c4565b6040516101859190610ec1565b60405180910390f35b6101a860048036038101906101a39190610db2565b6103cd565b6040516101b59190610e0d565b60405180910390f35b6101d860048036038101906101d39190610edc565b610404565b6040516101e59190610e37565b60405180910390f35b6101f661044c565b6040516102039190610cf7565b60405180910390f35b61022660048036038101906102219190610db2565b6104de565b6040516102339190610e0d565b60405180910390f35b61025660048036038101906102519190610db2565b610555565b6040516102639190610e0d565b60405180910390f35b61028660048036038101906102819190610f09565b610578565b005b6102a2600480360381019061029d9190610f36565b610585565b6040516102af9190610e37565b60405180910390f35b6102c061060c565b6040516102cd9190610f85565b60405180910390f35b6060600380546102e590610fcf565b80601f016020809104026020016040519081016040528092919081815260200182805461031190610fcf565b801561035e5780601f106103335761010080835404028352916020019161035e565b820191906000526020600020905b81548152906001019060200180831161034157829003601f168201915b5050505050905090565b600080610373610614565b905061038081858561061c565b600191505092915050565b6000600254905090565b6000806103a0610614565b90506103ad8582856107e7565b6103b8858585610873565b60019150509392505050565b60006012905090565b6000806103d8610614565b90506103f98185856103ea8589610585565b6103f49190611030565b61061c565b600191505092915050565b60008060008373ffffffffffffffffffffffffffffffffffffffff1673ffffffffffffffffffffffffffffffffffffffff168152602001908152602001600020549050919050565b60606004805461045b90610fcf565b80601f016020809104026020016040519081016040528092919081815260200182805461048790610fcf565b80156104d45780601f106104a9576101008083540402835291602001916104d4565b820191906000526020600020905b8154815290600101906020018083116104b757829003601f168201915b5050505050905090565b6000806104e9610614565b905060006104f78286610585565b90508381101561053c576040517f08c379a0000000000000000000000000000000000000000000000000000000008152600401610533906110f8565b60405180910390fd5b610549828686840361061c565b60019250505092915050565b600080610560610614565b905061056d818585610873565b600191505092915050565b6105823382610af4565b50565b6000600160008473ffffffffffffffffffffffffffffffffffffffff1673ffffffffffffffffffffffffffffffffffffffff16815260200190815260200160002060008373ffffffffffffffffffffffffffffffffffffffff1673ffffffffffffffffffffffffffffffffffffffff16815260200190815260200160002054905092915050565b600030905090565b600033905090565b600073ffffffffffffffffffffffffffffffffffffffff168373ffffffffffffffffffffffffffffffffffffffff16141561068c576040517f08c379a00000000000000000000000000000000000000000000000000000000081526004016106839061118a565b60405180910390fd5b600073ffffffffffffffffffffffffffffffffffffffff168273ffffffffffffffffffffffffffffffffffffffff1614156106fc576040517f08c379a00000000000000000000000000000000000000000000000000000000081526004016106f39061121c565b60405180910390fd5b80600160008573ffffffffffffffffffffffffffffffffffffffff1673ffffffffffffffffffffffffffffffffffffffff16815260200190815260200160002060008473ffffffffffffffffffffffffffffffffffffffff1673ffffffffffffffffffffffffffffffffffffffff168152602001908152602001600020819055508173ffffffffffffffffffffffffffffffffffffffff168373ffffffffffffffffffffffffffffffffffffffff167f8c5be1e5ebec7d5bd14f71427d1e84f3dd0314c0f7b2291e5b200ac8c7c3b925836040516107da9190610e37565b60405180910390a3505050565b60006107f38484610585565b90507fffffffffffffffffffffffffffffffffffffffffffffffffffffffffffffffff811461086d578181101561085f576040517f08c379a000000000000000000000000000000000000000000000000000000000815260040161085690611288565b60405180910390fd5b61086c848484840361061c565b5b50505050565b600073ffffffffffffffffffffffffffffffffffffffff168373ffffffffffffffffffffffffffffffffffffffff1614156108e3576040517f08c379a00000000000000000000000000000000000000000000000000000000081526004016108da9061131a565b60405180910390fd5b600073ffffffffffffffffffffffffffffffffffffffff168273ffffffffffffffffffffffffffffffffffffffff161415610953576040517f08c379a000000000000000000000000000000000000000000000000000000000815260040161094a906113ac565b60405180910390fd5b61095e838383610c54565b60008060008573ffffffffffffffffffffffffffffffffffffffff1673ffffffffffffffffffffffffffffffffffffffff168152602001908152602001600020549050818110156109e4576040517f08c379a00000000000000000000000000000000000000000000000000000000081526004016109db9061143e565b60405180910390fd5b8181036000808673ffffffffffffffffffffffffffffffffffffffff1673ffffffffffffffffffffffffffffffffffffffff16815260200190815260200160002081905550816000808573ffffffffffffffffffffffffffffffffffffffff1673ffffffffffffffffffffffffffffffffffffffff1681526020019081526020016000206000828254610a779190611030565b925050819055508273ffffffffffffffffffffffffffffffffffffffff168473ffffffffffffffffffffffffffffffffffffffff167fddf252ad1be2c89b69c2b068fc378daa952ba7f163c4a11628f55a4df523b3ef84604051610adb9190610e37565b60405180910390a3610aee848484610c59565b50505050565b600073ffffffffffffffffffffffffffffffffffffffff168273ffffffffffffffffffffffffffffffffffffffff161415610b64576040517f08c379a0000000000000000000000000000000000000000000000000000000008152600401610b5b906114aa565b60405180910390fd5b610b7060008383610c54565b8060026000828254610b829190611030565b92505081905550806000808473ffffffffffffffffffffffffffffffffffffffff1673ffffffffffffffffffffffffffffffffffffffff1681526020019081526020016000206000828254610bd79190611030565b925050819055508173ffffffffffffffffffffffffffffffffffffffff16600073ffffffffffffffffffffffffffffffffffffffff167fddf252ad1be2c89b69c2b068fc378daa952ba7f163c4a11628f55a4df523b3ef83604051610c3c9190610e37565b60405180910390a3610c5060008383610c59565b5050565b505050565b505050565b600081519050919050565b600082825260208201905092915050565b60005b83811015610c98578082015181840152602081019050610c7d565b83811115610ca7576000848401525b50505050565b6000601f19601f8301169050919050565b6000610cc982610c5e565b610cd38185610c69565b9350610ce3818560208601610c7a565b610cec81610cad565b840191505092915050565b60006020820190508181036000830152610d118184610cbe565b905092915050565b600080fd5b600073ffffffffffffffffffffffffffffffffffffffff82169050919050565b6000610d4982610d1e565b9050919050565b610d5981610d3e565b8114610d6457600080fd5b50565b600081359050610d7681610d50565b92915050565b6000819050919050565b610d8f81610d7c565b8114610d9a57600080fd5b50565b600081359050610dac81610d86565b92915050565b60008060408385031215610dc957610dc8610d19565b5b6000610dd785828601610d67565b9250506020610de885828601610d9d565b9150509250929050565b60008115159050919050565b610e0781610df2565b82525050565b6000602082019050610e226000830184610dfe565b92915050565b610e3181610d7c565b82525050565b6000602082019050610e4c6000830184610e28565b92915050565b600080600060608486031215610e6b57610e6a610d19565b5b6000610e7986828701610d67565b9350506020610e8a86828701610d67565b9250506040610e9b86828701610d9d565b9150509250925092565b600060ff82169050919050565b610ebb81610ea5565b82525050565b6000602082019050610ed66000830184610eb2565b92915050565b600060208284031215610ef257610ef1610d19565b5b6000610f0084828501610d67565b91505092915050565b600060208284031215610f1f57610f1e610d19565b5b6000610f2d84828501610d9d565b91505092915050565b60008060408385031215610f4d57610f4c610d19565b5b6000610f5b85828601610d67565b9250506020610f6c85828601610d67565b9150509250929050565b610f7f81610d3e565b82525050565b6000602082019050610f9a6000830184610f76565b92915050565b7f4e487b7100000000000000000000000000000000000000000000000000000000600052602260045260246000fd5b60006002820490506001821680610fe757607f821691505b60208210811415610ffb57610ffa610fa0565b5b50919050565b7f4e487b7100000000000000000000000000000000000000000000000000000000600052601160045260246000fd5b600061103b82610d7c565b915061104683610d7c565b9250827fffffffffffffffffffffffffffffffffffffffffffffffffffffffffffffffff0382111561107b5761107a611001565b5b828201905092915050565b7f45524332303a2064656372656173656420616c6c6f77616e63652062656c6f7760008201527f207a65726f000000000000000000000000000000000000000000000000000000602082015250565b60006110e2602583610c69565b91506110ed82611086565b604082019050919050565b60006020820190508181036000830152611111816110d5565b9050919050565b7f45524332303a20617070726f76652066726f6d20746865207a65726f2061646460008201527f7265737300000000000000000000000000000000000000000000000000000000602082015250565b6000611174602483610c69565b915061117f82611118565b604082019050919050565b600060208201905081810360008301526111a381611167565b9050919050565b7f45524332303a20617070726f766520746f20746865207a65726f20616464726560008201527f7373000000000000000000000000000000000000000000000000000000000000602082015250565b6000611206602283610c69565b9150611211826111aa565b604082019050919050565b60006020820190508181036000830152611235816111f9565b9050919050565b7f45524332303a20696e73756666696369656e7420616c6c6f77616e6365000000600082015250565b6000611272601d83610c69565b915061127d8261123c565b602082019050919050565b600060208201905081810360008301526112a181611265565b9050919050565b7f45524332303a207472616e736665722066726f6d20746865207a65726f20616460008201527f6472657373000000000000000000000000000000000000000000000000000000602082015250565b6000611304602583610c69565b915061130f826112a8565b604082019050919050565b60006020820190508181036000830152611333816112f7565b9050919050565b7f45524332303a207472616e7366657220746f20746865207a65726f206164647260008201527f6573730000000000000000000000000000000000000000000000000000000000602082015250565b6000611396602383610c69565b91506113a18261133a565b604082019050919050565b600060208201905081810360008301526113c581611389565b9050919050565b7f45524332303a207472616e7366657220616d6f756e742065786365656473206260008201527f616c616e63650000000000000000000000000000000000000000000000000000602082015250565b6000611428602683610c69565b9150611433826113cc565b604082019050919050565b600060208201905081810360008301526114578161141b565b9050919050565b7f45524332303a206d696e7420746f20746865207a65726f206164647265737300600082015250565b6000611494601f83610c69565b915061149f8261145e565b602082019050919050565b600060208201905081810360008301526114c381611487565b905091905056fea2646970667358221220f27db14df539818cace94f099b337f380a1f3d1ec9a6e93d65670d697d4c922664736f6c634300080b0033",
  "linkReferences": {},
  "deployedLinkReferences": {}
}