{
  "_format": "hh-sol-artifact-1",
  "contractName": "Lottery",
  "sourceName": "contracts/Lottery.sol",
  "abi": [
    {
      "anonymous": false,
      "inputs": [
        {
          "indexed": true,
          "internalType": "address",
          "name": "previousOwner",
          "type": "address"
        },
        {
          "indexed": true,
          "internalType": "address",
          "name": "newOwner",
          "type": "address"
        }
      ],
      "name": "OwnershipTransferred",
      "type": "event"
    },
    {
      "anonymous": false,
      "inputs": [
        {
          "indexed": false,
          "internalType": "address",
          "name": "user",
          "type": "address"
        }
      ],
      "name": "enter",
      "type": "event"
    },
    {
      "anonymous": false,
      "inputs": [
        {
          "indexed": false,
          "internalType": "address",
          "name": "creator",
          "type": "address"
        },
        {
          "indexed": false,
          "internalType": "uint256",
          "name": "LobbyId",
          "type": "uint256"
        },
        {
          "indexed": false,
          "internalType": "address",
          "name": "user",
          "type": "address"
        },
        {
          "indexed": false,
          "internalType": "address[]",
          "name": "players",
          "type": "address[]"
        },
        {
          "indexed": false,
          "internalType": "uint256",
          "name": "deposit",
          "type": "uint256"
        },
        {
          "indexed": false,
          "internalType": "uint256",
          "name": "countOfPlayers",
          "type": "uint256"
        },
        {
          "indexed": false,
          "internalType": "contract IERC20",
          "name": "token",
          "type": "address"
        }
      ],
      "name": "enterLobby",
      "type": "event"
    },
    {
      "anonymous": false,
      "inputs": [
        {
          "indexed": true,
          "internalType": "address",
          "name": "creator",
          "type": "address"
        },
        {
          "indexed": true,
          "internalType": "uint256",
          "name": "deposit",
          "type": "uint256"
        },
        {
          "indexed": true,
          "internalType": "uint256",
          "name": "countOfPlayers",
          "type": "uint256"
        },
        {
          "indexed": false,
          "internalType": "uint256",
          "name": "LobbyId",
          "type": "uint256"
        }
      ],
      "name": "newLobby",
      "type": "event"
    },
    {
      "anonymous": false,
      "inputs": [
        {
          "indexed": false,
          "internalType": "uint256",
          "name": "id",
          "type": "uint256"
        },
        {
          "indexed": false,
          "internalType": "address",
          "name": "winer",
          "type": "address"
        }
      ],
      "name": "play",
      "type": "event"
    },
    {
      "anonymous": false,
      "inputs": [
        {
          "indexed": false,
          "internalType": "address",
          "name": "creator",
          "type": "address"
        },
        {
          "indexed": false,
          "internalType": "uint256",
          "name": "LobbyId",
          "type": "uint256"
        },
        {
          "indexed": false,
          "internalType": "address[]",
          "name": "players",
          "type": "address[]"
        },
        {
          "indexed": false,
          "internalType": "uint256",
          "name": "deposit",
          "type": "uint256"
        },
        {
          "indexed": false,
          "internalType": "uint256",
          "name": "countOfPlayers",
          "type": "uint256"
        },
        {
          "indexed": false,
          "internalType": "contract IERC20",
          "name": "token",
          "type": "address"
        },
        {
          "indexed": false,
          "internalType": "address",
          "name": "winer",
          "type": "address"
        }
      ],
      "name": "playLobby",
      "type": "event"
    },
    {
      "inputs": [],
      "name": "Enter",
      "outputs": [],
      "stateMutability": "nonpayable",
      "type": "function"
    },
    {
      "inputs": [
        {
          "internalType": "address",
          "name": "lobbyCreator",
          "type": "address"
        },
        {
          "internalType": "uint256",
          "name": "lobbyId",
          "type": "uint256"
        }
      ],
      "name": "EnterLobby",
      "outputs": [],
      "stateMutability": "nonpayable",
      "type": "function"
    },
    {
      "inputs": [],
      "name": "Play",
      "outputs": [],
      "stateMutability": "nonpayable",
      "type": "function"
    },
    {
      "inputs": [
        {
          "internalType": "contract IERC20",
          "name": "tokenAddress",
          "type": "address"
        },
        {
          "internalType": "uint256",
          "name": "value",
          "type": "uint256"
        }
      ],
      "name": "Withdrow",
      "outputs": [],
      "stateMutability": "nonpayable",
      "type": "function"
    },
    {
      "inputs": [
        {
          "internalType": "address",
          "name": "addres",
          "type": "address"
        }
      ],
      "name": "_allowToNFT",
      "outputs": [
        {
          "components": [
            {
              "internalType": "uint256[]",
              "name": "lotteryes",
              "type": "uint256[]"
            },
            {
              "internalType": "uint8",
              "name": "dont_use",
              "type": "uint8"
            }
          ],
          "internalType": "struct Lottery.wins",
          "name": "",
          "type": "tuple"
        }
      ],
      "stateMutability": "view",
      "type": "function"
    },
    {
      "inputs": [
        {
          "internalType": "address",
          "name": "a",
          "type": "address"
        },
        {
          "internalType": "uint256",
          "name": "TokenId",
          "type": "uint256"
        }
      ],
      "name": "_findAddressInfirst1000Winers",
      "outputs": [
        {
          "internalType": "bool",
          "name": "",
          "type": "bool"
        }
      ],
      "stateMutability": "view",
      "type": "function"
    },
    {
      "inputs": [
        {
          "internalType": "uint256[]",
          "name": "_lotteryes",
          "type": "uint256[]"
        }
      ],
      "name": "addToAutoEnter",
      "outputs": [],
      "stateMutability": "nonpayable",
      "type": "function"
    },
    {
      "inputs": [
        {
          "internalType": "contract IERC20",
          "name": "tokenAddress",
          "type": "address"
        },
        {
          "internalType": "uint256",
          "name": "deposit",
          "type": "uint256"
        }
      ],
      "name": "addTokensToBalance",
      "outputs": [],
      "stateMutability": "nonpayable",
      "type": "function"
    },
    {
      "inputs": [
        {
          "internalType": "uint256",
          "name": "TokenId",
          "type": "uint256"
        }
      ],
      "name": "allowToNFT",
      "outputs": [
        {
          "internalType": "address",
          "name": "",
          "type": "address"
        }
      ],
      "stateMutability": "view",
      "type": "function"
    },
    {
      "inputs": [
        {
          "internalType": "contract IERC20",
          "name": "tokenAddress",
          "type": "address"
        },
        {
          "internalType": "uint256",
          "name": "deposit",
          "type": "uint256"
        },
        {
          "internalType": "uint256",
          "name": "countOfPlayers",
          "type": "uint256"
        }
      ],
      "name": "createNewLobby",
      "outputs": [],
      "stateMutability": "nonpayable",
      "type": "function"
    },
    {
      "inputs": [
        {
          "internalType": "address",
          "name": "msgsender",
          "type": "address"
        },
        {
          "internalType": "address",
          "name": "lobbyCreator",
          "type": "address"
        },
        {
          "internalType": "uint256",
          "name": "lobbyId",
          "type": "uint256"
        }
      ],
      "name": "findPlayerInLobby",
      "outputs": [
        {
          "internalType": "bool",
          "name": "",
          "type": "bool"
        }
      ],
      "stateMutability": "view",
      "type": "function"
    },
    {
      "inputs": [],
      "name": "getAdrressNFT",
      "outputs": [
        {
          "internalType": "address",
          "name": "",
          "type": "address"
        }
      ],
      "stateMutability": "view",
      "type": "function"
    },
    {
      "inputs": [
        {
          "internalType": "address",
          "name": "a",
          "type": "address"
        }
      ],
      "name": "getAutoEnter",
      "outputs": [
        {
          "internalType": "uint256[]",
          "name": "",
          "type": "uint256[]"
        }
      ],
      "stateMutability": "view",
      "type": "function"
    },
    {
      "inputs": [
        {
          "internalType": "contract IERC20",
          "name": "tokenAddress",
          "type": "address"
        },
        {
          "internalType": "address",
          "name": "a",
          "type": "address"
        }
      ],
      "name": "getBalance",
      "outputs": [
        {
          "internalType": "uint256",
          "name": "",
          "type": "uint256"
        }
      ],
      "stateMutability": "view",
      "type": "function"
    },
    {
      "inputs": [],
      "name": "getHEEP",
      "outputs": [
        {
          "internalType": "uint256",
          "name": "",
          "type": "uint256"
        }
      ],
      "stateMutability": "view",
      "type": "function"
    },
    {
      "inputs": [
        {
          "internalType": "address",
          "name": "creator",
          "type": "address"
        },
        {
          "internalType": "uint256",
          "name": "lobbyid",
          "type": "uint256"
        }
      ],
      "name": "getLobby",
      "outputs": [
        {
          "components": [
            {
              "internalType": "contract IERC20",
              "name": "token",
              "type": "address"
            },
            {
              "internalType": "address",
              "name": "winer",
              "type": "address"
            },
            {
              "internalType": "address[]",
              "name": "players",
              "type": "address[]"
            },
            {
              "internalType": "uint256",
              "name": "deposit",
              "type": "uint256"
            },
            {
              "internalType": "uint256",
              "name": "countOfPlayers",
              "type": "uint256"
            },
            {
              "internalType": "uint256",
              "name": "nowInLobby",
              "type": "uint256"
            }
          ],
          "internalType": "struct Lobby.lobbyShablon",
          "name": "",
          "type": "tuple"
        }
      ],
      "stateMutability": "view",
      "type": "function"
    },
    {
      "inputs": [],
      "name": "getLotteryCount",
      "outputs": [
        {
          "internalType": "uint256",
          "name": "",
          "type": "uint256"
        }
      ],
      "stateMutability": "view",
      "type": "function"
    },
    {
      "inputs": [
        {
          "internalType": "uint256",
          "name": "lotteryId",
          "type": "uint256"
        }
      ],
      "name": "getLotteryShablonByIndex",
      "outputs": [
        {
          "components": [
            {
              "internalType": "address",
              "name": "winer",
              "type": "address"
            },
            {
              "internalType": "address[]",
              "name": "players",
              "type": "address[]"
            },
            {
              "internalType": "uint256",
              "name": "playersCount",
              "type": "uint256"
            }
          ],
          "internalType": "struct Lottery.LotteryShablon",
          "name": "",
          "type": "tuple"
        }
      ],
      "stateMutability": "view",
      "type": "function"
    },
    {
      "inputs": [
        {
          "internalType": "string",
          "name": "a",
          "type": "string"
        }
      ],
      "name": "getPromSetReverse",
      "outputs": [
        {
          "internalType": "address",
          "name": "",
          "type": "address"
        }
      ],
      "stateMutability": "view",
      "type": "function"
    },
    {
      "inputs": [],
      "name": "getREVARD_REF_ALLOW",
      "outputs": [
        {
          "internalType": "uint256",
          "name": "",
          "type": "uint256"
        }
      ],
      "stateMutability": "view",
      "type": "function"
    },
    {
      "inputs": [
        {
          "internalType": "uint256",
          "name": "_playersCount",
          "type": "uint256"
        }
      ],
      "name": "getRandNumber",
      "outputs": [
        {
          "internalType": "uint256",
          "name": "",
          "type": "uint256"
        }
      ],
      "stateMutability": "view",
      "type": "function"
    },
    {
      "inputs": [],
      "name": "getTokenForLottery",
      "outputs": [
        {
          "internalType": "address",
          "name": "",
          "type": "address"
        }
      ],
      "stateMutability": "view",
      "type": "function"
    },
    {
      "inputs": [
        {
          "internalType": "address",
          "name": "a",
          "type": "address"
        }
      ],
      "name": "getcountOfLotteryEnter",
      "outputs": [
        {
          "internalType": "uint256",
          "name": "",
          "type": "uint256"
        }
      ],
      "stateMutability": "view",
      "type": "function"
    },
    {
      "inputs": [
        {
          "internalType": "address",
          "name": "_address",
          "type": "address"
        }
      ],
      "name": "getlobbyCountForAddress",
      "outputs": [
        {
          "internalType": "uint256",
          "name": "",
          "type": "uint256"
        }
      ],
      "stateMutability": "view",
      "type": "function"
    },
    {
      "inputs": [
        {
          "internalType": "address",
          "name": "_address",
          "type": "address"
        }
      ],
      "name": "getlobbyCountForAddressHistory",
      "outputs": [
        {
          "internalType": "uint256",
          "name": "",
          "type": "uint256"
        }
      ],
      "stateMutability": "view",
      "type": "function"
    },
    {
      "inputs": [
        {
          "internalType": "address",
          "name": "a",
          "type": "address"
        }
      ],
      "name": "getshouldRevard",
      "outputs": [
        {
          "internalType": "uint256",
          "name": "",
          "type": "uint256"
        }
      ],
      "stateMutability": "view",
      "type": "function"
    },
    {
      "inputs": [],
      "name": "owner",
      "outputs": [
        {
          "internalType": "address",
          "name": "",
          "type": "address"
        }
      ],
      "stateMutability": "view",
      "type": "function"
    },
    {
      "inputs": [],
      "name": "receiveRevard",
      "outputs": [],
      "stateMutability": "nonpayable",
      "type": "function"
    },
    {
      "inputs": [],
      "name": "renounceOwnership",
      "outputs": [],
      "stateMutability": "nonpayable",
      "type": "function"
    },
    {
      "inputs": [
        {
          "internalType": "contract ERC721with",
          "name": "token",
          "type": "address"
        }
      ],
      "name": "setAdrressNFT",
      "outputs": [],
      "stateMutability": "nonpayable",
      "type": "function"
    },
    {
      "inputs": [
        {
          "internalType": "uint256",
          "name": "value",
          "type": "uint256"
        }
      ],
      "name": "setAutoMint",
      "outputs": [],
      "stateMutability": "nonpayable",
      "type": "function"
    },
    {
      "inputs": [
        {
          "internalType": "address",
          "name": "a",
          "type": "address"
        }
      ],
      "name": "setAutotask",
      "outputs": [],
      "stateMutability": "nonpayable",
      "type": "function"
    },
    {
      "inputs": [
        {
          "internalType": "uint256",
          "name": "_deposit",
          "type": "uint256"
        }
      ],
      "name": "setDeposit",
      "outputs": [],
      "stateMutability": "nonpayable",
      "type": "function"
    },
    {
      "inputs": [
        {
          "internalType": "contract MUD",
          "name": "a",
          "type": "address"
        }
      ],
      "name": "setMUD",
      "outputs": [],
      "stateMutability": "nonpayable",
      "type": "function"
    },
    {
      "inputs": [
        {
          "internalType": "string",
          "name": "a",
          "type": "string"
        }
      ],
      "name": "setPromInput",
      "outputs": [],
      "stateMutability": "nonpayable",
      "type": "function"
    },
    {
      "inputs": [
        {
          "internalType": "string",
          "name": "a",
          "type": "string"
        }
      ],
      "name": "setPromSet",
      "outputs": [],
      "stateMutability": "nonpayable",
      "type": "function"
    },
    {
      "inputs": [
        {
          "internalType": "contract IERC20",
          "name": "_tokenForLottery",
          "type": "address"
        }
      ],
      "name": "setTokenForLottery",
      "outputs": [],
      "stateMutability": "nonpayable",
      "type": "function"
    },
    {
      "inputs": [
        {
          "internalType": "address",
          "name": "newOwner",
          "type": "address"
        }
      ],
      "name": "transferOwnership",
      "outputs": [],
      "stateMutability": "nonpayable",
      "type": "function"
    }
  ],
  "bytecode": "0x6080604052633b9aca00600555600860646005546200001f919062000287565b6200002b9190620002bf565b6006556013606460055462000041919062000287565b6200004d9190620002bf565b600755600d606460055462000063919062000287565b6200006f9190620002bf565b600855601e606460055462000085919062000287565b620000919190620002bf565b60095560096064600554620000a7919062000287565b620000b39190620002bf565b600a5560156064600554620000c9919062000287565b620000d59190620002bf565b600b556000600c556103e8600a54620000ef919062000287565b600d556103e860095462000104919062000287565b600e55600e54600f5560016011556000601455600b54601f553480156200012a57600080fd5b506200014b6200013f6200015160201b60201c565b6200015960201b60201c565b62000320565b600033905090565b6000600160009054906101000a900473ffffffffffffffffffffffffffffffffffffffff16905081600160006101000a81548173ffffffffffffffffffffffffffffffffffffffff021916908373ffffffffffffffffffffffffffffffffffffffff1602179055508173ffffffffffffffffffffffffffffffffffffffff168173ffffffffffffffffffffffffffffffffffffffff167f8be0079c531659141344cd1fd0a4f28419497f9722a3daafe3b4186f6b6457e060405160405180910390a35050565b6000819050919050565b7f4e487b7100000000000000000000000000000000000000000000000000000000600052601260045260246000fd5b7f4e487b7100000000000000000000000000000000000000000000000000000000600052601160045260246000fd5b600062000294826200021f565b9150620002a1836200021f565b925082620002b457620002b362000229565b5b828204905092915050565b6000620002cc826200021f565b9150620002d9836200021f565b9250817fffffffffffffffffffffffffffffffffffffffffffffffffffffffffffffffff048311821515161562000315576200031462000258565b5b828202905092915050565b61596580620003306000396000f3fe608060405234801561001057600080fd5b50600436106102325760003560e01c80637f4d86d711610130578063cd8f98e8116100b8578063e9858a581161007c578063e9858a5814610685578063e9ed3576146106b5578063f2fde38b146106d3578063f5bade66146106ef578063fb9c00c81461070b57610232565b8063cd8f98e8146105bd578063cfd717da146105ed578063d4fac45d14610609578063e1f97dd214610639578063e8844e761461065557610232565b8063a53aa0ac116100ff578063a53aa0ac146104f5578063a7421d8114610525578063aa78dda114610541578063bd24435b1461055d578063c7766cc41461058d57610232565b80637f4d86d71461048157806381e1e4b11461048b5780638da5cb5b146104bb578063a41c63e2146104d957610232565b80632f9aa1fe116101be57806357b526fc1161018257806357b526fc146103df57806358a10e871461040f57806361a4c7511461042b5780636d12dce414610447578063715018a61461047757610232565b80632f9aa1fe1461034b5780634137fc641461036957806346254c3a1461038557806347d9833d146103a35780635443a8fd146103c157610232565b80631881cc03116102055780631881cc03146102975780631c64f010146102c757806325876ddf146102f757806325c3a9071461031357806329a4a2811461032f57610232565b806304b675ae14610237578063053e3b45146102675780630e2dce69146102835780631097e5791461028d575b600080fd5b610251600480360381019061024c9190614502565b61073b565b60405161025e919061455d565b60405180910390f35b610281600480360381019061027c91906146be565b6107b8565b005b61028b610a46565b005b6102956110e9565b005b6102b160048036038101906102ac9190614707565b611383565b6040516102be9190614743565b60405180910390f35b6102e160048036038101906102dc9190614707565b6113cc565b6040516102ee9190614743565b60405180910390f35b610311600480360381019061030c9190614502565b611415565b005b61032d6004803603810190610328919061475e565b611942565b005b610349600480360381019061034491906147c9565b6119c8565b005b610353611a88565b6040516103609190614743565b60405180910390f35b610383600480360381019061037e91906146be565b611a92565b005b61038d611c4d565b60405161039a9190614805565b60405180910390f35b6103ab611c77565b6040516103b89190614743565b60405180910390f35b6103c9611c81565b6040516103d69190614805565b60405180910390f35b6103f960048036038101906103f49190614707565b611cab565b6040516104069190614743565b60405180910390f35b61042960048036038101906104249190614707565b611cf4565b005b6104456004803603810190610440919061485e565b611db4565b005b610461600480360381019061045c9190614502565b611f59565b60405161046e9190614a53565b60405180910390f35b61047f61211c565b005b6104896121a4565b005b6104a560048036038101906104a09190614707565b612341565b6040516104b29190614b24565b60405180910390f35b6104c36123db565b6040516104d09190614805565b60405180910390f35b6104f360048036038101906104ee919061485e565b612405565b005b61050f600480360381019061050a9190614707565b61252a565b60405161051c9190614743565b60405180910390f35b61053f600480360381019061053a9190614b46565b612573565b005b61055b60048036038101906105569190614c3b565b612633565b005b6105776004803603810190610572919061475e565b612a8b565b6040516105849190614743565b60405180910390f35b6105a760048036038101906105a291906146be565b612ada565b6040516105b49190614805565b60405180910390f35b6105d760048036038101906105d2919061475e565b612b42565b6040516105e49190614cd4565b60405180910390f35b61060760048036038101906106029190614d34565b612c5d565b005b610623600480360381019061061e9190614d61565b612d1d565b6040516106309190614743565b60405180910390f35b610653600480360381019061064e9190614da1565b612da3565b005b61066f600480360381019061066a9190614df4565b613186565b60405161067c919061455d565b60405180910390f35b61069f600480360381019061069a919061475e565b613342565b6040516106ac9190614805565b60405180910390f35b6106bd61337f565b6040516106ca9190614743565b60405180910390f35b6106ed60048036038101906106e89190614707565b613389565b005b6107096004803603810190610704919061475e565b613481565b005b61072560048036038101906107209190614707565b613507565b6040516107329190614f0f565b60405180910390f35b60008273ffffffffffffffffffffffffffffffffffffffff166016600084815260200190815260200160002060009054906101000a900473ffffffffffffffffffffffffffffffffffffffff1673ffffffffffffffffffffffffffffffffffffffff1614156107ad57600190506107b2565b600090505b92915050565b6000816040516020016107cb9190614fab565b6040516020818303038152906040528051906020012090503373ffffffffffffffffffffffffffffffffffffffff16601b600083815260200190815260200160002060009054906101000a900473ffffffffffffffffffffffffffffffffffffffff1673ffffffffffffffffffffffffffffffffffffffff161415610885576040517f08c379a000000000000000000000000000000000000000000000000000000000815260040161087c9061501f565b60405180910390fd5b6000801b601a60003373ffffffffffffffffffffffffffffffffffffffff1673ffffffffffffffffffffffffffffffffffffffff168152602001908152602001600020600101541461090c576040517f08c379a00000000000000000000000000000000000000000000000000000000081526004016109039061508b565b60405180910390fd5b600073ffffffffffffffffffffffffffffffffffffffff16601b600083815260200190815260200160002060009054906101000a900473ffffffffffffffffffffffffffffffffffffffff1673ffffffffffffffffffffffffffffffffffffffff1614156109af576040517f08c379a00000000000000000000000000000000000000000000000000000000081526004016109a6906150f7565b60405180910390fd5b6000601960003373ffffffffffffffffffffffffffffffffffffffff1673ffffffffffffffffffffffffffffffffffffffff16815260200190815260200160002054146109fb57600080fd5b80601a60003373ffffffffffffffffffffffffffffffffffffffff1673ffffffffffffffffffffffffffffffffffffffff168152602001908152602001600020600101819055505050565b610a4e6123db565b73ffffffffffffffffffffffffffffffffffffffff163373ffffffffffffffffffffffffffffffffffffffff161480610ad45750601e60009054906101000a900473ffffffffffffffffffffffffffffffffffffffff1673ffffffffffffffffffffffffffffffffffffffff163373ffffffffffffffffffffffffffffffffffffffff16145b610add57600080fd5b600080601560006011548152602001908152602001600020600201541415610b0e57610b076123db565b9050610b8c565b6000610b3160156000601154815260200190815260200160002060020154612a8b565b90506015600060115481526020019081526020016000206001018181548110610b5d57610b5c615117565b5b9060005260206000200160009054906101000a900473ffffffffffffffffffffffffffffffffffffffff169150505b6103e860115411610c57578060166000601154815260200190815260200160002060006101000a81548173ffffffffffffffffffffffffffffffffffffffff021916908373ffffffffffffffffffffffffffffffffffffffff160217905550601760008273ffffffffffffffffffffffffffffffffffffffff1673ffffffffffffffffffffffffffffffffffffffff16815260200190815260200160002060000160115490806001815401808255809150506001900390600052602060002001600090919091909150555b60156000601154815260200190815260200160002060020154601c54610c7d9190615175565b600080601d60009054906101000a900473ffffffffffffffffffffffffffffffffffffffff1673ffffffffffffffffffffffffffffffffffffffff1673ffffffffffffffffffffffffffffffffffffffff16815260200190815260200160002060008373ffffffffffffffffffffffffffffffffffffffff1673ffffffffffffffffffffffffffffffffffffffff1681526020019081526020016000206000828254610d2991906151cf565b925050819055508060156000601154815260200190815260200160002060000160006101000a81548173ffffffffffffffffffffffffffffffffffffffff021916908373ffffffffffffffffffffffffffffffffffffffff160217905550603360115410158015610d9d575061041b601154105b8015610e505750601360009054906101000a900473ffffffffffffffffffffffffffffffffffffffff1673ffffffffffffffffffffffffffffffffffffffff1663e472f1356032601154610df19190615225565b6040518263ffffffff1660e01b8152600401610e0d9190614743565b602060405180830381865afa158015610e2a573d6000803e3d6000fd5b505050506040513d601f19601f82011682018060405250810190610e4e9190615285565b155b15610e5e57610e5d6135d5565b5b61041b60115410158015610e755750610803601154105b1561100b576000601560006011548152602001908152602001600020600101805480602002602001604051908101604052809291908181526020018280548015610f1457602002820191906000526020600020905b8160009054906101000a900473ffffffffffffffffffffffffffffffffffffffff1673ffffffffffffffffffffffffffffffffffffffff1681526020019060010190808311610eca575b50505050509050600081519050600081118015610f45575080670de0b6b3a7640000600d54610f439190615175565b115b15610fed57600081600d54610f5a91906152e1565b905060005b82811015610fea578160106000868481518110610f7f57610f7e615117565b5b602002602001015173ffffffffffffffffffffffffffffffffffffffff1673ffffffffffffffffffffffffffffffffffffffff1681526020019081526020016000206000828254610fd091906151cf565b925050819055508080610fe290615312565b915050610f5f565b50505b600e54600f600082825461100191906151cf565b9250508190555050505b61041a60115414156110935761101f613888565b611027613a86565b61102f613be9565b601260009054906101000a900473ffffffffffffffffffffffffffffffffffffffff16601d60006101000a81548173ffffffffffffffffffffffffffffffffffffffff021916908373ffffffffffffffffffffffffffffffffffffffff1602179055505b7f31f8e0596bf7a98088824238285005ef74dd9359831490f63215e44147279bd3601154826040516110c692919061535b565b60405180910390a1601160008154809291906110e190615312565b919050555050565b601c54611118601d60009054906101000a900473ffffffffffffffffffffffffffffffffffffffff1633612d1d565b1015801561112f575061112d33601154613ca8565b155b61116e576040517f08c379a0000000000000000000000000000000000000000000000000000000008152600401611165906153d0565b60405180910390fd5b6000601960003373ffffffffffffffffffffffffffffffffffffffff1673ffffffffffffffffffffffffffffffffffffffff168152602001908152602001600020541480156111c157506107d0601f5410155b156111cf576111ce613e4c565b5b601960003373ffffffffffffffffffffffffffffffffffffffff1673ffffffffffffffffffffffffffffffffffffffff168152602001908152602001600020600081548092919061121f90615312565b9190505550601c54600080601d60009054906101000a900473ffffffffffffffffffffffffffffffffffffffff1673ffffffffffffffffffffffffffffffffffffffff1673ffffffffffffffffffffffffffffffffffffffff16815260200190815260200160002060003373ffffffffffffffffffffffffffffffffffffffff1673ffffffffffffffffffffffffffffffffffffffff16815260200190815260200160002060008282546112d39190615225565b92505081905550601560006011548152602001908152602001600020600101339080600181540180825580915050600190039060005260206000200160009091909190916101000a81548173ffffffffffffffffffffffffffffffffffffffff021916908373ffffffffffffffffffffffffffffffffffffffff160217905550601560006011548152602001908152602001600020600201600081548092919061137c90615312565b9190505550565b6000601060008373ffffffffffffffffffffffffffffffffffffffff1673ffffffffffffffffffffffffffffffffffffffff168152602001908152602001600020549050919050565b6000600360008373ffffffffffffffffffffffffffffffffffffffff1673ffffffffffffffffffffffffffffffffffffffff168152602001908152602001600020549050919050565b60003390506000600460008573ffffffffffffffffffffffffffffffffffffffff1673ffffffffffffffffffffffffffffffffffffffff1681526020019081526020016000206000848152602001908152602001600020905080600301546000808360000160009054906101000a900473ffffffffffffffffffffffffffffffffffffffff1673ffffffffffffffffffffffffffffffffffffffff1673ffffffffffffffffffffffffffffffffffffffff16815260200190815260200160002060008473ffffffffffffffffffffffffffffffffffffffff1673ffffffffffffffffffffffffffffffffffffffff168152602001908152602001600020541015801561157557506000600460008673ffffffffffffffffffffffffffffffffffffffff1673ffffffffffffffffffffffffffffffffffffffff16815260200190815260200160002060008581526020019081526020016000206005015414155b80156115895750611587828585613186565b155b61159257600080fd5b80600301546000808360000160009054906101000a900473ffffffffffffffffffffffffffffffffffffffff1673ffffffffffffffffffffffffffffffffffffffff1673ffffffffffffffffffffffffffffffffffffffff16815260200190815260200160002060008473ffffffffffffffffffffffffffffffffffffffff1673ffffffffffffffffffffffffffffffffffffffff16815260200190815260200160002060008282546116459190615225565b9250508190555080600201829080600181540180825580915050600190039060005260206000200160009091909190916101000a81548173ffffffffffffffffffffffffffffffffffffffff021916908373ffffffffffffffffffffffffffffffffffffffff160217905550600081600501600081546116c490615312565b9190508190559050816004015481141561193b576000611846836040518060c00160405290816000820160009054906101000a900473ffffffffffffffffffffffffffffffffffffffff1673ffffffffffffffffffffffffffffffffffffffff1673ffffffffffffffffffffffffffffffffffffffff1681526020016001820160009054906101000a900473ffffffffffffffffffffffffffffffffffffffff1673ffffffffffffffffffffffffffffffffffffffff1673ffffffffffffffffffffffffffffffffffffffff1681526020016002820180548060200260200160405190810160405280929190818152602001828054801561181a57602002820191906000526020600020905b8160009054906101000a900473ffffffffffffffffffffffffffffffffffffffff1673ffffffffffffffffffffffffffffffffffffffff16815260200190600101908083116117d0575b505050505081526020016003820154815260200160048201548152602001600582015481525050613fa5565b9050808360010160006101000a81548173ffffffffffffffffffffffffffffffffffffffff021916908373ffffffffffffffffffffffffffffffffffffffff1602179055506000600460008873ffffffffffffffffffffffffffffffffffffffff1673ffffffffffffffffffffffffffffffffffffffff168152602001908152602001600020600087815260200190815260200160002060050181905550600260008773ffffffffffffffffffffffffffffffffffffffff1673ffffffffffffffffffffffffffffffffffffffff1681526020019081526020016000206000815480929190611934906153f0565b9190505550505b5050505050565b61194a6142d6565b73ffffffffffffffffffffffffffffffffffffffff166119686123db565b73ffffffffffffffffffffffffffffffffffffffff16146119be576040517f08c379a00000000000000000000000000000000000000000000000000000000081526004016119b590615466565b60405180910390fd5b8060148190555050565b6119d06142d6565b73ffffffffffffffffffffffffffffffffffffffff166119ee6123db565b73ffffffffffffffffffffffffffffffffffffffff1614611a44576040517f08c379a0000000000000000000000000000000000000000000000000000000008152600401611a3b90615466565b60405180910390fd5b80601360006101000a81548173ffffffffffffffffffffffffffffffffffffffff021916908373ffffffffffffffffffffffffffffffffffffffff16021790555050565b6000601154905090565b600081604051602001611aa59190614fab565b6040516020818303038152906040528051906020012090506000801b601a60003373ffffffffffffffffffffffffffffffffffffffff1673ffffffffffffffffffffffffffffffffffffffff1681526020019081526020016000206000015414611b0e57600080fd5b600073ffffffffffffffffffffffffffffffffffffffff16601b600083815260200190815260200160002060009054906101000a900473ffffffffffffffffffffffffffffffffffffffff1673ffffffffffffffffffffffffffffffffffffffff1614611bb0576040517f08c379a0000000000000000000000000000000000000000000000000000000008152600401611ba7906154d2565b60405180910390fd5b80601a60003373ffffffffffffffffffffffffffffffffffffffff1673ffffffffffffffffffffffffffffffffffffffff1681526020019081526020016000206000018190555033601b600083815260200190815260200160002060006101000a81548173ffffffffffffffffffffffffffffffffffffffff021916908373ffffffffffffffffffffffffffffffffffffffff1602179055505050565b6000601d60009054906101000a900473ffffffffffffffffffffffffffffffffffffffff16905090565b6000600f54905090565b6000601360009054906101000a900473ffffffffffffffffffffffffffffffffffffffff16905090565b6000600260008373ffffffffffffffffffffffffffffffffffffffff1673ffffffffffffffffffffffffffffffffffffffff168152602001908152602001600020549050919050565b611cfc6142d6565b73ffffffffffffffffffffffffffffffffffffffff16611d1a6123db565b73ffffffffffffffffffffffffffffffffffffffff1614611d70576040517f08c379a0000000000000000000000000000000000000000000000000000000008152600401611d6790615466565b60405180910390fd5b80601e60006101000a81548173ffffffffffffffffffffffffffffffffffffffff021916908373ffffffffffffffffffffffffffffffffffffffff16021790555050565b806000808473ffffffffffffffffffffffffffffffffffffffff1673ffffffffffffffffffffffffffffffffffffffff16815260200190815260200160002060003373ffffffffffffffffffffffffffffffffffffffff1673ffffffffffffffffffffffffffffffffffffffff168152602001908152602001600020541015611e3c57600080fd5b8173ffffffffffffffffffffffffffffffffffffffff1663a9059cbb33836040518363ffffffff1660e01b8152600401611e779291906154f2565b6020604051808303816000875af1158015611e96573d6000803e3d6000fd5b505050506040513d601f19601f82011682018060405250810190611eba9190615285565b611ec357600080fd5b806000808473ffffffffffffffffffffffffffffffffffffffff1673ffffffffffffffffffffffffffffffffffffffff16815260200190815260200160002060003373ffffffffffffffffffffffffffffffffffffffff1673ffffffffffffffffffffffffffffffffffffffff1681526020019081526020016000206000828254611f4e9190615225565b925050819055505050565b611f616143a4565b600460008473ffffffffffffffffffffffffffffffffffffffff1673ffffffffffffffffffffffffffffffffffffffff16815260200190815260200160002060008381526020019081526020016000206040518060c00160405290816000820160009054906101000a900473ffffffffffffffffffffffffffffffffffffffff1673ffffffffffffffffffffffffffffffffffffffff1673ffffffffffffffffffffffffffffffffffffffff1681526020016001820160009054906101000a900473ffffffffffffffffffffffffffffffffffffffff1673ffffffffffffffffffffffffffffffffffffffff1673ffffffffffffffffffffffffffffffffffffffff168152602001600282018054806020026020016040519081016040528092919081815260200182805480156120ed57602002820191906000526020600020905b8160009054906101000a900473ffffffffffffffffffffffffffffffffffffffff1673ffffffffffffffffffffffffffffffffffffffff16815260200190600101908083116120a3575b505050505081526020016003820154815260200160048201548152602001600582015481525050905092915050565b6121246142d6565b73ffffffffffffffffffffffffffffffffffffffff166121426123db565b73ffffffffffffffffffffffffffffffffffffffff1614612198576040517f08c379a000000000000000000000000000000000000000000000000000000000815260040161218f90615466565b60405180910390fd5b6121a260006142de565b565b6000601060003373ffffffffffffffffffffffffffffffffffffffff1673ffffffffffffffffffffffffffffffffffffffff168152602001908152602001600020541180156121f6575061041a601154115b6121ff57600080fd5b601260009054906101000a900473ffffffffffffffffffffffffffffffffffffffff1673ffffffffffffffffffffffffffffffffffffffff1663e16acb8333670de0b6b3a7640000601060003373ffffffffffffffffffffffffffffffffffffffff1673ffffffffffffffffffffffffffffffffffffffff168152602001908152602001600020546122919190615175565b6040518363ffffffff1660e01b81526004016122ae9291906154f2565b6020604051808303816000875af11580156122cd573d6000803e3d6000fd5b505050506040513d601f19601f820116820180604052508101906122f19190615285565b6122fa57600080fd5b6000601060003373ffffffffffffffffffffffffffffffffffffffff1673ffffffffffffffffffffffffffffffffffffffff16815260200190815260200160002081905550565b6060601860008373ffffffffffffffffffffffffffffffffffffffff1673ffffffffffffffffffffffffffffffffffffffff1681526020019081526020016000206000018054806020026020016040519081016040528092919081815260200182805480156123cf57602002820191906000526020600020905b8154815260200190600101908083116123bb575b50505050509050919050565b6000600160009054906101000a900473ffffffffffffffffffffffffffffffffffffffff16905090565b60003390508273ffffffffffffffffffffffffffffffffffffffff166323b872dd8230856040518463ffffffff1660e01b81526004016124479392919061551b565b6020604051808303816000875af1158015612466573d6000803e3d6000fd5b505050506040513d601f19601f8201168201806040525081019061248a9190615285565b61249357600080fd5b816000808573ffffffffffffffffffffffffffffffffffffffff1673ffffffffffffffffffffffffffffffffffffffff16815260200190815260200160002060008373ffffffffffffffffffffffffffffffffffffffff1673ffffffffffffffffffffffffffffffffffffffff168152602001908152602001600020600082825461251e91906151cf565b92505081905550505050565b6000601960008373ffffffffffffffffffffffffffffffffffffffff1673ffffffffffffffffffffffffffffffffffffffff168152602001908152602001600020549050919050565b61257b6142d6565b73ffffffffffffffffffffffffffffffffffffffff166125996123db565b73ffffffffffffffffffffffffffffffffffffffff16146125ef576040517f08c379a00000000000000000000000000000000000000000000000000000000081526004016125e690615466565b60405180910390fd5b80601d60006101000a81548173ffffffffffffffffffffffffffffffffffffffff021916908373ffffffffffffffffffffffffffffffffffffffff16021790555050565b600081519050601c54816126479190615175565b600080601d60009054906101000a900473ffffffffffffffffffffffffffffffffffffffff1673ffffffffffffffffffffffffffffffffffffffff1673ffffffffffffffffffffffffffffffffffffffff16815260200190815260200160002060003373ffffffffffffffffffffffffffffffffffffffff1673ffffffffffffffffffffffffffffffffffffffff168152602001908152602001600020541015612726576040517f08c379a000000000000000000000000000000000000000000000000000000000815260040161271d9061559e565b60405180910390fd5b6000601154905060005b82811015612771578184828151811061274c5761274b615117565b5b60200260200101511161275e57600080fd5b808061276990615312565b915050612730565b506000601960003373ffffffffffffffffffffffffffffffffffffffff1673ffffffffffffffffffffffffffffffffffffffff168152602001908152602001600020541480156127c557506107d0601f5410155b156127d3576127d2613e4c565b5b6000601860003373ffffffffffffffffffffffffffffffffffffffff1673ffffffffffffffffffffffffffffffffffffffff168152602001908152602001600020905060005b83811015612a84576128453386838151811061283857612837615117565b5b6020026020010151613ca8565b612a7157601c54600080601d60009054906101000a900473ffffffffffffffffffffffffffffffffffffffff1673ffffffffffffffffffffffffffffffffffffffff1673ffffffffffffffffffffffffffffffffffffffff16815260200190815260200160002060003373ffffffffffffffffffffffffffffffffffffffff1673ffffffffffffffffffffffffffffffffffffffff16815260200190815260200160002060008282546128f89190615225565b925050819055506015600086838151811061291657612915615117565b5b60200260200101518152602001908152602001600020600101339080600181540180825580915050600190039060005260206000200160009091909190916101000a81548173ffffffffffffffffffffffffffffffffffffffff021916908373ffffffffffffffffffffffffffffffffffffffff160217905550601560008683815181106129a7576129a6615117565b5b6020026020010151815260200190815260200160002060020160008154809291906129d190615312565b9190505550601960003373ffffffffffffffffffffffffffffffffffffffff1673ffffffffffffffffffffffffffffffffffffffff1681526020019081526020016000206000815480929190612a2690615312565b919050555081600001858281518110612a4257612a41615117565b5b602002602001015190806001815401808255809150506001900390600052602060002001600090919091909150555b8080612a7c90615312565b915050612819565b5050505050565b6000808214612ad0578142604051602001612aa691906155df565b6040516020818303038152906040528051906020012060001c612ac991906155fa565b9050612ad5565b600090505b919050565b60008082604051602001612aee9190614fab565b604051602081830303815290604052805190602001209050601b600082815260200190815260200160002060009054906101000a900473ffffffffffffffffffffffffffffffffffffffff16915050919050565b612b4a614406565b601560008381526020019081526020016000206040518060600160405290816000820160009054906101000a900473ffffffffffffffffffffffffffffffffffffffff1673ffffffffffffffffffffffffffffffffffffffff1673ffffffffffffffffffffffffffffffffffffffff16815260200160018201805480602002602001604051908101604052809291908181526020018280548015612c4357602002820191906000526020600020905b8160009054906101000a900473ffffffffffffffffffffffffffffffffffffffff1673ffffffffffffffffffffffffffffffffffffffff1681526020019060010190808311612bf9575b505050505081526020016002820154815250509050919050565b612c656142d6565b73ffffffffffffffffffffffffffffffffffffffff16612c836123db565b73ffffffffffffffffffffffffffffffffffffffff1614612cd9576040517f08c379a0000000000000000000000000000000000000000000000000000000008152600401612cd090615466565b60405180910390fd5b80601260006101000a81548173ffffffffffffffffffffffffffffffffffffffff021916908373ffffffffffffffffffffffffffffffffffffffff16021790555050565b60008060008473ffffffffffffffffffffffffffffffffffffffff1673ffffffffffffffffffffffffffffffffffffffff16815260200190815260200160002060008373ffffffffffffffffffffffffffffffffffffffff1673ffffffffffffffffffffffffffffffffffffffff16815260200190815260200160002054905092915050565b6000339050826000808673ffffffffffffffffffffffffffffffffffffffff1673ffffffffffffffffffffffffffffffffffffffff16815260200190815260200160002060008373ffffffffffffffffffffffffffffffffffffffff1673ffffffffffffffffffffffffffffffffffffffff1681526020019081526020016000205410158015612e725750600a600260008373ffffffffffffffffffffffffffffffffffffffff1673ffffffffffffffffffffffffffffffffffffffff16815260200190815260200160002054105b8015612e8057506103e88211155b8015612e8c5750600182115b612e9557600080fd5b826000808673ffffffffffffffffffffffffffffffffffffffff1673ffffffffffffffffffffffffffffffffffffffff16815260200190815260200160002060008373ffffffffffffffffffffffffffffffffffffffff1673ffffffffffffffffffffffffffffffffffffffff1681526020019081526020016000206000828254612f209190615225565b92505081905550600260008273ffffffffffffffffffffffffffffffffffffffff1673ffffffffffffffffffffffffffffffffffffffff1681526020019081526020016000206000815480929190612f7790615312565b91905055506000600360008373ffffffffffffffffffffffffffffffffffffffff1673ffffffffffffffffffffffffffffffffffffffff16815260200190815260200160002060008154612fca90615312565b91905081905590506000600460008473ffffffffffffffffffffffffffffffffffffffff1673ffffffffffffffffffffffffffffffffffffffff1681526020019081526020016000206000838152602001908152602001600020905080600201839080600181540180825580915050600190039060005260206000200160009091909190916101000a81548173ffffffffffffffffffffffffffffffffffffffff021916908373ffffffffffffffffffffffffffffffffffffffff160217905550848160030181905550838160040181905550858160000160006101000a81548173ffffffffffffffffffffffffffffffffffffffff021916908373ffffffffffffffffffffffffffffffffffffffff1602179055506001816005018190555060008160010160006101000a81548173ffffffffffffffffffffffffffffffffffffffff021916908373ffffffffffffffffffffffffffffffffffffffff16021790555083853373ffffffffffffffffffffffffffffffffffffffff167f6f1b31f27769fa94b13e0dd993d4dd2155660e9fa13d6bb178841fdd812853d2856040516131769190614743565b60405180910390a4505050505050565b600080600460008573ffffffffffffffffffffffffffffffffffffffff1673ffffffffffffffffffffffffffffffffffffffff168152602001908152602001600020600084815260200190815260200160002060020180548060200260200160405190810160405280929190818152602001828054801561325c57602002820191906000526020600020905b8160009054906101000a900473ffffffffffffffffffffffffffffffffffffffff1673ffffffffffffffffffffffffffffffffffffffff1681526020019060010190808311613212575b505050505090506000600460008673ffffffffffffffffffffffffffffffffffffffff1673ffffffffffffffffffffffffffffffffffffffff168152602001908152602001600020600085815260200190815260200160002060050154905060005b81811015613333578673ffffffffffffffffffffffffffffffffffffffff168382815181106132f0576132ef615117565b5b602002602001015173ffffffffffffffffffffffffffffffffffffffff161415613320576001935050505061333b565b808061332b90615312565b9150506132be565b506000925050505b9392505050565b60006016600083815260200190815260200160002060009054906101000a900473ffffffffffffffffffffffffffffffffffffffff169050919050565b6000601f54905090565b6133916142d6565b73ffffffffffffffffffffffffffffffffffffffff166133af6123db565b73ffffffffffffffffffffffffffffffffffffffff1614613405576040517f08c379a00000000000000000000000000000000000000000000000000000000081526004016133fc90615466565b60405180910390fd5b600073ffffffffffffffffffffffffffffffffffffffff168173ffffffffffffffffffffffffffffffffffffffff161415613475576040517f08c379a000000000000000000000000000000000000000000000000000000000815260040161346c9061569d565b60405180910390fd5b61347e816142de565b50565b6134896142d6565b73ffffffffffffffffffffffffffffffffffffffff166134a76123db565b73ffffffffffffffffffffffffffffffffffffffff16146134fd576040517f08c379a00000000000000000000000000000000000000000000000000000000081526004016134f490615466565b60405180910390fd5b80601c8190555050565b61350f61443d565b601760008373ffffffffffffffffffffffffffffffffffffffff1673ffffffffffffffffffffffffffffffffffffffff168152602001908152602001600020604051806040016040529081600082018054806020026020016040519081016040528092919081815260200182805480156135a857602002820191906000526020600020905b815481526020019060010190808311613594575b505050505081526020016001820160009054906101000a900460ff1660ff1660ff16815250509050919050565b600060329050600060166000836011546135ef9190615225565b815260200190815260200160002060009054906101000a900473ffffffffffffffffffffffffffffffffffffffff1690506000601760008373ffffffffffffffffffffffffffffffffffffffff1673ffffffffffffffffffffffffffffffffffffffff168152602001908152602001600020600001905060008180549050905060005b8181101561379e57846011546136889190615225565b83828154811061369b5761369a615117565b5b9060005260206000200154141561378b5760018214156136e157828054806136c6576136c56156bd565b5b60019003818190600052602060002001600090559055613786565b60008190505b600184805490506136f89190615225565b81101561375d578360018261370d91906151cf565b8154811061371e5761371d615117565b5b906000526020600020015484828154811061373c5761373b615117565b5b9060005260206000200181905550808061375590615312565b9150506136e7565b508280548061376f5761376e6156bd565b5b600190038181906000526020600020016000905590555b61379e565b808061379690615312565b915050613672565b506137a76123db565b60166000866011546137b99190615225565b815260200190815260200160002060006101000a81548173ffffffffffffffffffffffffffffffffffffffff021916908373ffffffffffffffffffffffffffffffffffffffff160217905550601760006138116123db565b73ffffffffffffffffffffffffffffffffffffffff1673ffffffffffffffffffffffffffffffffffffffff1681526020019081526020016000206000018460115461385c9190615225565b908060018154018082558091505060019003906000526020600020016000909190919091505550505050565b6000601360009054906101000a900473ffffffffffffffffffffffffffffffffffffffff1673ffffffffffffffffffffffffffffffffffffffff16638951764a6040518163ffffffff1660e01b8152600401600060405180830381865afa1580156138f7573d6000803e3d6000fd5b505050506040513d6000823e3d601f19601f820116820180604052508101906139209190615798565b90506000815190506000811115613a82576000670de0b6b3a76400008260065461394a91906152e1565b6139549190615175565b905060005b82811015613a7f578160106000601360009054906101000a900473ffffffffffffffffffffffffffffffffffffffff1673ffffffffffffffffffffffffffffffffffffffff16636352211e8886815181106139b7576139b6615117565b5b60200260200101516040518263ffffffff1660e01b81526004016139db9190614743565b602060405180830381865afa1580156139f8573d6000803e3d6000fd5b505050506040513d601f19601f82011682018060405250810190613a1c91906157f6565b73ffffffffffffffffffffffffffffffffffffffff1673ffffffffffffffffffffffffffffffffffffffff1681526020019081526020016000206000828254613a6591906151cf565b925050819055508080613a7790615312565b915050613959565b50505b5050565b6000601360009054906101000a900473ffffffffffffffffffffffffffffffffffffffff1673ffffffffffffffffffffffffffffffffffffffff166379b354116040518163ffffffff1660e01b8152600401600060405180830381865afa158015613af5573d6000803e3d6000fd5b505050506040513d6000823e3d601f19601f82011682018060405250810190613b1e91906158e6565b90506000815190506000811115613be5576000670de0b6b3a764000082600754613b4891906152e1565b613b529190615175565b905060005b82811015613be2578160106000868481518110613b7757613b76615117565b5b602002602001015173ffffffffffffffffffffffffffffffffffffffff1673ffffffffffffffffffffffffffffffffffffffff1681526020019081526020016000206000828254613bc891906151cf565b925050819055508080613bda90615312565b915050613b57565b50505b5050565b601260009054906101000a900473ffffffffffffffffffffffffffffffffffffffff1673ffffffffffffffffffffffffffffffffffffffff1663e16acb83613c2f6123db565b670de0b6b3a7640000600854613c459190615175565b6040518363ffffffff1660e01b8152600401613c629291906154f2565b6020604051808303816000875af1158015613c81573d6000803e3d6000fd5b505050506040513d601f19601f82011682018060405250810190613ca59190615285565b50565b600080601560008481526020019081526020016000206040518060600160405290816000820160009054906101000a900473ffffffffffffffffffffffffffffffffffffffff1673ffffffffffffffffffffffffffffffffffffffff1673ffffffffffffffffffffffffffffffffffffffff16815260200160018201805480602002602001604051908101604052809291908181526020018280548015613da457602002820191906000526020600020905b8160009054906101000a900473ffffffffffffffffffffffffffffffffffffffff1673ffffffffffffffffffffffffffffffffffffffff1681526020019060010190808311613d5a575b50505050508152602001600282015481525050905060008160400151905060005b81811015613e3e578573ffffffffffffffffffffffffffffffffffffffff1683602001518281518110613dfb57613dfa615117565b5b602002602001015173ffffffffffffffffffffffffffffffffffffffff161415613e2b5760019350505050613e46565b8080613e3690615312565b915050613dc5565b506000925050505b92915050565b6000601a60003373ffffffffffffffffffffffffffffffffffffffff1673ffffffffffffffffffffffffffffffffffffffff168152602001908152602001600020600101549050806000801b14613fa2576000601b600083815260200190815260200160002060009054906101000a900473ffffffffffffffffffffffffffffffffffffffff1690506107d0601f6000828254613ee99190615225565b925050819055506103e8601060003373ffffffffffffffffffffffffffffffffffffffff1673ffffffffffffffffffffffffffffffffffffffff1681526020019081526020016000206000828254613f4191906151cf565b925050819055506103e8601060008373ffffffffffffffffffffffffffffffffffffffff1673ffffffffffffffffffffffffffffffffffffffff1681526020019081526020016000206000828254613f9991906151cf565b92505081905550505b50565b600080613fb58360800151612a8b565b905082608001518360600151613fcb9190615175565b600080856000015173ffffffffffffffffffffffffffffffffffffffff1673ffffffffffffffffffffffffffffffffffffffff16815260200190815260200160002060008560400151848151811061402657614025615117565b5b602002602001015173ffffffffffffffffffffffffffffffffffffffff1673ffffffffffffffffffffffffffffffffffffffff168152602001908152602001600020600082825461407791906151cf565b925050819055506000836040015151905061041b601154101580156140ed5750601260009054906101000a900473ffffffffffffffffffffffffffffffffffffffff1673ffffffffffffffffffffffffffffffffffffffff16846000015173ffffffffffffffffffffffffffffffffffffffff16145b80156141075750600a816141019190615175565b600f5410155b801561411f5750678ac7230489e80000846060015110155b156142ae5760005b818110156142ac5760006014541461421257601260009054906101000a900473ffffffffffffffffffffffffffffffffffffffff1673ffffffffffffffffffffffffffffffffffffffff1663e16acb838660400151838151811061418e5761418d615117565b5b6020026020010151670de0b6b3a76400006014546141ac9190615175565b6040518363ffffffff1660e01b81526004016141c99291906154f2565b6020604051808303816000875af11580156141e8573d6000803e3d6000fd5b505050506040513d601f19601f8201168201806040525081019061420c9190615285565b50614288565b600a601060008760400151848151811061422f5761422e615117565b5b602002602001015173ffffffffffffffffffffffffffffffffffffffff1673ffffffffffffffffffffffffffffffffffffffff168152602001908152602001600020600082825461428091906151cf565b925050819055505b600a600f6000828254039250508190555080806142a490615312565b915050614127565b505b836040015182815181106142c5576142c4615117565b5b602002602001015192505050919050565b600033905090565b6000600160009054906101000a900473ffffffffffffffffffffffffffffffffffffffff16905081600160006101000a81548173ffffffffffffffffffffffffffffffffffffffff021916908373ffffffffffffffffffffffffffffffffffffffff1602179055508173ffffffffffffffffffffffffffffffffffffffff168173ffffffffffffffffffffffffffffffffffffffff167f8be0079c531659141344cd1fd0a4f28419497f9722a3daafe3b4186f6b6457e060405160405180910390a35050565b6040518060c00160405280600073ffffffffffffffffffffffffffffffffffffffff168152602001600073ffffffffffffffffffffffffffffffffffffffff168152602001606081526020016000815260200160008152602001600081525090565b6040518060600160405280600073ffffffffffffffffffffffffffffffffffffffff16815260200160608152602001600081525090565b604051806040016040528060608152602001600060ff1681525090565b6000604051905090565b600080fd5b600080fd5b600073ffffffffffffffffffffffffffffffffffffffff82169050919050565b60006144998261446e565b9050919050565b6144a98161448e565b81146144b457600080fd5b50565b6000813590506144c6816144a0565b92915050565b6000819050919050565b6144df816144cc565b81146144ea57600080fd5b50565b6000813590506144fc816144d6565b92915050565b6000806040838503121561451957614518614464565b5b6000614527858286016144b7565b9250506020614538858286016144ed565b9150509250929050565b60008115159050919050565b61455781614542565b82525050565b6000602082019050614572600083018461454e565b92915050565b600080fd5b600080fd5b6000601f19601f8301169050919050565b7f4e487b7100000000000000000000000000000000000000000000000000000000600052604160045260246000fd5b6145cb82614582565b810181811067ffffffffffffffff821117156145ea576145e9614593565b5b80604052505050565b60006145fd61445a565b905061460982826145c2565b919050565b600067ffffffffffffffff82111561462957614628614593565b5b61463282614582565b9050602081019050919050565b82818337600083830152505050565b600061466161465c8461460e565b6145f3565b90508281526020810184848401111561467d5761467c61457d565b5b61468884828561463f565b509392505050565b600082601f8301126146a5576146a4614578565b5b81356146b584826020860161464e565b91505092915050565b6000602082840312156146d4576146d3614464565b5b600082013567ffffffffffffffff8111156146f2576146f1614469565b5b6146fe84828501614690565b91505092915050565b60006020828403121561471d5761471c614464565b5b600061472b848285016144b7565b91505092915050565b61473d816144cc565b82525050565b60006020820190506147586000830184614734565b92915050565b60006020828403121561477457614773614464565b5b6000614782848285016144ed565b91505092915050565b60006147968261448e565b9050919050565b6147a68161478b565b81146147b157600080fd5b50565b6000813590506147c38161479d565b92915050565b6000602082840312156147df576147de614464565b5b60006147ed848285016147b4565b91505092915050565b6147ff8161448e565b82525050565b600060208201905061481a60008301846147f6565b92915050565b600061482b8261448e565b9050919050565b61483b81614820565b811461484657600080fd5b50565b60008135905061485881614832565b92915050565b6000806040838503121561487557614874614464565b5b600061488385828601614849565b9250506020614894858286016144ed565b9150509250929050565b6000819050919050565b60006148c36148be6148b98461446e565b61489e565b61446e565b9050919050565b60006148d5826148a8565b9050919050565b60006148e7826148ca565b9050919050565b6148f7816148dc565b82525050565b6149068161448e565b82525050565b600081519050919050565b600082825260208201905092915050565b6000819050602082019050919050565b600061494483836148fd565b60208301905092915050565b6000602082019050919050565b60006149688261490c565b6149728185614917565b935061497d83614928565b8060005b838110156149ae5781516149958882614938565b97506149a083614950565b925050600181019050614981565b5085935050505092915050565b6149c4816144cc565b82525050565b600060c0830160008301516149e260008601826148ee565b5060208301516149f560208601826148fd565b5060408301518482036040860152614a0d828261495d565b9150506060830151614a2260608601826149bb565b506080830151614a3560808601826149bb565b5060a0830151614a4860a08601826149bb565b508091505092915050565b60006020820190508181036000830152614a6d81846149ca565b905092915050565b600081519050919050565b600082825260208201905092915050565b6000819050602082019050919050565b6000614aad83836149bb565b60208301905092915050565b6000602082019050919050565b6000614ad182614a75565b614adb8185614a80565b9350614ae683614a91565b8060005b83811015614b17578151614afe8882614aa1565b9750614b0983614ab9565b925050600181019050614aea565b5085935050505092915050565b60006020820190508181036000830152614b3e8184614ac6565b905092915050565b600060208284031215614b5c57614b5b614464565b5b6000614b6a84828501614849565b91505092915050565b600067ffffffffffffffff821115614b8e57614b8d614593565b5b602082029050602081019050919050565b600080fd5b6000614bb7614bb284614b73565b6145f3565b90508083825260208201905060208402830185811115614bda57614bd9614b9f565b5b835b81811015614c035780614bef88826144ed565b845260208401935050602081019050614bdc565b5050509392505050565b600082601f830112614c2257614c21614578565b5b8135614c32848260208601614ba4565b91505092915050565b600060208284031215614c5157614c50614464565b5b600082013567ffffffffffffffff811115614c6f57614c6e614469565b5b614c7b84828501614c0d565b91505092915050565b6000606083016000830151614c9c60008601826148fd565b5060208301518482036020860152614cb4828261495d565b9150506040830151614cc960408601826149bb565b508091505092915050565b60006020820190508181036000830152614cee8184614c84565b905092915050565b6000614d018261448e565b9050919050565b614d1181614cf6565b8114614d1c57600080fd5b50565b600081359050614d2e81614d08565b92915050565b600060208284031215614d4a57614d49614464565b5b6000614d5884828501614d1f565b91505092915050565b60008060408385031215614d7857614d77614464565b5b6000614d8685828601614849565b9250506020614d97858286016144b7565b9150509250929050565b600080600060608486031215614dba57614db9614464565b5b6000614dc886828701614849565b9350506020614dd9868287016144ed565b9250506040614dea868287016144ed565b9150509250925092565b600080600060608486031215614e0d57614e0c614464565b5b6000614e1b868287016144b7565b9350506020614e2c868287016144b7565b9250506040614e3d868287016144ed565b9150509250925092565b600082825260208201905092915050565b6000614e6382614a75565b614e6d8185614e47565b9350614e7883614a91565b8060005b83811015614ea9578151614e908882614aa1565b9750614e9b83614ab9565b925050600181019050614e7c565b5085935050505092915050565b600060ff82169050919050565b614ecc81614eb6565b82525050565b60006040830160008301518482036000860152614eef8282614e58565b9150506020830151614f046020860182614ec3565b508091505092915050565b60006020820190508181036000830152614f298184614ed2565b905092915050565b600081519050919050565b600081905092915050565b60005b83811015614f65578082015181840152602081019050614f4a565b83811115614f74576000848401525b50505050565b6000614f8582614f31565b614f8f8185614f3c565b9350614f9f818560208601614f47565b80840191505092915050565b6000614fb78284614f7a565b915081905092915050565b600082825260208201905092915050565b7f74766f7900000000000000000000000000000000000000000000000000000000600082015250565b6000615009600483614fc2565b915061501482614fd3565b602082019050919050565b6000602082019050818103600083015261503881614ffc565b9050919050565b7f796a650000000000000000000000000000000000000000000000000000000000600082015250565b6000615075600383614fc2565b91506150808261503f565b602082019050919050565b600060208201905081810360008301526150a481615068565b9050919050565b7f6e65206368656900000000000000000000000000000000000000000000000000600082015250565b60006150e1600783614fc2565b91506150ec826150ab565b602082019050919050565b60006020820190508181036000830152615110816150d4565b9050919050565b7f4e487b7100000000000000000000000000000000000000000000000000000000600052603260045260246000fd5b7f4e487b7100000000000000000000000000000000000000000000000000000000600052601160045260246000fd5b6000615180826144cc565b915061518b836144cc565b9250817fffffffffffffffffffffffffffffffffffffffffffffffffffffffffffffffff04831182151516156151c4576151c3615146565b5b828202905092915050565b60006151da826144cc565b91506151e5836144cc565b9250827fffffffffffffffffffffffffffffffffffffffffffffffffffffffffffffffff0382111561521a57615219615146565b5b828201905092915050565b6000615230826144cc565b915061523b836144cc565b92508282101561524e5761524d615146565b5b828203905092915050565b61526281614542565b811461526d57600080fd5b50565b60008151905061527f81615259565b92915050565b60006020828403121561529b5761529a614464565b5b60006152a984828501615270565b91505092915050565b7f4e487b7100000000000000000000000000000000000000000000000000000000600052601260045260246000fd5b60006152ec826144cc565b91506152f7836144cc565b925082615307576153066152b2565b5b828204905092915050565b600061531d826144cc565b91507fffffffffffffffffffffffffffffffffffffffffffffffffffffffffffffffff8214156153505761534f615146565b5b600182019050919050565b60006040820190506153706000830185614734565b61537d60208301846147f6565b9392505050565b7f6e6f20616c6c6f77000000000000000000000000000000000000000000000000600082015250565b60006153ba600883614fc2565b91506153c582615384565b602082019050919050565b600060208201905081810360008301526153e9816153ad565b9050919050565b60006153fb826144cc565b9150600082141561540f5761540e615146565b5b600182039050919050565b7f4f776e61626c653a2063616c6c6572206973206e6f7420746865206f776e6572600082015250565b6000615450602083614fc2565b915061545b8261541a565b602082019050919050565b6000602082019050818103600083015261547f81615443565b9050919050565b7f6578697374000000000000000000000000000000000000000000000000000000600082015250565b60006154bc600583614fc2565b91506154c782615486565b602082019050919050565b600060208201905081810360008301526154eb816154af565b9050919050565b600060408201905061550760008301856147f6565b6155146020830184614734565b9392505050565b600060608201905061553060008301866147f6565b61553d60208301856147f6565b61554a6040830184614734565b949350505050565b7f6e6f7420656e6f75677468206d6f6e6579000000000000000000000000000000600082015250565b6000615588601183614fc2565b915061559382615552565b602082019050919050565b600060208201905081810360008301526155b78161557b565b9050919050565b6000819050919050565b6155d96155d4826144cc565b6155be565b82525050565b60006155eb82846155c8565b60208201915081905092915050565b6000615605826144cc565b9150615610836144cc565b9250826156205761561f6152b2565b5b828206905092915050565b7f4f776e61626c653a206e6577206f776e657220697320746865207a65726f206160008201527f6464726573730000000000000000000000000000000000000000000000000000602082015250565b6000615687602683614fc2565b91506156928261562b565b604082019050919050565b600060208201905081810360008301526156b68161567a565b9050919050565b7f4e487b7100000000000000000000000000000000000000000000000000000000600052603160045260246000fd5b6000815190506156fb816144d6565b92915050565b600061571461570f84614b73565b6145f3565b9050808382526020820190506020840283018581111561573757615736614b9f565b5b835b81811015615760578061574c88826156ec565b845260208401935050602081019050615739565b5050509392505050565b600082601f83011261577f5761577e614578565b5b815161578f848260208601615701565b91505092915050565b6000602082840312156157ae576157ad614464565b5b600082015167ffffffffffffffff8111156157cc576157cb614469565b5b6157d88482850161576a565b91505092915050565b6000815190506157f0816144a0565b92915050565b60006020828403121561580c5761580b614464565b5b600061581a848285016157e1565b91505092915050565b600067ffffffffffffffff82111561583e5761583d614593565b5b602082029050602081019050919050565b600061586261585d84615823565b6145f3565b9050808382526020820190506020840283018581111561588557615884614b9f565b5b835b818110156158ae578061589a88826157e1565b845260208401935050602081019050615887565b5050509392505050565b600082601f8301126158cd576158cc614578565b5b81516158dd84826020860161584f565b91505092915050565b6000602082840312156158fc576158fb614464565b5b600082015167ffffffffffffffff81111561591a57615919614469565b5b615926848285016158b8565b9150509291505056fea26469706673582212208faa3827ae4748e3fb7690a5c028120c293ea9fd51888689def0e0ffd6e912fa64736f6c634300080b0033",
  "linkReferences": {},
  "deployedLinkReferences": {}
}