{
  "_format": "hh-sol-artifact-1",
  "contractName": "Lottery",
  "sourceName": "contracts/Lottery.sol",
  "abi": [
    {
      "inputs": [
        {
          "internalType": "bytes32",
          "name": "Hash",
          "type": "bytes32"
        }
      ],
      "stateMutability": "nonpayable",
      "type": "constructor"
    },
    {
      "anonymous": false,
      "inputs": [
        {
          "indexed": true,
          "internalType": "address",
          "name": "previousOwner",
          "type": "address"
        },
        {
          "indexed": true,
          "internalType": "address",
          "name": "newOwner",
          "type": "address"
        }
      ],
      "name": "OwnershipTransferred",
      "type": "event"
    },
    {
      "anonymous": false,
      "inputs": [
        {
          "indexed": false,
          "internalType": "address",
          "name": "user",
          "type": "address"
        }
      ],
      "name": "enter",
      "type": "event"
    },
    {
      "anonymous": false,
      "inputs": [
        {
          "indexed": true,
          "internalType": "address",
          "name": "user",
          "type": "address"
        },
        {
          "indexed": false,
          "internalType": "address",
          "name": "creator",
          "type": "address"
        },
        {
          "indexed": false,
          "internalType": "uint256",
          "name": "lobbyId",
          "type": "uint256"
        },
        {
          "components": [
            {
              "internalType": "contract IERC20",
              "name": "token",
              "type": "address"
            },
            {
              "internalType": "address",
              "name": "winer",
              "type": "address"
            },
            {
              "internalType": "address[]",
              "name": "players",
              "type": "address[]"
            },
            {
              "internalType": "uint256",
              "name": "deposit",
              "type": "uint256"
            },
            {
              "internalType": "uint256",
              "name": "countOfPlayers",
              "type": "uint256"
            },
            {
              "internalType": "uint256",
              "name": "nowInLobby",
              "type": "uint256"
            }
          ],
          "indexed": false,
          "internalType": "struct Lobby.lobbyShablon",
          "name": "",
          "type": "tuple"
        },
        {
          "indexed": false,
          "internalType": "uint256",
          "name": "",
          "type": "uint256"
        }
      ],
      "name": "enterLobby",
      "type": "event"
    },
    {
      "anonymous": false,
      "inputs": [
        {
          "indexed": false,
          "internalType": "address",
          "name": "genius",
          "type": "address"
        },
        {
          "indexed": false,
          "internalType": "string",
          "name": "_string",
          "type": "string"
        }
      ],
      "name": "mistery",
      "type": "event"
    },
    {
      "anonymous": false,
      "inputs": [
        {
          "indexed": false,
          "internalType": "address",
          "name": "",
          "type": "address"
        },
        {
          "indexed": false,
          "internalType": "uint256",
          "name": "",
          "type": "uint256"
        },
        {
          "components": [
            {
              "internalType": "contract IERC20",
              "name": "token",
              "type": "address"
            },
            {
              "internalType": "address",
              "name": "winer",
              "type": "address"
            },
            {
              "internalType": "address[]",
              "name": "players",
              "type": "address[]"
            },
            {
              "internalType": "uint256",
              "name": "deposit",
              "type": "uint256"
            },
            {
              "internalType": "uint256",
              "name": "countOfPlayers",
              "type": "uint256"
            },
            {
              "internalType": "uint256",
              "name": "nowInLobby",
              "type": "uint256"
            }
          ],
          "indexed": false,
          "internalType": "struct Lobby.lobbyShablon",
          "name": "",
          "type": "tuple"
        },
        {
          "indexed": false,
          "internalType": "uint256",
          "name": "",
          "type": "uint256"
        }
      ],
      "name": "newLobby",
      "type": "event"
    },
    {
      "anonymous": false,
      "inputs": [
        {
          "indexed": false,
          "internalType": "uint256",
          "name": "id",
          "type": "uint256"
        },
        {
          "indexed": false,
          "internalType": "address",
          "name": "winer",
          "type": "address"
        }
      ],
      "name": "play",
      "type": "event"
    },
    {
      "anonymous": false,
      "inputs": [
        {
          "indexed": true,
          "internalType": "address",
          "name": "winner",
          "type": "address"
        },
        {
          "indexed": false,
          "internalType": "address",
          "name": "creator",
          "type": "address"
        },
        {
          "indexed": false,
          "internalType": "uint256",
          "name": "lobbyId",
          "type": "uint256"
        },
        {
          "components": [
            {
              "internalType": "contract IERC20",
              "name": "token",
              "type": "address"
            },
            {
              "internalType": "address",
              "name": "winer",
              "type": "address"
            },
            {
              "internalType": "address[]",
              "name": "players",
              "type": "address[]"
            },
            {
              "internalType": "uint256",
              "name": "deposit",
              "type": "uint256"
            },
            {
              "internalType": "uint256",
              "name": "countOfPlayers",
              "type": "uint256"
            },
            {
              "internalType": "uint256",
              "name": "nowInLobby",
              "type": "uint256"
            }
          ],
          "indexed": false,
          "internalType": "struct Lobby.lobbyShablon",
          "name": "",
          "type": "tuple"
        },
        {
          "indexed": false,
          "internalType": "uint256",
          "name": "",
          "type": "uint256"
        }
      ],
      "name": "playLobby",
      "type": "event"
    },
    {
      "inputs": [
        {
          "internalType": "address",
          "name": "lobbyCreator",
          "type": "address"
        },
        {
          "internalType": "uint256",
          "name": "lobbyId",
          "type": "uint256"
        }
      ],
      "name": "EnterLobby",
      "outputs": [],
      "stateMutability": "payable",
      "type": "function"
    },
    {
      "inputs": [],
      "name": "Play",
      "outputs": [],
      "stateMutability": "nonpayable",
      "type": "function"
    },
    {
      "inputs": [
        {
          "internalType": "contract IERC20",
          "name": "tokenAddress",
          "type": "address"
        },
        {
          "internalType": "uint256",
          "name": "value",
          "type": "uint256"
        }
      ],
      "name": "Withdrow",
      "outputs": [],
      "stateMutability": "nonpayable",
      "type": "function"
    },
    {
      "inputs": [
        {
          "internalType": "address",
          "name": "addres",
          "type": "address"
        }
      ],
      "name": "_allowToNFT",
      "outputs": [
        {
          "components": [
            {
              "internalType": "uint256[]",
              "name": "lotteryes",
              "type": "uint256[]"
            },
            {
              "internalType": "uint8",
              "name": "dont_use",
              "type": "uint8"
            }
          ],
          "internalType": "struct Lottery.wins",
          "name": "",
          "type": "tuple"
        }
      ],
      "stateMutability": "view",
      "type": "function"
    },
    {
      "inputs": [
        {
          "internalType": "address",
          "name": "a",
          "type": "address"
        },
        {
          "internalType": "uint256",
          "name": "TokenId",
          "type": "uint256"
        }
      ],
      "name": "_findAddressInfirst1000Winers",
      "outputs": [
        {
          "internalType": "bool",
          "name": "",
          "type": "bool"
        }
      ],
      "stateMutability": "view",
      "type": "function"
    },
    {
      "inputs": [
        {
          "internalType": "uint256[]",
          "name": "_lotteryes",
          "type": "uint256[]"
        }
      ],
      "name": "addToAutoEnter",
      "outputs": [],
      "stateMutability": "nonpayable",
      "type": "function"
    },
    {
      "inputs": [
        {
          "internalType": "contract IERC20",
          "name": "tokenAddress",
          "type": "address"
        },
        {
          "internalType": "uint256",
          "name": "deposit",
          "type": "uint256"
        }
      ],
      "name": "addTokensToBalance",
      "outputs": [],
      "stateMutability": "nonpayable",
      "type": "function"
    },
    {
      "inputs": [
        {
          "internalType": "uint256",
          "name": "TokenId",
          "type": "uint256"
        }
      ],
      "name": "allowToNFT",
      "outputs": [
        {
          "internalType": "address",
          "name": "",
          "type": "address"
        }
      ],
      "stateMutability": "view",
      "type": "function"
    },
    {
      "inputs": [
        {
          "internalType": "contract IERC20",
          "name": "tokenAddress",
          "type": "address"
        },
        {
          "internalType": "uint256",
          "name": "deposit",
          "type": "uint256"
        },
        {
          "internalType": "uint256",
          "name": "countOfPlayers",
          "type": "uint256"
        }
      ],
      "name": "createNewLobby",
      "outputs": [],
      "stateMutability": "payable",
      "type": "function"
    },
    {
      "inputs": [
        {
          "internalType": "address",
          "name": "msgsender",
          "type": "address"
        },
        {
          "internalType": "address",
          "name": "lobbyCreator",
          "type": "address"
        },
        {
          "internalType": "uint256",
          "name": "lobbyId",
          "type": "uint256"
        }
      ],
      "name": "findPlayerInLobby",
      "outputs": [
        {
          "internalType": "bool",
          "name": "",
          "type": "bool"
        }
      ],
      "stateMutability": "view",
      "type": "function"
    },
    {
      "inputs": [
        {
          "internalType": "address",
          "name": "a",
          "type": "address"
        }
      ],
      "name": "getAutoEnter",
      "outputs": [
        {
          "internalType": "uint256[]",
          "name": "",
          "type": "uint256[]"
        }
      ],
      "stateMutability": "view",
      "type": "function"
    },
    {
      "inputs": [
        {
          "internalType": "contract IERC20",
          "name": "tokenAddress",
          "type": "address"
        },
        {
          "internalType": "address",
          "name": "a",
          "type": "address"
        }
      ],
      "name": "getBalance",
      "outputs": [
        {
          "internalType": "uint256",
          "name": "",
          "type": "uint256"
        }
      ],
      "stateMutability": "view",
      "type": "function"
    },
    {
      "inputs": [],
      "name": "getHEEP",
      "outputs": [
        {
          "internalType": "uint256",
          "name": "",
          "type": "uint256"
        }
      ],
      "stateMutability": "view",
      "type": "function"
    },
    {
      "inputs": [
        {
          "internalType": "address",
          "name": "creator",
          "type": "address"
        },
        {
          "internalType": "uint256",
          "name": "lobbyid",
          "type": "uint256"
        }
      ],
      "name": "getLobby",
      "outputs": [
        {
          "components": [
            {
              "internalType": "contract IERC20",
              "name": "token",
              "type": "address"
            },
            {
              "internalType": "address",
              "name": "winer",
              "type": "address"
            },
            {
              "internalType": "address[]",
              "name": "players",
              "type": "address[]"
            },
            {
              "internalType": "uint256",
              "name": "deposit",
              "type": "uint256"
            },
            {
              "internalType": "uint256",
              "name": "countOfPlayers",
              "type": "uint256"
            },
            {
              "internalType": "uint256",
              "name": "nowInLobby",
              "type": "uint256"
            }
          ],
          "internalType": "struct Lobby.lobbyShablon",
          "name": "",
          "type": "tuple"
        }
      ],
      "stateMutability": "view",
      "type": "function"
    },
    {
      "inputs": [],
      "name": "getLotteryCount",
      "outputs": [
        {
          "internalType": "uint256",
          "name": "",
          "type": "uint256"
        }
      ],
      "stateMutability": "view",
      "type": "function"
    },
    {
      "inputs": [
        {
          "internalType": "uint256",
          "name": "lotteryId",
          "type": "uint256"
        }
      ],
      "name": "getLotteryShablonByIndex",
      "outputs": [
        {
          "components": [
            {
              "internalType": "address",
              "name": "winer",
              "type": "address"
            },
            {
              "internalType": "address[]",
              "name": "players",
              "type": "address[]"
            },
            {
              "internalType": "uint256",
              "name": "playersCount",
              "type": "uint256"
            }
          ],
          "internalType": "struct Lottery.LotteryShablon",
          "name": "",
          "type": "tuple"
        }
      ],
      "stateMutability": "view",
      "type": "function"
    },
    {
      "inputs": [
        {
          "internalType": "string",
          "name": "a",
          "type": "string"
        }
      ],
      "name": "getPromSetReverse",
      "outputs": [
        {
          "internalType": "address",
          "name": "",
          "type": "address"
        }
      ],
      "stateMutability": "view",
      "type": "function"
    },
    {
      "inputs": [],
      "name": "getREVARD_REF_ALLOW",
      "outputs": [
        {
          "internalType": "uint256",
          "name": "",
          "type": "uint256"
        }
      ],
      "stateMutability": "view",
      "type": "function"
    },
    {
      "inputs": [
        {
          "internalType": "uint256",
          "name": "_playersCount",
          "type": "uint256"
        }
      ],
      "name": "getRandNumber",
      "outputs": [
        {
          "internalType": "uint256",
          "name": "",
          "type": "uint256"
        }
      ],
      "stateMutability": "view",
      "type": "function"
    },
    {
      "inputs": [],
      "name": "getTokenForLottery",
      "outputs": [
        {
          "internalType": "address",
          "name": "",
          "type": "address"
        }
      ],
      "stateMutability": "view",
      "type": "function"
    },
    {
      "inputs": [
        {
          "internalType": "address",
          "name": "a",
          "type": "address"
        }
      ],
      "name": "getcountOfLotteryEnter",
      "outputs": [
        {
          "internalType": "uint256",
          "name": "",
          "type": "uint256"
        }
      ],
      "stateMutability": "view",
      "type": "function"
    },
    {
      "inputs": [
        {
          "internalType": "address",
          "name": "_address",
          "type": "address"
        }
      ],
      "name": "getlobbyCountForAddress",
      "outputs": [
        {
          "internalType": "uint256",
          "name": "",
          "type": "uint256"
        }
      ],
      "stateMutability": "view",
      "type": "function"
    },
    {
      "inputs": [
        {
          "internalType": "address",
          "name": "_address",
          "type": "address"
        }
      ],
      "name": "getlobbyCountForAddressHistory",
      "outputs": [
        {
          "internalType": "uint256",
          "name": "",
          "type": "uint256"
        }
      ],
      "stateMutability": "view",
      "type": "function"
    },
    {
      "inputs": [
        {
          "internalType": "address",
          "name": "a",
          "type": "address"
        }
      ],
      "name": "getshouldRevard",
      "outputs": [
        {
          "internalType": "uint256",
          "name": "",
          "type": "uint256"
        }
      ],
      "stateMutability": "view",
      "type": "function"
    },
    {
      "inputs": [],
      "name": "owner",
      "outputs": [
        {
          "internalType": "address",
          "name": "",
          "type": "address"
        }
      ],
      "stateMutability": "view",
      "type": "function"
    },
    {
      "inputs": [],
      "name": "receiveRevard",
      "outputs": [],
      "stateMutability": "nonpayable",
      "type": "function"
    },
    {
      "inputs": [],
      "name": "renounceOwnership",
      "outputs": [],
      "stateMutability": "nonpayable",
      "type": "function"
    },
    {
      "inputs": [
        {
          "internalType": "contract ERC721with",
          "name": "token",
          "type": "address"
        }
      ],
      "name": "setAdrressNFT",
      "outputs": [],
      "stateMutability": "nonpayable",
      "type": "function"
    },
    {
      "inputs": [
        {
          "internalType": "uint256",
          "name": "value",
          "type": "uint256"
        }
      ],
      "name": "setAutoMint",
      "outputs": [],
      "stateMutability": "nonpayable",
      "type": "function"
    },
    {
      "inputs": [
        {
          "internalType": "address",
          "name": "a",
          "type": "address"
        }
      ],
      "name": "setAutotask",
      "outputs": [],
      "stateMutability": "nonpayable",
      "type": "function"
    },
    {
      "inputs": [
        {
          "internalType": "uint256",
          "name": "_deposit",
          "type": "uint256"
        }
      ],
      "name": "setDeposit",
      "outputs": [],
      "stateMutability": "nonpayable",
      "type": "function"
    },
    {
      "inputs": [
        {
          "internalType": "contract MUD",
          "name": "a",
          "type": "address"
        }
      ],
      "name": "setMUD",
      "outputs": [],
      "stateMutability": "nonpayable",
      "type": "function"
    },
    {
      "inputs": [
        {
          "internalType": "string",
          "name": "a",
          "type": "string"
        }
      ],
      "name": "setPromInput",
      "outputs": [],
      "stateMutability": "nonpayable",
      "type": "function"
    },
    {
      "inputs": [
        {
          "internalType": "string",
          "name": "a",
          "type": "string"
        }
      ],
      "name": "setPromSet",
      "outputs": [],
      "stateMutability": "nonpayable",
      "type": "function"
    },
    {
      "inputs": [
        {
          "internalType": "contract IERC20",
          "name": "_tokenForLottery",
          "type": "address"
        }
      ],
      "name": "setTokenForLottery",
      "outputs": [],
      "stateMutability": "nonpayable",
      "type": "function"
    },
    {
      "inputs": [
        {
          "internalType": "uint256",
          "name": "value",
          "type": "uint256"
        }
      ],
      "name": "setVALUE",
      "outputs": [],
      "stateMutability": "nonpayable",
      "type": "function"
    },
    {
      "inputs": [
        {
          "internalType": "address",
          "name": "newOwner",
          "type": "address"
        }
      ],
      "name": "transferOwnership",
      "outputs": [],
      "stateMutability": "nonpayable",
      "type": "function"
    },
    {
      "inputs": [
        {
          "internalType": "string",
          "name": "_string",
          "type": "string"
        }
      ],
      "name": "tryMistery",
      "outputs": [],
      "stateMutability": "nonpayable",
      "type": "function"
    }
  ],
  "bytecode": "0x60a0604052633b9aca00600555600860646005546200001f9190620002e2565b6200002b91906200031a565b60065560116064600554620000419190620002e2565b6200004d91906200031a565b600755600d6064600554620000639190620002e2565b6200006f91906200031a565b600855601e6064600554620000859190620002e2565b6200009191906200031a565b600955600a6064600554620000a79190620002e2565b620000b391906200031a565b600a5560156064600554620000c99190620002e2565b620000d591906200031a565b600b5560016064600554620000eb9190620002e2565b620000f791906200031a565b600c556000600d556103e8600a54620001119190620002e2565b600e556103e8600954620001269190620002e2565b600f55600f546010556001601255662386f26fc100006013556000601655600b546022553480156200015757600080fd5b50604051620062a8380380620062a883398181016040528101906200017d9190620003bb565b6200019d62000191620001ac60201b60201c565b620001b460201b60201c565b806080818152505050620003ed565b600033905090565b6000600160009054906101000a900473ffffffffffffffffffffffffffffffffffffffff16905081600160006101000a81548173ffffffffffffffffffffffffffffffffffffffff021916908373ffffffffffffffffffffffffffffffffffffffff1602179055508173ffffffffffffffffffffffffffffffffffffffff168173ffffffffffffffffffffffffffffffffffffffff167f8be0079c531659141344cd1fd0a4f28419497f9722a3daafe3b4186f6b6457e060405160405180910390a35050565b6000819050919050565b7f4e487b7100000000000000000000000000000000000000000000000000000000600052601260045260246000fd5b7f4e487b7100000000000000000000000000000000000000000000000000000000600052601160045260246000fd5b6000620002ef826200027a565b9150620002fc836200027a565b9250826200030f576200030e62000284565b5b828204905092915050565b600062000327826200027a565b915062000334836200027a565b9250817fffffffffffffffffffffffffffffffffffffffffffffffffffffffffffffffff048311821515161562000370576200036f620002b3565b5b828202905092915050565b600080fd5b6000819050919050565b620003958162000380565b8114620003a157600080fd5b50565b600081519050620003b5816200038a565b92915050565b600060208284031215620003d457620003d36200037b565b5b6000620003e484828501620003a4565b91505092915050565b608051615e9f6200040960003960006124a50152615e9f6000f3fe6080604052600436106102255760003560e01c806383a365ca11610123578063cfd717da116100ab578063e9858a581161006f578063e9858a581461081b578063e9ed357614610858578063f2fde38b14610883578063f5bade66146108ac578063fb9c00c8146108d557610225565b8063cfd717da14610733578063d4fac45d1461075c578063df20781714610799578063e1f97dd2146107c2578063e8844e76146107de57610225565b8063a7421d81116100f2578063a7421d811461062a578063aa78dda114610653578063bd24435b1461067c578063c7766cc4146106b9578063cd8f98e8146106f657610225565b806383a365ca146105705780638da5cb5b14610599578063a41c63e2146105c4578063a53aa0ac146105ed57610225565b80634137fc64116101b157806361a4c7511161017557806361a4c7511461049f5780636d12dce4146104c8578063715018a6146105055780637f4d86d71461051c57806381e1e4b11461053357610225565b80634137fc64146103ba57806346254c3a146103e357806347d9833d1461040e57806357b526fc1461043957806358a10e871461047657610225565b80631c64f010116101f85780631c64f010146102e457806325876ddf1461032157806325c3a9071461033d57806329a4a281146103665780632f9aa1fe1461038f57610225565b806304b675ae1461022a578063053e3b45146102675780630e2dce69146102905780631881cc03146102a7575b600080fd5b34801561023657600080fd5b50610251600480360381019061024c9190614710565b610912565b60405161025e919061476b565b60405180910390f35b34801561027357600080fd5b5061028e600480360381019061028991906148cc565b61098f565b005b34801561029c57600080fd5b506102a5610c1d565b005b3480156102b357600080fd5b506102ce60048036038101906102c99190614915565b6112cf565b6040516102db9190614951565b60405180910390f35b3480156102f057600080fd5b5061030b60048036038101906103069190614915565b611318565b6040516103189190614951565b60405180910390f35b61033b60048036038101906103369190614710565b611361565b005b34801561034957600080fd5b50610364600480360381019061035f919061496c565b6118f5565b005b34801561037257600080fd5b5061038d600480360381019061038891906149d7565b61197b565b005b34801561039b57600080fd5b506103a4611a3b565b6040516103b19190614951565b60405180910390f35b3480156103c657600080fd5b506103e160048036038101906103dc91906148cc565b611a45565b005b3480156103ef57600080fd5b506103f8611c00565b6040516104059190614a13565b60405180910390f35b34801561041a57600080fd5b50610423611c2a565b6040516104309190614951565b60405180910390f35b34801561044557600080fd5b50610460600480360381019061045b9190614915565b611c34565b60405161046d9190614951565b60405180910390f35b34801561048257600080fd5b5061049d60048036038101906104989190614915565b611c7d565b005b3480156104ab57600080fd5b506104c660048036038101906104c19190614a6c565b611d3d565b005b3480156104d457600080fd5b506104ef60048036038101906104ea9190614710565b611ee2565b6040516104fc9190614c61565b60405180910390f35b34801561051157600080fd5b5061051a6120a5565b005b34801561052857600080fd5b5061053161212d565b005b34801561053f57600080fd5b5061055a60048036038101906105559190614915565b6122ca565b6040516105679190614d32565b60405180910390f35b34801561057c57600080fd5b50610597600480360381019061059291906148cc565b612364565b005b3480156105a557600080fd5b506105ae612567565b6040516105bb9190614a13565b60405180910390f35b3480156105d057600080fd5b506105eb60048036038101906105e69190614a6c565b612591565b005b3480156105f957600080fd5b50610614600480360381019061060f9190614915565b6126b6565b6040516106219190614951565b60405180910390f35b34801561063657600080fd5b50610651600480360381019061064c9190614d54565b6126ff565b005b34801561065f57600080fd5b5061067a60048036038101906106759190614e49565b6127bf565b005b34801561068857600080fd5b506106a3600480360381019061069e919061496c565b612c17565b6040516106b09190614951565b60405180910390f35b3480156106c557600080fd5b506106e060048036038101906106db91906148cc565b612c66565b6040516106ed9190614a13565b60405180910390f35b34801561070257600080fd5b5061071d6004803603810190610718919061496c565b612cce565b60405161072a9190614ee2565b60405180910390f35b34801561073f57600080fd5b5061075a60048036038101906107559190614f42565b612de9565b005b34801561076857600080fd5b50610783600480360381019061077e9190614f6f565b612ea9565b6040516107909190614951565b60405180910390f35b3480156107a557600080fd5b506107c060048036038101906107bb919061496c565b612f2f565b005b6107dc60048036038101906107d79190614faf565b612fb5565b005b3480156107ea57600080fd5b5061080560048036038101906108009190615002565b613393565b604051610812919061476b565b60405180910390f35b34801561082757600080fd5b50610842600480360381019061083d919061496c565b61354f565b60405161084f9190614a13565b60405180910390f35b34801561086457600080fd5b5061086d61358c565b60405161087a9190614951565b60405180910390f35b34801561088f57600080fd5b506108aa60048036038101906108a59190614915565b613596565b005b3480156108b857600080fd5b506108d360048036038101906108ce919061496c565b61368e565b005b3480156108e157600080fd5b506108fc60048036038101906108f79190614915565b613714565b604051610909919061511d565b60405180910390f35b60008273ffffffffffffffffffffffffffffffffffffffff166018600084815260200190815260200160002060009054906101000a900473ffffffffffffffffffffffffffffffffffffffff1673ffffffffffffffffffffffffffffffffffffffff1614156109845760019050610989565b600090505b92915050565b6000816040516020016109a291906151b9565b6040516020818303038152906040528051906020012090503373ffffffffffffffffffffffffffffffffffffffff16601d600083815260200190815260200160002060009054906101000a900473ffffffffffffffffffffffffffffffffffffffff1673ffffffffffffffffffffffffffffffffffffffff161415610a5c576040517f08c379a0000000000000000000000000000000000000000000000000000000008152600401610a539061522d565b60405180910390fd5b6000801b601c60003373ffffffffffffffffffffffffffffffffffffffff1673ffffffffffffffffffffffffffffffffffffffff1681526020019081526020016000206001015414610ae3576040517f08c379a0000000000000000000000000000000000000000000000000000000008152600401610ada90615299565b60405180910390fd5b600073ffffffffffffffffffffffffffffffffffffffff16601d600083815260200190815260200160002060009054906101000a900473ffffffffffffffffffffffffffffffffffffffff1673ffffffffffffffffffffffffffffffffffffffff161415610b86576040517f08c379a0000000000000000000000000000000000000000000000000000000008152600401610b7d90615305565b60405180910390fd5b6000601b60003373ffffffffffffffffffffffffffffffffffffffff1673ffffffffffffffffffffffffffffffffffffffff1681526020019081526020016000205414610bd257600080fd5b80601c60003373ffffffffffffffffffffffffffffffffffffffff1673ffffffffffffffffffffffffffffffffffffffff168152602001908152602001600020600101819055505050565b610c25612567565b73ffffffffffffffffffffffffffffffffffffffff163373ffffffffffffffffffffffffffffffffffffffff161480610cab5750602160009054906101000a900473ffffffffffffffffffffffffffffffffffffffff1673ffffffffffffffffffffffffffffffffffffffff163373ffffffffffffffffffffffffffffffffffffffff16145b610cb457600080fd5b600080601760006012548152602001908152602001600020600201541415610ce557610cde612567565b9050610d63565b6000610d0860176000601254815260200190815260200160002060020154612c17565b90506017600060125481526020019081526020016000206001018181548110610d3457610d33615325565b5b9060005260206000200160009054906101000a900473ffffffffffffffffffffffffffffffffffffffff169150505b6103e860125411610e2e578060186000601254815260200190815260200160002060006101000a81548173ffffffffffffffffffffffffffffffffffffffff021916908373ffffffffffffffffffffffffffffffffffffffff160217905550601960008273ffffffffffffffffffffffffffffffffffffffff1673ffffffffffffffffffffffffffffffffffffffff16815260200190815260200160002060000160125490806001815401808255809150506001900390600052602060002001600090919091909150555b60176000601254815260200190815260200160002060020154601f54610e549190615383565b600080602060009054906101000a900473ffffffffffffffffffffffffffffffffffffffff1673ffffffffffffffffffffffffffffffffffffffff1673ffffffffffffffffffffffffffffffffffffffff16815260200190815260200160002060008373ffffffffffffffffffffffffffffffffffffffff1673ffffffffffffffffffffffffffffffffffffffff1681526020019081526020016000206000828254610f0091906153dd565b925050819055508060176000601254815260200190815260200160002060000160006101000a81548173ffffffffffffffffffffffffffffffffffffffff021916908373ffffffffffffffffffffffffffffffffffffffff160217905550603360125410158015610f74575061041b601254105b80156110275750601560009054906101000a900473ffffffffffffffffffffffffffffffffffffffff1673ffffffffffffffffffffffffffffffffffffffff1663e472f1356032601254610fc89190615433565b6040518263ffffffff1660e01b8152600401610fe49190614951565b602060405180830381865afa158015611001573d6000803e3d6000fd5b505050506040513d601f19601f820116820180604052508101906110259190615493565b155b15611035576110346137e2565b5b61041b6012541015801561104c5750610803601254105b156111e25760006017600060125481526020019081526020016000206001018054806020026020016040519081016040528092919081815260200182805480156110eb57602002820191906000526020600020905b8160009054906101000a900473ffffffffffffffffffffffffffffffffffffffff1673ffffffffffffffffffffffffffffffffffffffff16815260200190600101908083116110a1575b5050505050905060008151905060008111801561111c575080670de0b6b3a7640000600e5461111a9190615383565b115b156111c457600081600e5461113191906154ef565b905060005b828110156111c157816011600086848151811061115657611155615325565b5b602002602001015173ffffffffffffffffffffffffffffffffffffffff1673ffffffffffffffffffffffffffffffffffffffff16815260200190815260200160002060008282546111a791906153dd565b9250508190555080806111b990615520565b915050611136565b50505b600f54601060008282546111d891906153dd565b9250508190555050505b61041a6012541415611279576111f6613a95565b6111fe613c93565b611206613df6565b601460009054906101000a900473ffffffffffffffffffffffffffffffffffffffff16602060006101000a81548173ffffffffffffffffffffffffffffffffffffffff021916908373ffffffffffffffffffffffffffffffffffffffff160217905550678ac7230489e80000601f819055505b7f31f8e0596bf7a98088824238285005ef74dd9359831490f63215e44147279bd3601254826040516112ac929190615569565b60405180910390a1601260008154809291906112c790615520565b919050555050565b6000601160008373ffffffffffffffffffffffffffffffffffffffff1673ffffffffffffffffffffffffffffffffffffffff168152602001908152602001600020549050919050565b6000600360008373ffffffffffffffffffffffffffffffffffffffff1673ffffffffffffffffffffffffffffffffffffffff168152602001908152602001600020549050919050565b601354341461136f57600080fd5b60003390506000600460008573ffffffffffffffffffffffffffffffffffffffff1673ffffffffffffffffffffffffffffffffffffffff1681526020019081526020016000206000848152602001908152602001600020905080600301546000808360000160009054906101000a900473ffffffffffffffffffffffffffffffffffffffff1673ffffffffffffffffffffffffffffffffffffffff1673ffffffffffffffffffffffffffffffffffffffff16815260200190815260200160002060008473ffffffffffffffffffffffffffffffffffffffff1673ffffffffffffffffffffffffffffffffffffffff16815260200190815260200160002054101580156114cf57506000600460008673ffffffffffffffffffffffffffffffffffffffff1673ffffffffffffffffffffffffffffffffffffffff16815260200190815260200160002060008581526020019081526020016000206005015414155b80156114e357506114e1828585613393565b155b6114ec57600080fd5b80600301546000808360000160009054906101000a900473ffffffffffffffffffffffffffffffffffffffff1673ffffffffffffffffffffffffffffffffffffffff1673ffffffffffffffffffffffffffffffffffffffff16815260200190815260200160002060008473ffffffffffffffffffffffffffffffffffffffff1673ffffffffffffffffffffffffffffffffffffffff168152602001908152602001600020600082825461159f9190615433565b9250508190555080600201829080600181540180825580915050600190039060005260206000200160009091909190916101000a81548173ffffffffffffffffffffffffffffffffffffffff021916908373ffffffffffffffffffffffffffffffffffffffff1602179055506000816005016000815461161e90615520565b9190508190559050816004015481141561189a5760006117a0836040518060c00160405290816000820160009054906101000a900473ffffffffffffffffffffffffffffffffffffffff1673ffffffffffffffffffffffffffffffffffffffff1673ffffffffffffffffffffffffffffffffffffffff1681526020016001820160009054906101000a900473ffffffffffffffffffffffffffffffffffffffff1673ffffffffffffffffffffffffffffffffffffffff1673ffffffffffffffffffffffffffffffffffffffff1681526020016002820180548060200260200160405190810160405280929190818152602001828054801561177457602002820191906000526020600020905b8160009054906101000a900473ffffffffffffffffffffffffffffffffffffffff1673ffffffffffffffffffffffffffffffffffffffff168152602001906001019080831161172a575b505050505081526020016003820154815260200160048201548152602001600582015481525050613eb5565b90508073ffffffffffffffffffffffffffffffffffffffff167f8f85b7f685d63e03c48557a3da87245d9a0be5c748eaa50100de5bc12447c1eb878786426040516117ee949392919061579d565b60405180910390a2808360010160006101000a81548173ffffffffffffffffffffffffffffffffffffffff021916908373ffffffffffffffffffffffffffffffffffffffff16021790555060008360050181905550600260008773ffffffffffffffffffffffffffffffffffffffff1673ffffffffffffffffffffffffffffffffffffffff1681526020019081526020016000206000815480929190611893906157e9565b9190505550505b3373ffffffffffffffffffffffffffffffffffffffff167f6af5da8bf48b948b8a88fbf3c10606377265dc58854ab59467fc7e2b79395039868685426040516118e6949392919061579d565b60405180910390a25050505050565b6118fd6141e7565b73ffffffffffffffffffffffffffffffffffffffff1661191b612567565b73ffffffffffffffffffffffffffffffffffffffff1614611971576040517f08c379a00000000000000000000000000000000000000000000000000000000081526004016119689061585f565b60405180910390fd5b8060168190555050565b6119836141e7565b73ffffffffffffffffffffffffffffffffffffffff166119a1612567565b73ffffffffffffffffffffffffffffffffffffffff16146119f7576040517f08c379a00000000000000000000000000000000000000000000000000000000081526004016119ee9061585f565b60405180910390fd5b80601560006101000a81548173ffffffffffffffffffffffffffffffffffffffff021916908373ffffffffffffffffffffffffffffffffffffffff16021790555050565b6000601254905090565b600081604051602001611a5891906151b9565b6040516020818303038152906040528051906020012090506000801b601c60003373ffffffffffffffffffffffffffffffffffffffff1673ffffffffffffffffffffffffffffffffffffffff1681526020019081526020016000206000015414611ac157600080fd5b600073ffffffffffffffffffffffffffffffffffffffff16601d600083815260200190815260200160002060009054906101000a900473ffffffffffffffffffffffffffffffffffffffff1673ffffffffffffffffffffffffffffffffffffffff1614611b63576040517f08c379a0000000000000000000000000000000000000000000000000000000008152600401611b5a906158cb565b60405180910390fd5b80601c60003373ffffffffffffffffffffffffffffffffffffffff1673ffffffffffffffffffffffffffffffffffffffff1681526020019081526020016000206000018190555033601d600083815260200190815260200160002060006101000a81548173ffffffffffffffffffffffffffffffffffffffff021916908373ffffffffffffffffffffffffffffffffffffffff1602179055505050565b6000602060009054906101000a900473ffffffffffffffffffffffffffffffffffffffff16905090565b6000601054905090565b6000600260008373ffffffffffffffffffffffffffffffffffffffff1673ffffffffffffffffffffffffffffffffffffffff168152602001908152602001600020549050919050565b611c856141e7565b73ffffffffffffffffffffffffffffffffffffffff16611ca3612567565b73ffffffffffffffffffffffffffffffffffffffff1614611cf9576040517f08c379a0000000000000000000000000000000000000000000000000000000008152600401611cf09061585f565b60405180910390fd5b80602160006101000a81548173ffffffffffffffffffffffffffffffffffffffff021916908373ffffffffffffffffffffffffffffffffffffffff16021790555050565b806000808473ffffffffffffffffffffffffffffffffffffffff1673ffffffffffffffffffffffffffffffffffffffff16815260200190815260200160002060003373ffffffffffffffffffffffffffffffffffffffff1673ffffffffffffffffffffffffffffffffffffffff168152602001908152602001600020541015611dc557600080fd5b8173ffffffffffffffffffffffffffffffffffffffff1663a9059cbb33836040518363ffffffff1660e01b8152600401611e009291906158eb565b6020604051808303816000875af1158015611e1f573d6000803e3d6000fd5b505050506040513d601f19601f82011682018060405250810190611e439190615493565b611e4c57600080fd5b806000808473ffffffffffffffffffffffffffffffffffffffff1673ffffffffffffffffffffffffffffffffffffffff16815260200190815260200160002060003373ffffffffffffffffffffffffffffffffffffffff1673ffffffffffffffffffffffffffffffffffffffff1681526020019081526020016000206000828254611ed79190615433565b925050819055505050565b611eea6145b2565b600460008473ffffffffffffffffffffffffffffffffffffffff1673ffffffffffffffffffffffffffffffffffffffff16815260200190815260200160002060008381526020019081526020016000206040518060c00160405290816000820160009054906101000a900473ffffffffffffffffffffffffffffffffffffffff1673ffffffffffffffffffffffffffffffffffffffff1673ffffffffffffffffffffffffffffffffffffffff1681526020016001820160009054906101000a900473ffffffffffffffffffffffffffffffffffffffff1673ffffffffffffffffffffffffffffffffffffffff1673ffffffffffffffffffffffffffffffffffffffff1681526020016002820180548060200260200160405190810160405280929190818152602001828054801561207657602002820191906000526020600020905b8160009054906101000a900473ffffffffffffffffffffffffffffffffffffffff1673ffffffffffffffffffffffffffffffffffffffff168152602001906001019080831161202c575b505050505081526020016003820154815260200160048201548152602001600582015481525050905092915050565b6120ad6141e7565b73ffffffffffffffffffffffffffffffffffffffff166120cb612567565b73ffffffffffffffffffffffffffffffffffffffff1614612121576040517f08c379a00000000000000000000000000000000000000000000000000000000081526004016121189061585f565b60405180910390fd5b61212b60006141ef565b565b6000601160003373ffffffffffffffffffffffffffffffffffffffff1673ffffffffffffffffffffffffffffffffffffffff1681526020019081526020016000205411801561217f575061041a601254115b61218857600080fd5b601460009054906101000a900473ffffffffffffffffffffffffffffffffffffffff1673ffffffffffffffffffffffffffffffffffffffff1663e16acb8333670de0b6b3a7640000601160003373ffffffffffffffffffffffffffffffffffffffff1673ffffffffffffffffffffffffffffffffffffffff1681526020019081526020016000205461221a9190615383565b6040518363ffffffff1660e01b81526004016122379291906158eb565b6020604051808303816000875af1158015612256573d6000803e3d6000fd5b505050506040513d601f19601f8201168201806040525081019061227a9190615493565b61228357600080fd5b6000601160003373ffffffffffffffffffffffffffffffffffffffff1673ffffffffffffffffffffffffffffffffffffffff16815260200190815260200160002081905550565b6060601a60008373ffffffffffffffffffffffffffffffffffffffff1673ffffffffffffffffffffffffffffffffffffffff16815260200190815260200160002060000180548060200260200160405190810160405280929190818152602001828054801561235857602002820191906000526020600020905b815481526020019060010190808311612344575b50505050509050919050565b426236ee80601e60003373ffffffffffffffffffffffffffffffffffffffff1673ffffffffffffffffffffffffffffffffffffffff168152602001908152602001600020546123b391906153dd565b106123f3576040517f08c379a00000000000000000000000000000000000000000000000000000000081526004016123ea90615960565b60405180910390fd5b6000600c5411612438576040517f08c379a000000000000000000000000000000000000000000000000000000000815260040161242f906159cc565b60405180910390fd5b42601e60003373ffffffffffffffffffffffffffffffffffffffff1673ffffffffffffffffffffffffffffffffffffffff168152602001908152602001600020819055508060405160200161248d91906151b9565b604051602081830303815290604052805190602001207f0000000000000000000000000000000000000000000000000000000000000000141561256457600c54601160003373ffffffffffffffffffffffffffffffffffffffff1673ffffffffffffffffffffffffffffffffffffffff168152602001908152602001600020600082825461251b91906153dd565b925050819055506000600c819055507f8bfa80df432eb1ac1ee18e3c6c63813839b9ccd6eb47d1d7edf53ccbed6937b7338260405161255b929190615a25565b60405180910390a15b50565b6000600160009054906101000a900473ffffffffffffffffffffffffffffffffffffffff16905090565b60003390508273ffffffffffffffffffffffffffffffffffffffff166323b872dd8230856040518463ffffffff1660e01b81526004016125d393929190615a55565b6020604051808303816000875af11580156125f2573d6000803e3d6000fd5b505050506040513d601f19601f820116820180604052508101906126169190615493565b61261f57600080fd5b816000808573ffffffffffffffffffffffffffffffffffffffff1673ffffffffffffffffffffffffffffffffffffffff16815260200190815260200160002060008373ffffffffffffffffffffffffffffffffffffffff1673ffffffffffffffffffffffffffffffffffffffff16815260200190815260200160002060008282546126aa91906153dd565b92505081905550505050565b6000601b60008373ffffffffffffffffffffffffffffffffffffffff1673ffffffffffffffffffffffffffffffffffffffff168152602001908152602001600020549050919050565b6127076141e7565b73ffffffffffffffffffffffffffffffffffffffff16612725612567565b73ffffffffffffffffffffffffffffffffffffffff161461277b576040517f08c379a00000000000000000000000000000000000000000000000000000000081526004016127729061585f565b60405180910390fd5b80602060006101000a81548173ffffffffffffffffffffffffffffffffffffffff021916908373ffffffffffffffffffffffffffffffffffffffff16021790555050565b600081519050601f54816127d39190615383565b600080602060009054906101000a900473ffffffffffffffffffffffffffffffffffffffff1673ffffffffffffffffffffffffffffffffffffffff1673ffffffffffffffffffffffffffffffffffffffff16815260200190815260200160002060003373ffffffffffffffffffffffffffffffffffffffff1673ffffffffffffffffffffffffffffffffffffffff1681526020019081526020016000205410156128b2576040517f08c379a00000000000000000000000000000000000000000000000000000000081526004016128a990615ad8565b60405180910390fd5b6000601254905060005b828110156128fd57818482815181106128d8576128d7615325565b5b6020026020010151116128ea57600080fd5b80806128f590615520565b9150506128bc565b506000601b60003373ffffffffffffffffffffffffffffffffffffffff1673ffffffffffffffffffffffffffffffffffffffff1681526020019081526020016000205414801561295157506107d060225410155b1561295f5761295e6142b5565b5b6000601a60003373ffffffffffffffffffffffffffffffffffffffff1673ffffffffffffffffffffffffffffffffffffffff168152602001908152602001600020905060005b83811015612c10576129d1338683815181106129c4576129c3615325565b5b602002602001015161440e565b612bfd57601f54600080602060009054906101000a900473ffffffffffffffffffffffffffffffffffffffff1673ffffffffffffffffffffffffffffffffffffffff1673ffffffffffffffffffffffffffffffffffffffff16815260200190815260200160002060003373ffffffffffffffffffffffffffffffffffffffff1673ffffffffffffffffffffffffffffffffffffffff1681526020019081526020016000206000828254612a849190615433565b9250508190555060176000868381518110612aa257612aa1615325565b5b60200260200101518152602001908152602001600020600101339080600181540180825580915050600190039060005260206000200160009091909190916101000a81548173ffffffffffffffffffffffffffffffffffffffff021916908373ffffffffffffffffffffffffffffffffffffffff16021790555060176000868381518110612b3357612b32615325565b5b602002602001015181526020019081526020016000206002016000815480929190612b5d90615520565b9190505550601b60003373ffffffffffffffffffffffffffffffffffffffff1673ffffffffffffffffffffffffffffffffffffffff1681526020019081526020016000206000815480929190612bb290615520565b919050555081600001858281518110612bce57612bcd615325565b5b602002602001015190806001815401808255809150506001900390600052602060002001600090919091909150555b8080612c0890615520565b9150506129a5565b5050505050565b6000808214612c5c578142604051602001612c329190615b19565b6040516020818303038152906040528051906020012060001c612c559190615b34565b9050612c61565b600090505b919050565b60008082604051602001612c7a91906151b9565b604051602081830303815290604052805190602001209050601d600082815260200190815260200160002060009054906101000a900473ffffffffffffffffffffffffffffffffffffffff16915050919050565b612cd6614614565b601760008381526020019081526020016000206040518060600160405290816000820160009054906101000a900473ffffffffffffffffffffffffffffffffffffffff1673ffffffffffffffffffffffffffffffffffffffff1673ffffffffffffffffffffffffffffffffffffffff16815260200160018201805480602002602001604051908101604052809291908181526020018280548015612dcf57602002820191906000526020600020905b8160009054906101000a900473ffffffffffffffffffffffffffffffffffffffff1673ffffffffffffffffffffffffffffffffffffffff1681526020019060010190808311612d85575b505050505081526020016002820154815250509050919050565b612df16141e7565b73ffffffffffffffffffffffffffffffffffffffff16612e0f612567565b73ffffffffffffffffffffffffffffffffffffffff1614612e65576040517f08c379a0000000000000000000000000000000000000000000000000000000008152600401612e5c9061585f565b60405180910390fd5b80601460006101000a81548173ffffffffffffffffffffffffffffffffffffffff021916908373ffffffffffffffffffffffffffffffffffffffff16021790555050565b60008060008473ffffffffffffffffffffffffffffffffffffffff1673ffffffffffffffffffffffffffffffffffffffff16815260200190815260200160002060008373ffffffffffffffffffffffffffffffffffffffff1673ffffffffffffffffffffffffffffffffffffffff16815260200190815260200160002054905092915050565b612f376141e7565b73ffffffffffffffffffffffffffffffffffffffff16612f55612567565b73ffffffffffffffffffffffffffffffffffffffff1614612fab576040517f08c379a0000000000000000000000000000000000000000000000000000000008152600401612fa29061585f565b60405180910390fd5b8060138190555050565b6013543414612fc357600080fd5b6000339050826000808673ffffffffffffffffffffffffffffffffffffffff1673ffffffffffffffffffffffffffffffffffffffff16815260200190815260200160002060008373ffffffffffffffffffffffffffffffffffffffff1673ffffffffffffffffffffffffffffffffffffffff16815260200190815260200160002054101580156130925750600a600260008373ffffffffffffffffffffffffffffffffffffffff1673ffffffffffffffffffffffffffffffffffffffff16815260200190815260200160002054105b80156130a057506103e88211155b80156130ac5750600182115b6130b557600080fd5b826000808673ffffffffffffffffffffffffffffffffffffffff1673ffffffffffffffffffffffffffffffffffffffff16815260200190815260200160002060008373ffffffffffffffffffffffffffffffffffffffff1673ffffffffffffffffffffffffffffffffffffffff16815260200190815260200160002060008282546131409190615433565b92505081905550600260008273ffffffffffffffffffffffffffffffffffffffff1673ffffffffffffffffffffffffffffffffffffffff168152602001908152602001600020600081548092919061319790615520565b91905055506000600360008373ffffffffffffffffffffffffffffffffffffffff1673ffffffffffffffffffffffffffffffffffffffff168152602001908152602001600020600081546131ea90615520565b91905081905590506000600460008473ffffffffffffffffffffffffffffffffffffffff1673ffffffffffffffffffffffffffffffffffffffff1681526020019081526020016000206000838152602001908152602001600020905080600201839080600181540180825580915050600190039060005260206000200160009091909190916101000a81548173ffffffffffffffffffffffffffffffffffffffff021916908373ffffffffffffffffffffffffffffffffffffffff160217905550848160030181905550838160040181905550858160000160006101000a81548173ffffffffffffffffffffffffffffffffffffffff021916908373ffffffffffffffffffffffffffffffffffffffff1602179055506001816005018190555060008160010160006101000a81548173ffffffffffffffffffffffffffffffffffffffff021916908373ffffffffffffffffffffffffffffffffffffffff1602179055507fd410351c665a301920e73c59278ef7d00331965b791f8f370ffbcfb7b3f9fb2483838342604051613383949392919061579d565b60405180910390a1505050505050565b600080600460008573ffffffffffffffffffffffffffffffffffffffff1673ffffffffffffffffffffffffffffffffffffffff168152602001908152602001600020600084815260200190815260200160002060020180548060200260200160405190810160405280929190818152602001828054801561346957602002820191906000526020600020905b8160009054906101000a900473ffffffffffffffffffffffffffffffffffffffff1673ffffffffffffffffffffffffffffffffffffffff168152602001906001019080831161341f575b505050505090506000600460008673ffffffffffffffffffffffffffffffffffffffff1673ffffffffffffffffffffffffffffffffffffffff168152602001908152602001600020600085815260200190815260200160002060050154905060005b81811015613540578673ffffffffffffffffffffffffffffffffffffffff168382815181106134fd576134fc615325565b5b602002602001015173ffffffffffffffffffffffffffffffffffffffff16141561352d5760019350505050613548565b808061353890615520565b9150506134cb565b506000925050505b9392505050565b60006018600083815260200190815260200160002060009054906101000a900473ffffffffffffffffffffffffffffffffffffffff169050919050565b6000602254905090565b61359e6141e7565b73ffffffffffffffffffffffffffffffffffffffff166135bc612567565b73ffffffffffffffffffffffffffffffffffffffff1614613612576040517f08c379a00000000000000000000000000000000000000000000000000000000081526004016136099061585f565b60405180910390fd5b600073ffffffffffffffffffffffffffffffffffffffff168173ffffffffffffffffffffffffffffffffffffffff161415613682576040517f08c379a000000000000000000000000000000000000000000000000000000000815260040161367990615bd7565b60405180910390fd5b61368b816141ef565b50565b6136966141e7565b73ffffffffffffffffffffffffffffffffffffffff166136b4612567565b73ffffffffffffffffffffffffffffffffffffffff161461370a576040517f08c379a00000000000000000000000000000000000000000000000000000000081526004016137019061585f565b60405180910390fd5b80601f8190555050565b61371c61464b565b601960008373ffffffffffffffffffffffffffffffffffffffff1673ffffffffffffffffffffffffffffffffffffffff168152602001908152602001600020604051806040016040529081600082018054806020026020016040519081016040528092919081815260200182805480156137b557602002820191906000526020600020905b8154815260200190600101908083116137a1575b505050505081526020016001820160009054906101000a900460ff1660ff1660ff16815250509050919050565b600060329050600060186000836012546137fc9190615433565b815260200190815260200160002060009054906101000a900473ffffffffffffffffffffffffffffffffffffffff1690506000601960008373ffffffffffffffffffffffffffffffffffffffff1673ffffffffffffffffffffffffffffffffffffffff168152602001908152602001600020600001905060008180549050905060005b818110156139ab57846012546138959190615433565b8382815481106138a8576138a7615325565b5b906000526020600020015414156139985760018214156138ee57828054806138d3576138d2615bf7565b5b60019003818190600052602060002001600090559055613993565b60008190505b600184805490506139059190615433565b81101561396a578360018261391a91906153dd565b8154811061392b5761392a615325565b5b906000526020600020015484828154811061394957613948615325565b5b9060005260206000200181905550808061396290615520565b9150506138f4565b508280548061397c5761397b615bf7565b5b600190038181906000526020600020016000905590555b6139ab565b80806139a390615520565b91505061387f565b506139b4612567565b60186000866012546139c69190615433565b815260200190815260200160002060006101000a81548173ffffffffffffffffffffffffffffffffffffffff021916908373ffffffffffffffffffffffffffffffffffffffff16021790555060196000613a1e612567565b73ffffffffffffffffffffffffffffffffffffffff1673ffffffffffffffffffffffffffffffffffffffff16815260200190815260200160002060000184601254613a699190615433565b908060018154018082558091505060019003906000526020600020016000909190919091505550505050565b6000601560009054906101000a900473ffffffffffffffffffffffffffffffffffffffff1673ffffffffffffffffffffffffffffffffffffffff16638951764a6040518163ffffffff1660e01b8152600401600060405180830381865afa158015613b04573d6000803e3d6000fd5b505050506040513d6000823e3d601f19601f82011682018060405250810190613b2d9190615cd2565b90506000815190506000811115613c8f576000670de0b6b3a764000082600654613b5791906154ef565b613b619190615383565b905060005b82811015613c8c578160116000601560009054906101000a900473ffffffffffffffffffffffffffffffffffffffff1673ffffffffffffffffffffffffffffffffffffffff16636352211e888681518110613bc457613bc3615325565b5b60200260200101516040518263ffffffff1660e01b8152600401613be89190614951565b602060405180830381865afa158015613c05573d6000803e3d6000fd5b505050506040513d601f19601f82011682018060405250810190613c299190615d30565b73ffffffffffffffffffffffffffffffffffffffff1673ffffffffffffffffffffffffffffffffffffffff1681526020019081526020016000206000828254613c7291906153dd565b925050819055508080613c8490615520565b915050613b66565b50505b5050565b6000601560009054906101000a900473ffffffffffffffffffffffffffffffffffffffff1673ffffffffffffffffffffffffffffffffffffffff166379b354116040518163ffffffff1660e01b8152600401600060405180830381865afa158015613d02573d6000803e3d6000fd5b505050506040513d6000823e3d601f19601f82011682018060405250810190613d2b9190615e20565b90506000815190506000811115613df2576000670de0b6b3a764000082600754613d5591906154ef565b613d5f9190615383565b905060005b82811015613def578160116000868481518110613d8457613d83615325565b5b602002602001015173ffffffffffffffffffffffffffffffffffffffff1673ffffffffffffffffffffffffffffffffffffffff1681526020019081526020016000206000828254613dd591906153dd565b925050819055508080613de790615520565b915050613d64565b50505b5050565b601460009054906101000a900473ffffffffffffffffffffffffffffffffffffffff1673ffffffffffffffffffffffffffffffffffffffff1663e16acb83613e3c612567565b670de0b6b3a7640000600854613e529190615383565b6040518363ffffffff1660e01b8152600401613e6f9291906158eb565b6020604051808303816000875af1158015613e8e573d6000803e3d6000fd5b505050506040513d601f19601f82011682018060405250810190613eb29190615493565b50565b600080613ec58360800151612c17565b905082608001518360600151613edb9190615383565b600080856000015173ffffffffffffffffffffffffffffffffffffffff1673ffffffffffffffffffffffffffffffffffffffff168152602001908152602001600020600085604001518481518110613f3657613f35615325565b5b602002602001015173ffffffffffffffffffffffffffffffffffffffff1673ffffffffffffffffffffffffffffffffffffffff1681526020019081526020016000206000828254613f8791906153dd565b925050819055506000836040015151905061041b60125410158015613ffd5750601460009054906101000a900473ffffffffffffffffffffffffffffffffffffffff1673ffffffffffffffffffffffffffffffffffffffff16846000015173ffffffffffffffffffffffffffffffffffffffff16145b80156140175750600a816140119190615383565b60105410155b801561403057506802b5e3af16b1880000846060015110155b156141bf5760005b818110156141bd5760006016541461412357601460009054906101000a900473ffffffffffffffffffffffffffffffffffffffff1673ffffffffffffffffffffffffffffffffffffffff1663e16acb838660400151838151811061409f5761409e615325565b5b6020026020010151670de0b6b3a76400006016546140bd9190615383565b6040518363ffffffff1660e01b81526004016140da9291906158eb565b6020604051808303816000875af11580156140f9573d6000803e3d6000fd5b505050506040513d601f19601f8201168201806040525081019061411d9190615493565b50614199565b600a60116000876040015184815181106141405761413f615325565b5b602002602001015173ffffffffffffffffffffffffffffffffffffffff1673ffffffffffffffffffffffffffffffffffffffff168152602001908152602001600020600082825461419191906153dd565b925050819055505b600a60106000828254039250508190555080806141b590615520565b915050614038565b505b836040015182815181106141d6576141d5615325565b5b602002602001015192505050919050565b600033905090565b6000600160009054906101000a900473ffffffffffffffffffffffffffffffffffffffff16905081600160006101000a81548173ffffffffffffffffffffffffffffffffffffffff021916908373ffffffffffffffffffffffffffffffffffffffff1602179055508173ffffffffffffffffffffffffffffffffffffffff168173ffffffffffffffffffffffffffffffffffffffff167f8be0079c531659141344cd1fd0a4f28419497f9722a3daafe3b4186f6b6457e060405160405180910390a35050565b6000601c60003373ffffffffffffffffffffffffffffffffffffffff1673ffffffffffffffffffffffffffffffffffffffff168152602001908152602001600020600101549050806000801b1461440b576000601d600083815260200190815260200160002060009054906101000a900473ffffffffffffffffffffffffffffffffffffffff1690506107d0602260008282546143529190615433565b925050819055506103e8601160003373ffffffffffffffffffffffffffffffffffffffff1673ffffffffffffffffffffffffffffffffffffffff16815260200190815260200160002060008282546143aa91906153dd565b925050819055506103e8601160008373ffffffffffffffffffffffffffffffffffffffff1673ffffffffffffffffffffffffffffffffffffffff168152602001908152602001600020600082825461440291906153dd565b92505081905550505b50565b600080601760008481526020019081526020016000206040518060600160405290816000820160009054906101000a900473ffffffffffffffffffffffffffffffffffffffff1673ffffffffffffffffffffffffffffffffffffffff1673ffffffffffffffffffffffffffffffffffffffff1681526020016001820180548060200260200160405190810160405280929190818152602001828054801561450a57602002820191906000526020600020905b8160009054906101000a900473ffffffffffffffffffffffffffffffffffffffff1673ffffffffffffffffffffffffffffffffffffffff16815260200190600101908083116144c0575b50505050508152602001600282015481525050905060008160400151905060005b818110156145a4578573ffffffffffffffffffffffffffffffffffffffff168360200151828151811061456157614560615325565b5b602002602001015173ffffffffffffffffffffffffffffffffffffffff16141561459157600193505050506145ac565b808061459c90615520565b91505061452b565b506000925050505b92915050565b6040518060c00160405280600073ffffffffffffffffffffffffffffffffffffffff168152602001600073ffffffffffffffffffffffffffffffffffffffff168152602001606081526020016000815260200160008152602001600081525090565b6040518060600160405280600073ffffffffffffffffffffffffffffffffffffffff16815260200160608152602001600081525090565b604051806040016040528060608152602001600060ff1681525090565b6000604051905090565b600080fd5b600080fd5b600073ffffffffffffffffffffffffffffffffffffffff82169050919050565b60006146a78261467c565b9050919050565b6146b78161469c565b81146146c257600080fd5b50565b6000813590506146d4816146ae565b92915050565b6000819050919050565b6146ed816146da565b81146146f857600080fd5b50565b60008135905061470a816146e4565b92915050565b6000806040838503121561472757614726614672565b5b6000614735858286016146c5565b9250506020614746858286016146fb565b9150509250929050565b60008115159050919050565b61476581614750565b82525050565b6000602082019050614780600083018461475c565b92915050565b600080fd5b600080fd5b6000601f19601f8301169050919050565b7f4e487b7100000000000000000000000000000000000000000000000000000000600052604160045260246000fd5b6147d982614790565b810181811067ffffffffffffffff821117156147f8576147f76147a1565b5b80604052505050565b600061480b614668565b905061481782826147d0565b919050565b600067ffffffffffffffff821115614837576148366147a1565b5b61484082614790565b9050602081019050919050565b82818337600083830152505050565b600061486f61486a8461481c565b614801565b90508281526020810184848401111561488b5761488a61478b565b5b61489684828561484d565b509392505050565b600082601f8301126148b3576148b2614786565b5b81356148c384826020860161485c565b91505092915050565b6000602082840312156148e2576148e1614672565b5b600082013567ffffffffffffffff811115614900576148ff614677565b5b61490c8482850161489e565b91505092915050565b60006020828403121561492b5761492a614672565b5b6000614939848285016146c5565b91505092915050565b61494b816146da565b82525050565b60006020820190506149666000830184614942565b92915050565b60006020828403121561498257614981614672565b5b6000614990848285016146fb565b91505092915050565b60006149a48261469c565b9050919050565b6149b481614999565b81146149bf57600080fd5b50565b6000813590506149d1816149ab565b92915050565b6000602082840312156149ed576149ec614672565b5b60006149fb848285016149c2565b91505092915050565b614a0d8161469c565b82525050565b6000602082019050614a286000830184614a04565b92915050565b6000614a398261469c565b9050919050565b614a4981614a2e565b8114614a5457600080fd5b50565b600081359050614a6681614a40565b92915050565b60008060408385031215614a8357614a82614672565b5b6000614a9185828601614a57565b9250506020614aa2858286016146fb565b9150509250929050565b6000819050919050565b6000614ad1614acc614ac78461467c565b614aac565b61467c565b9050919050565b6000614ae382614ab6565b9050919050565b6000614af582614ad8565b9050919050565b614b0581614aea565b82525050565b614b148161469c565b82525050565b600081519050919050565b600082825260208201905092915050565b6000819050602082019050919050565b6000614b528383614b0b565b60208301905092915050565b6000602082019050919050565b6000614b7682614b1a565b614b808185614b25565b9350614b8b83614b36565b8060005b83811015614bbc578151614ba38882614b46565b9750614bae83614b5e565b925050600181019050614b8f565b5085935050505092915050565b614bd2816146da565b82525050565b600060c083016000830151614bf06000860182614afc565b506020830151614c036020860182614b0b565b5060408301518482036040860152614c1b8282614b6b565b9150506060830151614c306060860182614bc9565b506080830151614c436080860182614bc9565b5060a0830151614c5660a0860182614bc9565b508091505092915050565b60006020820190508181036000830152614c7b8184614bd8565b905092915050565b600081519050919050565b600082825260208201905092915050565b6000819050602082019050919050565b6000614cbb8383614bc9565b60208301905092915050565b6000602082019050919050565b6000614cdf82614c83565b614ce98185614c8e565b9350614cf483614c9f565b8060005b83811015614d25578151614d0c8882614caf565b9750614d1783614cc7565b925050600181019050614cf8565b5085935050505092915050565b60006020820190508181036000830152614d4c8184614cd4565b905092915050565b600060208284031215614d6a57614d69614672565b5b6000614d7884828501614a57565b91505092915050565b600067ffffffffffffffff821115614d9c57614d9b6147a1565b5b602082029050602081019050919050565b600080fd5b6000614dc5614dc084614d81565b614801565b90508083825260208201905060208402830185811115614de857614de7614dad565b5b835b81811015614e115780614dfd88826146fb565b845260208401935050602081019050614dea565b5050509392505050565b600082601f830112614e3057614e2f614786565b5b8135614e40848260208601614db2565b91505092915050565b600060208284031215614e5f57614e5e614672565b5b600082013567ffffffffffffffff811115614e7d57614e7c614677565b5b614e8984828501614e1b565b91505092915050565b6000606083016000830151614eaa6000860182614b0b565b5060208301518482036020860152614ec28282614b6b565b9150506040830151614ed76040860182614bc9565b508091505092915050565b60006020820190508181036000830152614efc8184614e92565b905092915050565b6000614f0f8261469c565b9050919050565b614f1f81614f04565b8114614f2a57600080fd5b50565b600081359050614f3c81614f16565b92915050565b600060208284031215614f5857614f57614672565b5b6000614f6684828501614f2d565b91505092915050565b60008060408385031215614f8657614f85614672565b5b6000614f9485828601614a57565b9250506020614fa5858286016146c5565b9150509250929050565b600080600060608486031215614fc857614fc7614672565b5b6000614fd686828701614a57565b9350506020614fe7868287016146fb565b9250506040614ff8868287016146fb565b9150509250925092565b60008060006060848603121561501b5761501a614672565b5b6000615029868287016146c5565b935050602061503a868287016146c5565b925050604061504b868287016146fb565b9150509250925092565b600082825260208201905092915050565b600061507182614c83565b61507b8185615055565b935061508683614c9f565b8060005b838110156150b757815161509e8882614caf565b97506150a983614cc7565b92505060018101905061508a565b5085935050505092915050565b600060ff82169050919050565b6150da816150c4565b82525050565b600060408301600083015184820360008601526150fd8282615066565b915050602083015161511260208601826150d1565b508091505092915050565b6000602082019050818103600083015261513781846150e0565b905092915050565b600081519050919050565b600081905092915050565b60005b83811015615173578082015181840152602081019050615158565b83811115615182576000848401525b50505050565b60006151938261513f565b61519d818561514a565b93506151ad818560208601615155565b80840191505092915050565b60006151c58284615188565b915081905092915050565b600082825260208201905092915050565b7f74766f7900000000000000000000000000000000000000000000000000000000600082015250565b60006152176004836151d0565b9150615222826151e1565b602082019050919050565b600060208201905081810360008301526152468161520a565b9050919050565b7f796a650000000000000000000000000000000000000000000000000000000000600082015250565b60006152836003836151d0565b915061528e8261524d565b602082019050919050565b600060208201905081810360008301526152b281615276565b9050919050565b7f6e65206368656900000000000000000000000000000000000000000000000000600082015250565b60006152ef6007836151d0565b91506152fa826152b9565b602082019050919050565b6000602082019050818103600083015261531e816152e2565b9050919050565b7f4e487b7100000000000000000000000000000000000000000000000000000000600052603260045260246000fd5b7f4e487b7100000000000000000000000000000000000000000000000000000000600052601160045260246000fd5b600061538e826146da565b9150615399836146da565b9250817fffffffffffffffffffffffffffffffffffffffffffffffffffffffffffffffff04831182151516156153d2576153d1615354565b5b828202905092915050565b60006153e8826146da565b91506153f3836146da565b9250827fffffffffffffffffffffffffffffffffffffffffffffffffffffffffffffffff0382111561542857615427615354565b5b828201905092915050565b600061543e826146da565b9150615449836146da565b92508282101561545c5761545b615354565b5b828203905092915050565b61547081614750565b811461547b57600080fd5b50565b60008151905061548d81615467565b92915050565b6000602082840312156154a9576154a8614672565b5b60006154b78482850161547e565b91505092915050565b7f4e487b7100000000000000000000000000000000000000000000000000000000600052601260045260246000fd5b60006154fa826146da565b9150615505836146da565b925082615515576155146154c0565b5b828204905092915050565b600061552b826146da565b91507fffffffffffffffffffffffffffffffffffffffffffffffffffffffffffffffff82141561555e5761555d615354565b5b600182019050919050565b600060408201905061557e6000830185614942565b61558b6020830184614a04565b9392505050565b60008160001c9050919050565b600073ffffffffffffffffffffffffffffffffffffffff82169050919050565b60006155d26155cd83615592565b61559f565b9050919050565b600073ffffffffffffffffffffffffffffffffffffffff82169050919050565b600061560c61560783615592565b6155d9565b9050919050565b600081549050919050565b60008190508160005260206000209050919050565b600061563f82546155f9565b9050919050565b6000600182019050919050565b600061565e82615613565b6156688185614b25565b93506156738361561e565b8060005b838110156156ab5761568882615633565b6156928882614b46565b975061569d83615646565b925050600181019050615677565b5085935050505092915050565b6000819050919050565b60006156d56156d083615592565b6156b8565b9050919050565b600060c0830160008084015490506156f3816155bf565b6157006000870182614afc565b5060018401549050615711816155f9565b61571e6020870182614b0b565b506002840185830360408701526157358382615653565b92505060038401549050615748816156c2565b6157556060870182614bc9565b5060048401549050615766816156c2565b6157736080870182614bc9565b5060058401549050615784816156c2565b61579160a0870182614bc9565b50819250505092915050565b60006080820190506157b26000830187614a04565b6157bf6020830186614942565b81810360408301526157d181856156dc565b90506157e06060830184614942565b95945050505050565b60006157f4826146da565b9150600082141561580857615807615354565b5b600182039050919050565b7f4f776e61626c653a2063616c6c6572206973206e6f7420746865206f776e6572600082015250565b60006158496020836151d0565b915061585482615813565b602082019050919050565b600060208201905081810360008301526158788161583c565b9050919050565b7f6578697374000000000000000000000000000000000000000000000000000000600082015250565b60006158b56005836151d0565b91506158c08261587f565b602082019050919050565b600060208201905081810360008301526158e4816158a8565b9050919050565b60006040820190506159006000830185614a04565b61590d6020830184614942565b9392505050565b7f54696d6500000000000000000000000000000000000000000000000000000000600082015250565b600061594a6004836151d0565b915061595582615914565b602082019050919050565b600060208201905081810360008301526159798161593d565b9050919050565b7f7072697a65206c6f737400000000000000000000000000000000000000000000600082015250565b60006159b6600a836151d0565b91506159c182615980565b602082019050919050565b600060208201905081810360008301526159e5816159a9565b9050919050565b60006159f78261513f565b615a0181856151d0565b9350615a11818560208601615155565b615a1a81614790565b840191505092915050565b6000604082019050615a3a6000830185614a04565b8181036020830152615a4c81846159ec565b90509392505050565b6000606082019050615a6a6000830186614a04565b615a776020830185614a04565b615a846040830184614942565b949350505050565b7f6e6f7420656e6f75677468206d6f6e6579000000000000000000000000000000600082015250565b6000615ac26011836151d0565b9150615acd82615a8c565b602082019050919050565b60006020820190508181036000830152615af181615ab5565b9050919050565b6000819050919050565b615b13615b0e826146da565b615af8565b82525050565b6000615b258284615b02565b60208201915081905092915050565b6000615b3f826146da565b9150615b4a836146da565b925082615b5a57615b596154c0565b5b828206905092915050565b7f4f776e61626c653a206e6577206f776e657220697320746865207a65726f206160008201527f6464726573730000000000000000000000000000000000000000000000000000602082015250565b6000615bc16026836151d0565b9150615bcc82615b65565b604082019050919050565b60006020820190508181036000830152615bf081615bb4565b9050919050565b7f4e487b7100000000000000000000000000000000000000000000000000000000600052603160045260246000fd5b600081519050615c35816146e4565b92915050565b6000615c4e615c4984614d81565b614801565b90508083825260208201905060208402830185811115615c7157615c70614dad565b5b835b81811015615c9a5780615c868882615c26565b845260208401935050602081019050615c73565b5050509392505050565b600082601f830112615cb957615cb8614786565b5b8151615cc9848260208601615c3b565b91505092915050565b600060208284031215615ce857615ce7614672565b5b600082015167ffffffffffffffff811115615d0657615d05614677565b5b615d1284828501615ca4565b91505092915050565b600081519050615d2a816146ae565b92915050565b600060208284031215615d4657615d45614672565b5b6000615d5484828501615d1b565b91505092915050565b600067ffffffffffffffff821115615d7857615d776147a1565b5b602082029050602081019050919050565b6000615d9c615d9784615d5d565b614801565b90508083825260208201905060208402830185811115615dbf57615dbe614dad565b5b835b81811015615de85780615dd48882615d1b565b845260208401935050602081019050615dc1565b5050509392505050565b600082601f830112615e0757615e06614786565b5b8151615e17848260208601615d89565b91505092915050565b600060208284031215615e3657615e35614672565b5b600082015167ffffffffffffffff811115615e5457615e53614677565b5b615e6084828501615df2565b9150509291505056fea2646970667358221220e6be7afdfb991b4de67ed6b8a4404786c04df1303c14f3485ffd11664de289eb64736f6c634300080b0033",
  "linkReferences": {},
  "deployedLinkReferences": {}
}