{
  "_format": "hh-sol-artifact-1",
  "contractName": "Lottery",
  "sourceName": "contracts/Lottery.sol",
  "abi": [
    {
      "inputs": [
        {
          "internalType": "bytes32",
          "name": "Hash",
          "type": "bytes32"
        }
      ],
      "stateMutability": "nonpayable",
      "type": "constructor"
    },
    {
      "anonymous": false,
      "inputs": [
        {
          "indexed": true,
          "internalType": "address",
          "name": "previousOwner",
          "type": "address"
        },
        {
          "indexed": true,
          "internalType": "address",
          "name": "newOwner",
          "type": "address"
        }
      ],
      "name": "OwnershipTransferred",
      "type": "event"
    },
    {
      "anonymous": false,
      "inputs": [
        {
          "indexed": false,
          "internalType": "address",
          "name": "user",
          "type": "address"
        }
      ],
      "name": "enter",
      "type": "event"
    },
    {
      "anonymous": false,
      "inputs": [
        {
          "indexed": false,
          "internalType": "address",
          "name": "creator",
          "type": "address"
        },
        {
          "indexed": false,
          "internalType": "uint256",
          "name": "LobbyId",
          "type": "uint256"
        },
        {
          "indexed": false,
          "internalType": "address",
          "name": "user",
          "type": "address"
        },
        {
          "indexed": false,
          "internalType": "address[]",
          "name": "players",
          "type": "address[]"
        },
        {
          "indexed": false,
          "internalType": "uint256",
          "name": "deposit",
          "type": "uint256"
        },
        {
          "indexed": false,
          "internalType": "uint256",
          "name": "countOfPlayers",
          "type": "uint256"
        },
        {
          "indexed": false,
          "internalType": "contract IERC20",
          "name": "token",
          "type": "address"
        }
      ],
      "name": "enterLobby",
      "type": "event"
    },
    {
      "anonymous": false,
      "inputs": [
        {
          "indexed": false,
          "internalType": "address",
          "name": "genius",
          "type": "address"
        },
        {
          "indexed": false,
          "internalType": "string",
          "name": "_string",
          "type": "string"
        }
      ],
      "name": "mistery",
      "type": "event"
    },
    {
      "anonymous": false,
      "inputs": [
        {
          "indexed": true,
          "internalType": "address",
          "name": "creator",
          "type": "address"
        },
        {
          "indexed": true,
          "internalType": "uint256",
          "name": "deposit",
          "type": "uint256"
        },
        {
          "indexed": true,
          "internalType": "uint256",
          "name": "countOfPlayers",
          "type": "uint256"
        },
        {
          "indexed": false,
          "internalType": "uint256",
          "name": "LobbyId",
          "type": "uint256"
        }
      ],
      "name": "newLobby",
      "type": "event"
    },
    {
      "anonymous": false,
      "inputs": [
        {
          "indexed": false,
          "internalType": "uint256",
          "name": "id",
          "type": "uint256"
        },
        {
          "indexed": false,
          "internalType": "address",
          "name": "winer",
          "type": "address"
        }
      ],
      "name": "play",
      "type": "event"
    },
    {
      "anonymous": false,
      "inputs": [
        {
          "indexed": false,
          "internalType": "address",
          "name": "creator",
          "type": "address"
        },
        {
          "indexed": false,
          "internalType": "uint256",
          "name": "LobbyId",
          "type": "uint256"
        },
        {
          "indexed": false,
          "internalType": "address[]",
          "name": "players",
          "type": "address[]"
        },
        {
          "indexed": false,
          "internalType": "uint256",
          "name": "deposit",
          "type": "uint256"
        },
        {
          "indexed": false,
          "internalType": "uint256",
          "name": "countOfPlayers",
          "type": "uint256"
        },
        {
          "indexed": false,
          "internalType": "contract IERC20",
          "name": "token",
          "type": "address"
        },
        {
          "indexed": false,
          "internalType": "address",
          "name": "winer",
          "type": "address"
        }
      ],
      "name": "playLobby",
      "type": "event"
    },
    {
      "inputs": [],
      "name": "Enter",
      "outputs": [],
      "stateMutability": "nonpayable",
      "type": "function"
    },
    {
      "inputs": [
        {
          "internalType": "address",
          "name": "lobbyCreator",
          "type": "address"
        },
        {
          "internalType": "uint256",
          "name": "lobbyId",
          "type": "uint256"
        }
      ],
      "name": "EnterLobby",
      "outputs": [],
      "stateMutability": "nonpayable",
      "type": "function"
    },
    {
      "inputs": [],
      "name": "Play",
      "outputs": [],
      "stateMutability": "nonpayable",
      "type": "function"
    },
    {
      "inputs": [
        {
          "internalType": "contract IERC20",
          "name": "tokenAddress",
          "type": "address"
        },
        {
          "internalType": "uint256",
          "name": "value",
          "type": "uint256"
        }
      ],
      "name": "Withdrow",
      "outputs": [],
      "stateMutability": "nonpayable",
      "type": "function"
    },
    {
      "inputs": [
        {
          "internalType": "address",
          "name": "addres",
          "type": "address"
        }
      ],
      "name": "_allowToNFT",
      "outputs": [
        {
          "components": [
            {
              "internalType": "uint256[]",
              "name": "lotteryes",
              "type": "uint256[]"
            },
            {
              "internalType": "uint8",
              "name": "dont_use",
              "type": "uint8"
            }
          ],
          "internalType": "struct Lottery.wins",
          "name": "",
          "type": "tuple"
        }
      ],
      "stateMutability": "view",
      "type": "function"
    },
    {
      "inputs": [
        {
          "internalType": "address",
          "name": "a",
          "type": "address"
        },
        {
          "internalType": "uint256",
          "name": "TokenId",
          "type": "uint256"
        }
      ],
      "name": "_findAddressInfirst1000Winers",
      "outputs": [
        {
          "internalType": "bool",
          "name": "",
          "type": "bool"
        }
      ],
      "stateMutability": "view",
      "type": "function"
    },
    {
      "inputs": [
        {
          "internalType": "uint256[]",
          "name": "_lotteryes",
          "type": "uint256[]"
        }
      ],
      "name": "addToAutoEnter",
      "outputs": [],
      "stateMutability": "nonpayable",
      "type": "function"
    },
    {
      "inputs": [
        {
          "internalType": "contract IERC20",
          "name": "tokenAddress",
          "type": "address"
        },
        {
          "internalType": "uint256",
          "name": "deposit",
          "type": "uint256"
        }
      ],
      "name": "addTokensToBalance",
      "outputs": [],
      "stateMutability": "nonpayable",
      "type": "function"
    },
    {
      "inputs": [
        {
          "internalType": "uint256",
          "name": "TokenId",
          "type": "uint256"
        }
      ],
      "name": "allowToNFT",
      "outputs": [
        {
          "internalType": "address",
          "name": "",
          "type": "address"
        }
      ],
      "stateMutability": "view",
      "type": "function"
    },
    {
      "inputs": [
        {
          "internalType": "contract IERC20",
          "name": "tokenAddress",
          "type": "address"
        },
        {
          "internalType": "uint256",
          "name": "deposit",
          "type": "uint256"
        },
        {
          "internalType": "uint256",
          "name": "countOfPlayers",
          "type": "uint256"
        }
      ],
      "name": "createNewLobby",
      "outputs": [],
      "stateMutability": "nonpayable",
      "type": "function"
    },
    {
      "inputs": [
        {
          "internalType": "address",
          "name": "msgsender",
          "type": "address"
        },
        {
          "internalType": "address",
          "name": "lobbyCreator",
          "type": "address"
        },
        {
          "internalType": "uint256",
          "name": "lobbyId",
          "type": "uint256"
        }
      ],
      "name": "findPlayerInLobby",
      "outputs": [
        {
          "internalType": "bool",
          "name": "",
          "type": "bool"
        }
      ],
      "stateMutability": "view",
      "type": "function"
    },
    {
      "inputs": [],
      "name": "getAdrressNFT",
      "outputs": [
        {
          "internalType": "address",
          "name": "",
          "type": "address"
        }
      ],
      "stateMutability": "view",
      "type": "function"
    },
    {
      "inputs": [
        {
          "internalType": "address",
          "name": "a",
          "type": "address"
        }
      ],
      "name": "getAutoEnter",
      "outputs": [
        {
          "internalType": "uint256[]",
          "name": "",
          "type": "uint256[]"
        }
      ],
      "stateMutability": "view",
      "type": "function"
    },
    {
      "inputs": [
        {
          "internalType": "contract IERC20",
          "name": "tokenAddress",
          "type": "address"
        },
        {
          "internalType": "address",
          "name": "a",
          "type": "address"
        }
      ],
      "name": "getBalance",
      "outputs": [
        {
          "internalType": "uint256",
          "name": "",
          "type": "uint256"
        }
      ],
      "stateMutability": "view",
      "type": "function"
    },
    {
      "inputs": [],
      "name": "getHEEP",
      "outputs": [
        {
          "internalType": "uint256",
          "name": "",
          "type": "uint256"
        }
      ],
      "stateMutability": "view",
      "type": "function"
    },
    {
      "inputs": [
        {
          "internalType": "address",
          "name": "creator",
          "type": "address"
        },
        {
          "internalType": "uint256",
          "name": "lobbyid",
          "type": "uint256"
        }
      ],
      "name": "getLobby",
      "outputs": [
        {
          "components": [
            {
              "internalType": "contract IERC20",
              "name": "token",
              "type": "address"
            },
            {
              "internalType": "address",
              "name": "winer",
              "type": "address"
            },
            {
              "internalType": "address[]",
              "name": "players",
              "type": "address[]"
            },
            {
              "internalType": "uint256",
              "name": "deposit",
              "type": "uint256"
            },
            {
              "internalType": "uint256",
              "name": "countOfPlayers",
              "type": "uint256"
            },
            {
              "internalType": "uint256",
              "name": "nowInLobby",
              "type": "uint256"
            }
          ],
          "internalType": "struct Lobby.lobbyShablon",
          "name": "",
          "type": "tuple"
        }
      ],
      "stateMutability": "view",
      "type": "function"
    },
    {
      "inputs": [],
      "name": "getLotteryCount",
      "outputs": [
        {
          "internalType": "uint256",
          "name": "",
          "type": "uint256"
        }
      ],
      "stateMutability": "view",
      "type": "function"
    },
    {
      "inputs": [
        {
          "internalType": "uint256",
          "name": "lotteryId",
          "type": "uint256"
        }
      ],
      "name": "getLotteryShablonByIndex",
      "outputs": [
        {
          "components": [
            {
              "internalType": "address",
              "name": "winer",
              "type": "address"
            },
            {
              "internalType": "address[]",
              "name": "players",
              "type": "address[]"
            },
            {
              "internalType": "uint256",
              "name": "playersCount",
              "type": "uint256"
            }
          ],
          "internalType": "struct Lottery.LotteryShablon",
          "name": "",
          "type": "tuple"
        }
      ],
      "stateMutability": "view",
      "type": "function"
    },
    {
      "inputs": [
        {
          "internalType": "string",
          "name": "a",
          "type": "string"
        }
      ],
      "name": "getPromSetReverse",
      "outputs": [
        {
          "internalType": "address",
          "name": "",
          "type": "address"
        }
      ],
      "stateMutability": "view",
      "type": "function"
    },
    {
      "inputs": [],
      "name": "getREVARD_REF_ALLOW",
      "outputs": [
        {
          "internalType": "uint256",
          "name": "",
          "type": "uint256"
        }
      ],
      "stateMutability": "view",
      "type": "function"
    },
    {
      "inputs": [
        {
          "internalType": "uint256",
          "name": "_playersCount",
          "type": "uint256"
        }
      ],
      "name": "getRandNumber",
      "outputs": [
        {
          "internalType": "uint256",
          "name": "",
          "type": "uint256"
        }
      ],
      "stateMutability": "view",
      "type": "function"
    },
    {
      "inputs": [],
      "name": "getRevardGenius",
      "outputs": [
        {
          "internalType": "uint256",
          "name": "",
          "type": "uint256"
        }
      ],
      "stateMutability": "view",
      "type": "function"
    },
    {
      "inputs": [],
      "name": "getTokenForLottery",
      "outputs": [
        {
          "internalType": "address",
          "name": "",
          "type": "address"
        }
      ],
      "stateMutability": "view",
      "type": "function"
    },
    {
      "inputs": [
        {
          "internalType": "address",
          "name": "a",
          "type": "address"
        }
      ],
      "name": "getcountOfLotteryEnter",
      "outputs": [
        {
          "internalType": "uint256",
          "name": "",
          "type": "uint256"
        }
      ],
      "stateMutability": "view",
      "type": "function"
    },
    {
      "inputs": [
        {
          "internalType": "address",
          "name": "_address",
          "type": "address"
        }
      ],
      "name": "getlobbyCountForAddress",
      "outputs": [
        {
          "internalType": "uint256",
          "name": "",
          "type": "uint256"
        }
      ],
      "stateMutability": "view",
      "type": "function"
    },
    {
      "inputs": [
        {
          "internalType": "address",
          "name": "_address",
          "type": "address"
        }
      ],
      "name": "getlobbyCountForAddressHistory",
      "outputs": [
        {
          "internalType": "uint256",
          "name": "",
          "type": "uint256"
        }
      ],
      "stateMutability": "view",
      "type": "function"
    },
    {
      "inputs": [
        {
          "internalType": "address",
          "name": "a",
          "type": "address"
        }
      ],
      "name": "getshouldRevard",
      "outputs": [
        {
          "internalType": "uint256",
          "name": "",
          "type": "uint256"
        }
      ],
      "stateMutability": "view",
      "type": "function"
    },
    {
      "inputs": [],
      "name": "owner",
      "outputs": [
        {
          "internalType": "address",
          "name": "",
          "type": "address"
        }
      ],
      "stateMutability": "view",
      "type": "function"
    },
    {
      "inputs": [],
      "name": "receiveRevard",
      "outputs": [],
      "stateMutability": "nonpayable",
      "type": "function"
    },
    {
      "inputs": [],
      "name": "renounceOwnership",
      "outputs": [],
      "stateMutability": "nonpayable",
      "type": "function"
    },
    {
      "inputs": [
        {
          "internalType": "contract ERC721with",
          "name": "token",
          "type": "address"
        }
      ],
      "name": "setAdrressNFT",
      "outputs": [],
      "stateMutability": "nonpayable",
      "type": "function"
    },
    {
      "inputs": [
        {
          "internalType": "uint256",
          "name": "value",
          "type": "uint256"
        }
      ],
      "name": "setAutoMint",
      "outputs": [],
      "stateMutability": "nonpayable",
      "type": "function"
    },
    {
      "inputs": [
        {
          "internalType": "address",
          "name": "a",
          "type": "address"
        }
      ],
      "name": "setAutotask",
      "outputs": [],
      "stateMutability": "nonpayable",
      "type": "function"
    },
    {
      "inputs": [
        {
          "internalType": "uint256",
          "name": "_deposit",
          "type": "uint256"
        }
      ],
      "name": "setDeposit",
      "outputs": [],
      "stateMutability": "nonpayable",
      "type": "function"
    },
    {
      "inputs": [
        {
          "internalType": "contract MUD",
          "name": "a",
          "type": "address"
        }
      ],
      "name": "setMUD",
      "outputs": [],
      "stateMutability": "nonpayable",
      "type": "function"
    },
    {
      "inputs": [
        {
          "internalType": "string",
          "name": "a",
          "type": "string"
        }
      ],
      "name": "setPromInput",
      "outputs": [],
      "stateMutability": "nonpayable",
      "type": "function"
    },
    {
      "inputs": [
        {
          "internalType": "string",
          "name": "a",
          "type": "string"
        }
      ],
      "name": "setPromSet",
      "outputs": [],
      "stateMutability": "nonpayable",
      "type": "function"
    },
    {
      "inputs": [
        {
          "internalType": "contract IERC20",
          "name": "_tokenForLottery",
          "type": "address"
        }
      ],
      "name": "setTokenForLottery",
      "outputs": [],
      "stateMutability": "nonpayable",
      "type": "function"
    },
    {
      "inputs": [
        {
          "internalType": "address",
          "name": "newOwner",
          "type": "address"
        }
      ],
      "name": "transferOwnership",
      "outputs": [],
      "stateMutability": "nonpayable",
      "type": "function"
    },
    {
      "inputs": [
        {
          "internalType": "string",
          "name": "_string",
          "type": "string"
        }
      ],
      "name": "tryMistery",
      "outputs": [],
      "stateMutability": "nonpayable",
      "type": "function"
    }
  ],
  "bytecode": "0x60a0604052633b9aca00600555600860646005546200001f9190620002d7565b6200002b91906200030f565b60065560116064600554620000419190620002d7565b6200004d91906200030f565b600755600d6064600554620000639190620002d7565b6200006f91906200030f565b600855601e6064600554620000859190620002d7565b6200009191906200030f565b600955600a6064600554620000a79190620002d7565b620000b391906200030f565b600a5560156064600554620000c99190620002d7565b620000d591906200030f565b600b5560016064600554620000eb9190620002d7565b620000f791906200030f565b600c556000600d556103e8600a54620001119190620002d7565b600e556103e8600954620001269190620002d7565b600f55600f5460105560016012556000601555600b546021553480156200014c57600080fd5b5060405162006111380380620061118339818101604052810190620001729190620003b0565b6200019262000186620001a160201b60201c565b620001a960201b60201c565b806080818152505050620003e2565b600033905090565b6000600160009054906101000a900473ffffffffffffffffffffffffffffffffffffffff16905081600160006101000a81548173ffffffffffffffffffffffffffffffffffffffff021916908373ffffffffffffffffffffffffffffffffffffffff1602179055508173ffffffffffffffffffffffffffffffffffffffff168173ffffffffffffffffffffffffffffffffffffffff167f8be0079c531659141344cd1fd0a4f28419497f9722a3daafe3b4186f6b6457e060405160405180910390a35050565b6000819050919050565b7f4e487b7100000000000000000000000000000000000000000000000000000000600052601260045260246000fd5b7f4e487b7100000000000000000000000000000000000000000000000000000000600052601160045260246000fd5b6000620002e4826200026f565b9150620002f1836200026f565b92508262000304576200030362000279565b5b828204905092915050565b60006200031c826200026f565b915062000329836200026f565b9250817fffffffffffffffffffffffffffffffffffffffffffffffffffffffffffffffff0483118215151615620003655762000364620002a8565b5b828202905092915050565b600080fd5b6000819050919050565b6200038a8162000375565b81146200039657600080fd5b50565b600081519050620003aa816200037f565b92915050565b600060208284031215620003c957620003c862000370565b5b6000620003d98482850162000399565b91505092915050565b608051615d13620003fe600039600061257b0152615d136000f3fe608060405234801561001057600080fd5b50600436106102485760003560e01c806381e1e4b11161013b578063cfd717da116100b8578063e9ed35761161007c578063e9ed3576146106e7578063f2fde38b14610705578063f3304e0d14610721578063f5bade661461073f578063fb9c00c81461075b57610248565b8063cfd717da1461061f578063d4fac45d1461063b578063e1f97dd21461066b578063e8844e7614610687578063e9858a58146106b757610248565b8063a7421d81116100ff578063a7421d8114610557578063aa78dda114610573578063bd24435b1461058f578063c7766cc4146105bf578063cd8f98e8146105ef57610248565b806381e1e4b1146104a157806383a365ca146104d15780638da5cb5b146104ed578063a41c63e21461050b578063a53aa0ac1461052757610248565b80634137fc64116101c957806358a10e871161018d57806358a10e871461042557806361a4c751146104415780636d12dce41461045d578063715018a61461048d5780637f4d86d71461049757610248565b80634137fc641461037f57806346254c3a1461039b57806347d9833d146103b95780635443a8fd146103d757806357b526fc146103f557610248565b80631c64f010116102105780631c64f010146102dd57806325876ddf1461030d57806325c3a9071461032957806329a4a281146103455780632f9aa1fe1461036157610248565b806304b675ae1461024d578063053e3b451461027d5780630e2dce69146102995780631097e579146102a35780631881cc03146102ad575b600080fd5b6102676004803603810190610262919061476f565b61078b565b60405161027491906147ca565b60405180910390f35b6102976004803603810190610292919061492b565b610808565b005b6102a1610a96565b005b6102ab611148565b005b6102c760048036038101906102c29190614974565b6113e2565b6040516102d491906149b0565b60405180910390f35b6102f760048036038101906102f29190614974565b61142b565b60405161030491906149b0565b60405180910390f35b6103276004803603810190610322919061476f565b611474565b005b610343600480360381019061033e91906149cb565b6119a1565b005b61035f600480360381019061035a9190614a36565b611a27565b005b610369611ae7565b60405161037691906149b0565b60405180910390f35b6103996004803603810190610394919061492b565b611af1565b005b6103a3611cac565b6040516103b09190614a72565b60405180910390f35b6103c1611cd6565b6040516103ce91906149b0565b60405180910390f35b6103df611ce0565b6040516103ec9190614a72565b60405180910390f35b61040f600480360381019061040a9190614974565b611d0a565b60405161041c91906149b0565b60405180910390f35b61043f600480360381019061043a9190614974565b611d53565b005b61045b60048036038101906104569190614acb565b611e13565b005b6104776004803603810190610472919061476f565b611fb8565b6040516104849190614cc0565b60405180910390f35b61049561217b565b005b61049f612203565b005b6104bb60048036038101906104b69190614974565b6123a0565b6040516104c89190614d91565b60405180910390f35b6104eb60048036038101906104e6919061492b565b61243a565b005b6104f561263d565b6040516105029190614a72565b60405180910390f35b61052560048036038101906105209190614acb565b612667565b005b610541600480360381019061053c9190614974565b61278c565b60405161054e91906149b0565b60405180910390f35b610571600480360381019061056c9190614db3565b6127d5565b005b61058d60048036038101906105889190614ea8565b612895565b005b6105a960048036038101906105a491906149cb565b612ced565b6040516105b691906149b0565b60405180910390f35b6105d960048036038101906105d4919061492b565b612d3c565b6040516105e69190614a72565b60405180910390f35b610609600480360381019061060491906149cb565b612da4565b6040516106169190614f41565b60405180910390f35b61063960048036038101906106349190614fa1565b612ebf565b005b61065560048036038101906106509190614fce565b612f7f565b60405161066291906149b0565b60405180910390f35b6106856004803603810190610680919061500e565b613005565b005b6106a1600480360381019061069c9190615061565b6133e8565b6040516106ae91906147ca565b60405180910390f35b6106d160048036038101906106cc91906149cb565b6135a4565b6040516106de9190614a72565b60405180910390f35b6106ef6135e1565b6040516106fc91906149b0565b60405180910390f35b61071f600480360381019061071a9190614974565b6135eb565b005b6107296136e3565b60405161073691906149b0565b60405180910390f35b610759600480360381019061075491906149cb565b6136ed565b005b61077560048036038101906107709190614974565b613773565b604051610782919061517c565b60405180910390f35b60008273ffffffffffffffffffffffffffffffffffffffff166017600084815260200190815260200160002060009054906101000a900473ffffffffffffffffffffffffffffffffffffffff1673ffffffffffffffffffffffffffffffffffffffff1614156107fd5760019050610802565b600090505b92915050565b60008160405160200161081b9190615218565b6040516020818303038152906040528051906020012090503373ffffffffffffffffffffffffffffffffffffffff16601c600083815260200190815260200160002060009054906101000a900473ffffffffffffffffffffffffffffffffffffffff1673ffffffffffffffffffffffffffffffffffffffff1614156108d5576040517f08c379a00000000000000000000000000000000000000000000000000000000081526004016108cc9061528c565b60405180910390fd5b6000801b601b60003373ffffffffffffffffffffffffffffffffffffffff1673ffffffffffffffffffffffffffffffffffffffff168152602001908152602001600020600101541461095c576040517f08c379a0000000000000000000000000000000000000000000000000000000008152600401610953906152f8565b60405180910390fd5b600073ffffffffffffffffffffffffffffffffffffffff16601c600083815260200190815260200160002060009054906101000a900473ffffffffffffffffffffffffffffffffffffffff1673ffffffffffffffffffffffffffffffffffffffff1614156109ff576040517f08c379a00000000000000000000000000000000000000000000000000000000081526004016109f690615364565b60405180910390fd5b6000601a60003373ffffffffffffffffffffffffffffffffffffffff1673ffffffffffffffffffffffffffffffffffffffff1681526020019081526020016000205414610a4b57600080fd5b80601b60003373ffffffffffffffffffffffffffffffffffffffff1673ffffffffffffffffffffffffffffffffffffffff168152602001908152602001600020600101819055505050565b610a9e61263d565b73ffffffffffffffffffffffffffffffffffffffff163373ffffffffffffffffffffffffffffffffffffffff161480610b245750602060009054906101000a900473ffffffffffffffffffffffffffffffffffffffff1673ffffffffffffffffffffffffffffffffffffffff163373ffffffffffffffffffffffffffffffffffffffff16145b610b2d57600080fd5b600080601660006012548152602001908152602001600020600201541415610b5e57610b5761263d565b9050610bdc565b6000610b8160166000601254815260200190815260200160002060020154612ced565b90506016600060125481526020019081526020016000206001018181548110610bad57610bac615384565b5b9060005260206000200160009054906101000a900473ffffffffffffffffffffffffffffffffffffffff169150505b6103e860125411610ca7578060176000601254815260200190815260200160002060006101000a81548173ffffffffffffffffffffffffffffffffffffffff021916908373ffffffffffffffffffffffffffffffffffffffff160217905550601860008273ffffffffffffffffffffffffffffffffffffffff1673ffffffffffffffffffffffffffffffffffffffff16815260200190815260200160002060000160125490806001815401808255809150506001900390600052602060002001600090919091909150555b60166000601254815260200190815260200160002060020154601e54610ccd91906153e2565b600080601f60009054906101000a900473ffffffffffffffffffffffffffffffffffffffff1673ffffffffffffffffffffffffffffffffffffffff1673ffffffffffffffffffffffffffffffffffffffff16815260200190815260200160002060008373ffffffffffffffffffffffffffffffffffffffff1673ffffffffffffffffffffffffffffffffffffffff1681526020019081526020016000206000828254610d79919061543c565b925050819055508060166000601254815260200190815260200160002060000160006101000a81548173ffffffffffffffffffffffffffffffffffffffff021916908373ffffffffffffffffffffffffffffffffffffffff160217905550603360125410158015610ded575061041b601254105b8015610ea05750601460009054906101000a900473ffffffffffffffffffffffffffffffffffffffff1673ffffffffffffffffffffffffffffffffffffffff1663e472f1356032601254610e419190615492565b6040518263ffffffff1660e01b8152600401610e5d91906149b0565b602060405180830381865afa158015610e7a573d6000803e3d6000fd5b505050506040513d601f19601f82011682018060405250810190610e9e91906154f2565b155b15610eae57610ead613841565b5b61041b60125410158015610ec55750610803601254105b1561105b576000601660006012548152602001908152602001600020600101805480602002602001604051908101604052809291908181526020018280548015610f6457602002820191906000526020600020905b8160009054906101000a900473ffffffffffffffffffffffffffffffffffffffff1673ffffffffffffffffffffffffffffffffffffffff1681526020019060010190808311610f1a575b50505050509050600081519050600081118015610f95575080670de0b6b3a7640000600e54610f9391906153e2565b115b1561103d57600081600e54610faa919061554e565b905060005b8281101561103a578160116000868481518110610fcf57610fce615384565b5b602002602001015173ffffffffffffffffffffffffffffffffffffffff1673ffffffffffffffffffffffffffffffffffffffff1681526020019081526020016000206000828254611020919061543c565b9250508190555080806110329061557f565b915050610faf565b50505b600f5460106000828254611051919061543c565b9250508190555050505b61041a60125414156110f25761106f613af4565b611077613cf2565b61107f613e55565b601360009054906101000a900473ffffffffffffffffffffffffffffffffffffffff16601f60006101000a81548173ffffffffffffffffffffffffffffffffffffffff021916908373ffffffffffffffffffffffffffffffffffffffff160217905550678ac7230489e80000601e819055505b7f31f8e0596bf7a98088824238285005ef74dd9359831490f63215e44147279bd3601254826040516111259291906155c8565b60405180910390a1601260008154809291906111409061557f565b919050555050565b601e54611177601f60009054906101000a900473ffffffffffffffffffffffffffffffffffffffff1633612f7f565b1015801561118e575061118c33601254613f14565b155b6111cd576040517f08c379a00000000000000000000000000000000000000000000000000000000081526004016111c49061563d565b60405180910390fd5b6000601a60003373ffffffffffffffffffffffffffffffffffffffff1673ffffffffffffffffffffffffffffffffffffffff1681526020019081526020016000205414801561122057506107d060215410155b1561122e5761122d6140b8565b5b601a60003373ffffffffffffffffffffffffffffffffffffffff1673ffffffffffffffffffffffffffffffffffffffff168152602001908152602001600020600081548092919061127e9061557f565b9190505550601e54600080601f60009054906101000a900473ffffffffffffffffffffffffffffffffffffffff1673ffffffffffffffffffffffffffffffffffffffff1673ffffffffffffffffffffffffffffffffffffffff16815260200190815260200160002060003373ffffffffffffffffffffffffffffffffffffffff1673ffffffffffffffffffffffffffffffffffffffff16815260200190815260200160002060008282546113329190615492565b92505081905550601660006012548152602001908152602001600020600101339080600181540180825580915050600190039060005260206000200160009091909190916101000a81548173ffffffffffffffffffffffffffffffffffffffff021916908373ffffffffffffffffffffffffffffffffffffffff16021790555060166000601254815260200190815260200160002060020160008154809291906113db9061557f565b9190505550565b6000601160008373ffffffffffffffffffffffffffffffffffffffff1673ffffffffffffffffffffffffffffffffffffffff168152602001908152602001600020549050919050565b6000600360008373ffffffffffffffffffffffffffffffffffffffff1673ffffffffffffffffffffffffffffffffffffffff168152602001908152602001600020549050919050565b60003390506000600460008573ffffffffffffffffffffffffffffffffffffffff1673ffffffffffffffffffffffffffffffffffffffff1681526020019081526020016000206000848152602001908152602001600020905080600301546000808360000160009054906101000a900473ffffffffffffffffffffffffffffffffffffffff1673ffffffffffffffffffffffffffffffffffffffff1673ffffffffffffffffffffffffffffffffffffffff16815260200190815260200160002060008473ffffffffffffffffffffffffffffffffffffffff1673ffffffffffffffffffffffffffffffffffffffff16815260200190815260200160002054101580156115d457506000600460008673ffffffffffffffffffffffffffffffffffffffff1673ffffffffffffffffffffffffffffffffffffffff16815260200190815260200160002060008581526020019081526020016000206005015414155b80156115e857506115e68285856133e8565b155b6115f157600080fd5b80600301546000808360000160009054906101000a900473ffffffffffffffffffffffffffffffffffffffff1673ffffffffffffffffffffffffffffffffffffffff1673ffffffffffffffffffffffffffffffffffffffff16815260200190815260200160002060008473ffffffffffffffffffffffffffffffffffffffff1673ffffffffffffffffffffffffffffffffffffffff16815260200190815260200160002060008282546116a49190615492565b9250508190555080600201829080600181540180825580915050600190039060005260206000200160009091909190916101000a81548173ffffffffffffffffffffffffffffffffffffffff021916908373ffffffffffffffffffffffffffffffffffffffff160217905550600081600501600081546117239061557f565b9190508190559050816004015481141561199a5760006118a5836040518060c00160405290816000820160009054906101000a900473ffffffffffffffffffffffffffffffffffffffff1673ffffffffffffffffffffffffffffffffffffffff1673ffffffffffffffffffffffffffffffffffffffff1681526020016001820160009054906101000a900473ffffffffffffffffffffffffffffffffffffffff1673ffffffffffffffffffffffffffffffffffffffff1673ffffffffffffffffffffffffffffffffffffffff1681526020016002820180548060200260200160405190810160405280929190818152602001828054801561187957602002820191906000526020600020905b8160009054906101000a900473ffffffffffffffffffffffffffffffffffffffff1673ffffffffffffffffffffffffffffffffffffffff168152602001906001019080831161182f575b505050505081526020016003820154815260200160048201548152602001600582015481525050614211565b9050808360010160006101000a81548173ffffffffffffffffffffffffffffffffffffffff021916908373ffffffffffffffffffffffffffffffffffffffff1602179055506000600460008873ffffffffffffffffffffffffffffffffffffffff1673ffffffffffffffffffffffffffffffffffffffff168152602001908152602001600020600087815260200190815260200160002060050181905550600260008773ffffffffffffffffffffffffffffffffffffffff1673ffffffffffffffffffffffffffffffffffffffff16815260200190815260200160002060008154809291906119939061565d565b9190505550505b5050505050565b6119a9614543565b73ffffffffffffffffffffffffffffffffffffffff166119c761263d565b73ffffffffffffffffffffffffffffffffffffffff1614611a1d576040517f08c379a0000000000000000000000000000000000000000000000000000000008152600401611a14906156d3565b60405180910390fd5b8060158190555050565b611a2f614543565b73ffffffffffffffffffffffffffffffffffffffff16611a4d61263d565b73ffffffffffffffffffffffffffffffffffffffff1614611aa3576040517f08c379a0000000000000000000000000000000000000000000000000000000008152600401611a9a906156d3565b60405180910390fd5b80601460006101000a81548173ffffffffffffffffffffffffffffffffffffffff021916908373ffffffffffffffffffffffffffffffffffffffff16021790555050565b6000601254905090565b600081604051602001611b049190615218565b6040516020818303038152906040528051906020012090506000801b601b60003373ffffffffffffffffffffffffffffffffffffffff1673ffffffffffffffffffffffffffffffffffffffff1681526020019081526020016000206000015414611b6d57600080fd5b600073ffffffffffffffffffffffffffffffffffffffff16601c600083815260200190815260200160002060009054906101000a900473ffffffffffffffffffffffffffffffffffffffff1673ffffffffffffffffffffffffffffffffffffffff1614611c0f576040517f08c379a0000000000000000000000000000000000000000000000000000000008152600401611c069061573f565b60405180910390fd5b80601b60003373ffffffffffffffffffffffffffffffffffffffff1673ffffffffffffffffffffffffffffffffffffffff1681526020019081526020016000206000018190555033601c600083815260200190815260200160002060006101000a81548173ffffffffffffffffffffffffffffffffffffffff021916908373ffffffffffffffffffffffffffffffffffffffff1602179055505050565b6000601f60009054906101000a900473ffffffffffffffffffffffffffffffffffffffff16905090565b6000601054905090565b6000601460009054906101000a900473ffffffffffffffffffffffffffffffffffffffff16905090565b6000600260008373ffffffffffffffffffffffffffffffffffffffff1673ffffffffffffffffffffffffffffffffffffffff168152602001908152602001600020549050919050565b611d5b614543565b73ffffffffffffffffffffffffffffffffffffffff16611d7961263d565b73ffffffffffffffffffffffffffffffffffffffff1614611dcf576040517f08c379a0000000000000000000000000000000000000000000000000000000008152600401611dc6906156d3565b60405180910390fd5b80602060006101000a81548173ffffffffffffffffffffffffffffffffffffffff021916908373ffffffffffffffffffffffffffffffffffffffff16021790555050565b806000808473ffffffffffffffffffffffffffffffffffffffff1673ffffffffffffffffffffffffffffffffffffffff16815260200190815260200160002060003373ffffffffffffffffffffffffffffffffffffffff1673ffffffffffffffffffffffffffffffffffffffff168152602001908152602001600020541015611e9b57600080fd5b8173ffffffffffffffffffffffffffffffffffffffff1663a9059cbb33836040518363ffffffff1660e01b8152600401611ed692919061575f565b6020604051808303816000875af1158015611ef5573d6000803e3d6000fd5b505050506040513d601f19601f82011682018060405250810190611f1991906154f2565b611f2257600080fd5b806000808473ffffffffffffffffffffffffffffffffffffffff1673ffffffffffffffffffffffffffffffffffffffff16815260200190815260200160002060003373ffffffffffffffffffffffffffffffffffffffff1673ffffffffffffffffffffffffffffffffffffffff1681526020019081526020016000206000828254611fad9190615492565b925050819055505050565b611fc0614611565b600460008473ffffffffffffffffffffffffffffffffffffffff1673ffffffffffffffffffffffffffffffffffffffff16815260200190815260200160002060008381526020019081526020016000206040518060c00160405290816000820160009054906101000a900473ffffffffffffffffffffffffffffffffffffffff1673ffffffffffffffffffffffffffffffffffffffff1673ffffffffffffffffffffffffffffffffffffffff1681526020016001820160009054906101000a900473ffffffffffffffffffffffffffffffffffffffff1673ffffffffffffffffffffffffffffffffffffffff1673ffffffffffffffffffffffffffffffffffffffff1681526020016002820180548060200260200160405190810160405280929190818152602001828054801561214c57602002820191906000526020600020905b8160009054906101000a900473ffffffffffffffffffffffffffffffffffffffff1673ffffffffffffffffffffffffffffffffffffffff1681526020019060010190808311612102575b505050505081526020016003820154815260200160048201548152602001600582015481525050905092915050565b612183614543565b73ffffffffffffffffffffffffffffffffffffffff166121a161263d565b73ffffffffffffffffffffffffffffffffffffffff16146121f7576040517f08c379a00000000000000000000000000000000000000000000000000000000081526004016121ee906156d3565b60405180910390fd5b612201600061454b565b565b6000601160003373ffffffffffffffffffffffffffffffffffffffff1673ffffffffffffffffffffffffffffffffffffffff16815260200190815260200160002054118015612255575061041a601254115b61225e57600080fd5b601360009054906101000a900473ffffffffffffffffffffffffffffffffffffffff1673ffffffffffffffffffffffffffffffffffffffff1663e16acb8333670de0b6b3a7640000601160003373ffffffffffffffffffffffffffffffffffffffff1673ffffffffffffffffffffffffffffffffffffffff168152602001908152602001600020546122f091906153e2565b6040518363ffffffff1660e01b815260040161230d92919061575f565b6020604051808303816000875af115801561232c573d6000803e3d6000fd5b505050506040513d601f19601f8201168201806040525081019061235091906154f2565b61235957600080fd5b6000601160003373ffffffffffffffffffffffffffffffffffffffff1673ffffffffffffffffffffffffffffffffffffffff16815260200190815260200160002081905550565b6060601960008373ffffffffffffffffffffffffffffffffffffffff1673ffffffffffffffffffffffffffffffffffffffff16815260200190815260200160002060000180548060200260200160405190810160405280929190818152602001828054801561242e57602002820191906000526020600020905b81548152602001906001019080831161241a575b50505050509050919050565b426236ee80601d60003373ffffffffffffffffffffffffffffffffffffffff1673ffffffffffffffffffffffffffffffffffffffff16815260200190815260200160002054612489919061543c565b106124c9576040517f08c379a00000000000000000000000000000000000000000000000000000000081526004016124c0906157d4565b60405180910390fd5b6000600c541161250e576040517f08c379a000000000000000000000000000000000000000000000000000000000815260040161250590615840565b60405180910390fd5b42601d60003373ffffffffffffffffffffffffffffffffffffffff1673ffffffffffffffffffffffffffffffffffffffff16815260200190815260200160002081905550806040516020016125639190615218565b604051602081830303815290604052805190602001207f0000000000000000000000000000000000000000000000000000000000000000141561263a57600c54601160003373ffffffffffffffffffffffffffffffffffffffff1673ffffffffffffffffffffffffffffffffffffffff16815260200190815260200160002060008282546125f1919061543c565b925050819055506000600c819055507f8bfa80df432eb1ac1ee18e3c6c63813839b9ccd6eb47d1d7edf53ccbed6937b73382604051612631929190615899565b60405180910390a15b50565b6000600160009054906101000a900473ffffffffffffffffffffffffffffffffffffffff16905090565b60003390508273ffffffffffffffffffffffffffffffffffffffff166323b872dd8230856040518463ffffffff1660e01b81526004016126a9939291906158c9565b6020604051808303816000875af11580156126c8573d6000803e3d6000fd5b505050506040513d601f19601f820116820180604052508101906126ec91906154f2565b6126f557600080fd5b816000808573ffffffffffffffffffffffffffffffffffffffff1673ffffffffffffffffffffffffffffffffffffffff16815260200190815260200160002060008373ffffffffffffffffffffffffffffffffffffffff1673ffffffffffffffffffffffffffffffffffffffff1681526020019081526020016000206000828254612780919061543c565b92505081905550505050565b6000601a60008373ffffffffffffffffffffffffffffffffffffffff1673ffffffffffffffffffffffffffffffffffffffff168152602001908152602001600020549050919050565b6127dd614543565b73ffffffffffffffffffffffffffffffffffffffff166127fb61263d565b73ffffffffffffffffffffffffffffffffffffffff1614612851576040517f08c379a0000000000000000000000000000000000000000000000000000000008152600401612848906156d3565b60405180910390fd5b80601f60006101000a81548173ffffffffffffffffffffffffffffffffffffffff021916908373ffffffffffffffffffffffffffffffffffffffff16021790555050565b600081519050601e54816128a991906153e2565b600080601f60009054906101000a900473ffffffffffffffffffffffffffffffffffffffff1673ffffffffffffffffffffffffffffffffffffffff1673ffffffffffffffffffffffffffffffffffffffff16815260200190815260200160002060003373ffffffffffffffffffffffffffffffffffffffff1673ffffffffffffffffffffffffffffffffffffffff168152602001908152602001600020541015612988576040517f08c379a000000000000000000000000000000000000000000000000000000000815260040161297f9061594c565b60405180910390fd5b6000601254905060005b828110156129d357818482815181106129ae576129ad615384565b5b6020026020010151116129c057600080fd5b80806129cb9061557f565b915050612992565b506000601a60003373ffffffffffffffffffffffffffffffffffffffff1673ffffffffffffffffffffffffffffffffffffffff16815260200190815260200160002054148015612a2757506107d060215410155b15612a3557612a346140b8565b5b6000601960003373ffffffffffffffffffffffffffffffffffffffff1673ffffffffffffffffffffffffffffffffffffffff168152602001908152602001600020905060005b83811015612ce657612aa733868381518110612a9a57612a99615384565b5b6020026020010151613f14565b612cd357601e54600080601f60009054906101000a900473ffffffffffffffffffffffffffffffffffffffff1673ffffffffffffffffffffffffffffffffffffffff1673ffffffffffffffffffffffffffffffffffffffff16815260200190815260200160002060003373ffffffffffffffffffffffffffffffffffffffff1673ffffffffffffffffffffffffffffffffffffffff1681526020019081526020016000206000828254612b5a9190615492565b9250508190555060166000868381518110612b7857612b77615384565b5b60200260200101518152602001908152602001600020600101339080600181540180825580915050600190039060005260206000200160009091909190916101000a81548173ffffffffffffffffffffffffffffffffffffffff021916908373ffffffffffffffffffffffffffffffffffffffff16021790555060166000868381518110612c0957612c08615384565b5b602002602001015181526020019081526020016000206002016000815480929190612c339061557f565b9190505550601a60003373ffffffffffffffffffffffffffffffffffffffff1673ffffffffffffffffffffffffffffffffffffffff1681526020019081526020016000206000815480929190612c889061557f565b919050555081600001858281518110612ca457612ca3615384565b5b602002602001015190806001815401808255809150506001900390600052602060002001600090919091909150555b8080612cde9061557f565b915050612a7b565b5050505050565b6000808214612d32578142604051602001612d08919061598d565b6040516020818303038152906040528051906020012060001c612d2b91906159a8565b9050612d37565b600090505b919050565b60008082604051602001612d509190615218565b604051602081830303815290604052805190602001209050601c600082815260200190815260200160002060009054906101000a900473ffffffffffffffffffffffffffffffffffffffff16915050919050565b612dac614673565b601660008381526020019081526020016000206040518060600160405290816000820160009054906101000a900473ffffffffffffffffffffffffffffffffffffffff1673ffffffffffffffffffffffffffffffffffffffff1673ffffffffffffffffffffffffffffffffffffffff16815260200160018201805480602002602001604051908101604052809291908181526020018280548015612ea557602002820191906000526020600020905b8160009054906101000a900473ffffffffffffffffffffffffffffffffffffffff1673ffffffffffffffffffffffffffffffffffffffff1681526020019060010190808311612e5b575b505050505081526020016002820154815250509050919050565b612ec7614543565b73ffffffffffffffffffffffffffffffffffffffff16612ee561263d565b73ffffffffffffffffffffffffffffffffffffffff1614612f3b576040517f08c379a0000000000000000000000000000000000000000000000000000000008152600401612f32906156d3565b60405180910390fd5b80601360006101000a81548173ffffffffffffffffffffffffffffffffffffffff021916908373ffffffffffffffffffffffffffffffffffffffff16021790555050565b60008060008473ffffffffffffffffffffffffffffffffffffffff1673ffffffffffffffffffffffffffffffffffffffff16815260200190815260200160002060008373ffffffffffffffffffffffffffffffffffffffff1673ffffffffffffffffffffffffffffffffffffffff16815260200190815260200160002054905092915050565b6000339050826000808673ffffffffffffffffffffffffffffffffffffffff1673ffffffffffffffffffffffffffffffffffffffff16815260200190815260200160002060008373ffffffffffffffffffffffffffffffffffffffff1673ffffffffffffffffffffffffffffffffffffffff16815260200190815260200160002054101580156130d45750600a600260008373ffffffffffffffffffffffffffffffffffffffff1673ffffffffffffffffffffffffffffffffffffffff16815260200190815260200160002054105b80156130e257506103e88211155b80156130ee5750600182115b6130f757600080fd5b826000808673ffffffffffffffffffffffffffffffffffffffff1673ffffffffffffffffffffffffffffffffffffffff16815260200190815260200160002060008373ffffffffffffffffffffffffffffffffffffffff1673ffffffffffffffffffffffffffffffffffffffff16815260200190815260200160002060008282546131829190615492565b92505081905550600260008273ffffffffffffffffffffffffffffffffffffffff1673ffffffffffffffffffffffffffffffffffffffff16815260200190815260200160002060008154809291906131d99061557f565b91905055506000600360008373ffffffffffffffffffffffffffffffffffffffff1673ffffffffffffffffffffffffffffffffffffffff1681526020019081526020016000206000815461322c9061557f565b91905081905590506000600460008473ffffffffffffffffffffffffffffffffffffffff1673ffffffffffffffffffffffffffffffffffffffff1681526020019081526020016000206000838152602001908152602001600020905080600201839080600181540180825580915050600190039060005260206000200160009091909190916101000a81548173ffffffffffffffffffffffffffffffffffffffff021916908373ffffffffffffffffffffffffffffffffffffffff160217905550848160030181905550838160040181905550858160000160006101000a81548173ffffffffffffffffffffffffffffffffffffffff021916908373ffffffffffffffffffffffffffffffffffffffff1602179055506001816005018190555060008160010160006101000a81548173ffffffffffffffffffffffffffffffffffffffff021916908373ffffffffffffffffffffffffffffffffffffffff16021790555083853373ffffffffffffffffffffffffffffffffffffffff167f6f1b31f27769fa94b13e0dd993d4dd2155660e9fa13d6bb178841fdd812853d2856040516133d891906149b0565b60405180910390a4505050505050565b600080600460008573ffffffffffffffffffffffffffffffffffffffff1673ffffffffffffffffffffffffffffffffffffffff16815260200190815260200160002060008481526020019081526020016000206002018054806020026020016040519081016040528092919081815260200182805480156134be57602002820191906000526020600020905b8160009054906101000a900473ffffffffffffffffffffffffffffffffffffffff1673ffffffffffffffffffffffffffffffffffffffff1681526020019060010190808311613474575b505050505090506000600460008673ffffffffffffffffffffffffffffffffffffffff1673ffffffffffffffffffffffffffffffffffffffff168152602001908152602001600020600085815260200190815260200160002060050154905060005b81811015613595578673ffffffffffffffffffffffffffffffffffffffff1683828151811061355257613551615384565b5b602002602001015173ffffffffffffffffffffffffffffffffffffffff161415613582576001935050505061359d565b808061358d9061557f565b915050613520565b506000925050505b9392505050565b60006017600083815260200190815260200160002060009054906101000a900473ffffffffffffffffffffffffffffffffffffffff169050919050565b6000602154905090565b6135f3614543565b73ffffffffffffffffffffffffffffffffffffffff1661361161263d565b73ffffffffffffffffffffffffffffffffffffffff1614613667576040517f08c379a000000000000000000000000000000000000000000000000000000000815260040161365e906156d3565b60405180910390fd5b600073ffffffffffffffffffffffffffffffffffffffff168173ffffffffffffffffffffffffffffffffffffffff1614156136d7576040517f08c379a00000000000000000000000000000000000000000000000000000000081526004016136ce90615a4b565b60405180910390fd5b6136e08161454b565b50565b6000600c54905090565b6136f5614543565b73ffffffffffffffffffffffffffffffffffffffff1661371361263d565b73ffffffffffffffffffffffffffffffffffffffff1614613769576040517f08c379a0000000000000000000000000000000000000000000000000000000008152600401613760906156d3565b60405180910390fd5b80601e8190555050565b61377b6146aa565b601860008373ffffffffffffffffffffffffffffffffffffffff1673ffffffffffffffffffffffffffffffffffffffff1681526020019081526020016000206040518060400160405290816000820180548060200260200160405190810160405280929190818152602001828054801561381457602002820191906000526020600020905b815481526020019060010190808311613800575b505050505081526020016001820160009054906101000a900460ff1660ff1660ff16815250509050919050565b6000603290506000601760008360125461385b9190615492565b815260200190815260200160002060009054906101000a900473ffffffffffffffffffffffffffffffffffffffff1690506000601860008373ffffffffffffffffffffffffffffffffffffffff1673ffffffffffffffffffffffffffffffffffffffff168152602001908152602001600020600001905060008180549050905060005b81811015613a0a57846012546138f49190615492565b83828154811061390757613906615384565b5b906000526020600020015414156139f757600182141561394d578280548061393257613931615a6b565b5b600190038181906000526020600020016000905590556139f2565b60008190505b600184805490506139649190615492565b8110156139c95783600182613979919061543c565b8154811061398a57613989615384565b5b90600052602060002001548482815481106139a8576139a7615384565b5b906000526020600020018190555080806139c19061557f565b915050613953565b50828054806139db576139da615a6b565b5b600190038181906000526020600020016000905590555b613a0a565b8080613a029061557f565b9150506138de565b50613a1361263d565b6017600086601254613a259190615492565b815260200190815260200160002060006101000a81548173ffffffffffffffffffffffffffffffffffffffff021916908373ffffffffffffffffffffffffffffffffffffffff16021790555060186000613a7d61263d565b73ffffffffffffffffffffffffffffffffffffffff1673ffffffffffffffffffffffffffffffffffffffff16815260200190815260200160002060000184601254613ac89190615492565b908060018154018082558091505060019003906000526020600020016000909190919091505550505050565b6000601460009054906101000a900473ffffffffffffffffffffffffffffffffffffffff1673ffffffffffffffffffffffffffffffffffffffff16638951764a6040518163ffffffff1660e01b8152600401600060405180830381865afa158015613b63573d6000803e3d6000fd5b505050506040513d6000823e3d601f19601f82011682018060405250810190613b8c9190615b46565b90506000815190506000811115613cee576000670de0b6b3a764000082600654613bb6919061554e565b613bc091906153e2565b905060005b82811015613ceb578160116000601460009054906101000a900473ffffffffffffffffffffffffffffffffffffffff1673ffffffffffffffffffffffffffffffffffffffff16636352211e888681518110613c2357613c22615384565b5b60200260200101516040518263ffffffff1660e01b8152600401613c4791906149b0565b602060405180830381865afa158015613c64573d6000803e3d6000fd5b505050506040513d601f19601f82011682018060405250810190613c889190615ba4565b73ffffffffffffffffffffffffffffffffffffffff1673ffffffffffffffffffffffffffffffffffffffff1681526020019081526020016000206000828254613cd1919061543c565b925050819055508080613ce39061557f565b915050613bc5565b50505b5050565b6000601460009054906101000a900473ffffffffffffffffffffffffffffffffffffffff1673ffffffffffffffffffffffffffffffffffffffff166379b354116040518163ffffffff1660e01b8152600401600060405180830381865afa158015613d61573d6000803e3d6000fd5b505050506040513d6000823e3d601f19601f82011682018060405250810190613d8a9190615c94565b90506000815190506000811115613e51576000670de0b6b3a764000082600754613db4919061554e565b613dbe91906153e2565b905060005b82811015613e4e578160116000868481518110613de357613de2615384565b5b602002602001015173ffffffffffffffffffffffffffffffffffffffff1673ffffffffffffffffffffffffffffffffffffffff1681526020019081526020016000206000828254613e34919061543c565b925050819055508080613e469061557f565b915050613dc3565b50505b5050565b601360009054906101000a900473ffffffffffffffffffffffffffffffffffffffff1673ffffffffffffffffffffffffffffffffffffffff1663e16acb83613e9b61263d565b670de0b6b3a7640000600854613eb191906153e2565b6040518363ffffffff1660e01b8152600401613ece92919061575f565b6020604051808303816000875af1158015613eed573d6000803e3d6000fd5b505050506040513d601f19601f82011682018060405250810190613f1191906154f2565b50565b600080601660008481526020019081526020016000206040518060600160405290816000820160009054906101000a900473ffffffffffffffffffffffffffffffffffffffff1673ffffffffffffffffffffffffffffffffffffffff1673ffffffffffffffffffffffffffffffffffffffff1681526020016001820180548060200260200160405190810160405280929190818152602001828054801561401057602002820191906000526020600020905b8160009054906101000a900473ffffffffffffffffffffffffffffffffffffffff1673ffffffffffffffffffffffffffffffffffffffff1681526020019060010190808311613fc6575b50505050508152602001600282015481525050905060008160400151905060005b818110156140aa578573ffffffffffffffffffffffffffffffffffffffff168360200151828151811061406757614066615384565b5b602002602001015173ffffffffffffffffffffffffffffffffffffffff16141561409757600193505050506140b2565b80806140a29061557f565b915050614031565b506000925050505b92915050565b6000601b60003373ffffffffffffffffffffffffffffffffffffffff1673ffffffffffffffffffffffffffffffffffffffff168152602001908152602001600020600101549050806000801b1461420e576000601c600083815260200190815260200160002060009054906101000a900473ffffffffffffffffffffffffffffffffffffffff1690506107d0602160008282546141559190615492565b925050819055506103e8601160003373ffffffffffffffffffffffffffffffffffffffff1673ffffffffffffffffffffffffffffffffffffffff16815260200190815260200160002060008282546141ad919061543c565b925050819055506103e8601160008373ffffffffffffffffffffffffffffffffffffffff1673ffffffffffffffffffffffffffffffffffffffff1681526020019081526020016000206000828254614205919061543c565b92505081905550505b50565b6000806142218360800151612ced565b90508260800151836060015161423791906153e2565b600080856000015173ffffffffffffffffffffffffffffffffffffffff1673ffffffffffffffffffffffffffffffffffffffff16815260200190815260200160002060008560400151848151811061429257614291615384565b5b602002602001015173ffffffffffffffffffffffffffffffffffffffff1673ffffffffffffffffffffffffffffffffffffffff16815260200190815260200160002060008282546142e3919061543c565b925050819055506000836040015151905061041b601254101580156143595750601360009054906101000a900473ffffffffffffffffffffffffffffffffffffffff1673ffffffffffffffffffffffffffffffffffffffff16846000015173ffffffffffffffffffffffffffffffffffffffff16145b80156143735750600a8161436d91906153e2565b60105410155b801561438c57506802b5e3af16b1880000846060015110155b1561451b5760005b818110156145195760006015541461447f57601360009054906101000a900473ffffffffffffffffffffffffffffffffffffffff1673ffffffffffffffffffffffffffffffffffffffff1663e16acb83866040015183815181106143fb576143fa615384565b5b6020026020010151670de0b6b3a764000060155461441991906153e2565b6040518363ffffffff1660e01b815260040161443692919061575f565b6020604051808303816000875af1158015614455573d6000803e3d6000fd5b505050506040513d601f19601f8201168201806040525081019061447991906154f2565b506144f5565b600a601160008760400151848151811061449c5761449b615384565b5b602002602001015173ffffffffffffffffffffffffffffffffffffffff1673ffffffffffffffffffffffffffffffffffffffff16815260200190815260200160002060008282546144ed919061543c565b925050819055505b600a60106000828254039250508190555080806145119061557f565b915050614394565b505b8360400151828151811061453257614531615384565b5b602002602001015192505050919050565b600033905090565b6000600160009054906101000a900473ffffffffffffffffffffffffffffffffffffffff16905081600160006101000a81548173ffffffffffffffffffffffffffffffffffffffff021916908373ffffffffffffffffffffffffffffffffffffffff1602179055508173ffffffffffffffffffffffffffffffffffffffff168173ffffffffffffffffffffffffffffffffffffffff167f8be0079c531659141344cd1fd0a4f28419497f9722a3daafe3b4186f6b6457e060405160405180910390a35050565b6040518060c00160405280600073ffffffffffffffffffffffffffffffffffffffff168152602001600073ffffffffffffffffffffffffffffffffffffffff168152602001606081526020016000815260200160008152602001600081525090565b6040518060600160405280600073ffffffffffffffffffffffffffffffffffffffff16815260200160608152602001600081525090565b604051806040016040528060608152602001600060ff1681525090565b6000604051905090565b600080fd5b600080fd5b600073ffffffffffffffffffffffffffffffffffffffff82169050919050565b6000614706826146db565b9050919050565b614716816146fb565b811461472157600080fd5b50565b6000813590506147338161470d565b92915050565b6000819050919050565b61474c81614739565b811461475757600080fd5b50565b60008135905061476981614743565b92915050565b60008060408385031215614786576147856146d1565b5b600061479485828601614724565b92505060206147a58582860161475a565b9150509250929050565b60008115159050919050565b6147c4816147af565b82525050565b60006020820190506147df60008301846147bb565b92915050565b600080fd5b600080fd5b6000601f19601f8301169050919050565b7f4e487b7100000000000000000000000000000000000000000000000000000000600052604160045260246000fd5b614838826147ef565b810181811067ffffffffffffffff8211171561485757614856614800565b5b80604052505050565b600061486a6146c7565b9050614876828261482f565b919050565b600067ffffffffffffffff82111561489657614895614800565b5b61489f826147ef565b9050602081019050919050565b82818337600083830152505050565b60006148ce6148c98461487b565b614860565b9050828152602081018484840111156148ea576148e96147ea565b5b6148f58482856148ac565b509392505050565b600082601f830112614912576149116147e5565b5b81356149228482602086016148bb565b91505092915050565b600060208284031215614941576149406146d1565b5b600082013567ffffffffffffffff81111561495f5761495e6146d6565b5b61496b848285016148fd565b91505092915050565b60006020828403121561498a576149896146d1565b5b600061499884828501614724565b91505092915050565b6149aa81614739565b82525050565b60006020820190506149c560008301846149a1565b92915050565b6000602082840312156149e1576149e06146d1565b5b60006149ef8482850161475a565b91505092915050565b6000614a03826146fb565b9050919050565b614a13816149f8565b8114614a1e57600080fd5b50565b600081359050614a3081614a0a565b92915050565b600060208284031215614a4c57614a4b6146d1565b5b6000614a5a84828501614a21565b91505092915050565b614a6c816146fb565b82525050565b6000602082019050614a876000830184614a63565b92915050565b6000614a98826146fb565b9050919050565b614aa881614a8d565b8114614ab357600080fd5b50565b600081359050614ac581614a9f565b92915050565b60008060408385031215614ae257614ae16146d1565b5b6000614af085828601614ab6565b9250506020614b018582860161475a565b9150509250929050565b6000819050919050565b6000614b30614b2b614b26846146db565b614b0b565b6146db565b9050919050565b6000614b4282614b15565b9050919050565b6000614b5482614b37565b9050919050565b614b6481614b49565b82525050565b614b73816146fb565b82525050565b600081519050919050565b600082825260208201905092915050565b6000819050602082019050919050565b6000614bb18383614b6a565b60208301905092915050565b6000602082019050919050565b6000614bd582614b79565b614bdf8185614b84565b9350614bea83614b95565b8060005b83811015614c1b578151614c028882614ba5565b9750614c0d83614bbd565b925050600181019050614bee565b5085935050505092915050565b614c3181614739565b82525050565b600060c083016000830151614c4f6000860182614b5b565b506020830151614c626020860182614b6a565b5060408301518482036040860152614c7a8282614bca565b9150506060830151614c8f6060860182614c28565b506080830151614ca26080860182614c28565b5060a0830151614cb560a0860182614c28565b508091505092915050565b60006020820190508181036000830152614cda8184614c37565b905092915050565b600081519050919050565b600082825260208201905092915050565b6000819050602082019050919050565b6000614d1a8383614c28565b60208301905092915050565b6000602082019050919050565b6000614d3e82614ce2565b614d488185614ced565b9350614d5383614cfe565b8060005b83811015614d84578151614d6b8882614d0e565b9750614d7683614d26565b925050600181019050614d57565b5085935050505092915050565b60006020820190508181036000830152614dab8184614d33565b905092915050565b600060208284031215614dc957614dc86146d1565b5b6000614dd784828501614ab6565b91505092915050565b600067ffffffffffffffff821115614dfb57614dfa614800565b5b602082029050602081019050919050565b600080fd5b6000614e24614e1f84614de0565b614860565b90508083825260208201905060208402830185811115614e4757614e46614e0c565b5b835b81811015614e705780614e5c888261475a565b845260208401935050602081019050614e49565b5050509392505050565b600082601f830112614e8f57614e8e6147e5565b5b8135614e9f848260208601614e11565b91505092915050565b600060208284031215614ebe57614ebd6146d1565b5b600082013567ffffffffffffffff811115614edc57614edb6146d6565b5b614ee884828501614e7a565b91505092915050565b6000606083016000830151614f096000860182614b6a565b5060208301518482036020860152614f218282614bca565b9150506040830151614f366040860182614c28565b508091505092915050565b60006020820190508181036000830152614f5b8184614ef1565b905092915050565b6000614f6e826146fb565b9050919050565b614f7e81614f63565b8114614f8957600080fd5b50565b600081359050614f9b81614f75565b92915050565b600060208284031215614fb757614fb66146d1565b5b6000614fc584828501614f8c565b91505092915050565b60008060408385031215614fe557614fe46146d1565b5b6000614ff385828601614ab6565b925050602061500485828601614724565b9150509250929050565b600080600060608486031215615027576150266146d1565b5b600061503586828701614ab6565b93505060206150468682870161475a565b92505060406150578682870161475a565b9150509250925092565b60008060006060848603121561507a576150796146d1565b5b600061508886828701614724565b935050602061509986828701614724565b92505060406150aa8682870161475a565b9150509250925092565b600082825260208201905092915050565b60006150d082614ce2565b6150da81856150b4565b93506150e583614cfe565b8060005b838110156151165781516150fd8882614d0e565b975061510883614d26565b9250506001810190506150e9565b5085935050505092915050565b600060ff82169050919050565b61513981615123565b82525050565b6000604083016000830151848203600086015261515c82826150c5565b91505060208301516151716020860182615130565b508091505092915050565b60006020820190508181036000830152615196818461513f565b905092915050565b600081519050919050565b600081905092915050565b60005b838110156151d25780820151818401526020810190506151b7565b838111156151e1576000848401525b50505050565b60006151f28261519e565b6151fc81856151a9565b935061520c8185602086016151b4565b80840191505092915050565b600061522482846151e7565b915081905092915050565b600082825260208201905092915050565b7f74766f7900000000000000000000000000000000000000000000000000000000600082015250565b600061527660048361522f565b915061528182615240565b602082019050919050565b600060208201905081810360008301526152a581615269565b9050919050565b7f796a650000000000000000000000000000000000000000000000000000000000600082015250565b60006152e260038361522f565b91506152ed826152ac565b602082019050919050565b60006020820190508181036000830152615311816152d5565b9050919050565b7f6e65206368656900000000000000000000000000000000000000000000000000600082015250565b600061534e60078361522f565b915061535982615318565b602082019050919050565b6000602082019050818103600083015261537d81615341565b9050919050565b7f4e487b7100000000000000000000000000000000000000000000000000000000600052603260045260246000fd5b7f4e487b7100000000000000000000000000000000000000000000000000000000600052601160045260246000fd5b60006153ed82614739565b91506153f883614739565b9250817fffffffffffffffffffffffffffffffffffffffffffffffffffffffffffffffff0483118215151615615431576154306153b3565b5b828202905092915050565b600061544782614739565b915061545283614739565b9250827fffffffffffffffffffffffffffffffffffffffffffffffffffffffffffffffff03821115615487576154866153b3565b5b828201905092915050565b600061549d82614739565b91506154a883614739565b9250828210156154bb576154ba6153b3565b5b828203905092915050565b6154cf816147af565b81146154da57600080fd5b50565b6000815190506154ec816154c6565b92915050565b600060208284031215615508576155076146d1565b5b6000615516848285016154dd565b91505092915050565b7f4e487b7100000000000000000000000000000000000000000000000000000000600052601260045260246000fd5b600061555982614739565b915061556483614739565b9250826155745761557361551f565b5b828204905092915050565b600061558a82614739565b91507fffffffffffffffffffffffffffffffffffffffffffffffffffffffffffffffff8214156155bd576155bc6153b3565b5b600182019050919050565b60006040820190506155dd60008301856149a1565b6155ea6020830184614a63565b9392505050565b7f6e6f20616c6c6f77000000000000000000000000000000000000000000000000600082015250565b600061562760088361522f565b9150615632826155f1565b602082019050919050565b600060208201905081810360008301526156568161561a565b9050919050565b600061566882614739565b9150600082141561567c5761567b6153b3565b5b600182039050919050565b7f4f776e61626c653a2063616c6c6572206973206e6f7420746865206f776e6572600082015250565b60006156bd60208361522f565b91506156c882615687565b602082019050919050565b600060208201905081810360008301526156ec816156b0565b9050919050565b7f6578697374000000000000000000000000000000000000000000000000000000600082015250565b600061572960058361522f565b9150615734826156f3565b602082019050919050565b600060208201905081810360008301526157588161571c565b9050919050565b60006040820190506157746000830185614a63565b61578160208301846149a1565b9392505050565b7f54696d6500000000000000000000000000000000000000000000000000000000600082015250565b60006157be60048361522f565b91506157c982615788565b602082019050919050565b600060208201905081810360008301526157ed816157b1565b9050919050565b7f7072697a65206c6f737400000000000000000000000000000000000000000000600082015250565b600061582a600a8361522f565b9150615835826157f4565b602082019050919050565b600060208201905081810360008301526158598161581d565b9050919050565b600061586b8261519e565b615875818561522f565b93506158858185602086016151b4565b61588e816147ef565b840191505092915050565b60006040820190506158ae6000830185614a63565b81810360208301526158c08184615860565b90509392505050565b60006060820190506158de6000830186614a63565b6158eb6020830185614a63565b6158f860408301846149a1565b949350505050565b7f6e6f7420656e6f75677468206d6f6e6579000000000000000000000000000000600082015250565b600061593660118361522f565b915061594182615900565b602082019050919050565b6000602082019050818103600083015261596581615929565b9050919050565b6000819050919050565b61598761598282614739565b61596c565b82525050565b60006159998284615976565b60208201915081905092915050565b60006159b382614739565b91506159be83614739565b9250826159ce576159cd61551f565b5b828206905092915050565b7f4f776e61626c653a206e6577206f776e657220697320746865207a65726f206160008201527f6464726573730000000000000000000000000000000000000000000000000000602082015250565b6000615a3560268361522f565b9150615a40826159d9565b604082019050919050565b60006020820190508181036000830152615a6481615a28565b9050919050565b7f4e487b7100000000000000000000000000000000000000000000000000000000600052603160045260246000fd5b600081519050615aa981614743565b92915050565b6000615ac2615abd84614de0565b614860565b90508083825260208201905060208402830185811115615ae557615ae4614e0c565b5b835b81811015615b0e5780615afa8882615a9a565b845260208401935050602081019050615ae7565b5050509392505050565b600082601f830112615b2d57615b2c6147e5565b5b8151615b3d848260208601615aaf565b91505092915050565b600060208284031215615b5c57615b5b6146d1565b5b600082015167ffffffffffffffff811115615b7a57615b796146d6565b5b615b8684828501615b18565b91505092915050565b600081519050615b9e8161470d565b92915050565b600060208284031215615bba57615bb96146d1565b5b6000615bc884828501615b8f565b91505092915050565b600067ffffffffffffffff821115615bec57615beb614800565b5b602082029050602081019050919050565b6000615c10615c0b84615bd1565b614860565b90508083825260208201905060208402830185811115615c3357615c32614e0c565b5b835b81811015615c5c5780615c488882615b8f565b845260208401935050602081019050615c35565b5050509392505050565b600082601f830112615c7b57615c7a6147e5565b5b8151615c8b848260208601615bfd565b91505092915050565b600060208284031215615caa57615ca96146d1565b5b600082015167ffffffffffffffff811115615cc857615cc76146d6565b5b615cd484828501615c66565b9150509291505056fea26469706673582212201a09be869df1bec533b92af1aab116a38b176484c82d326ac4b2e179a75927d164736f6c634300080b0033",
  "linkReferences": {},
  "deployedLinkReferences": {}
}