{
  "_format": "hh-sol-artifact-1",
  "contractName": "Lottery",
  "sourceName": "contracts/Lottery.sol",
  "abi": [
    {
      "inputs": [
        {
          "internalType": "bytes32",
          "name": "Hash",
          "type": "bytes32"
        }
      ],
      "stateMutability": "nonpayable",
      "type": "constructor"
    },
    {
      "anonymous": false,
      "inputs": [
        {
          "indexed": true,
          "internalType": "address",
          "name": "previousOwner",
          "type": "address"
        },
        {
          "indexed": true,
          "internalType": "address",
          "name": "newOwner",
          "type": "address"
        }
      ],
      "name": "OwnershipTransferred",
      "type": "event"
    },
    {
      "anonymous": false,
      "inputs": [
        {
          "indexed": false,
          "internalType": "address",
          "name": "user",
          "type": "address"
        }
      ],
      "name": "enter",
      "type": "event"
    },
    {
      "anonymous": false,
      "inputs": [
        {
          "indexed": true,
          "internalType": "address",
          "name": "user",
          "type": "address"
        },
        {
          "indexed": false,
          "internalType": "address",
          "name": "creator",
          "type": "address"
        },
        {
          "indexed": false,
          "internalType": "uint256",
          "name": "lobbyId",
          "type": "uint256"
        },
        {
          "components": [
            {
              "internalType": "contract IERC20",
              "name": "token",
              "type": "address"
            },
            {
              "internalType": "address",
              "name": "winer",
              "type": "address"
            },
            {
              "internalType": "address[]",
              "name": "players",
              "type": "address[]"
            },
            {
              "internalType": "uint256",
              "name": "deposit",
              "type": "uint256"
            },
            {
              "internalType": "uint256",
              "name": "countOfPlayers",
              "type": "uint256"
            },
            {
              "internalType": "uint256",
              "name": "nowInLobby",
              "type": "uint256"
            }
          ],
          "indexed": false,
          "internalType": "struct Lobby.lobbyShablon",
          "name": "",
          "type": "tuple"
        },
        {
          "indexed": false,
          "internalType": "uint256",
          "name": "",
          "type": "uint256"
        }
      ],
      "name": "enterLobby",
      "type": "event"
    },
    {
      "anonymous": false,
      "inputs": [
        {
          "indexed": false,
          "internalType": "address",
          "name": "genius",
          "type": "address"
        },
        {
          "indexed": false,
          "internalType": "string",
          "name": "_string",
          "type": "string"
        }
      ],
      "name": "mistery",
      "type": "event"
    },
    {
      "anonymous": false,
      "inputs": [
        {
          "indexed": false,
          "internalType": "address",
          "name": "",
          "type": "address"
        },
        {
          "indexed": false,
          "internalType": "uint256",
          "name": "",
          "type": "uint256"
        },
        {
          "components": [
            {
              "internalType": "contract IERC20",
              "name": "token",
              "type": "address"
            },
            {
              "internalType": "address",
              "name": "winer",
              "type": "address"
            },
            {
              "internalType": "address[]",
              "name": "players",
              "type": "address[]"
            },
            {
              "internalType": "uint256",
              "name": "deposit",
              "type": "uint256"
            },
            {
              "internalType": "uint256",
              "name": "countOfPlayers",
              "type": "uint256"
            },
            {
              "internalType": "uint256",
              "name": "nowInLobby",
              "type": "uint256"
            }
          ],
          "indexed": false,
          "internalType": "struct Lobby.lobbyShablon",
          "name": "",
          "type": "tuple"
        },
        {
          "indexed": false,
          "internalType": "uint256",
          "name": "",
          "type": "uint256"
        }
      ],
      "name": "newLobby",
      "type": "event"
    },
    {
      "anonymous": false,
      "inputs": [
        {
          "indexed": false,
          "internalType": "uint256",
          "name": "id",
          "type": "uint256"
        },
        {
          "indexed": false,
          "internalType": "address",
          "name": "winer",
          "type": "address"
        }
      ],
      "name": "play",
      "type": "event"
    },
    {
      "anonymous": false,
      "inputs": [
        {
          "indexed": true,
          "internalType": "address",
          "name": "winner",
          "type": "address"
        },
        {
          "indexed": false,
          "internalType": "address",
          "name": "creator",
          "type": "address"
        },
        {
          "indexed": false,
          "internalType": "uint256",
          "name": "lobbyId",
          "type": "uint256"
        },
        {
          "components": [
            {
              "internalType": "contract IERC20",
              "name": "token",
              "type": "address"
            },
            {
              "internalType": "address",
              "name": "winer",
              "type": "address"
            },
            {
              "internalType": "address[]",
              "name": "players",
              "type": "address[]"
            },
            {
              "internalType": "uint256",
              "name": "deposit",
              "type": "uint256"
            },
            {
              "internalType": "uint256",
              "name": "countOfPlayers",
              "type": "uint256"
            },
            {
              "internalType": "uint256",
              "name": "nowInLobby",
              "type": "uint256"
            }
          ],
          "indexed": false,
          "internalType": "struct Lobby.lobbyShablon",
          "name": "",
          "type": "tuple"
        },
        {
          "indexed": false,
          "internalType": "uint256",
          "name": "",
          "type": "uint256"
        }
      ],
      "name": "playLobby",
      "type": "event"
    },
    {
      "inputs": [
        {
          "internalType": "address",
          "name": "lobbyCreator",
          "type": "address"
        },
        {
          "internalType": "uint256",
          "name": "lobbyId",
          "type": "uint256"
        }
      ],
      "name": "EnterLobby",
      "outputs": [],
      "stateMutability": "payable",
      "type": "function"
    },
    {
      "inputs": [],
      "name": "Play",
      "outputs": [],
      "stateMutability": "nonpayable",
      "type": "function"
    },
    {
      "inputs": [
        {
          "internalType": "address",
          "name": "addres",
          "type": "address"
        }
      ],
      "name": "_allowToNFT",
      "outputs": [
        {
          "components": [
            {
              "internalType": "uint256[]",
              "name": "lotteryes",
              "type": "uint256[]"
            },
            {
              "internalType": "uint8",
              "name": "dont_use",
              "type": "uint8"
            }
          ],
          "internalType": "struct Lottery.wins",
          "name": "",
          "type": "tuple"
        }
      ],
      "stateMutability": "view",
      "type": "function"
    },
    {
      "inputs": [
        {
          "internalType": "address",
          "name": "a",
          "type": "address"
        },
        {
          "internalType": "uint256",
          "name": "TokenId",
          "type": "uint256"
        }
      ],
      "name": "_findAddressInfirst1000Winers",
      "outputs": [
        {
          "internalType": "bool",
          "name": "",
          "type": "bool"
        }
      ],
      "stateMutability": "view",
      "type": "function"
    },
    {
      "inputs": [
        {
          "internalType": "uint256[]",
          "name": "_lotteryes",
          "type": "uint256[]"
        }
      ],
      "name": "addToAutoEnter",
      "outputs": [],
      "stateMutability": "nonpayable",
      "type": "function"
    },
    {
      "inputs": [
        {
          "internalType": "uint256",
          "name": "TokenId",
          "type": "uint256"
        }
      ],
      "name": "allowToNFT",
      "outputs": [
        {
          "internalType": "address",
          "name": "",
          "type": "address"
        }
      ],
      "stateMutability": "view",
      "type": "function"
    },
    {
      "inputs": [
        {
          "internalType": "contract IERC20",
          "name": "tokenAddress",
          "type": "address"
        },
        {
          "internalType": "uint256",
          "name": "deposit",
          "type": "uint256"
        },
        {
          "internalType": "uint256",
          "name": "countOfPlayers",
          "type": "uint256"
        }
      ],
      "name": "createNewLobby",
      "outputs": [],
      "stateMutability": "payable",
      "type": "function"
    },
    {
      "inputs": [
        {
          "internalType": "address",
          "name": "msgsender",
          "type": "address"
        },
        {
          "internalType": "address",
          "name": "lobbyCreator",
          "type": "address"
        },
        {
          "internalType": "uint256",
          "name": "lobbyId",
          "type": "uint256"
        }
      ],
      "name": "findPlayerInLobby",
      "outputs": [
        {
          "internalType": "bool",
          "name": "",
          "type": "bool"
        }
      ],
      "stateMutability": "view",
      "type": "function"
    },
    {
      "inputs": [
        {
          "internalType": "address",
          "name": "a",
          "type": "address"
        }
      ],
      "name": "getAutoEnter",
      "outputs": [
        {
          "internalType": "uint256[]",
          "name": "",
          "type": "uint256[]"
        }
      ],
      "stateMutability": "view",
      "type": "function"
    },
    {
      "inputs": [],
      "name": "getHEEP",
      "outputs": [
        {
          "internalType": "uint256",
          "name": "",
          "type": "uint256"
        }
      ],
      "stateMutability": "view",
      "type": "function"
    },
    {
      "inputs": [
        {
          "internalType": "address",
          "name": "creator",
          "type": "address"
        },
        {
          "internalType": "uint256",
          "name": "lobbyid",
          "type": "uint256"
        }
      ],
      "name": "getLobby",
      "outputs": [
        {
          "components": [
            {
              "internalType": "contract IERC20",
              "name": "token",
              "type": "address"
            },
            {
              "internalType": "address",
              "name": "winer",
              "type": "address"
            },
            {
              "internalType": "address[]",
              "name": "players",
              "type": "address[]"
            },
            {
              "internalType": "uint256",
              "name": "deposit",
              "type": "uint256"
            },
            {
              "internalType": "uint256",
              "name": "countOfPlayers",
              "type": "uint256"
            },
            {
              "internalType": "uint256",
              "name": "nowInLobby",
              "type": "uint256"
            }
          ],
          "internalType": "struct Lobby.lobbyShablon",
          "name": "",
          "type": "tuple"
        }
      ],
      "stateMutability": "view",
      "type": "function"
    },
    {
      "inputs": [],
      "name": "getLotteryCount",
      "outputs": [
        {
          "internalType": "uint256",
          "name": "",
          "type": "uint256"
        }
      ],
      "stateMutability": "view",
      "type": "function"
    },
    {
      "inputs": [
        {
          "internalType": "uint256",
          "name": "lotteryId",
          "type": "uint256"
        }
      ],
      "name": "getLotteryShablonByIndex",
      "outputs": [
        {
          "components": [
            {
              "internalType": "address",
              "name": "winer",
              "type": "address"
            },
            {
              "internalType": "address[]",
              "name": "players",
              "type": "address[]"
            },
            {
              "internalType": "uint256",
              "name": "playersCount",
              "type": "uint256"
            }
          ],
          "internalType": "struct Lottery.LotteryShablon",
          "name": "",
          "type": "tuple"
        }
      ],
      "stateMutability": "view",
      "type": "function"
    },
    {
      "inputs": [
        {
          "internalType": "string",
          "name": "a",
          "type": "string"
        }
      ],
      "name": "getPromSetReverse",
      "outputs": [
        {
          "internalType": "address",
          "name": "",
          "type": "address"
        }
      ],
      "stateMutability": "view",
      "type": "function"
    },
    {
      "inputs": [],
      "name": "getREVARD_REF_ALLOW",
      "outputs": [
        {
          "internalType": "uint256",
          "name": "",
          "type": "uint256"
        }
      ],
      "stateMutability": "view",
      "type": "function"
    },
    {
      "inputs": [
        {
          "internalType": "uint256",
          "name": "_playersCount",
          "type": "uint256"
        }
      ],
      "name": "getRandNumber",
      "outputs": [
        {
          "internalType": "uint256",
          "name": "",
          "type": "uint256"
        }
      ],
      "stateMutability": "view",
      "type": "function"
    },
    {
      "inputs": [],
      "name": "getTokenForLottery",
      "outputs": [
        {
          "internalType": "address",
          "name": "",
          "type": "address"
        }
      ],
      "stateMutability": "view",
      "type": "function"
    },
    {
      "inputs": [
        {
          "internalType": "address",
          "name": "a",
          "type": "address"
        }
      ],
      "name": "getcountOfLotteryEnter",
      "outputs": [
        {
          "internalType": "uint256",
          "name": "",
          "type": "uint256"
        }
      ],
      "stateMutability": "view",
      "type": "function"
    },
    {
      "inputs": [
        {
          "internalType": "address",
          "name": "_address",
          "type": "address"
        }
      ],
      "name": "getlobbyCountForAddress",
      "outputs": [
        {
          "internalType": "uint256",
          "name": "",
          "type": "uint256"
        }
      ],
      "stateMutability": "view",
      "type": "function"
    },
    {
      "inputs": [
        {
          "internalType": "address",
          "name": "_address",
          "type": "address"
        }
      ],
      "name": "getlobbyCountForAddressALL",
      "outputs": [
        {
          "internalType": "uint256",
          "name": "",
          "type": "uint256"
        }
      ],
      "stateMutability": "view",
      "type": "function"
    },
    {
      "inputs": [
        {
          "internalType": "address",
          "name": "a",
          "type": "address"
        }
      ],
      "name": "getshouldRevard",
      "outputs": [
        {
          "internalType": "uint256",
          "name": "",
          "type": "uint256"
        }
      ],
      "stateMutability": "view",
      "type": "function"
    },
    {
      "inputs": [],
      "name": "owner",
      "outputs": [
        {
          "internalType": "address",
          "name": "",
          "type": "address"
        }
      ],
      "stateMutability": "view",
      "type": "function"
    },
    {
      "inputs": [],
      "name": "receiveRevard",
      "outputs": [],
      "stateMutability": "nonpayable",
      "type": "function"
    },
    {
      "inputs": [],
      "name": "renounceOwnership",
      "outputs": [],
      "stateMutability": "nonpayable",
      "type": "function"
    },
    {
      "inputs": [
        {
          "internalType": "contract ERC721with",
          "name": "token",
          "type": "address"
        }
      ],
      "name": "setAdrressNFT",
      "outputs": [],
      "stateMutability": "nonpayable",
      "type": "function"
    },
    {
      "inputs": [
        {
          "internalType": "uint256",
          "name": "value",
          "type": "uint256"
        }
      ],
      "name": "setAutoMint",
      "outputs": [],
      "stateMutability": "nonpayable",
      "type": "function"
    },
    {
      "inputs": [
        {
          "internalType": "address",
          "name": "a",
          "type": "address"
        }
      ],
      "name": "setAutotask",
      "outputs": [],
      "stateMutability": "nonpayable",
      "type": "function"
    },
    {
      "inputs": [
        {
          "internalType": "uint256",
          "name": "_deposit",
          "type": "uint256"
        }
      ],
      "name": "setDeposit",
      "outputs": [],
      "stateMutability": "nonpayable",
      "type": "function"
    },
    {
      "inputs": [
        {
          "internalType": "contract MUD",
          "name": "a",
          "type": "address"
        }
      ],
      "name": "setMUD",
      "outputs": [],
      "stateMutability": "nonpayable",
      "type": "function"
    },
    {
      "inputs": [
        {
          "internalType": "string",
          "name": "a",
          "type": "string"
        }
      ],
      "name": "setPromInput",
      "outputs": [],
      "stateMutability": "nonpayable",
      "type": "function"
    },
    {
      "inputs": [
        {
          "internalType": "string",
          "name": "a",
          "type": "string"
        }
      ],
      "name": "setPromSet",
      "outputs": [],
      "stateMutability": "nonpayable",
      "type": "function"
    },
    {
      "inputs": [
        {
          "internalType": "contract IERC20",
          "name": "_tokenForLottery",
          "type": "address"
        }
      ],
      "name": "setTokenForLottery",
      "outputs": [],
      "stateMutability": "nonpayable",
      "type": "function"
    },
    {
      "inputs": [
        {
          "internalType": "uint256",
          "name": "value",
          "type": "uint256"
        }
      ],
      "name": "setVALUE",
      "outputs": [],
      "stateMutability": "nonpayable",
      "type": "function"
    },
    {
      "inputs": [
        {
          "internalType": "address",
          "name": "newOwner",
          "type": "address"
        }
      ],
      "name": "transferOwnership",
      "outputs": [],
      "stateMutability": "nonpayable",
      "type": "function"
    },
    {
      "inputs": [
        {
          "internalType": "string",
          "name": "_string",
          "type": "string"
        }
      ],
      "name": "tryMistery",
      "outputs": [],
      "stateMutability": "nonpayable",
      "type": "function"
    }
  ],
  "bytecode": "0x60a0604052633b9aca00600455600860646004546200001f9190620002e1565b6200002b919062000319565b60055560116064600454620000419190620002e1565b6200004d919062000319565b600655600d6064600454620000639190620002e1565b6200006f919062000319565b600755601e6064600454620000859190620002e1565b62000091919062000319565b600855600a6064600454620000a79190620002e1565b620000b3919062000319565b60095560156064600454620000c99190620002e1565b620000d5919062000319565b600a5560016064600454620000eb9190620002e1565b620000f7919062000319565b600b556000600c556103e8600954620001119190620002e1565b600d556103e8600854620001269190620002e1565b600e55600e54600f556103de601155662386f26fc100006012556000601555600a546021553480156200015857600080fd5b5060405162005e2738038062005e2783398181016040528101906200017e9190620003ba565b6200019e62000192620001ad60201b60201c565b620001b560201b60201c565b806080818152505050620003ec565b600033905090565b60008060009054906101000a900473ffffffffffffffffffffffffffffffffffffffff169050816000806101000a81548173ffffffffffffffffffffffffffffffffffffffff021916908373ffffffffffffffffffffffffffffffffffffffff1602179055508173ffffffffffffffffffffffffffffffffffffffff168173ffffffffffffffffffffffffffffffffffffffff167f8be0079c531659141344cd1fd0a4f28419497f9722a3daafe3b4186f6b6457e060405160405180910390a35050565b6000819050919050565b7f4e487b7100000000000000000000000000000000000000000000000000000000600052601260045260246000fd5b7f4e487b7100000000000000000000000000000000000000000000000000000000600052601160045260246000fd5b6000620002ee8262000279565b9150620002fb8362000279565b9250826200030e576200030d62000283565b5b828204905092915050565b6000620003268262000279565b9150620003338362000279565b9250817fffffffffffffffffffffffffffffffffffffffffffffffffffffffffffffffff04831182151516156200036f576200036e620002b2565b5b828202905092915050565b600080fd5b6000819050919050565b62000394816200037f565b8114620003a057600080fd5b50565b600081519050620003b48162000389565b92915050565b600060208284031215620003d357620003d26200037a565b5b6000620003e384828501620003a3565b91505092915050565b608051615a1f6200040860003960006121840152615a1f6000f3fe6080604052600436106102045760003560e01c806381e1e4b111610118578063cfd717da116100a0578063e9858a581161006f578063e9858a581461076b578063e9ed3576146107a8578063f2fde38b146107d3578063f5bade66146107fc578063fb9c00c81461082557610204565b8063cfd717da146106c0578063df207817146106e9578063e1f97dd214610712578063e8844e761461072e57610204565b8063a7421d81116100e7578063a7421d81146105b7578063aa78dda1146105e0578063bd24435b14610609578063c7766cc414610646578063cd8f98e81461068357610204565b806381e1e4b1146104e957806383a365ca146105265780638da5cb5b1461054f578063a53aa0ac1461057a57610204565b80634137fc641161019b57806357d301011161016a57806357d301011461041857806358a10e87146104555780636d12dce41461047e578063715018a6146104bb5780637f4d86d7146104d257610204565b80634137fc641461035c57806346254c3a1461038557806347d9833d146103b057806357b526fc146103db57610204565b806325876ddf116101d757806325876ddf146102c357806325c3a907146102df57806329a4a281146103085780632f9aa1fe1461033157610204565b806304b675ae14610209578063053e3b45146102465780630e2dce691461026f5780631881cc0314610286575b600080fd5b34801561021557600080fd5b50610230600480360381019061022b919061424e565b610862565b60405161023d91906142a9565b60405180910390f35b34801561025257600080fd5b5061026d6004803603810190610268919061440a565b6108df565b005b34801561027b57600080fd5b50610284610b6d565b005b34801561029257600080fd5b506102ad60048036038101906102a89190614453565b61120c565b6040516102ba919061448f565b60405180910390f35b6102dd60048036038101906102d8919061424e565b611255565b005b3480156102eb57600080fd5b50610306600480360381019061030191906144aa565b611730565b005b34801561031457600080fd5b5061032f600480360381019061032a9190614515565b6117b6565b005b34801561033d57600080fd5b50610346611876565b604051610353919061448f565b60405180910390f35b34801561036857600080fd5b50610383600480360381019061037e919061440a565b611880565b005b34801561039157600080fd5b5061039a611a3b565b6040516103a79190614551565b60405180910390f35b3480156103bc57600080fd5b506103c5611a65565b6040516103d2919061448f565b60405180910390f35b3480156103e757600080fd5b5061040260048036038101906103fd9190614453565b611a6f565b60405161040f919061448f565b60405180910390f35b34801561042457600080fd5b5061043f600480360381019061043a9190614453565b611ab8565b60405161044c919061448f565b60405180910390f35b34801561046157600080fd5b5061047c60048036038101906104779190614453565b611b01565b005b34801561048a57600080fd5b506104a560048036038101906104a0919061424e565b611bc1565b6040516104b29190614721565b60405180910390f35b3480156104c757600080fd5b506104d0611d84565b005b3480156104de57600080fd5b506104e7611e0c565b005b3480156104f557600080fd5b50610510600480360381019061050b9190614453565b611fa9565b60405161051d91906147f2565b60405180910390f35b34801561053257600080fd5b5061054d6004803603810190610548919061440a565b612043565b005b34801561055b57600080fd5b50610564612246565b6040516105719190614551565b60405180910390f35b34801561058657600080fd5b506105a1600480360381019061059c9190614453565b61226f565b6040516105ae919061448f565b60405180910390f35b3480156105c357600080fd5b506105de60048036038101906105d99190614852565b6122b8565b005b3480156105ec57600080fd5b5061060760048036038101906106029190614947565b612378565b005b34801561061557600080fd5b50610630600480360381019061062b91906144aa565b6128c5565b60405161063d919061448f565b60405180910390f35b34801561065257600080fd5b5061066d6004803603810190610668919061440a565b612914565b60405161067a9190614551565b60405180910390f35b34801561068f57600080fd5b506106aa60048036038101906106a591906144aa565b61297c565b6040516106b791906149e0565b60405180910390f35b3480156106cc57600080fd5b506106e760048036038101906106e29190614a40565b612a97565b005b3480156106f557600080fd5b50610710600480360381019061070b91906144aa565b612b57565b005b61072c60048036038101906107279190614a6d565b612bdd565b005b34801561073a57600080fd5b5061075560048036038101906107509190614ac0565b612f2a565b60405161076291906142a9565b60405180910390f35b34801561077757600080fd5b50610792600480360381019061078d91906144aa565b6130e6565b60405161079f9190614551565b60405180910390f35b3480156107b457600080fd5b506107bd613123565b6040516107ca919061448f565b60405180910390f35b3480156107df57600080fd5b506107fa60048036038101906107f59190614453565b61312d565b005b34801561080857600080fd5b50610823600480360381019061081e91906144aa565b613225565b005b34801561083157600080fd5b5061084c60048036038101906108479190614453565b6132ab565b6040516108599190614bdb565b60405180910390f35b60008273ffffffffffffffffffffffffffffffffffffffff166017600084815260200190815260200160002060009054906101000a900473ffffffffffffffffffffffffffffffffffffffff1673ffffffffffffffffffffffffffffffffffffffff1614156108d457600190506108d9565b600090505b92915050565b6000816040516020016108f29190614c77565b6040516020818303038152906040528051906020012090503373ffffffffffffffffffffffffffffffffffffffff16601c600083815260200190815260200160002060009054906101000a900473ffffffffffffffffffffffffffffffffffffffff1673ffffffffffffffffffffffffffffffffffffffff1614156109ac576040517f08c379a00000000000000000000000000000000000000000000000000000000081526004016109a390614ceb565b60405180910390fd5b6000801b601b60003373ffffffffffffffffffffffffffffffffffffffff1673ffffffffffffffffffffffffffffffffffffffff1681526020019081526020016000206001015414610a33576040517f08c379a0000000000000000000000000000000000000000000000000000000008152600401610a2a90614d57565b60405180910390fd5b600073ffffffffffffffffffffffffffffffffffffffff16601c600083815260200190815260200160002060009054906101000a900473ffffffffffffffffffffffffffffffffffffffff1673ffffffffffffffffffffffffffffffffffffffff161415610ad6576040517f08c379a0000000000000000000000000000000000000000000000000000000008152600401610acd90614dc3565b60405180910390fd5b6000601a60003373ffffffffffffffffffffffffffffffffffffffff1673ffffffffffffffffffffffffffffffffffffffff1681526020019081526020016000205414610b2257600080fd5b80601b60003373ffffffffffffffffffffffffffffffffffffffff1673ffffffffffffffffffffffffffffffffffffffff168152602001908152602001600020600101819055505050565b610b75612246565b73ffffffffffffffffffffffffffffffffffffffff163373ffffffffffffffffffffffffffffffffffffffff161480610bfb5750602060009054906101000a900473ffffffffffffffffffffffffffffffffffffffff1673ffffffffffffffffffffffffffffffffffffffff163373ffffffffffffffffffffffffffffffffffffffff16145b610c0457600080fd5b600080601660006011548152602001908152602001600020600201541415610c3557610c2e612246565b9050610cb3565b6000610c58601660006011548152602001908152602001600020600201546128c5565b90506016600060115481526020019081526020016000206001018181548110610c8457610c83614de3565b5b9060005260206000200160009054906101000a900473ffffffffffffffffffffffffffffffffffffffff169150505b6103e860115411610d7e578060176000601154815260200190815260200160002060006101000a81548173ffffffffffffffffffffffffffffffffffffffff021916908373ffffffffffffffffffffffffffffffffffffffff160217905550601860008273ffffffffffffffffffffffffffffffffffffffff1673ffffffffffffffffffffffffffffffffffffffff16815260200190815260200160002060000160115490806001815401808255809150506001900390600052602060002001600090919091909150555b601f60009054906101000a900473ffffffffffffffffffffffffffffffffffffffff1673ffffffffffffffffffffffffffffffffffffffff1663a9059cbb8260166000601154815260200190815260200160002060020154601e54610de39190614e41565b6040518363ffffffff1660e01b8152600401610e00929190614e9b565b6020604051808303816000875af1158015610e1f573d6000803e3d6000fd5b505050506040513d601f19601f82011682018060405250810190610e439190614ef0565b508060166000601154815260200190815260200160002060000160006101000a81548173ffffffffffffffffffffffffffffffffffffffff021916908373ffffffffffffffffffffffffffffffffffffffff160217905550603360115410158015610eb1575061041b601154105b8015610f645750601460009054906101000a900473ffffffffffffffffffffffffffffffffffffffff1673ffffffffffffffffffffffffffffffffffffffff1663e472f1356032601154610f059190614f1d565b6040518263ffffffff1660e01b8152600401610f21919061448f565b602060405180830381865afa158015610f3e573d6000803e3d6000fd5b505050506040513d601f19601f82011682018060405250810190610f629190614ef0565b155b15610f7257610f71613379565b5b61041b60115410158015610f895750610803601154105b1561111f57600060166000601154815260200190815260200160002060010180548060200260200160405190810160405280929190818152602001828054801561102857602002820191906000526020600020905b8160009054906101000a900473ffffffffffffffffffffffffffffffffffffffff1673ffffffffffffffffffffffffffffffffffffffff1681526020019060010190808311610fde575b50505050509050600081519050600081118015611059575080670de0b6b3a7640000600d546110579190614e41565b115b1561110157600081600d5461106e9190614f80565b905060005b828110156110fe57816010600086848151811061109357611092614de3565b5b602002602001015173ffffffffffffffffffffffffffffffffffffffff1673ffffffffffffffffffffffffffffffffffffffff16815260200190815260200160002060008282546110e49190614fb1565b9250508190555080806110f690615007565b915050611073565b50505b600e54600f60008282546111159190614fb1565b9250508190555050505b61041a60115414156111b65761113361362c565b61113b613817565b611143613967565b601360009054906101000a900473ffffffffffffffffffffffffffffffffffffffff16601f60006101000a81548173ffffffffffffffffffffffffffffffffffffffff021916908373ffffffffffffffffffffffffffffffffffffffff160217905550678ac7230489e80000601e819055505b7f31f8e0596bf7a98088824238285005ef74dd9359831490f63215e44147279bd3601154826040516111e9929190615050565b60405180910390a16011600081548092919061120490615007565b919050555050565b6000601060008373ffffffffffffffffffffffffffffffffffffffff1673ffffffffffffffffffffffffffffffffffffffff168152602001908152602001600020549050919050565b601254341461126357600080fd5b60003390506000600360008573ffffffffffffffffffffffffffffffffffffffff1673ffffffffffffffffffffffffffffffffffffffff168152602001908152602001600020600084815260200190815260200160002090508060000160009054906101000a900473ffffffffffffffffffffffffffffffffffffffff1673ffffffffffffffffffffffffffffffffffffffff166323b872dd333084600301546040518463ffffffff1660e01b815260040161132193929190615079565b6020604051808303816000875af1158015611340573d6000803e3d6000fd5b505050506040513d601f19601f820116820180604052508101906113649190614ef0565b80156113c457506000600360008673ffffffffffffffffffffffffffffffffffffffff1673ffffffffffffffffffffffffffffffffffffffff16815260200190815260200160002060008581526020019081526020016000206005015414155b80156113d857506113d6828585612f2a565b155b6113e157600080fd5b80600201829080600181540180825580915050600190039060005260206000200160009091909190916101000a81548173ffffffffffffffffffffffffffffffffffffffff021916908373ffffffffffffffffffffffffffffffffffffffff1602179055506000816005016000815461145990615007565b919050819055905081600401548114156116d55760006115db836040518060c00160405290816000820160009054906101000a900473ffffffffffffffffffffffffffffffffffffffff1673ffffffffffffffffffffffffffffffffffffffff1673ffffffffffffffffffffffffffffffffffffffff1681526020016001820160009054906101000a900473ffffffffffffffffffffffffffffffffffffffff1673ffffffffffffffffffffffffffffffffffffffff1673ffffffffffffffffffffffffffffffffffffffff168152602001600282018054806020026020016040519081016040528092919081815260200182805480156115af57602002820191906000526020600020905b8160009054906101000a900473ffffffffffffffffffffffffffffffffffffffff1673ffffffffffffffffffffffffffffffffffffffff1681526020019060010190808311611565575b505050505081526020016003820154815260200160048201548152602001600582015481525050613a26565b90508073ffffffffffffffffffffffffffffffffffffffff167f8f85b7f685d63e03c48557a3da87245d9a0be5c748eaa50100de5bc12447c1eb8787864260405161162994939291906152bb565b60405180910390a2808360010160006101000a81548173ffffffffffffffffffffffffffffffffffffffff021916908373ffffffffffffffffffffffffffffffffffffffff16021790555060008360050181905550600160008773ffffffffffffffffffffffffffffffffffffffff1673ffffffffffffffffffffffffffffffffffffffff16815260200190815260200160002060008154809291906116ce90615307565b9190505550505b3373ffffffffffffffffffffffffffffffffffffffff167f6af5da8bf48b948b8a88fbf3c10606377265dc58854ab59467fc7e2b793950398686854260405161172194939291906152bb565b60405180910390a25050505050565b611738613d27565b73ffffffffffffffffffffffffffffffffffffffff16611756612246565b73ffffffffffffffffffffffffffffffffffffffff16146117ac576040517f08c379a00000000000000000000000000000000000000000000000000000000081526004016117a39061537d565b60405180910390fd5b8060158190555050565b6117be613d27565b73ffffffffffffffffffffffffffffffffffffffff166117dc612246565b73ffffffffffffffffffffffffffffffffffffffff1614611832576040517f08c379a00000000000000000000000000000000000000000000000000000000081526004016118299061537d565b60405180910390fd5b80601460006101000a81548173ffffffffffffffffffffffffffffffffffffffff021916908373ffffffffffffffffffffffffffffffffffffffff16021790555050565b6000601154905090565b6000816040516020016118939190614c77565b6040516020818303038152906040528051906020012090506000801b601b60003373ffffffffffffffffffffffffffffffffffffffff1673ffffffffffffffffffffffffffffffffffffffff16815260200190815260200160002060000154146118fc57600080fd5b600073ffffffffffffffffffffffffffffffffffffffff16601c600083815260200190815260200160002060009054906101000a900473ffffffffffffffffffffffffffffffffffffffff1673ffffffffffffffffffffffffffffffffffffffff161461199e576040517f08c379a0000000000000000000000000000000000000000000000000000000008152600401611995906153e9565b60405180910390fd5b80601b60003373ffffffffffffffffffffffffffffffffffffffff1673ffffffffffffffffffffffffffffffffffffffff1681526020019081526020016000206000018190555033601c600083815260200190815260200160002060006101000a81548173ffffffffffffffffffffffffffffffffffffffff021916908373ffffffffffffffffffffffffffffffffffffffff1602179055505050565b6000601f60009054906101000a900473ffffffffffffffffffffffffffffffffffffffff16905090565b6000600f54905090565b6000600160008373ffffffffffffffffffffffffffffffffffffffff1673ffffffffffffffffffffffffffffffffffffffff168152602001908152602001600020549050919050565b6000600260008373ffffffffffffffffffffffffffffffffffffffff1673ffffffffffffffffffffffffffffffffffffffff168152602001908152602001600020549050919050565b611b09613d27565b73ffffffffffffffffffffffffffffffffffffffff16611b27612246565b73ffffffffffffffffffffffffffffffffffffffff1614611b7d576040517f08c379a0000000000000000000000000000000000000000000000000000000008152600401611b749061537d565b60405180910390fd5b80602060006101000a81548173ffffffffffffffffffffffffffffffffffffffff021916908373ffffffffffffffffffffffffffffffffffffffff16021790555050565b611bc96140f0565b600360008473ffffffffffffffffffffffffffffffffffffffff1673ffffffffffffffffffffffffffffffffffffffff16815260200190815260200160002060008381526020019081526020016000206040518060c00160405290816000820160009054906101000a900473ffffffffffffffffffffffffffffffffffffffff1673ffffffffffffffffffffffffffffffffffffffff1673ffffffffffffffffffffffffffffffffffffffff1681526020016001820160009054906101000a900473ffffffffffffffffffffffffffffffffffffffff1673ffffffffffffffffffffffffffffffffffffffff1673ffffffffffffffffffffffffffffffffffffffff16815260200160028201805480602002602001604051908101604052809291908181526020018280548015611d5557602002820191906000526020600020905b8160009054906101000a900473ffffffffffffffffffffffffffffffffffffffff1673ffffffffffffffffffffffffffffffffffffffff1681526020019060010190808311611d0b575b505050505081526020016003820154815260200160048201548152602001600582015481525050905092915050565b611d8c613d27565b73ffffffffffffffffffffffffffffffffffffffff16611daa612246565b73ffffffffffffffffffffffffffffffffffffffff1614611e00576040517f08c379a0000000000000000000000000000000000000000000000000000000008152600401611df79061537d565b60405180910390fd5b611e0a6000613d2f565b565b6000601060003373ffffffffffffffffffffffffffffffffffffffff1673ffffffffffffffffffffffffffffffffffffffff16815260200190815260200160002054118015611e5e575061041a601154115b611e6757600080fd5b601360009054906101000a900473ffffffffffffffffffffffffffffffffffffffff1673ffffffffffffffffffffffffffffffffffffffff1663e16acb8333670de0b6b3a7640000601060003373ffffffffffffffffffffffffffffffffffffffff1673ffffffffffffffffffffffffffffffffffffffff16815260200190815260200160002054611ef99190614e41565b6040518363ffffffff1660e01b8152600401611f16929190614e9b565b6020604051808303816000875af1158015611f35573d6000803e3d6000fd5b505050506040513d601f19601f82011682018060405250810190611f599190614ef0565b611f6257600080fd5b6000601060003373ffffffffffffffffffffffffffffffffffffffff1673ffffffffffffffffffffffffffffffffffffffff16815260200190815260200160002081905550565b6060601960008373ffffffffffffffffffffffffffffffffffffffff1673ffffffffffffffffffffffffffffffffffffffff16815260200190815260200160002060000180548060200260200160405190810160405280929190818152602001828054801561203757602002820191906000526020600020905b815481526020019060010190808311612023575b50505050509050919050565b426236ee80601d60003373ffffffffffffffffffffffffffffffffffffffff1673ffffffffffffffffffffffffffffffffffffffff168152602001908152602001600020546120929190614fb1565b106120d2576040517f08c379a00000000000000000000000000000000000000000000000000000000081526004016120c990615455565b60405180910390fd5b6000600b5411612117576040517f08c379a000000000000000000000000000000000000000000000000000000000815260040161210e906154c1565b60405180910390fd5b42601d60003373ffffffffffffffffffffffffffffffffffffffff1673ffffffffffffffffffffffffffffffffffffffff168152602001908152602001600020819055508060405160200161216c9190614c77565b604051602081830303815290604052805190602001207f0000000000000000000000000000000000000000000000000000000000000000141561224357600b54601060003373ffffffffffffffffffffffffffffffffffffffff1673ffffffffffffffffffffffffffffffffffffffff16815260200190815260200160002060008282546121fa9190614fb1565b925050819055506000600b819055507f8bfa80df432eb1ac1ee18e3c6c63813839b9ccd6eb47d1d7edf53ccbed6937b7338260405161223a92919061551a565b60405180910390a15b50565b60008060009054906101000a900473ffffffffffffffffffffffffffffffffffffffff16905090565b6000601a60008373ffffffffffffffffffffffffffffffffffffffff1673ffffffffffffffffffffffffffffffffffffffff168152602001908152602001600020549050919050565b6122c0613d27565b73ffffffffffffffffffffffffffffffffffffffff166122de612246565b73ffffffffffffffffffffffffffffffffffffffff1614612334576040517f08c379a000000000000000000000000000000000000000000000000000000000815260040161232b9061537d565b60405180910390fd5b80601f60006101000a81548173ffffffffffffffffffffffffffffffffffffffff021916908373ffffffffffffffffffffffffffffffffffffffff16021790555050565b600081519050601e548161238c9190614e41565b601f60009054906101000a900473ffffffffffffffffffffffffffffffffffffffff1673ffffffffffffffffffffffffffffffffffffffff166370a08231336040518263ffffffff1660e01b81526004016123e79190614551565b602060405180830381865afa158015612404573d6000803e3d6000fd5b505050506040513d601f19601f82011682018060405250810190612428919061555f565b101580156124e05750601e548161243f9190614e41565b601f60009054906101000a900473ffffffffffffffffffffffffffffffffffffffff1673ffffffffffffffffffffffffffffffffffffffff1663dd62ed3e33306040518363ffffffff1660e01b815260040161249c92919061558c565b602060405180830381865afa1580156124b9573d6000803e3d6000fd5b505050506040513d601f19601f820116820180604052508101906124dd919061555f565b10155b61251f576040517f08c379a000000000000000000000000000000000000000000000000000000000815260040161251690615601565b60405180910390fd5b6000601154905060005b828110156125a1578184828151811061254557612544614de3565b5b6020026020010151101561258e576040517f08c379a00000000000000000000000000000000000000000000000000000000081526004016125859061566d565b60405180910390fd5b808061259990615007565b915050612529565b506000601a60003373ffffffffffffffffffffffffffffffffffffffff1673ffffffffffffffffffffffffffffffffffffffff168152602001908152602001600020541480156125f557506107d060215410155b1561260357612602613df3565b5b6000601960003373ffffffffffffffffffffffffffffffffffffffff1673ffffffffffffffffffffffffffffffffffffffff16815260200190815260200160002090506000805b8481101561280d576126763387838151811061266957612668614de3565b5b6020026020010151613f4c565b6127fa57818061268590615007565b9250506016600087838151811061269f5761269e614de3565b5b60200260200101518152602001908152602001600020600101339080600181540180825580915050600190039060005260206000200160009091909190916101000a81548173ffffffffffffffffffffffffffffffffffffffff021916908373ffffffffffffffffffffffffffffffffffffffff160217905550601660008783815181106127305761272f614de3565b5b60200260200101518152602001908152602001600020600201600081548092919061275a90615007565b9190505550601a60003373ffffffffffffffffffffffffffffffffffffffff1673ffffffffffffffffffffffffffffffffffffffff16815260200190815260200160002060008154809291906127af90615007565b9190505550826000018682815181106127cb576127ca614de3565b5b602002602001015190806001815401808255809150506001900390600052602060002001600090919091909150555b808061280590615007565b91505061264a565b50601f60009054906101000a900473ffffffffffffffffffffffffffffffffffffffff1673ffffffffffffffffffffffffffffffffffffffff166323b872dd3330601e548561285c9190614e41565b6040518463ffffffff1660e01b815260040161287a93929190615079565b6020604051808303816000875af1158015612899573d6000803e3d6000fd5b505050506040513d601f19601f820116820180604052508101906128bd9190614ef0565b505050505050565b600080821461290a5781426040516020016128e091906156ae565b6040516020818303038152906040528051906020012060001c61290391906156c9565b905061290f565b600090505b919050565b600080826040516020016129289190614c77565b604051602081830303815290604052805190602001209050601c600082815260200190815260200160002060009054906101000a900473ffffffffffffffffffffffffffffffffffffffff16915050919050565b612984614152565b601660008381526020019081526020016000206040518060600160405290816000820160009054906101000a900473ffffffffffffffffffffffffffffffffffffffff1673ffffffffffffffffffffffffffffffffffffffff1673ffffffffffffffffffffffffffffffffffffffff16815260200160018201805480602002602001604051908101604052809291908181526020018280548015612a7d57602002820191906000526020600020905b8160009054906101000a900473ffffffffffffffffffffffffffffffffffffffff1673ffffffffffffffffffffffffffffffffffffffff1681526020019060010190808311612a33575b505050505081526020016002820154815250509050919050565b612a9f613d27565b73ffffffffffffffffffffffffffffffffffffffff16612abd612246565b73ffffffffffffffffffffffffffffffffffffffff1614612b13576040517f08c379a0000000000000000000000000000000000000000000000000000000008152600401612b0a9061537d565b60405180910390fd5b80601360006101000a81548173ffffffffffffffffffffffffffffffffffffffff021916908373ffffffffffffffffffffffffffffffffffffffff16021790555050565b612b5f613d27565b73ffffffffffffffffffffffffffffffffffffffff16612b7d612246565b73ffffffffffffffffffffffffffffffffffffffff1614612bd3576040517f08c379a0000000000000000000000000000000000000000000000000000000008152600401612bca9061537d565b60405180910390fd5b8060128190555050565b6012543414612beb57600080fd5b60003390508373ffffffffffffffffffffffffffffffffffffffff166323b872dd3330866040518463ffffffff1660e01b8152600401612c2d93929190615079565b6020604051808303816000875af1158015612c4c573d6000803e3d6000fd5b505050506040513d601f19601f82011682018060405250810190612c709190614ef0565b8015612cbb5750600a600160008373ffffffffffffffffffffffffffffffffffffffff1673ffffffffffffffffffffffffffffffffffffffff16815260200190815260200160002054105b8015612cc957506103e88211155b8015612cd55750600182115b612cde57600080fd5b600160008273ffffffffffffffffffffffffffffffffffffffff1673ffffffffffffffffffffffffffffffffffffffff1681526020019081526020016000206000815480929190612d2e90615007565b91905055506000600260008373ffffffffffffffffffffffffffffffffffffffff1673ffffffffffffffffffffffffffffffffffffffff16815260200190815260200160002060008154612d8190615007565b91905081905590506000600360008473ffffffffffffffffffffffffffffffffffffffff1673ffffffffffffffffffffffffffffffffffffffff1681526020019081526020016000206000838152602001908152602001600020905080600201839080600181540180825580915050600190039060005260206000200160009091909190916101000a81548173ffffffffffffffffffffffffffffffffffffffff021916908373ffffffffffffffffffffffffffffffffffffffff160217905550848160030181905550838160040181905550858160000160006101000a81548173ffffffffffffffffffffffffffffffffffffffff021916908373ffffffffffffffffffffffffffffffffffffffff1602179055506001816005018190555060008160010160006101000a81548173ffffffffffffffffffffffffffffffffffffffff021916908373ffffffffffffffffffffffffffffffffffffffff1602179055507fd410351c665a301920e73c59278ef7d00331965b791f8f370ffbcfb7b3f9fb2483838342604051612f1a94939291906152bb565b60405180910390a1505050505050565b600080600360008573ffffffffffffffffffffffffffffffffffffffff1673ffffffffffffffffffffffffffffffffffffffff168152602001908152602001600020600084815260200190815260200160002060020180548060200260200160405190810160405280929190818152602001828054801561300057602002820191906000526020600020905b8160009054906101000a900473ffffffffffffffffffffffffffffffffffffffff1673ffffffffffffffffffffffffffffffffffffffff1681526020019060010190808311612fb6575b505050505090506000600360008673ffffffffffffffffffffffffffffffffffffffff1673ffffffffffffffffffffffffffffffffffffffff168152602001908152602001600020600085815260200190815260200160002060050154905060005b818110156130d7578673ffffffffffffffffffffffffffffffffffffffff1683828151811061309457613093614de3565b5b602002602001015173ffffffffffffffffffffffffffffffffffffffff1614156130c457600193505050506130df565b80806130cf90615007565b915050613062565b506000925050505b9392505050565b60006017600083815260200190815260200160002060009054906101000a900473ffffffffffffffffffffffffffffffffffffffff169050919050565b6000602154905090565b613135613d27565b73ffffffffffffffffffffffffffffffffffffffff16613153612246565b73ffffffffffffffffffffffffffffffffffffffff16146131a9576040517f08c379a00000000000000000000000000000000000000000000000000000000081526004016131a09061537d565b60405180910390fd5b600073ffffffffffffffffffffffffffffffffffffffff168173ffffffffffffffffffffffffffffffffffffffff161415613219576040517f08c379a00000000000000000000000000000000000000000000000000000000081526004016132109061576c565b60405180910390fd5b61322281613d2f565b50565b61322d613d27565b73ffffffffffffffffffffffffffffffffffffffff1661324b612246565b73ffffffffffffffffffffffffffffffffffffffff16146132a1576040517f08c379a00000000000000000000000000000000000000000000000000000000081526004016132989061537d565b60405180910390fd5b80601e8190555050565b6132b3614189565b601860008373ffffffffffffffffffffffffffffffffffffffff1673ffffffffffffffffffffffffffffffffffffffff1681526020019081526020016000206040518060400160405290816000820180548060200260200160405190810160405280929190818152602001828054801561334c57602002820191906000526020600020905b815481526020019060010190808311613338575b505050505081526020016001820160009054906101000a900460ff1660ff1660ff16815250509050919050565b600060329050600060176000836011546133939190614f1d565b815260200190815260200160002060009054906101000a900473ffffffffffffffffffffffffffffffffffffffff1690506000601860008373ffffffffffffffffffffffffffffffffffffffff1673ffffffffffffffffffffffffffffffffffffffff168152602001908152602001600020600001905060008180549050905060005b81811015613542578460115461342c9190614f1d565b83828154811061343f5761343e614de3565b5b9060005260206000200154141561352f576001821415613485578280548061346a5761346961578c565b5b6001900381819060005260206000200160009055905561352a565b60008190505b6001848054905061349c9190614f1d565b81101561350157836001826134b19190614fb1565b815481106134c2576134c1614de3565b5b90600052602060002001548482815481106134e0576134df614de3565b5b906000526020600020018190555080806134f990615007565b91505061348b565b50828054806135135761351261578c565b5b600190038181906000526020600020016000905590555b613542565b808061353a90615007565b915050613416565b5061354b612246565b601760008660115461355d9190614f1d565b815260200190815260200160002060006101000a81548173ffffffffffffffffffffffffffffffffffffffff021916908373ffffffffffffffffffffffffffffffffffffffff160217905550601860006135b5612246565b73ffffffffffffffffffffffffffffffffffffffff1673ffffffffffffffffffffffffffffffffffffffff168152602001908152602001600020600001846011546136009190614f1d565b908060018154018082558091505060019003906000526020600020016000909190919091505550505050565b6000601460009054906101000a900473ffffffffffffffffffffffffffffffffffffffff1673ffffffffffffffffffffffffffffffffffffffff16638951764a6040518163ffffffff1660e01b8152600401600060405180830381865afa15801561369b573d6000803e3d6000fd5b505050506040513d6000823e3d601f19601f820116820180604052508101906136c49190615852565b90506000815190506000811115613813576000816005546136e59190614f80565b905060005b82811015613810578160106000601460009054906101000a900473ffffffffffffffffffffffffffffffffffffffff1673ffffffffffffffffffffffffffffffffffffffff16636352211e88868151811061374857613747614de3565b5b60200260200101516040518263ffffffff1660e01b815260040161376c919061448f565b602060405180830381865afa158015613789573d6000803e3d6000fd5b505050506040513d601f19601f820116820180604052508101906137ad91906158b0565b73ffffffffffffffffffffffffffffffffffffffff1673ffffffffffffffffffffffffffffffffffffffff16815260200190815260200160002060008282546137f69190614fb1565b92505081905550808061380890615007565b9150506136ea565b50505b5050565b6000601460009054906101000a900473ffffffffffffffffffffffffffffffffffffffff1673ffffffffffffffffffffffffffffffffffffffff166379b354116040518163ffffffff1660e01b8152600401600060405180830381865afa158015613886573d6000803e3d6000fd5b505050506040513d6000823e3d601f19601f820116820180604052508101906138af91906159a0565b90506000815190506000811115613963576000816006546138d09190614f80565b905060005b828110156139605781601060008684815181106138f5576138f4614de3565b5b602002602001015173ffffffffffffffffffffffffffffffffffffffff1673ffffffffffffffffffffffffffffffffffffffff16815260200190815260200160002060008282546139469190614fb1565b92505081905550808061395890615007565b9150506138d5565b50505b5050565b601360009054906101000a900473ffffffffffffffffffffffffffffffffffffffff1673ffffffffffffffffffffffffffffffffffffffff1663e16acb836139ad612246565b670de0b6b3a76400006007546139c39190614e41565b6040518363ffffffff1660e01b81526004016139e0929190614e9b565b6020604051808303816000875af11580156139ff573d6000803e3d6000fd5b505050506040513d601f19601f82011682018060405250810190613a239190614ef0565b50565b6000808260400151613a3b84608001516128c5565b81518110613a4c57613a4b614de3565b5b60200260200101519050826000015173ffffffffffffffffffffffffffffffffffffffff1663a9059cbb8285608001518660600151613a8b9190614e41565b6040518363ffffffff1660e01b8152600401613aa8929190614e9b565b6020604051808303816000875af1158015613ac7573d6000803e3d6000fd5b505050506040513d601f19601f82011682018060405250810190613aeb9190614ef0565b506000836040015151905061041b60115410158015613b5b5750601360009054906101000a900473ffffffffffffffffffffffffffffffffffffffff1673ffffffffffffffffffffffffffffffffffffffff16846000015173ffffffffffffffffffffffffffffffffffffffff16145b8015613b755750600a81613b6f9190614e41565b600f5410155b8015613b8e57506802b5e3af16b1880000846060015110155b15613d1d5760005b81811015613d1b57600060155414613c8157601360009054906101000a900473ffffffffffffffffffffffffffffffffffffffff1673ffffffffffffffffffffffffffffffffffffffff1663e16acb8386604001518381518110613bfd57613bfc614de3565b5b6020026020010151670de0b6b3a7640000601554613c1b9190614e41565b6040518363ffffffff1660e01b8152600401613c38929190614e9b565b6020604051808303816000875af1158015613c57573d6000803e3d6000fd5b505050506040513d601f19601f82011682018060405250810190613c7b9190614ef0565b50613cf7565b600a6010600087604001518481518110613c9e57613c9d614de3565b5b602002602001015173ffffffffffffffffffffffffffffffffffffffff1673ffffffffffffffffffffffffffffffffffffffff1681526020019081526020016000206000828254613cef9190614fb1565b925050819055505b600a600f600082825403925050819055508080613d1390615007565b915050613b96565b505b8192505050919050565b600033905090565b60008060009054906101000a900473ffffffffffffffffffffffffffffffffffffffff169050816000806101000a81548173ffffffffffffffffffffffffffffffffffffffff021916908373ffffffffffffffffffffffffffffffffffffffff1602179055508173ffffffffffffffffffffffffffffffffffffffff168173ffffffffffffffffffffffffffffffffffffffff167f8be0079c531659141344cd1fd0a4f28419497f9722a3daafe3b4186f6b6457e060405160405180910390a35050565b6000601b60003373ffffffffffffffffffffffffffffffffffffffff1673ffffffffffffffffffffffffffffffffffffffff168152602001908152602001600020600101549050806000801b14613f49576000601c600083815260200190815260200160002060009054906101000a900473ffffffffffffffffffffffffffffffffffffffff1690506107d060216000828254613e909190614f1d565b925050819055506103e8601060003373ffffffffffffffffffffffffffffffffffffffff1673ffffffffffffffffffffffffffffffffffffffff1681526020019081526020016000206000828254613ee89190614fb1565b925050819055506103e8601060008373ffffffffffffffffffffffffffffffffffffffff1673ffffffffffffffffffffffffffffffffffffffff1681526020019081526020016000206000828254613f409190614fb1565b92505081905550505b50565b600080601660008481526020019081526020016000206040518060600160405290816000820160009054906101000a900473ffffffffffffffffffffffffffffffffffffffff1673ffffffffffffffffffffffffffffffffffffffff1673ffffffffffffffffffffffffffffffffffffffff1681526020016001820180548060200260200160405190810160405280929190818152602001828054801561404857602002820191906000526020600020905b8160009054906101000a900473ffffffffffffffffffffffffffffffffffffffff1673ffffffffffffffffffffffffffffffffffffffff1681526020019060010190808311613ffe575b50505050508152602001600282015481525050905060008160400151905060005b818110156140e2578573ffffffffffffffffffffffffffffffffffffffff168360200151828151811061409f5761409e614de3565b5b602002602001015173ffffffffffffffffffffffffffffffffffffffff1614156140cf57600193505050506140ea565b80806140da90615007565b915050614069565b506000925050505b92915050565b6040518060c00160405280600073ffffffffffffffffffffffffffffffffffffffff168152602001600073ffffffffffffffffffffffffffffffffffffffff168152602001606081526020016000815260200160008152602001600081525090565b6040518060600160405280600073ffffffffffffffffffffffffffffffffffffffff16815260200160608152602001600081525090565b604051806040016040528060608152602001600060ff1681525090565b6000604051905090565b600080fd5b600080fd5b600073ffffffffffffffffffffffffffffffffffffffff82169050919050565b60006141e5826141ba565b9050919050565b6141f5816141da565b811461420057600080fd5b50565b600081359050614212816141ec565b92915050565b6000819050919050565b61422b81614218565b811461423657600080fd5b50565b60008135905061424881614222565b92915050565b60008060408385031215614265576142646141b0565b5b600061427385828601614203565b925050602061428485828601614239565b9150509250929050565b60008115159050919050565b6142a38161428e565b82525050565b60006020820190506142be600083018461429a565b92915050565b600080fd5b600080fd5b6000601f19601f8301169050919050565b7f4e487b7100000000000000000000000000000000000000000000000000000000600052604160045260246000fd5b614317826142ce565b810181811067ffffffffffffffff82111715614336576143356142df565b5b80604052505050565b60006143496141a6565b9050614355828261430e565b919050565b600067ffffffffffffffff821115614375576143746142df565b5b61437e826142ce565b9050602081019050919050565b82818337600083830152505050565b60006143ad6143a88461435a565b61433f565b9050828152602081018484840111156143c9576143c86142c9565b5b6143d484828561438b565b509392505050565b600082601f8301126143f1576143f06142c4565b5b813561440184826020860161439a565b91505092915050565b6000602082840312156144205761441f6141b0565b5b600082013567ffffffffffffffff81111561443e5761443d6141b5565b5b61444a848285016143dc565b91505092915050565b600060208284031215614469576144686141b0565b5b600061447784828501614203565b91505092915050565b61448981614218565b82525050565b60006020820190506144a46000830184614480565b92915050565b6000602082840312156144c0576144bf6141b0565b5b60006144ce84828501614239565b91505092915050565b60006144e2826141da565b9050919050565b6144f2816144d7565b81146144fd57600080fd5b50565b60008135905061450f816144e9565b92915050565b60006020828403121561452b5761452a6141b0565b5b600061453984828501614500565b91505092915050565b61454b816141da565b82525050565b60006020820190506145666000830184614542565b92915050565b6000819050919050565b600061459161458c614587846141ba565b61456c565b6141ba565b9050919050565b60006145a382614576565b9050919050565b60006145b582614598565b9050919050565b6145c5816145aa565b82525050565b6145d4816141da565b82525050565b600081519050919050565b600082825260208201905092915050565b6000819050602082019050919050565b600061461283836145cb565b60208301905092915050565b6000602082019050919050565b6000614636826145da565b61464081856145e5565b935061464b836145f6565b8060005b8381101561467c5781516146638882614606565b975061466e8361461e565b92505060018101905061464f565b5085935050505092915050565b61469281614218565b82525050565b600060c0830160008301516146b060008601826145bc565b5060208301516146c360208601826145cb565b50604083015184820360408601526146db828261462b565b91505060608301516146f06060860182614689565b5060808301516147036080860182614689565b5060a083015161471660a0860182614689565b508091505092915050565b6000602082019050818103600083015261473b8184614698565b905092915050565b600081519050919050565b600082825260208201905092915050565b6000819050602082019050919050565b600061477b8383614689565b60208301905092915050565b6000602082019050919050565b600061479f82614743565b6147a9818561474e565b93506147b48361475f565b8060005b838110156147e55781516147cc888261476f565b97506147d783614787565b9250506001810190506147b8565b5085935050505092915050565b6000602082019050818103600083015261480c8184614794565b905092915050565b600061481f826141da565b9050919050565b61482f81614814565b811461483a57600080fd5b50565b60008135905061484c81614826565b92915050565b600060208284031215614868576148676141b0565b5b60006148768482850161483d565b91505092915050565b600067ffffffffffffffff82111561489a576148996142df565b5b602082029050602081019050919050565b600080fd5b60006148c36148be8461487f565b61433f565b905080838252602082019050602084028301858111156148e6576148e56148ab565b5b835b8181101561490f57806148fb8882614239565b8452602084019350506020810190506148e8565b5050509392505050565b600082601f83011261492e5761492d6142c4565b5b813561493e8482602086016148b0565b91505092915050565b60006020828403121561495d5761495c6141b0565b5b600082013567ffffffffffffffff81111561497b5761497a6141b5565b5b61498784828501614919565b91505092915050565b60006060830160008301516149a860008601826145cb565b50602083015184820360208601526149c0828261462b565b91505060408301516149d56040860182614689565b508091505092915050565b600060208201905081810360008301526149fa8184614990565b905092915050565b6000614a0d826141da565b9050919050565b614a1d81614a02565b8114614a2857600080fd5b50565b600081359050614a3a81614a14565b92915050565b600060208284031215614a5657614a556141b0565b5b6000614a6484828501614a2b565b91505092915050565b600080600060608486031215614a8657614a856141b0565b5b6000614a948682870161483d565b9350506020614aa586828701614239565b9250506040614ab686828701614239565b9150509250925092565b600080600060608486031215614ad957614ad86141b0565b5b6000614ae786828701614203565b9350506020614af886828701614203565b9250506040614b0986828701614239565b9150509250925092565b600082825260208201905092915050565b6000614b2f82614743565b614b398185614b13565b9350614b448361475f565b8060005b83811015614b75578151614b5c888261476f565b9750614b6783614787565b925050600181019050614b48565b5085935050505092915050565b600060ff82169050919050565b614b9881614b82565b82525050565b60006040830160008301518482036000860152614bbb8282614b24565b9150506020830151614bd06020860182614b8f565b508091505092915050565b60006020820190508181036000830152614bf58184614b9e565b905092915050565b600081519050919050565b600081905092915050565b60005b83811015614c31578082015181840152602081019050614c16565b83811115614c40576000848401525b50505050565b6000614c5182614bfd565b614c5b8185614c08565b9350614c6b818560208601614c13565b80840191505092915050565b6000614c838284614c46565b915081905092915050565b600082825260208201905092915050565b7f74766f7900000000000000000000000000000000000000000000000000000000600082015250565b6000614cd5600483614c8e565b9150614ce082614c9f565b602082019050919050565b60006020820190508181036000830152614d0481614cc8565b9050919050565b7f796a650000000000000000000000000000000000000000000000000000000000600082015250565b6000614d41600383614c8e565b9150614d4c82614d0b565b602082019050919050565b60006020820190508181036000830152614d7081614d34565b9050919050565b7f6e65206368656900000000000000000000000000000000000000000000000000600082015250565b6000614dad600783614c8e565b9150614db882614d77565b602082019050919050565b60006020820190508181036000830152614ddc81614da0565b9050919050565b7f4e487b7100000000000000000000000000000000000000000000000000000000600052603260045260246000fd5b7f4e487b7100000000000000000000000000000000000000000000000000000000600052601160045260246000fd5b6000614e4c82614218565b9150614e5783614218565b9250817fffffffffffffffffffffffffffffffffffffffffffffffffffffffffffffffff0483118215151615614e9057614e8f614e12565b5b828202905092915050565b6000604082019050614eb06000830185614542565b614ebd6020830184614480565b9392505050565b614ecd8161428e565b8114614ed857600080fd5b50565b600081519050614eea81614ec4565b92915050565b600060208284031215614f0657614f056141b0565b5b6000614f1484828501614edb565b91505092915050565b6000614f2882614218565b9150614f3383614218565b925082821015614f4657614f45614e12565b5b828203905092915050565b7f4e487b7100000000000000000000000000000000000000000000000000000000600052601260045260246000fd5b6000614f8b82614218565b9150614f9683614218565b925082614fa657614fa5614f51565b5b828204905092915050565b6000614fbc82614218565b9150614fc783614218565b9250827fffffffffffffffffffffffffffffffffffffffffffffffffffffffffffffffff03821115614ffc57614ffb614e12565b5b828201905092915050565b600061501282614218565b91507fffffffffffffffffffffffffffffffffffffffffffffffffffffffffffffffff82141561504557615044614e12565b5b600182019050919050565b60006040820190506150656000830185614480565b6150726020830184614542565b9392505050565b600060608201905061508e6000830186614542565b61509b6020830185614542565b6150a86040830184614480565b949350505050565b60008160001c9050919050565b600073ffffffffffffffffffffffffffffffffffffffff82169050919050565b60006150f06150eb836150b0565b6150bd565b9050919050565b600073ffffffffffffffffffffffffffffffffffffffff82169050919050565b600061512a615125836150b0565b6150f7565b9050919050565b600081549050919050565b60008190508160005260206000209050919050565b600061515d8254615117565b9050919050565b6000600182019050919050565b600061517c82615131565b61518681856145e5565b93506151918361513c565b8060005b838110156151c9576151a682615151565b6151b08882614606565b97506151bb83615164565b925050600181019050615195565b5085935050505092915050565b6000819050919050565b60006151f36151ee836150b0565b6151d6565b9050919050565b600060c083016000808401549050615211816150dd565b61521e60008701826145bc565b506001840154905061522f81615117565b61523c60208701826145cb565b506002840185830360408701526152538382615171565b92505060038401549050615266816151e0565b6152736060870182614689565b5060048401549050615284816151e0565b6152916080870182614689565b50600584015490506152a2816151e0565b6152af60a0870182614689565b50819250505092915050565b60006080820190506152d06000830187614542565b6152dd6020830186614480565b81810360408301526152ef81856151fa565b90506152fe6060830184614480565b95945050505050565b600061531282614218565b9150600082141561532657615325614e12565b5b600182039050919050565b7f4f776e61626c653a2063616c6c6572206973206e6f7420746865206f776e6572600082015250565b6000615367602083614c8e565b915061537282615331565b602082019050919050565b600060208201905081810360008301526153968161535a565b9050919050565b7f6578697374000000000000000000000000000000000000000000000000000000600082015250565b60006153d3600583614c8e565b91506153de8261539d565b602082019050919050565b60006020820190508181036000830152615402816153c6565b9050919050565b7f54696d6500000000000000000000000000000000000000000000000000000000600082015250565b600061543f600483614c8e565b915061544a82615409565b602082019050919050565b6000602082019050818103600083015261546e81615432565b9050919050565b7f7072697a65206c6f737400000000000000000000000000000000000000000000600082015250565b60006154ab600a83614c8e565b91506154b682615475565b602082019050919050565b600060208201905081810360008301526154da8161549e565b9050919050565b60006154ec82614bfd565b6154f68185614c8e565b9350615506818560208601614c13565b61550f816142ce565b840191505092915050565b600060408201905061552f6000830185614542565b818103602083015261554181846154e1565b90509392505050565b60008151905061555981614222565b92915050565b600060208284031215615575576155746141b0565b5b60006155838482850161554a565b91505092915050565b60006040820190506155a16000830185614542565b6155ae6020830184614542565b9392505050565b7f62616c616e6365206f7220616c6c6f77616e6365000000000000000000000000600082015250565b60006155eb601483614c8e565b91506155f6826155b5565b602082019050919050565b6000602082019050818103600083015261561a816155de565b9050919050565b7f536f6d65206c6f7474657279203c206c6f7474657279436f756e740000000000600082015250565b6000615657601b83614c8e565b915061566282615621565b602082019050919050565b600060208201905081810360008301526156868161564a565b9050919050565b6000819050919050565b6156a86156a382614218565b61568d565b82525050565b60006156ba8284615697565b60208201915081905092915050565b60006156d482614218565b91506156df83614218565b9250826156ef576156ee614f51565b5b828206905092915050565b7f4f776e61626c653a206e6577206f776e657220697320746865207a65726f206160008201527f6464726573730000000000000000000000000000000000000000000000000000602082015250565b6000615756602683614c8e565b9150615761826156fa565b604082019050919050565b6000602082019050818103600083015261578581615749565b9050919050565b7f4e487b7100000000000000000000000000000000000000000000000000000000600052603160045260246000fd5b60006157ce6157c98461487f565b61433f565b905080838252602082019050602084028301858111156157f1576157f06148ab565b5b835b8181101561581a5780615806888261554a565b8452602084019350506020810190506157f3565b5050509392505050565b600082601f830112615839576158386142c4565b5b81516158498482602086016157bb565b91505092915050565b600060208284031215615868576158676141b0565b5b600082015167ffffffffffffffff811115615886576158856141b5565b5b61589284828501615824565b91505092915050565b6000815190506158aa816141ec565b92915050565b6000602082840312156158c6576158c56141b0565b5b60006158d48482850161589b565b91505092915050565b600067ffffffffffffffff8211156158f8576158f76142df565b5b602082029050602081019050919050565b600061591c615917846158dd565b61433f565b9050808382526020820190506020840283018581111561593f5761593e6148ab565b5b835b818110156159685780615954888261589b565b845260208401935050602081019050615941565b5050509392505050565b600082601f830112615987576159866142c4565b5b8151615997848260208601615909565b91505092915050565b6000602082840312156159b6576159b56141b0565b5b600082015167ffffffffffffffff8111156159d4576159d36141b5565b5b6159e084828501615972565b9150509291505056fea26469706673582212202e74ee93b0e6428e5676d7a58da151e0ec354df76fe98b53c3d65c35702918f364736f6c634300080b0033",
  "linkReferences": {},
  "deployedLinkReferences": {}
}