{
  "_format": "hh-sol-artifact-1",
  "contractName": "Lottery",
  "sourceName": "contracts/Lottery.sol",
  "abi": [
    {
      "inputs": [
        {
          "internalType": "contract IERC20",
          "name": "_tokenForLottery",
          "type": "address"
        },
        {
          "internalType": "uint256",
          "name": "_deposit",
          "type": "uint256"
        }
      ],
      "stateMutability": "nonpayable",
      "type": "constructor"
    },
    {
      "anonymous": false,
      "inputs": [
        {
          "indexed": true,
          "internalType": "address",
          "name": "previousOwner",
          "type": "address"
        },
        {
          "indexed": true,
          "internalType": "address",
          "name": "newOwner",
          "type": "address"
        }
      ],
      "name": "OwnershipTransferred",
      "type": "event"
    },
    {
      "anonymous": false,
      "inputs": [
        {
          "indexed": false,
          "internalType": "address",
          "name": "user",
          "type": "address"
        }
      ],
      "name": "enter",
      "type": "event"
    },
    {
      "anonymous": false,
      "inputs": [
        {
          "indexed": false,
          "internalType": "address",
          "name": "creator",
          "type": "address"
        },
        {
          "indexed": false,
          "internalType": "uint256",
          "name": "LobbyId",
          "type": "uint256"
        },
        {
          "indexed": false,
          "internalType": "address",
          "name": "user",
          "type": "address"
        },
        {
          "indexed": false,
          "internalType": "address[]",
          "name": "players",
          "type": "address[]"
        },
        {
          "indexed": false,
          "internalType": "uint256",
          "name": "deposit",
          "type": "uint256"
        },
        {
          "indexed": false,
          "internalType": "uint256",
          "name": "countOfPlayers",
          "type": "uint256"
        },
        {
          "indexed": false,
          "internalType": "contract IERC20",
          "name": "token",
          "type": "address"
        }
      ],
      "name": "enterLobby",
      "type": "event"
    },
    {
      "anonymous": false,
      "inputs": [
        {
          "indexed": true,
          "internalType": "address",
          "name": "creator",
          "type": "address"
        },
        {
          "indexed": true,
          "internalType": "uint256",
          "name": "deposit",
          "type": "uint256"
        },
        {
          "indexed": true,
          "internalType": "uint256",
          "name": "countOfPlayers",
          "type": "uint256"
        },
        {
          "indexed": false,
          "internalType": "uint256",
          "name": "LobbyId",
          "type": "uint256"
        }
      ],
      "name": "newLobby",
      "type": "event"
    },
    {
      "anonymous": false,
      "inputs": [
        {
          "indexed": false,
          "internalType": "address",
          "name": "winer",
          "type": "address"
        }
      ],
      "name": "play",
      "type": "event"
    },
    {
      "anonymous": false,
      "inputs": [
        {
          "indexed": false,
          "internalType": "address",
          "name": "creator",
          "type": "address"
        },
        {
          "indexed": false,
          "internalType": "uint256",
          "name": "LobbyId",
          "type": "uint256"
        },
        {
          "indexed": false,
          "internalType": "address[]",
          "name": "players",
          "type": "address[]"
        },
        {
          "indexed": false,
          "internalType": "uint256",
          "name": "deposit",
          "type": "uint256"
        },
        {
          "indexed": false,
          "internalType": "uint256",
          "name": "countOfPlayers",
          "type": "uint256"
        },
        {
          "indexed": false,
          "internalType": "contract IERC20",
          "name": "token",
          "type": "address"
        },
        {
          "indexed": false,
          "internalType": "address",
          "name": "winer",
          "type": "address"
        }
      ],
      "name": "playLobby",
      "type": "event"
    },
    {
      "inputs": [],
      "name": "Enter",
      "outputs": [],
      "stateMutability": "nonpayable",
      "type": "function"
    },
    {
      "inputs": [
        {
          "internalType": "address",
          "name": "lobbyCreator",
          "type": "address"
        },
        {
          "internalType": "uint256",
          "name": "lobbyId",
          "type": "uint256"
        }
      ],
      "name": "EnterLobby",
      "outputs": [],
      "stateMutability": "nonpayable",
      "type": "function"
    },
    {
      "inputs": [],
      "name": "Play",
      "outputs": [],
      "stateMutability": "nonpayable",
      "type": "function"
    },
    {
      "inputs": [],
      "name": "REF",
      "outputs": [],
      "stateMutability": "nonpayable",
      "type": "function"
    },
    {
      "inputs": [
        {
          "internalType": "contract IERC20",
          "name": "tokenAddress",
          "type": "address"
        },
        {
          "internalType": "uint256",
          "name": "value",
          "type": "uint256"
        }
      ],
      "name": "Withdrow",
      "outputs": [],
      "stateMutability": "nonpayable",
      "type": "function"
    },
    {
      "inputs": [
        {
          "internalType": "address",
          "name": "addres",
          "type": "address"
        }
      ],
      "name": "_allowToNFT",
      "outputs": [
        {
          "components": [
            {
              "internalType": "uint256[]",
              "name": "lotteryes",
              "type": "uint256[]"
            },
            {
              "internalType": "uint8",
              "name": "dont_use",
              "type": "uint8"
            }
          ],
          "internalType": "struct Lottery.wins",
          "name": "",
          "type": "tuple"
        }
      ],
      "stateMutability": "view",
      "type": "function"
    },
    {
      "inputs": [
        {
          "internalType": "address",
          "name": "a",
          "type": "address"
        },
        {
          "internalType": "uint256",
          "name": "TokenId",
          "type": "uint256"
        }
      ],
      "name": "_findAddressInfirst1000Winers",
      "outputs": [
        {
          "internalType": "bool",
          "name": "",
          "type": "bool"
        }
      ],
      "stateMutability": "view",
      "type": "function"
    },
    {
      "inputs": [
        {
          "internalType": "uint256[]",
          "name": "_lotteryes",
          "type": "uint256[]"
        }
      ],
      "name": "addToAutoEnter",
      "outputs": [],
      "stateMutability": "nonpayable",
      "type": "function"
    },
    {
      "inputs": [
        {
          "internalType": "contract IERC20",
          "name": "tokenAddress",
          "type": "address"
        },
        {
          "internalType": "uint256",
          "name": "deposit",
          "type": "uint256"
        }
      ],
      "name": "addTokensToBalance",
      "outputs": [],
      "stateMutability": "nonpayable",
      "type": "function"
    },
    {
      "inputs": [
        {
          "internalType": "uint256",
          "name": "TokenId",
          "type": "uint256"
        }
      ],
      "name": "allowToNFT",
      "outputs": [
        {
          "internalType": "address",
          "name": "",
          "type": "address"
        }
      ],
      "stateMutability": "view",
      "type": "function"
    },
    {
      "inputs": [
        {
          "internalType": "address",
          "name": "newAddress",
          "type": "address"
        },
        {
          "internalType": "uint256",
          "name": "TokenId",
          "type": "uint256"
        }
      ],
      "name": "changeAllowToMint",
      "outputs": [],
      "stateMutability": "nonpayable",
      "type": "function"
    },
    {
      "inputs": [
        {
          "internalType": "contract IERC20",
          "name": "tokenAddress",
          "type": "address"
        },
        {
          "internalType": "uint256",
          "name": "deposit",
          "type": "uint256"
        },
        {
          "internalType": "uint256",
          "name": "countOfPlayers",
          "type": "uint256"
        }
      ],
      "name": "createNewLobby",
      "outputs": [],
      "stateMutability": "nonpayable",
      "type": "function"
    },
    {
      "inputs": [
        {
          "internalType": "address",
          "name": "msgsender",
          "type": "address"
        },
        {
          "internalType": "address",
          "name": "lobbyCreator",
          "type": "address"
        },
        {
          "internalType": "uint256",
          "name": "lobbyId",
          "type": "uint256"
        }
      ],
      "name": "findPlayerInLobby",
      "outputs": [
        {
          "internalType": "bool",
          "name": "",
          "type": "bool"
        }
      ],
      "stateMutability": "view",
      "type": "function"
    },
    {
      "inputs": [],
      "name": "getAdrressNFT",
      "outputs": [
        {
          "internalType": "address",
          "name": "",
          "type": "address"
        }
      ],
      "stateMutability": "view",
      "type": "function"
    },
    {
      "inputs": [
        {
          "internalType": "address",
          "name": "a",
          "type": "address"
        }
      ],
      "name": "getAutoEnter",
      "outputs": [
        {
          "internalType": "uint256[]",
          "name": "",
          "type": "uint256[]"
        }
      ],
      "stateMutability": "view",
      "type": "function"
    },
    {
      "inputs": [
        {
          "internalType": "contract IERC20",
          "name": "tokenAddress",
          "type": "address"
        },
        {
          "internalType": "address",
          "name": "a",
          "type": "address"
        }
      ],
      "name": "getBalance",
      "outputs": [
        {
          "internalType": "uint256",
          "name": "",
          "type": "uint256"
        }
      ],
      "stateMutability": "view",
      "type": "function"
    },
    {
      "inputs": [],
      "name": "getHEEP",
      "outputs": [
        {
          "internalType": "uint256",
          "name": "",
          "type": "uint256"
        }
      ],
      "stateMutability": "view",
      "type": "function"
    },
    {
      "inputs": [
        {
          "internalType": "address",
          "name": "creator",
          "type": "address"
        },
        {
          "internalType": "uint256",
          "name": "lobbyid",
          "type": "uint256"
        }
      ],
      "name": "getLobby",
      "outputs": [
        {
          "components": [
            {
              "internalType": "contract IERC20",
              "name": "token",
              "type": "address"
            },
            {
              "internalType": "address",
              "name": "winer",
              "type": "address"
            },
            {
              "internalType": "address[]",
              "name": "players",
              "type": "address[]"
            },
            {
              "internalType": "uint256",
              "name": "deposit",
              "type": "uint256"
            },
            {
              "internalType": "uint256",
              "name": "countOfPlayers",
              "type": "uint256"
            },
            {
              "internalType": "uint256",
              "name": "nowInLobby",
              "type": "uint256"
            }
          ],
          "internalType": "struct Lobby.lobbyShablon",
          "name": "",
          "type": "tuple"
        }
      ],
      "stateMutability": "view",
      "type": "function"
    },
    {
      "inputs": [],
      "name": "getLotteryCount",
      "outputs": [
        {
          "internalType": "uint256",
          "name": "",
          "type": "uint256"
        }
      ],
      "stateMutability": "view",
      "type": "function"
    },
    {
      "inputs": [
        {
          "internalType": "uint256",
          "name": "lotteryId",
          "type": "uint256"
        }
      ],
      "name": "getLotteryShablonByIndex",
      "outputs": [
        {
          "components": [
            {
              "internalType": "address",
              "name": "winer",
              "type": "address"
            },
            {
              "internalType": "address[]",
              "name": "players",
              "type": "address[]"
            },
            {
              "internalType": "uint256",
              "name": "playersCount",
              "type": "uint256"
            }
          ],
          "internalType": "struct Lottery.LotteryShablon",
          "name": "",
          "type": "tuple"
        }
      ],
      "stateMutability": "view",
      "type": "function"
    },
    {
      "inputs": [
        {
          "internalType": "string",
          "name": "a",
          "type": "string"
        }
      ],
      "name": "getPromSetReverse",
      "outputs": [
        {
          "internalType": "address",
          "name": "",
          "type": "address"
        }
      ],
      "stateMutability": "view",
      "type": "function"
    },
    {
      "inputs": [],
      "name": "getREVARD_REF_ALLOW",
      "outputs": [
        {
          "internalType": "uint256",
          "name": "",
          "type": "uint256"
        }
      ],
      "stateMutability": "view",
      "type": "function"
    },
    {
      "inputs": [
        {
          "internalType": "uint256",
          "name": "_playersCount",
          "type": "uint256"
        }
      ],
      "name": "getRandNumber",
      "outputs": [
        {
          "internalType": "uint256",
          "name": "",
          "type": "uint256"
        }
      ],
      "stateMutability": "view",
      "type": "function"
    },
    {
      "inputs": [],
      "name": "getTokenForLottery",
      "outputs": [
        {
          "internalType": "address",
          "name": "",
          "type": "address"
        }
      ],
      "stateMutability": "view",
      "type": "function"
    },
    {
      "inputs": [
        {
          "internalType": "address",
          "name": "a",
          "type": "address"
        }
      ],
      "name": "getcountOfLotteryEnter",
      "outputs": [
        {
          "internalType": "uint256",
          "name": "",
          "type": "uint256"
        }
      ],
      "stateMutability": "view",
      "type": "function"
    },
    {
      "inputs": [
        {
          "internalType": "address",
          "name": "a",
          "type": "address"
        }
      ],
      "name": "getshouldRevard",
      "outputs": [
        {
          "internalType": "uint256",
          "name": "",
          "type": "uint256"
        }
      ],
      "stateMutability": "view",
      "type": "function"
    },
    {
      "inputs": [],
      "name": "owner",
      "outputs": [
        {
          "internalType": "address",
          "name": "",
          "type": "address"
        }
      ],
      "stateMutability": "view",
      "type": "function"
    },
    {
      "inputs": [],
      "name": "renounceOwnership",
      "outputs": [],
      "stateMutability": "nonpayable",
      "type": "function"
    },
    {
      "inputs": [
        {
          "internalType": "contract ERC721with",
          "name": "token",
          "type": "address"
        }
      ],
      "name": "setAdrressNFT",
      "outputs": [],
      "stateMutability": "nonpayable",
      "type": "function"
    },
    {
      "inputs": [
        {
          "internalType": "address",
          "name": "a",
          "type": "address"
        }
      ],
      "name": "setAutotask",
      "outputs": [],
      "stateMutability": "nonpayable",
      "type": "function"
    },
    {
      "inputs": [
        {
          "internalType": "contract MUD",
          "name": "a",
          "type": "address"
        }
      ],
      "name": "setMUD",
      "outputs": [],
      "stateMutability": "nonpayable",
      "type": "function"
    },
    {
      "inputs": [
        {
          "internalType": "string",
          "name": "a",
          "type": "string"
        }
      ],
      "name": "setPromInput",
      "outputs": [],
      "stateMutability": "nonpayable",
      "type": "function"
    },
    {
      "inputs": [
        {
          "internalType": "string",
          "name": "a",
          "type": "string"
        }
      ],
      "name": "setPromSet",
      "outputs": [],
      "stateMutability": "nonpayable",
      "type": "function"
    },
    {
      "inputs": [
        {
          "internalType": "address",
          "name": "newOwner",
          "type": "address"
        }
      ],
      "name": "transferOwnership",
      "outputs": [],
      "stateMutability": "nonpayable",
      "type": "function"
    }
  ],
  "bytecode": "0x6080604052633b9aca00600455600860646004546200001f9190620002ec565b6200002b919062000324565b60055560136064600454620000419190620002ec565b6200004d919062000324565b600655600d6064600454620000639190620002ec565b6200006f919062000324565b600755601e6064600454620000859190620002ec565b62000091919062000324565b60085560096064600454620000a79190620002ec565b620000b3919062000324565b60095560156064600454620000c99190620002ec565b620000d5919062000324565b600a556103e8600954620000ea9190620002ec565b600b556103e8600854620000ff9190620002ec565b600c55600c54600d556001600e55600a54601d553480156200012057600080fd5b5060405162005f1c38038062005f1c833981810160405281019062000146919062000434565b620001666200015a620001b660201b60201c565b620001be60201b60201c565b81601660006101000a81548173ffffffffffffffffffffffffffffffffffffffff021916908373ffffffffffffffffffffffffffffffffffffffff1602179055508060158190555050506200047b565b600033905090565b6000601160009054906101000a900473ffffffffffffffffffffffffffffffffffffffff16905081601160006101000a81548173ffffffffffffffffffffffffffffffffffffffff021916908373ffffffffffffffffffffffffffffffffffffffff1602179055508173ffffffffffffffffffffffffffffffffffffffff168173ffffffffffffffffffffffffffffffffffffffff167f8be0079c531659141344cd1fd0a4f28419497f9722a3daafe3b4186f6b6457e060405160405180910390a35050565b6000819050919050565b7f4e487b7100000000000000000000000000000000000000000000000000000000600052601260045260246000fd5b7f4e487b7100000000000000000000000000000000000000000000000000000000600052601160045260246000fd5b6000620002f98262000284565b9150620003068362000284565b9250826200031957620003186200028e565b5b828204905092915050565b6000620003318262000284565b91506200033e8362000284565b9250817fffffffffffffffffffffffffffffffffffffffffffffffffffffffffffffffff04831182151516156200037a5762000379620002bd565b5b828202905092915050565b600080fd5b600073ffffffffffffffffffffffffffffffffffffffff82169050919050565b6000620003b7826200038a565b9050919050565b6000620003cb82620003aa565b9050919050565b620003dd81620003be565b8114620003e957600080fd5b50565b600081519050620003fd81620003d2565b92915050565b6200040e8162000284565b81146200041a57600080fd5b50565b6000815190506200042e8162000403565b92915050565b600080604083850312156200044e576200044d62000385565b5b60006200045e85828601620003ec565b925050602062000471858286016200041d565b9150509250929050565b615a91806200048b6000396000f3fe608060405234801561001057600080fd5b50600436106102065760003560e01c806371cf11271161011a578063cd8f98e8116100ad578063e8844e761161007c578063e8844e76146105ad578063e9858a58146105dd578063e9ed35761461060d578063f2fde38b1461062b578063fb9c00c81461064757610206565b8063cd8f98e814610515578063cfd717da14610545578063d4fac45d14610561578063e1f97dd21461059157610206565b8063a53aa0ac116100e9578063a53aa0ac14610469578063aa78dda114610499578063bd24435b146104b5578063c7766cc4146104e557610206565b806371cf1127146103e357806381e1e4b1146103ff5780638da5cb5b1461042f578063a41c63e21461044d57610206565b80632f9aa1fe1161019d5780635443a8fd1161016c5780635443a8fd1461035357806358a10e871461037157806361a4c7511461038d5780636d12dce4146103a9578063715018a6146103d957610206565b80632f9aa1fe146102dd5780634137fc64146102fb57806346254c3a1461031757806347d9833d1461033557610206565b80631097e579116101d95780631097e5791461026b5780631881cc031461027557806325876ddf146102a557806329a4a281146102c157610206565b806304b675ae1461020b578063053e3b451461023b578063066034fc146102575780630e2dce6914610261575b600080fd5b61022560048036038101906102209190614679565b610677565b60405161023291906146d4565b60405180910390f35b61025560048036038101906102509190614835565b6106f4565b005b61025f6108a9565b005b610269610a1d565b005b61027361121d565b005b61028f600480360381019061028a919061487e565b6114b7565b60405161029c91906148ba565b60405180910390f35b6102bf60048036038101906102ba9190614679565b611500565b005b6102db60048036038101906102d69190614913565b611b11565b005b6102e5611bd1565b6040516102f291906148ba565b60405180910390f35b61031560048036038101906103109190614835565b611bdb565b005b61031f611d60565b60405161032c919061494f565b60405180910390f35b61033d611d8a565b60405161034a91906148ba565b60405180910390f35b61035b611d94565b604051610368919061494f565b60405180910390f35b61038b6004803603810190610386919061487e565b611dbe565b005b6103a760048036038101906103a291906149a8565b611e7e565b005b6103c360048036038101906103be9190614679565b612023565b6040516103d09190614b9d565b60405180910390f35b6103e16121e6565b005b6103fd60048036038101906103f89190614679565b61226e565b005b6104196004803603810190610414919061487e565b6123ab565b6040516104269190614c6e565b60405180910390f35b610437612445565b604051610444919061494f565b60405180910390f35b610467600480360381019061046291906149a8565b61246f565b005b610483600480360381019061047e919061487e565b612594565b60405161049091906148ba565b60405180910390f35b6104b360048036038101906104ae9190614d58565b6125dd565b005b6104cf60048036038101906104ca9190614da1565b6129f8565b6040516104dc91906148ba565b60405180910390f35b6104ff60048036038101906104fa9190614835565b612a47565b60405161050c919061494f565b60405180910390f35b61052f600480360381019061052a9190614da1565b612aaf565b60405161053c9190614e1e565b60405180910390f35b61055f600480360381019061055a9190614e7e565b612bca565b005b61057b60048036038101906105769190614eab565b612c8a565b60405161058891906148ba565b60405180910390f35b6105ab60048036038101906105a69190614eeb565b612d10565b005b6105c760048036038101906105c29190614f3e565b6131e1565b6040516105d491906146d4565b60405180910390f35b6105f760048036038101906105f29190614da1565b6133a4565b604051610604919061494f565b60405180910390f35b6106156133e1565b60405161062291906148ba565b60405180910390f35b6106456004803603810190610640919061487e565b6133eb565b005b610661600480360381019061065c919061487e565b6134e3565b60405161066e9190615059565b60405180910390f35b60008273ffffffffffffffffffffffffffffffffffffffff166013600084815260200190815260200160002060009054906101000a900473ffffffffffffffffffffffffffffffffffffffff1673ffffffffffffffffffffffffffffffffffffffff1614156106e957600190506106ee565b600090505b92915050565b60008160405160200161070791906150f5565b6040516020818303038152906040528051906020012090503373ffffffffffffffffffffffffffffffffffffffff16601b600083815260200190815260200160002060009054906101000a900473ffffffffffffffffffffffffffffffffffffffff1673ffffffffffffffffffffffffffffffffffffffff16141561078b57600080fd5b6000801b601a60003373ffffffffffffffffffffffffffffffffffffffff1673ffffffffffffffffffffffffffffffffffffffff16815260200190815260200160002060010154146107dc57600080fd5b600073ffffffffffffffffffffffffffffffffffffffff16601b600083815260200190815260200160002060009054906101000a900473ffffffffffffffffffffffffffffffffffffffff1673ffffffffffffffffffffffffffffffffffffffff16141561084957600080fd5b600061085433612594565b1461085e57600080fd5b80601a60003373ffffffffffffffffffffffffffffffffffffffff1673ffffffffffffffffffffffffffffffffffffffff168152602001908152602001600020600101819055505050565b6000601c60003373ffffffffffffffffffffffffffffffffffffffff1673ffffffffffffffffffffffffffffffffffffffff16815260200190815260200160002054116108f557600080fd5b600f60009054906101000a900473ffffffffffffffffffffffffffffffffffffffff1673ffffffffffffffffffffffffffffffffffffffff1663e16acb8333670de0b6b3a7640000601c60003373ffffffffffffffffffffffffffffffffffffffff1673ffffffffffffffffffffffffffffffffffffffff16815260200190815260200160002054610987919061513b565b6040518363ffffffff1660e01b81526004016109a4929190615195565b600060405180830381600087803b1580156109be57600080fd5b505af11580156109d2573d6000803e3d6000fd5b505050506000601c60003373ffffffffffffffffffffffffffffffffffffffff1673ffffffffffffffffffffffffffffffffffffffff16815260200190815260200160002081905550565b610a25612445565b73ffffffffffffffffffffffffffffffffffffffff163373ffffffffffffffffffffffffffffffffffffffff161480610aab5750601760009054906101000a900473ffffffffffffffffffffffffffffffffffffffff1673ffffffffffffffffffffffffffffffffffffffff163373ffffffffffffffffffffffffffffffffffffffff16145b610ab457600080fd5b60008060126000600e548152602001908152602001600020600201541415610ae557610ade612445565b9050610b63565b6000610b0860126000600e548152602001908152602001600020600201546129f8565b905060126000600e5481526020019081526020016000206001018181548110610b3457610b336151be565b5b9060005260206000200160009054906101000a900473ffffffffffffffffffffffffffffffffffffffff169150505b6103e8600e5411610c2e578060136000600e54815260200190815260200160002060006101000a81548173ffffffffffffffffffffffffffffffffffffffff021916908373ffffffffffffffffffffffffffffffffffffffff160217905550601460008273ffffffffffffffffffffffffffffffffffffffff1673ffffffffffffffffffffffffffffffffffffffff168152602001908152602001600020600001600e5490806001815401808255809150506001900390600052602060002001600090919091909150555b60126000600e54815260200190815260200160002060020154601554610c54919061513b565b600080601660009054906101000a900473ffffffffffffffffffffffffffffffffffffffff1673ffffffffffffffffffffffffffffffffffffffff1673ffffffffffffffffffffffffffffffffffffffff16815260200190815260200160002060008373ffffffffffffffffffffffffffffffffffffffff1673ffffffffffffffffffffffffffffffffffffffff1681526020019081526020016000206000828254610d0091906151ed565b925050819055508060126000600e54815260200190815260200160002060000160006101000a81548173ffffffffffffffffffffffffffffffffffffffff021916908373ffffffffffffffffffffffffffffffffffffffff1602179055506033600e5410158015610d74575061041b600e54105b8015610e275750601060009054906101000a900473ffffffffffffffffffffffffffffffffffffffff1673ffffffffffffffffffffffffffffffffffffffff1663e472f1356032600e54610dc89190615243565b6040518263ffffffff1660e01b8152600401610de491906148ba565b602060405180830381865afa158015610e01573d6000803e3d6000fd5b505050506040513d601f19601f82011682018060405250810190610e2591906152a3565b155b15610e3557610e346135b1565b5b61041b600e5410158015610e4c5750610803600e54105b156111a757600060126000600e548152602001908152602001600020600101805480602002602001604051908101604052809291908181526020018280548015610eeb57602002820191906000526020600020905b8160009054906101000a900473ffffffffffffffffffffffffffffffffffffffff1673ffffffffffffffffffffffffffffffffffffffff1681526020019060010190808311610ea1575b50505050509050600081519050600081118015610f1c575080670de0b6b3a7640000600b54610f1a919061513b565b115b1561118957600081670de0b6b3a7640000600b54610f3a919061513b565b610f4491906152ff565b905060005b8281101561118657600f60009054906101000a900473ffffffffffffffffffffffffffffffffffffffff1673ffffffffffffffffffffffffffffffffffffffff1663e16acb83858381518110610fa257610fa16151be565b5b6020026020010151846040518363ffffffff1660e01b8152600401610fc8929190615195565b600060405180830381600087803b158015610fe257600080fd5b505af1158015610ff6573d6000803e3d6000fd5b50505050600f60009054906101000a900473ffffffffffffffffffffffffffffffffffffffff1673ffffffffffffffffffffffffffffffffffffffff16634538dc2585838151811061104b5761104a6151be565b5b602002602001015130856040518463ffffffff1660e01b815260040161107393929190615330565b600060405180830381600087803b15801561108d57600080fd5b505af11580156110a1573d6000803e3d6000fd5b5050505081600080600f60009054906101000a900473ffffffffffffffffffffffffffffffffffffffff1673ffffffffffffffffffffffffffffffffffffffff1673ffffffffffffffffffffffffffffffffffffffff168152602001908152602001600020600086848151811061111b5761111a6151be565b5b602002602001015173ffffffffffffffffffffffffffffffffffffffff1673ffffffffffffffffffffffffffffffffffffffff168152602001908152602001600020600082825461116c91906151ed565b92505081905550808061117e90615367565b915050610f49565b50505b600c54600d600082825461119d91906151ed565b9250508190555050505b601e600e5414156111cb576111ba613864565b6111c2613a9b565b6111ca613c37565b5b600e60008154809291906111de90615367565b91905055507fe492814f88d415ab2b7d4431b7ab7b85b32be6ff85014754c52ce9894d9ebbcf81604051611212919061494f565b60405180910390a150565b60155461124c601660009054906101000a900473ffffffffffffffffffffffffffffffffffffffff1633612c8a565b10158015611263575061126133600e54613ce4565b155b61126c57600080fd5b6000601960003373ffffffffffffffffffffffffffffffffffffffff1673ffffffffffffffffffffffffffffffffffffffff168152602001908152602001600020541480156112be575060c8601d5410155b156112cc576112cb613e88565b5b601960003373ffffffffffffffffffffffffffffffffffffffff1673ffffffffffffffffffffffffffffffffffffffff168152602001908152602001600020600081548092919061131c90615367565b9190505550601554600080601660009054906101000a900473ffffffffffffffffffffffffffffffffffffffff1673ffffffffffffffffffffffffffffffffffffffff1673ffffffffffffffffffffffffffffffffffffffff16815260200190815260200160002060003373ffffffffffffffffffffffffffffffffffffffff1673ffffffffffffffffffffffffffffffffffffffff16815260200190815260200160002060008282546113d09190615243565b9250508190555060126000600e548152602001908152602001600020600101339080600181540180825580915050600190039060005260206000200160009091909190916101000a81548173ffffffffffffffffffffffffffffffffffffffff021916908373ffffffffffffffffffffffffffffffffffffffff16021790555060126000600e548152602001908152602001600020600201600081548092919061147990615367565b91905055507fd014c01f429256f0effbc6f57d454747662e90d4015338812961a9d6490cb123336040516114ad919061494f565b60405180910390a1565b6000601c60008373ffffffffffffffffffffffffffffffffffffffff1673ffffffffffffffffffffffffffffffffffffffff168152602001908152602001600020549050919050565b60003390506000600360008573ffffffffffffffffffffffffffffffffffffffff1673ffffffffffffffffffffffffffffffffffffffff1681526020019081526020016000206000848152602001908152602001600020905080600301546000808360000160009054906101000a900473ffffffffffffffffffffffffffffffffffffffff1673ffffffffffffffffffffffffffffffffffffffff1673ffffffffffffffffffffffffffffffffffffffff16815260200190815260200160002060008473ffffffffffffffffffffffffffffffffffffffff1673ffffffffffffffffffffffffffffffffffffffff168152602001908152602001600020541015801561166057506000600360008673ffffffffffffffffffffffffffffffffffffffff1673ffffffffffffffffffffffffffffffffffffffff16815260200190815260200160002060008581526020019081526020016000206005015414155b801561167457506116728285856131e1565b155b61167d57600080fd5b80600301546000808360000160009054906101000a900473ffffffffffffffffffffffffffffffffffffffff1673ffffffffffffffffffffffffffffffffffffffff1673ffffffffffffffffffffffffffffffffffffffff16815260200190815260200160002060008473ffffffffffffffffffffffffffffffffffffffff1673ffffffffffffffffffffffffffffffffffffffff16815260200190815260200160002060008282546117309190615243565b9250508190555080600201829080600181540180825580915050600190039060005260206000200160009091909190916101000a81548173ffffffffffffffffffffffffffffffffffffffff021916908373ffffffffffffffffffffffffffffffffffffffff160217905550600081600501600081546117af90615367565b91905081905590507f03f26bb8f4245c8a7354904e39927c6c0e4d2757e802f4a4626ea6ebec43ce6385853385600201866003015487600401548860000160009054906101000a900473ffffffffffffffffffffffffffffffffffffffff1660405161182197969594939291906154bc565b60405180910390a18160040154811415611b0a5760006119a3836040518060c00160405290816000820160009054906101000a900473ffffffffffffffffffffffffffffffffffffffff1673ffffffffffffffffffffffffffffffffffffffff1673ffffffffffffffffffffffffffffffffffffffff1681526020016001820160009054906101000a900473ffffffffffffffffffffffffffffffffffffffff1673ffffffffffffffffffffffffffffffffffffffff1673ffffffffffffffffffffffffffffffffffffffff1681526020016002820180548060200260200160405190810160405280929190818152602001828054801561197757602002820191906000526020600020905b8160009054906101000a900473ffffffffffffffffffffffffffffffffffffffff1673ffffffffffffffffffffffffffffffffffffffff168152602001906001019080831161192d575b505050505081526020016003820154815260200160048201548152602001600582015481525050613fde565b9050808360010160006101000a81548173ffffffffffffffffffffffffffffffffffffffff021916908373ffffffffffffffffffffffffffffffffffffffff1602179055506000600360008873ffffffffffffffffffffffffffffffffffffffff1673ffffffffffffffffffffffffffffffffffffffff168152602001908152602001600020600087815260200190815260200160002060050181905550600160008773ffffffffffffffffffffffffffffffffffffffff1673ffffffffffffffffffffffffffffffffffffffff1681526020019081526020016000206000815480929190611a9190615532565b91905055507fadadd10fc5ffa011ecf260e28f9a70ba6d153cc829d70d81751f9cd5c8eaca37868685600201866003015487600401548860000160009054906101000a900473ffffffffffffffffffffffffffffffffffffffff1687604051611b00979695949392919061555c565b60405180910390a1505b5050505050565b611b1961440f565b73ffffffffffffffffffffffffffffffffffffffff16611b37612445565b73ffffffffffffffffffffffffffffffffffffffff1614611b8d576040517f08c379a0000000000000000000000000000000000000000000000000000000008152600401611b849061562f565b60405180910390fd5b80601060006101000a81548173ffffffffffffffffffffffffffffffffffffffff021916908373ffffffffffffffffffffffffffffffffffffffff16021790555050565b6000600e54905090565b600081604051602001611bee91906150f5565b6040516020818303038152906040528051906020012090506000801b601a60003373ffffffffffffffffffffffffffffffffffffffff1673ffffffffffffffffffffffffffffffffffffffff1681526020019081526020016000206000015414611c5757600080fd5b600073ffffffffffffffffffffffffffffffffffffffff16601b600083815260200190815260200160002060009054906101000a900473ffffffffffffffffffffffffffffffffffffffff1673ffffffffffffffffffffffffffffffffffffffff1614611cc357600080fd5b80601a60003373ffffffffffffffffffffffffffffffffffffffff1673ffffffffffffffffffffffffffffffffffffffff1681526020019081526020016000206000018190555033601b600083815260200190815260200160002060006101000a81548173ffffffffffffffffffffffffffffffffffffffff021916908373ffffffffffffffffffffffffffffffffffffffff1602179055505050565b6000601660009054906101000a900473ffffffffffffffffffffffffffffffffffffffff16905090565b6000600d54905090565b6000601060009054906101000a900473ffffffffffffffffffffffffffffffffffffffff16905090565b611dc661440f565b73ffffffffffffffffffffffffffffffffffffffff16611de4612445565b73ffffffffffffffffffffffffffffffffffffffff1614611e3a576040517f08c379a0000000000000000000000000000000000000000000000000000000008152600401611e319061562f565b60405180910390fd5b80601760006101000a81548173ffffffffffffffffffffffffffffffffffffffff021916908373ffffffffffffffffffffffffffffffffffffffff16021790555050565b806000808473ffffffffffffffffffffffffffffffffffffffff1673ffffffffffffffffffffffffffffffffffffffff16815260200190815260200160002060003373ffffffffffffffffffffffffffffffffffffffff1673ffffffffffffffffffffffffffffffffffffffff168152602001908152602001600020541015611f0657600080fd5b8173ffffffffffffffffffffffffffffffffffffffff1663a9059cbb33836040518363ffffffff1660e01b8152600401611f41929190615195565b6020604051808303816000875af1158015611f60573d6000803e3d6000fd5b505050506040513d601f19601f82011682018060405250810190611f8491906152a3565b611f8d57600080fd5b806000808473ffffffffffffffffffffffffffffffffffffffff1673ffffffffffffffffffffffffffffffffffffffff16815260200190815260200160002060003373ffffffffffffffffffffffffffffffffffffffff1673ffffffffffffffffffffffffffffffffffffffff16815260200190815260200160002060008282546120189190615243565b925050819055505050565b61202b6144dd565b600360008473ffffffffffffffffffffffffffffffffffffffff1673ffffffffffffffffffffffffffffffffffffffff16815260200190815260200160002060008381526020019081526020016000206040518060c00160405290816000820160009054906101000a900473ffffffffffffffffffffffffffffffffffffffff1673ffffffffffffffffffffffffffffffffffffffff1673ffffffffffffffffffffffffffffffffffffffff1681526020016001820160009054906101000a900473ffffffffffffffffffffffffffffffffffffffff1673ffffffffffffffffffffffffffffffffffffffff1673ffffffffffffffffffffffffffffffffffffffff168152602001600282018054806020026020016040519081016040528092919081815260200182805480156121b757602002820191906000526020600020905b8160009054906101000a900473ffffffffffffffffffffffffffffffffffffffff1673ffffffffffffffffffffffffffffffffffffffff168152602001906001019080831161216d575b505050505081526020016003820154815260200160048201548152602001600582015481525050905092915050565b6121ee61440f565b73ffffffffffffffffffffffffffffffffffffffff1661220c612445565b73ffffffffffffffffffffffffffffffffffffffff1614612262576040517f08c379a00000000000000000000000000000000000000000000000000000000081526004016122599061562f565b60405180910390fd5b61226c6000614417565b565b61227661440f565b73ffffffffffffffffffffffffffffffffffffffff16612294612445565b73ffffffffffffffffffffffffffffffffffffffff16146122ea576040517f08c379a00000000000000000000000000000000000000000000000000000000081526004016122e19061562f565b60405180910390fd5b3373ffffffffffffffffffffffffffffffffffffffff166013600083815260200190815260200160002060009054906101000a900473ffffffffffffffffffffffffffffffffffffffff1673ffffffffffffffffffffffffffffffffffffffff161461235557600080fd5b816013600083815260200190815260200160002060006101000a81548173ffffffffffffffffffffffffffffffffffffffff021916908373ffffffffffffffffffffffffffffffffffffffff1602179055505050565b6060601860008373ffffffffffffffffffffffffffffffffffffffff1673ffffffffffffffffffffffffffffffffffffffff16815260200190815260200160002060000180548060200260200160405190810160405280929190818152602001828054801561243957602002820191906000526020600020905b815481526020019060010190808311612425575b50505050509050919050565b6000601160009054906101000a900473ffffffffffffffffffffffffffffffffffffffff16905090565b60003390508273ffffffffffffffffffffffffffffffffffffffff166323b872dd8230856040518463ffffffff1660e01b81526004016124b193929190615330565b6020604051808303816000875af11580156124d0573d6000803e3d6000fd5b505050506040513d601f19601f820116820180604052508101906124f491906152a3565b6124fd57600080fd5b816000808573ffffffffffffffffffffffffffffffffffffffff1673ffffffffffffffffffffffffffffffffffffffff16815260200190815260200160002060008373ffffffffffffffffffffffffffffffffffffffff1673ffffffffffffffffffffffffffffffffffffffff168152602001908152602001600020600082825461258891906151ed565b92505081905550505050565b6000601960008373ffffffffffffffffffffffffffffffffffffffff1673ffffffffffffffffffffffffffffffffffffffff168152602001908152602001600020549050919050565b600081519050601554816125f1919061513b565b600080601660009054906101000a900473ffffffffffffffffffffffffffffffffffffffff1673ffffffffffffffffffffffffffffffffffffffff1673ffffffffffffffffffffffffffffffffffffffff16815260200190815260200160002060003373ffffffffffffffffffffffffffffffffffffffff1673ffffffffffffffffffffffffffffffffffffffff16815260200190815260200160002054101561269a57600080fd5b60005b818110156126e057600e548382815181106126bb576126ba6151be565b5b6020026020010151116126cd57600080fd5b80806126d890615367565b91505061269d565b506000601960003373ffffffffffffffffffffffffffffffffffffffff1673ffffffffffffffffffffffffffffffffffffffff16815260200190815260200160002054148015612733575060c8601d5410155b1561274157612740613e88565b5b6000601860003373ffffffffffffffffffffffffffffffffffffffff1673ffffffffffffffffffffffffffffffffffffffff168152602001908152602001600020905060005b828110156129f2576127b3338583815181106127a6576127a56151be565b5b6020026020010151613ce4565b6129df57601554600080601660009054906101000a900473ffffffffffffffffffffffffffffffffffffffff1673ffffffffffffffffffffffffffffffffffffffff1673ffffffffffffffffffffffffffffffffffffffff16815260200190815260200160002060003373ffffffffffffffffffffffffffffffffffffffff1673ffffffffffffffffffffffffffffffffffffffff16815260200190815260200160002060008282546128669190615243565b9250508190555060126000858381518110612884576128836151be565b5b60200260200101518152602001908152602001600020600101339080600181540180825580915050600190039060005260206000200160009091909190916101000a81548173ffffffffffffffffffffffffffffffffffffffff021916908373ffffffffffffffffffffffffffffffffffffffff16021790555060126000858381518110612915576129146151be565b5b60200260200101518152602001908152602001600020600201600081548092919061293f90615367565b9190505550601960003373ffffffffffffffffffffffffffffffffffffffff1673ffffffffffffffffffffffffffffffffffffffff168152602001908152602001600020600081548092919061299490615367565b9190505550816000018482815181106129b0576129af6151be565b5b602002602001015190806001815401808255809150506001900390600052602060002001600090919091909150555b80806129ea90615367565b915050612787565b50505050565b6000808214612a3d578142604051602001612a139190615670565b6040516020818303038152906040528051906020012060001c612a36919061568b565b9050612a42565b600090505b919050565b60008082604051602001612a5b91906150f5565b604051602081830303815290604052805190602001209050601b600082815260200190815260200160002060009054906101000a900473ffffffffffffffffffffffffffffffffffffffff16915050919050565b612ab761453f565b601260008381526020019081526020016000206040518060600160405290816000820160009054906101000a900473ffffffffffffffffffffffffffffffffffffffff1673ffffffffffffffffffffffffffffffffffffffff1673ffffffffffffffffffffffffffffffffffffffff16815260200160018201805480602002602001604051908101604052809291908181526020018280548015612bb057602002820191906000526020600020905b8160009054906101000a900473ffffffffffffffffffffffffffffffffffffffff1673ffffffffffffffffffffffffffffffffffffffff1681526020019060010190808311612b66575b505050505081526020016002820154815250509050919050565b612bd261440f565b73ffffffffffffffffffffffffffffffffffffffff16612bf0612445565b73ffffffffffffffffffffffffffffffffffffffff1614612c46576040517f08c379a0000000000000000000000000000000000000000000000000000000008152600401612c3d9061562f565b60405180910390fd5b80600f60006101000a81548173ffffffffffffffffffffffffffffffffffffffff021916908373ffffffffffffffffffffffffffffffffffffffff16021790555050565b60008060008473ffffffffffffffffffffffffffffffffffffffff1673ffffffffffffffffffffffffffffffffffffffff16815260200190815260200160002060008373ffffffffffffffffffffffffffffffffffffffff1673ffffffffffffffffffffffffffffffffffffffff16815260200190815260200160002054905092915050565b6000339050826000808673ffffffffffffffffffffffffffffffffffffffff1673ffffffffffffffffffffffffffffffffffffffff16815260200190815260200160002060008373ffffffffffffffffffffffffffffffffffffffff1673ffffffffffffffffffffffffffffffffffffffff1681526020019081526020016000205410158015612ddf5750600a600160008373ffffffffffffffffffffffffffffffffffffffff1673ffffffffffffffffffffffffffffffffffffffff16815260200190815260200160002054105b8015612ded57506103e88211155b8015612df95750600182115b612e0257600080fd5b826000808673ffffffffffffffffffffffffffffffffffffffff1673ffffffffffffffffffffffffffffffffffffffff16815260200190815260200160002060008373ffffffffffffffffffffffffffffffffffffffff1673ffffffffffffffffffffffffffffffffffffffff1681526020019081526020016000206000828254612e8d9190615243565b92505081905550600160008273ffffffffffffffffffffffffffffffffffffffff1673ffffffffffffffffffffffffffffffffffffffff1681526020019081526020016000206000815480929190612ee490615367565b91905055506000600260008373ffffffffffffffffffffffffffffffffffffffff1673ffffffffffffffffffffffffffffffffffffffff16815260200190815260200160002060008154612f3790615367565b91905081905590505b60011561302d576000600360008473ffffffffffffffffffffffffffffffffffffffff1673ffffffffffffffffffffffffffffffffffffffff16815260200190815260200160002060008381526020019081526020016000206005015414612fc4578080612fad90615367565b915050600a81612fbd919061568b565b9050613028565b600360008373ffffffffffffffffffffffffffffffffffffffff1673ffffffffffffffffffffffffffffffffffffffff168152602001908152602001600020600082815260200190815260200160002060020160006130239190614576565b61302d565b612f40565b6000600360008473ffffffffffffffffffffffffffffffffffffffff1673ffffffffffffffffffffffffffffffffffffffff1681526020019081526020016000206000838152602001908152602001600020905080600201839080600181540180825580915050600190039060005260206000200160009091909190916101000a81548173ffffffffffffffffffffffffffffffffffffffff021916908373ffffffffffffffffffffffffffffffffffffffff160217905550848160030181905550838160040181905550858160000160006101000a81548173ffffffffffffffffffffffffffffffffffffffff021916908373ffffffffffffffffffffffffffffffffffffffff1602179055506001816005018190555060008160010160006101000a81548173ffffffffffffffffffffffffffffffffffffffff021916908373ffffffffffffffffffffffffffffffffffffffff16021790555083853373ffffffffffffffffffffffffffffffffffffffff167f6f1b31f27769fa94b13e0dd993d4dd2155660e9fa13d6bb178841fdd812853d2856040516131d191906148ba565b60405180910390a4505050505050565b600080600360008573ffffffffffffffffffffffffffffffffffffffff1673ffffffffffffffffffffffffffffffffffffffff16815260200190815260200160002060008481526020019081526020016000206002018054806020026020016040519081016040528092919081815260200182805480156132b757602002820191906000526020600020905b8160009054906101000a900473ffffffffffffffffffffffffffffffffffffffff1673ffffffffffffffffffffffffffffffffffffffff168152602001906001019080831161326d575b505050505090506000600360008673ffffffffffffffffffffffffffffffffffffffff1673ffffffffffffffffffffffffffffffffffffffff1681526020019081526020016000206000858152602001908152602001600020600501549050600086905060005b82811015613394578173ffffffffffffffffffffffffffffffffffffffff168482815181106133505761334f6151be565b5b602002602001015173ffffffffffffffffffffffffffffffffffffffff16141561338157600194505050505061339d565b808061338c90615367565b91505061331e565b50600093505050505b9392505050565b60006013600083815260200190815260200160002060009054906101000a900473ffffffffffffffffffffffffffffffffffffffff169050919050565b6000601d54905090565b6133f361440f565b73ffffffffffffffffffffffffffffffffffffffff16613411612445565b73ffffffffffffffffffffffffffffffffffffffff1614613467576040517f08c379a000000000000000000000000000000000000000000000000000000000815260040161345e9061562f565b60405180910390fd5b600073ffffffffffffffffffffffffffffffffffffffff168173ffffffffffffffffffffffffffffffffffffffff1614156134d7576040517f08c379a00000000000000000000000000000000000000000000000000000000081526004016134ce9061572e565b60405180910390fd5b6134e081614417565b50565b6134eb614597565b601460008373ffffffffffffffffffffffffffffffffffffffff1673ffffffffffffffffffffffffffffffffffffffff1681526020019081526020016000206040518060400160405290816000820180548060200260200160405190810160405280929190818152602001828054801561358457602002820191906000526020600020905b815481526020019060010190808311613570575b505050505081526020016001820160009054906101000a900460ff1660ff1660ff16815250509050919050565b60006032905060006013600083600e546135cb9190615243565b815260200190815260200160002060009054906101000a900473ffffffffffffffffffffffffffffffffffffffff1690506000601460008373ffffffffffffffffffffffffffffffffffffffff1673ffffffffffffffffffffffffffffffffffffffff168152602001908152602001600020600001905060008180549050905060005b8181101561377a5784600e546136649190615243565b838281548110613677576136766151be565b5b906000526020600020015414156137675760018214156136bd57828054806136a2576136a161574e565b5b60019003818190600052602060002001600090559055613762565b60008190505b600184805490506136d49190615243565b81101561373957836001826136e991906151ed565b815481106136fa576136f96151be565b5b9060005260206000200154848281548110613718576137176151be565b5b9060005260206000200181905550808061373190615367565b9150506136c3565b508280548061374b5761374a61574e565b5b600190038181906000526020600020016000905590555b61377a565b808061377290615367565b91505061364e565b50613783612445565b6013600086600e546137959190615243565b815260200190815260200160002060006101000a81548173ffffffffffffffffffffffffffffffffffffffff021916908373ffffffffffffffffffffffffffffffffffffffff160217905550601460006137ed612445565b73ffffffffffffffffffffffffffffffffffffffff1673ffffffffffffffffffffffffffffffffffffffff16815260200190815260200160002060000184600e546138389190615243565b908060018154018082558091505060019003906000526020600020016000909190919091505550505050565b6000601060009054906101000a900473ffffffffffffffffffffffffffffffffffffffff1673ffffffffffffffffffffffffffffffffffffffff16638951764a6040518163ffffffff1660e01b8152600401600060405180830381865afa1580156138d3573d6000803e3d6000fd5b505050506040513d6000823e3d601f19601f820116820180604052508101906138fc9190615829565b90506000815190506000811115613a97576000670de0b6b3a76400008260055461392691906152ff565b613930919061513b565b905060005b82811015613a9457600f60009054906101000a900473ffffffffffffffffffffffffffffffffffffffff1673ffffffffffffffffffffffffffffffffffffffff1663e16acb83601060009054906101000a900473ffffffffffffffffffffffffffffffffffffffff1673ffffffffffffffffffffffffffffffffffffffff16636352211e8785815181106139cc576139cb6151be565b5b60200260200101516040518263ffffffff1660e01b81526004016139f091906148ba565b602060405180830381865afa158015613a0d573d6000803e3d6000fd5b505050506040513d601f19601f82011682018060405250810190613a319190615887565b846040518363ffffffff1660e01b8152600401613a4f929190615195565b600060405180830381600087803b158015613a6957600080fd5b505af1158015613a7d573d6000803e3d6000fd5b505050508080613a8c90615367565b915050613935565b50505b5050565b6000601060009054906101000a900473ffffffffffffffffffffffffffffffffffffffff1673ffffffffffffffffffffffffffffffffffffffff166379b354116040518163ffffffff1660e01b8152600401600060405180830381865afa158015613b0a573d6000803e3d6000fd5b505050506040513d6000823e3d601f19601f82011682018060405250810190613b339190615977565b90506000815190506000811115613c33576000670de0b6b3a764000082600654613b5d91906152ff565b613b67919061513b565b905060005b82811015613c3057600f60009054906101000a900473ffffffffffffffffffffffffffffffffffffffff1673ffffffffffffffffffffffffffffffffffffffff1663e16acb83858381518110613bc557613bc46151be565b5b6020026020010151846040518363ffffffff1660e01b8152600401613beb929190615195565b600060405180830381600087803b158015613c0557600080fd5b505af1158015613c19573d6000803e3d6000fd5b505050508080613c2890615367565b915050613b6c565b50505b5050565b600f60009054906101000a900473ffffffffffffffffffffffffffffffffffffffff1673ffffffffffffffffffffffffffffffffffffffff1663e16acb83613c7d612445565b670de0b6b3a7640000600754613c93919061513b565b6040518363ffffffff1660e01b8152600401613cb0929190615195565b600060405180830381600087803b158015613cca57600080fd5b505af1158015613cde573d6000803e3d6000fd5b50505050565b600080601260008481526020019081526020016000206040518060600160405290816000820160009054906101000a900473ffffffffffffffffffffffffffffffffffffffff1673ffffffffffffffffffffffffffffffffffffffff1673ffffffffffffffffffffffffffffffffffffffff16815260200160018201805480602002602001604051908101604052809291908181526020018280548015613de057602002820191906000526020600020905b8160009054906101000a900473ffffffffffffffffffffffffffffffffffffffff1673ffffffffffffffffffffffffffffffffffffffff1681526020019060010190808311613d96575b50505050508152602001600282015481525050905060008160400151905060005b81811015613e7a578573ffffffffffffffffffffffffffffffffffffffff1683602001518281518110613e3757613e366151be565b5b602002602001015173ffffffffffffffffffffffffffffffffffffffff161415613e675760019350505050613e82565b8080613e7290615367565b915050613e01565b506000925050505b92915050565b6000601a60003373ffffffffffffffffffffffffffffffffffffffff1673ffffffffffffffffffffffffffffffffffffffff168152602001908152602001600020600101549050806000801b14613fdb576000601b600083815260200190815260200160002060009054906101000a900473ffffffffffffffffffffffffffffffffffffffff16905060c8601d6000828254613f249190615243565b925050819055506064601c60003373ffffffffffffffffffffffffffffffffffffffff1673ffffffffffffffffffffffffffffffffffffffff1681526020019081526020016000206000828254613f7b91906151ed565b925050819055506064601c60008373ffffffffffffffffffffffffffffffffffffffff1673ffffffffffffffffffffffffffffffffffffffff1681526020019081526020016000206000828254613fd291906151ed565b92505081905550505b50565b600080613fee83608001516129f8565b905082608001518360600151614004919061513b565b600080856000015173ffffffffffffffffffffffffffffffffffffffff1673ffffffffffffffffffffffffffffffffffffffff16815260200190815260200160002060008560400151848151811061405f5761405e6151be565b5b602002602001015173ffffffffffffffffffffffffffffffffffffffff1673ffffffffffffffffffffffffffffffffffffffff16815260200190815260200160002060008282546140b091906151ed565b9250508190555060008360400151519050600f60009054906101000a900473ffffffffffffffffffffffffffffffffffffffff1673ffffffffffffffffffffffffffffffffffffffff16846000015173ffffffffffffffffffffffffffffffffffffffff161480156141305750600a8161412a919061513b565b600d5410155b80156141485750678ac7230489e80000846060015110155b80156141575750601f600e5410155b156143e75760005b818110156143c057600f60009054906101000a900473ffffffffffffffffffffffffffffffffffffffff1673ffffffffffffffffffffffffffffffffffffffff1663e16acb83866040015183815181106141bc576141bb6151be565b5b6020026020010151678ac7230489e800006040518363ffffffff1660e01b81526004016141ea9291906159fb565b600060405180830381600087803b15801561420457600080fd5b505af1158015614218573d6000803e3d6000fd5b50505050600f60009054906101000a900473ffffffffffffffffffffffffffffffffffffffff1673ffffffffffffffffffffffffffffffffffffffff16634538dc2586604001518381518110614271576142706151be565b5b602002602001015130678ac7230489e800006040518463ffffffff1660e01b81526004016142a193929190615a24565b600060405180830381600087803b1580156142bb57600080fd5b505af11580156142cf573d6000803e3d6000fd5b50505050678ac7230489e80000600080600f60009054906101000a900473ffffffffffffffffffffffffffffffffffffffff1673ffffffffffffffffffffffffffffffffffffffff1673ffffffffffffffffffffffffffffffffffffffff168152602001908152602001600020600087604001518481518110614355576143546151be565b5b602002602001015173ffffffffffffffffffffffffffffffffffffffff1673ffffffffffffffffffffffffffffffffffffffff16815260200190815260200160002060008282546143a691906151ed565b9250508190555080806143b890615367565b91505061415f565b50600a816143ce919061513b565b600d60008282546143df9190615243565b925050819055505b836040015182815181106143fe576143fd6151be565b5b602002602001015192505050919050565b600033905090565b6000601160009054906101000a900473ffffffffffffffffffffffffffffffffffffffff16905081601160006101000a81548173ffffffffffffffffffffffffffffffffffffffff021916908373ffffffffffffffffffffffffffffffffffffffff1602179055508173ffffffffffffffffffffffffffffffffffffffff168173ffffffffffffffffffffffffffffffffffffffff167f8be0079c531659141344cd1fd0a4f28419497f9722a3daafe3b4186f6b6457e060405160405180910390a35050565b6040518060c00160405280600073ffffffffffffffffffffffffffffffffffffffff168152602001600073ffffffffffffffffffffffffffffffffffffffff168152602001606081526020016000815260200160008152602001600081525090565b6040518060600160405280600073ffffffffffffffffffffffffffffffffffffffff16815260200160608152602001600081525090565b508054600082559060005260206000209081019061459491906145b4565b50565b604051806040016040528060608152602001600060ff1681525090565b5b808211156145cd5760008160009055506001016145b5565b5090565b6000604051905090565b600080fd5b600080fd5b600073ffffffffffffffffffffffffffffffffffffffff82169050919050565b6000614610826145e5565b9050919050565b61462081614605565b811461462b57600080fd5b50565b60008135905061463d81614617565b92915050565b6000819050919050565b61465681614643565b811461466157600080fd5b50565b6000813590506146738161464d565b92915050565b600080604083850312156146905761468f6145db565b5b600061469e8582860161462e565b92505060206146af85828601614664565b9150509250929050565b60008115159050919050565b6146ce816146b9565b82525050565b60006020820190506146e960008301846146c5565b92915050565b600080fd5b600080fd5b6000601f19601f8301169050919050565b7f4e487b7100000000000000000000000000000000000000000000000000000000600052604160045260246000fd5b614742826146f9565b810181811067ffffffffffffffff821117156147615761476061470a565b5b80604052505050565b60006147746145d1565b90506147808282614739565b919050565b600067ffffffffffffffff8211156147a05761479f61470a565b5b6147a9826146f9565b9050602081019050919050565b82818337600083830152505050565b60006147d86147d384614785565b61476a565b9050828152602081018484840111156147f4576147f36146f4565b5b6147ff8482856147b6565b509392505050565b600082601f83011261481c5761481b6146ef565b5b813561482c8482602086016147c5565b91505092915050565b60006020828403121561484b5761484a6145db565b5b600082013567ffffffffffffffff811115614869576148686145e0565b5b61487584828501614807565b91505092915050565b600060208284031215614894576148936145db565b5b60006148a28482850161462e565b91505092915050565b6148b481614643565b82525050565b60006020820190506148cf60008301846148ab565b92915050565b60006148e082614605565b9050919050565b6148f0816148d5565b81146148fb57600080fd5b50565b60008135905061490d816148e7565b92915050565b600060208284031215614929576149286145db565b5b6000614937848285016148fe565b91505092915050565b61494981614605565b82525050565b60006020820190506149646000830184614940565b92915050565b600061497582614605565b9050919050565b6149858161496a565b811461499057600080fd5b50565b6000813590506149a28161497c565b92915050565b600080604083850312156149bf576149be6145db565b5b60006149cd85828601614993565b92505060206149de85828601614664565b9150509250929050565b6000819050919050565b6000614a0d614a08614a03846145e5565b6149e8565b6145e5565b9050919050565b6000614a1f826149f2565b9050919050565b6000614a3182614a14565b9050919050565b614a4181614a26565b82525050565b614a5081614605565b82525050565b600081519050919050565b600082825260208201905092915050565b6000819050602082019050919050565b6000614a8e8383614a47565b60208301905092915050565b6000602082019050919050565b6000614ab282614a56565b614abc8185614a61565b9350614ac783614a72565b8060005b83811015614af8578151614adf8882614a82565b9750614aea83614a9a565b925050600181019050614acb565b5085935050505092915050565b614b0e81614643565b82525050565b600060c083016000830151614b2c6000860182614a38565b506020830151614b3f6020860182614a47565b5060408301518482036040860152614b578282614aa7565b9150506060830151614b6c6060860182614b05565b506080830151614b7f6080860182614b05565b5060a0830151614b9260a0860182614b05565b508091505092915050565b60006020820190508181036000830152614bb78184614b14565b905092915050565b600081519050919050565b600082825260208201905092915050565b6000819050602082019050919050565b6000614bf78383614b05565b60208301905092915050565b6000602082019050919050565b6000614c1b82614bbf565b614c258185614bca565b9350614c3083614bdb565b8060005b83811015614c61578151614c488882614beb565b9750614c5383614c03565b925050600181019050614c34565b5085935050505092915050565b60006020820190508181036000830152614c888184614c10565b905092915050565b600067ffffffffffffffff821115614cab57614caa61470a565b5b602082029050602081019050919050565b600080fd5b6000614cd4614ccf84614c90565b61476a565b90508083825260208201905060208402830185811115614cf757614cf6614cbc565b5b835b81811015614d205780614d0c8882614664565b845260208401935050602081019050614cf9565b5050509392505050565b600082601f830112614d3f57614d3e6146ef565b5b8135614d4f848260208601614cc1565b91505092915050565b600060208284031215614d6e57614d6d6145db565b5b600082013567ffffffffffffffff811115614d8c57614d8b6145e0565b5b614d9884828501614d2a565b91505092915050565b600060208284031215614db757614db66145db565b5b6000614dc584828501614664565b91505092915050565b6000606083016000830151614de66000860182614a47565b5060208301518482036020860152614dfe8282614aa7565b9150506040830151614e136040860182614b05565b508091505092915050565b60006020820190508181036000830152614e388184614dce565b905092915050565b6000614e4b82614605565b9050919050565b614e5b81614e40565b8114614e6657600080fd5b50565b600081359050614e7881614e52565b92915050565b600060208284031215614e9457614e936145db565b5b6000614ea284828501614e69565b91505092915050565b60008060408385031215614ec257614ec16145db565b5b6000614ed085828601614993565b9250506020614ee18582860161462e565b9150509250929050565b600080600060608486031215614f0457614f036145db565b5b6000614f1286828701614993565b9350506020614f2386828701614664565b9250506040614f3486828701614664565b9150509250925092565b600080600060608486031215614f5757614f566145db565b5b6000614f658682870161462e565b9350506020614f768682870161462e565b9250506040614f8786828701614664565b9150509250925092565b600082825260208201905092915050565b6000614fad82614bbf565b614fb78185614f91565b9350614fc283614bdb565b8060005b83811015614ff3578151614fda8882614beb565b9750614fe583614c03565b925050600181019050614fc6565b5085935050505092915050565b600060ff82169050919050565b61501681615000565b82525050565b600060408301600083015184820360008601526150398282614fa2565b915050602083015161504e602086018261500d565b508091505092915050565b60006020820190508181036000830152615073818461501c565b905092915050565b600081519050919050565b600081905092915050565b60005b838110156150af578082015181840152602081019050615094565b838111156150be576000848401525b50505050565b60006150cf8261507b565b6150d98185615086565b93506150e9818560208601615091565b80840191505092915050565b600061510182846150c4565b915081905092915050565b7f4e487b7100000000000000000000000000000000000000000000000000000000600052601160045260246000fd5b600061514682614643565b915061515183614643565b9250817fffffffffffffffffffffffffffffffffffffffffffffffffffffffffffffffff048311821515161561518a5761518961510c565b5b828202905092915050565b60006040820190506151aa6000830185614940565b6151b760208301846148ab565b9392505050565b7f4e487b7100000000000000000000000000000000000000000000000000000000600052603260045260246000fd5b60006151f882614643565b915061520383614643565b9250827fffffffffffffffffffffffffffffffffffffffffffffffffffffffffffffffff038211156152385761523761510c565b5b828201905092915050565b600061524e82614643565b915061525983614643565b92508282101561526c5761526b61510c565b5b828203905092915050565b615280816146b9565b811461528b57600080fd5b50565b60008151905061529d81615277565b92915050565b6000602082840312156152b9576152b86145db565b5b60006152c78482850161528e565b91505092915050565b7f4e487b7100000000000000000000000000000000000000000000000000000000600052601260045260246000fd5b600061530a82614643565b915061531583614643565b925082615325576153246152d0565b5b828204905092915050565b60006060820190506153456000830186614940565b6153526020830185614940565b61535f60408301846148ab565b949350505050565b600061537282614643565b91507fffffffffffffffffffffffffffffffffffffffffffffffffffffffffffffffff8214156153a5576153a461510c565b5b600182019050919050565b600081549050919050565b600082825260208201905092915050565b60008190508160005260206000209050919050565b60008160001c9050919050565b600073ffffffffffffffffffffffffffffffffffffffff82169050919050565b600061542161541c836153e1565b6153ee565b9050919050565b6000615434825461540e565b9050919050565b6000600182019050919050565b6000615453826153b0565b61545d81856153bb565b9350615468836153cc565b8060005b838110156154a05761547d82615428565b6154878882614a82565b97506154928361543b565b92505060018101905061546c565b5085935050505092915050565b6154b681614a26565b82525050565b600060e0820190506154d1600083018a614940565b6154de60208301896148ab565b6154eb6040830188614940565b81810360608301526154fd8187615448565b905061550c60808301866148ab565b61551960a08301856148ab565b61552660c08301846154ad565b98975050505050505050565b600061553d82614643565b915060008214156155515761555061510c565b5b600182039050919050565b600060e082019050615571600083018a614940565b61557e60208301896148ab565b81810360408301526155908188615448565b905061559f60608301876148ab565b6155ac60808301866148ab565b6155b960a08301856154ad565b6155c660c0830184614940565b98975050505050505050565b600082825260208201905092915050565b7f4f776e61626c653a2063616c6c6572206973206e6f7420746865206f776e6572600082015250565b60006156196020836155d2565b9150615624826155e3565b602082019050919050565b600060208201905081810360008301526156488161560c565b9050919050565b6000819050919050565b61566a61566582614643565b61564f565b82525050565b600061567c8284615659565b60208201915081905092915050565b600061569682614643565b91506156a183614643565b9250826156b1576156b06152d0565b5b828206905092915050565b7f4f776e61626c653a206e6577206f776e657220697320746865207a65726f206160008201527f6464726573730000000000000000000000000000000000000000000000000000602082015250565b60006157186026836155d2565b9150615723826156bc565b604082019050919050565b600060208201905081810360008301526157478161570b565b9050919050565b7f4e487b7100000000000000000000000000000000000000000000000000000000600052603160045260246000fd5b60008151905061578c8161464d565b92915050565b60006157a56157a084614c90565b61476a565b905080838252602082019050602084028301858111156157c8576157c7614cbc565b5b835b818110156157f157806157dd888261577d565b8452602084019350506020810190506157ca565b5050509392505050565b600082601f8301126158105761580f6146ef565b5b8151615820848260208601615792565b91505092915050565b60006020828403121561583f5761583e6145db565b5b600082015167ffffffffffffffff81111561585d5761585c6145e0565b5b615869848285016157fb565b91505092915050565b60008151905061588181614617565b92915050565b60006020828403121561589d5761589c6145db565b5b60006158ab84828501615872565b91505092915050565b600067ffffffffffffffff8211156158cf576158ce61470a565b5b602082029050602081019050919050565b60006158f36158ee846158b4565b61476a565b9050808382526020820190506020840283018581111561591657615915614cbc565b5b835b8181101561593f578061592b8882615872565b845260208401935050602081019050615918565b5050509392505050565b600082601f83011261595e5761595d6146ef565b5b815161596e8482602086016158e0565b91505092915050565b60006020828403121561598d5761598c6145db565b5b600082015167ffffffffffffffff8111156159ab576159aa6145e0565b5b6159b784828501615949565b91505092915050565b6000819050919050565b60006159e56159e06159db846159c0565b6149e8565b614643565b9050919050565b6159f5816159ca565b82525050565b6000604082019050615a106000830185614940565b615a1d60208301846159ec565b9392505050565b6000606082019050615a396000830186614940565b615a466020830185614940565b615a5360408301846159ec565b94935050505056fea26469706673582212206915ed796e1825d7919126150425b135277325ee9d92a7e65fba0d6b007dc53a64736f6c634300080b0033",
  "linkReferences": {},
  "deployedLinkReferences": {}
}