{
  "_format": "hh-sol-artifact-1",
  "contractName": "Lottery",
  "sourceName": "contracts/Lottery.sol",
  "abi": [
    {
      "anonymous": false,
      "inputs": [
        {
          "indexed": true,
          "internalType": "address",
          "name": "previousOwner",
          "type": "address"
        },
        {
          "indexed": true,
          "internalType": "address",
          "name": "newOwner",
          "type": "address"
        }
      ],
      "name": "OwnershipTransferred",
      "type": "event"
    },
    {
      "anonymous": false,
      "inputs": [
        {
          "indexed": false,
          "internalType": "address",
          "name": "user",
          "type": "address"
        }
      ],
      "name": "enter",
      "type": "event"
    },
    {
      "anonymous": false,
      "inputs": [
        {
          "indexed": false,
          "internalType": "address",
          "name": "creator",
          "type": "address"
        },
        {
          "indexed": false,
          "internalType": "uint256",
          "name": "LobbyId",
          "type": "uint256"
        },
        {
          "indexed": false,
          "internalType": "address",
          "name": "user",
          "type": "address"
        },
        {
          "indexed": false,
          "internalType": "address[]",
          "name": "players",
          "type": "address[]"
        },
        {
          "indexed": false,
          "internalType": "uint256",
          "name": "deposit",
          "type": "uint256"
        },
        {
          "indexed": false,
          "internalType": "uint256",
          "name": "countOfPlayers",
          "type": "uint256"
        },
        {
          "indexed": false,
          "internalType": "contract IERC20",
          "name": "token",
          "type": "address"
        }
      ],
      "name": "enterLobby",
      "type": "event"
    },
    {
      "anonymous": false,
      "inputs": [
        {
          "indexed": true,
          "internalType": "address",
          "name": "creator",
          "type": "address"
        },
        {
          "indexed": true,
          "internalType": "uint256",
          "name": "deposit",
          "type": "uint256"
        },
        {
          "indexed": true,
          "internalType": "uint256",
          "name": "countOfPlayers",
          "type": "uint256"
        },
        {
          "indexed": false,
          "internalType": "uint256",
          "name": "LobbyId",
          "type": "uint256"
        }
      ],
      "name": "newLobby",
      "type": "event"
    },
    {
      "anonymous": false,
      "inputs": [
        {
          "indexed": false,
          "internalType": "address",
          "name": "winer",
          "type": "address"
        }
      ],
      "name": "play",
      "type": "event"
    },
    {
      "anonymous": false,
      "inputs": [
        {
          "indexed": false,
          "internalType": "address",
          "name": "creator",
          "type": "address"
        },
        {
          "indexed": false,
          "internalType": "uint256",
          "name": "LobbyId",
          "type": "uint256"
        },
        {
          "indexed": false,
          "internalType": "address[]",
          "name": "players",
          "type": "address[]"
        },
        {
          "indexed": false,
          "internalType": "uint256",
          "name": "deposit",
          "type": "uint256"
        },
        {
          "indexed": false,
          "internalType": "uint256",
          "name": "countOfPlayers",
          "type": "uint256"
        },
        {
          "indexed": false,
          "internalType": "contract IERC20",
          "name": "token",
          "type": "address"
        },
        {
          "indexed": false,
          "internalType": "address",
          "name": "winer",
          "type": "address"
        }
      ],
      "name": "playLobby",
      "type": "event"
    },
    {
      "inputs": [],
      "name": "Enter",
      "outputs": [],
      "stateMutability": "nonpayable",
      "type": "function"
    },
    {
      "inputs": [
        {
          "internalType": "address",
          "name": "lobbyCreator",
          "type": "address"
        },
        {
          "internalType": "uint256",
          "name": "lobbyId",
          "type": "uint256"
        }
      ],
      "name": "EnterLobby",
      "outputs": [],
      "stateMutability": "nonpayable",
      "type": "function"
    },
    {
      "inputs": [],
      "name": "Play",
      "outputs": [],
      "stateMutability": "nonpayable",
      "type": "function"
    },
    {
      "inputs": [],
      "name": "REF",
      "outputs": [],
      "stateMutability": "nonpayable",
      "type": "function"
    },
    {
      "inputs": [
        {
          "internalType": "contract IERC20",
          "name": "tokenAddress",
          "type": "address"
        },
        {
          "internalType": "uint256",
          "name": "value",
          "type": "uint256"
        }
      ],
      "name": "Withdrow",
      "outputs": [],
      "stateMutability": "nonpayable",
      "type": "function"
    },
    {
      "inputs": [
        {
          "internalType": "address",
          "name": "addres",
          "type": "address"
        }
      ],
      "name": "_allowToNFT",
      "outputs": [
        {
          "components": [
            {
              "internalType": "uint256[]",
              "name": "lotteryes",
              "type": "uint256[]"
            },
            {
              "internalType": "uint8",
              "name": "dont_use",
              "type": "uint8"
            }
          ],
          "internalType": "struct Lottery.wins",
          "name": "",
          "type": "tuple"
        }
      ],
      "stateMutability": "view",
      "type": "function"
    },
    {
      "inputs": [
        {
          "internalType": "address",
          "name": "a",
          "type": "address"
        },
        {
          "internalType": "uint256",
          "name": "TokenId",
          "type": "uint256"
        }
      ],
      "name": "_findAddressInfirst1000Winers",
      "outputs": [
        {
          "internalType": "bool",
          "name": "",
          "type": "bool"
        }
      ],
      "stateMutability": "view",
      "type": "function"
    },
    {
      "inputs": [
        {
          "internalType": "uint256[]",
          "name": "_lotteryes",
          "type": "uint256[]"
        }
      ],
      "name": "addToAutoEnter",
      "outputs": [],
      "stateMutability": "nonpayable",
      "type": "function"
    },
    {
      "inputs": [
        {
          "internalType": "contract IERC20",
          "name": "tokenAddress",
          "type": "address"
        },
        {
          "internalType": "uint256",
          "name": "deposit",
          "type": "uint256"
        }
      ],
      "name": "addTokensToBalance",
      "outputs": [],
      "stateMutability": "nonpayable",
      "type": "function"
    },
    {
      "inputs": [
        {
          "internalType": "uint256",
          "name": "TokenId",
          "type": "uint256"
        }
      ],
      "name": "allowToNFT",
      "outputs": [
        {
          "internalType": "address",
          "name": "",
          "type": "address"
        }
      ],
      "stateMutability": "view",
      "type": "function"
    },
    {
      "inputs": [
        {
          "internalType": "address",
          "name": "newAddress",
          "type": "address"
        },
        {
          "internalType": "uint256",
          "name": "TokenId",
          "type": "uint256"
        }
      ],
      "name": "changeAllowToMint",
      "outputs": [],
      "stateMutability": "nonpayable",
      "type": "function"
    },
    {
      "inputs": [
        {
          "internalType": "contract IERC20",
          "name": "tokenAddress",
          "type": "address"
        },
        {
          "internalType": "uint256",
          "name": "deposit",
          "type": "uint256"
        },
        {
          "internalType": "uint256",
          "name": "countOfPlayers",
          "type": "uint256"
        }
      ],
      "name": "createNewLobby",
      "outputs": [],
      "stateMutability": "nonpayable",
      "type": "function"
    },
    {
      "inputs": [
        {
          "internalType": "address",
          "name": "msgsender",
          "type": "address"
        },
        {
          "internalType": "address",
          "name": "lobbyCreator",
          "type": "address"
        },
        {
          "internalType": "uint256",
          "name": "lobbyId",
          "type": "uint256"
        }
      ],
      "name": "findPlayerInLobby",
      "outputs": [
        {
          "internalType": "bool",
          "name": "",
          "type": "bool"
        }
      ],
      "stateMutability": "view",
      "type": "function"
    },
    {
      "inputs": [],
      "name": "getAdrressNFT",
      "outputs": [
        {
          "internalType": "address",
          "name": "",
          "type": "address"
        }
      ],
      "stateMutability": "view",
      "type": "function"
    },
    {
      "inputs": [
        {
          "internalType": "address",
          "name": "a",
          "type": "address"
        }
      ],
      "name": "getAutoEnter",
      "outputs": [
        {
          "internalType": "uint256[]",
          "name": "",
          "type": "uint256[]"
        }
      ],
      "stateMutability": "view",
      "type": "function"
    },
    {
      "inputs": [
        {
          "internalType": "contract IERC20",
          "name": "tokenAddress",
          "type": "address"
        },
        {
          "internalType": "address",
          "name": "a",
          "type": "address"
        }
      ],
      "name": "getBalance",
      "outputs": [
        {
          "internalType": "uint256",
          "name": "",
          "type": "uint256"
        }
      ],
      "stateMutability": "view",
      "type": "function"
    },
    {
      "inputs": [],
      "name": "getHEEP",
      "outputs": [
        {
          "internalType": "uint256",
          "name": "",
          "type": "uint256"
        }
      ],
      "stateMutability": "view",
      "type": "function"
    },
    {
      "inputs": [
        {
          "internalType": "address",
          "name": "creator",
          "type": "address"
        },
        {
          "internalType": "uint256",
          "name": "lobbyid",
          "type": "uint256"
        }
      ],
      "name": "getLobby",
      "outputs": [
        {
          "components": [
            {
              "internalType": "contract IERC20",
              "name": "token",
              "type": "address"
            },
            {
              "internalType": "address",
              "name": "winer",
              "type": "address"
            },
            {
              "internalType": "address[]",
              "name": "players",
              "type": "address[]"
            },
            {
              "internalType": "uint256",
              "name": "deposit",
              "type": "uint256"
            },
            {
              "internalType": "uint256",
              "name": "countOfPlayers",
              "type": "uint256"
            },
            {
              "internalType": "uint256",
              "name": "nowInLobby",
              "type": "uint256"
            }
          ],
          "internalType": "struct Lobby.lobbyShablon",
          "name": "",
          "type": "tuple"
        }
      ],
      "stateMutability": "view",
      "type": "function"
    },
    {
      "inputs": [],
      "name": "getLotteryCount",
      "outputs": [
        {
          "internalType": "uint256",
          "name": "",
          "type": "uint256"
        }
      ],
      "stateMutability": "view",
      "type": "function"
    },
    {
      "inputs": [
        {
          "internalType": "uint256",
          "name": "lotteryId",
          "type": "uint256"
        }
      ],
      "name": "getLotteryShablonByIndex",
      "outputs": [
        {
          "components": [
            {
              "internalType": "address",
              "name": "winer",
              "type": "address"
            },
            {
              "internalType": "address[]",
              "name": "players",
              "type": "address[]"
            },
            {
              "internalType": "uint256",
              "name": "playersCount",
              "type": "uint256"
            }
          ],
          "internalType": "struct Lottery.LotteryShablon",
          "name": "",
          "type": "tuple"
        }
      ],
      "stateMutability": "view",
      "type": "function"
    },
    {
      "inputs": [
        {
          "internalType": "string",
          "name": "a",
          "type": "string"
        }
      ],
      "name": "getPromSetReverse",
      "outputs": [
        {
          "internalType": "address",
          "name": "",
          "type": "address"
        }
      ],
      "stateMutability": "view",
      "type": "function"
    },
    {
      "inputs": [],
      "name": "getREVARD_REF_ALLOW",
      "outputs": [
        {
          "internalType": "uint256",
          "name": "",
          "type": "uint256"
        }
      ],
      "stateMutability": "view",
      "type": "function"
    },
    {
      "inputs": [
        {
          "internalType": "uint256",
          "name": "_playersCount",
          "type": "uint256"
        }
      ],
      "name": "getRandNumber",
      "outputs": [
        {
          "internalType": "uint256",
          "name": "",
          "type": "uint256"
        }
      ],
      "stateMutability": "view",
      "type": "function"
    },
    {
      "inputs": [],
      "name": "getTokenForLottery",
      "outputs": [
        {
          "internalType": "address",
          "name": "",
          "type": "address"
        }
      ],
      "stateMutability": "view",
      "type": "function"
    },
    {
      "inputs": [
        {
          "internalType": "address",
          "name": "a",
          "type": "address"
        }
      ],
      "name": "getcountOfLotteryEnter",
      "outputs": [
        {
          "internalType": "uint256",
          "name": "",
          "type": "uint256"
        }
      ],
      "stateMutability": "view",
      "type": "function"
    },
    {
      "inputs": [
        {
          "internalType": "address",
          "name": "_address",
          "type": "address"
        }
      ],
      "name": "getlobbyCountForAddress",
      "outputs": [
        {
          "internalType": "uint256",
          "name": "",
          "type": "uint256"
        }
      ],
      "stateMutability": "view",
      "type": "function"
    },
    {
      "inputs": [
        {
          "internalType": "address",
          "name": "_address",
          "type": "address"
        }
      ],
      "name": "getlobbyCountForAddressHistory",
      "outputs": [
        {
          "internalType": "uint256",
          "name": "",
          "type": "uint256"
        }
      ],
      "stateMutability": "view",
      "type": "function"
    },
    {
      "inputs": [
        {
          "internalType": "address",
          "name": "a",
          "type": "address"
        }
      ],
      "name": "getshouldRevard",
      "outputs": [
        {
          "internalType": "uint256",
          "name": "",
          "type": "uint256"
        }
      ],
      "stateMutability": "view",
      "type": "function"
    },
    {
      "inputs": [],
      "name": "owner",
      "outputs": [
        {
          "internalType": "address",
          "name": "",
          "type": "address"
        }
      ],
      "stateMutability": "view",
      "type": "function"
    },
    {
      "inputs": [],
      "name": "renounceOwnership",
      "outputs": [],
      "stateMutability": "nonpayable",
      "type": "function"
    },
    {
      "inputs": [
        {
          "internalType": "contract ERC721with",
          "name": "token",
          "type": "address"
        }
      ],
      "name": "setAdrressNFT",
      "outputs": [],
      "stateMutability": "nonpayable",
      "type": "function"
    },
    {
      "inputs": [
        {
          "internalType": "address",
          "name": "a",
          "type": "address"
        }
      ],
      "name": "setAutotask",
      "outputs": [],
      "stateMutability": "nonpayable",
      "type": "function"
    },
    {
      "inputs": [
        {
          "internalType": "uint256",
          "name": "_deposit",
          "type": "uint256"
        }
      ],
      "name": "setDeposit",
      "outputs": [],
      "stateMutability": "nonpayable",
      "type": "function"
    },
    {
      "inputs": [
        {
          "internalType": "contract MUD",
          "name": "a",
          "type": "address"
        }
      ],
      "name": "setMUD",
      "outputs": [],
      "stateMutability": "nonpayable",
      "type": "function"
    },
    {
      "inputs": [
        {
          "internalType": "string",
          "name": "a",
          "type": "string"
        }
      ],
      "name": "setPromInput",
      "outputs": [],
      "stateMutability": "nonpayable",
      "type": "function"
    },
    {
      "inputs": [
        {
          "internalType": "string",
          "name": "a",
          "type": "string"
        }
      ],
      "name": "setPromSet",
      "outputs": [],
      "stateMutability": "nonpayable",
      "type": "function"
    },
    {
      "inputs": [
        {
          "internalType": "contract IERC20",
          "name": "_tokenForLottery",
          "type": "address"
        }
      ],
      "name": "setTokenForLottery",
      "outputs": [],
      "stateMutability": "nonpayable",
      "type": "function"
    },
    {
      "inputs": [
        {
          "internalType": "address",
          "name": "newOwner",
          "type": "address"
        }
      ],
      "name": "transferOwnership",
      "outputs": [],
      "stateMutability": "nonpayable",
      "type": "function"
    }
  ],
  "bytecode": "0x6080604052633b9aca00600455600860646004546200001f91906200027d565b6200002b9190620002b5565b600555601360646004546200004191906200027d565b6200004d9190620002b5565b600655600d60646004546200006391906200027d565b6200006f9190620002b5565b600755601e60646004546200008591906200027d565b620000919190620002b5565b60085560096064600454620000a791906200027d565b620000b39190620002b5565b60095560156064600454620000c991906200027d565b620000d59190620002b5565b600a556103e8600954620000ea91906200027d565b600b556103e8600854620000ff91906200027d565b600c55600c54600d556001600e55600a54601d553480156200012057600080fd5b5062000141620001356200014760201b60201c565b6200014f60201b60201c565b62000316565b600033905090565b6000601160009054906101000a900473ffffffffffffffffffffffffffffffffffffffff16905081601160006101000a81548173ffffffffffffffffffffffffffffffffffffffff021916908373ffffffffffffffffffffffffffffffffffffffff1602179055508173ffffffffffffffffffffffffffffffffffffffff168173ffffffffffffffffffffffffffffffffffffffff167f8be0079c531659141344cd1fd0a4f28419497f9722a3daafe3b4186f6b6457e060405160405180910390a35050565b6000819050919050565b7f4e487b7100000000000000000000000000000000000000000000000000000000600052601260045260246000fd5b7f4e487b7100000000000000000000000000000000000000000000000000000000600052601160045260246000fd5b60006200028a8262000215565b9150620002978362000215565b925082620002aa57620002a96200021f565b5b828204905092915050565b6000620002c28262000215565b9150620002cf8362000215565b9250817fffffffffffffffffffffffffffffffffffffffffffffffffffffffffffffffff04831182151516156200030b576200030a6200024e565b5b828202905092915050565b615e3480620003266000396000f3fe608060405234801561001057600080fd5b50600436106102325760003560e01c806371cf112711610130578063cd8f98e8116100b8578063e9858a581161007c578063e9858a5814610685578063e9ed3576146106b5578063f2fde38b146106d3578063f5bade66146106ef578063fb9c00c81461070b57610232565b8063cd8f98e8146105bd578063cfd717da146105ed578063d4fac45d14610609578063e1f97dd214610639578063e8844e761461065557610232565b8063a53aa0ac116100ff578063a53aa0ac146104f5578063a7421d8114610525578063aa78dda114610541578063bd24435b1461055d578063c7766cc41461058d57610232565b806371cf11271461046f57806381e1e4b11461048b5780638da5cb5b146104bb578063a41c63e2146104d957610232565b80632f9aa1fe116101be57806357b526fc1161018257806357b526fc146103cd57806358a10e87146103fd57806361a4c751146104195780636d12dce414610435578063715018a61461046557610232565b80632f9aa1fe146103395780634137fc641461035757806346254c3a1461037357806347d9833d146103915780635443a8fd146103af57610232565b80631097e579116102055780631097e579146102975780631881cc03146102a15780631c64f010146102d157806325876ddf1461030157806329a4a2811461031d57610232565b806304b675ae14610237578063053e3b4514610267578063066034fc146102835780630e2dce691461028d575b600080fd5b610251600480360381019061024c91906149cb565b61073b565b60405161025e9190614a26565b60405180910390f35b610281600480360381019061027c9190614b87565b6107b8565b005b61028b610a46565b005b610295610bc9565b005b61029f61142d565b005b6102bb60048036038101906102b69190614bd0565b6116c6565b6040516102c89190614c0c565b60405180910390f35b6102eb60048036038101906102e69190614bd0565b61170f565b6040516102f89190614c0c565b60405180910390f35b61031b600480360381019061031691906149cb565b611758565b005b61033760048036038101906103329190614c65565b611c85565b005b610341611d45565b60405161034e9190614c0c565b60405180910390f35b610371600480360381019061036c9190614b87565b611d4f565b005b61037b611ed4565b6040516103889190614ca1565b60405180910390f35b610399611efe565b6040516103a69190614c0c565b60405180910390f35b6103b7611f08565b6040516103c49190614ca1565b60405180910390f35b6103e760048036038101906103e29190614bd0565b611f32565b6040516103f49190614c0c565b60405180910390f35b61041760048036038101906104129190614bd0565b611f7b565b005b610433600480360381019061042e9190614cfa565b61203b565b005b61044f600480360381019061044a91906149cb565b6121e0565b60405161045c9190614eef565b60405180910390f35b61046d6123a3565b005b610489600480360381019061048491906149cb565b61242b565b005b6104a560048036038101906104a09190614bd0565b612568565b6040516104b29190614fc0565b60405180910390f35b6104c3612602565b6040516104d09190614ca1565b60405180910390f35b6104f360048036038101906104ee9190614cfa565b61262c565b005b61050f600480360381019061050a9190614bd0565b612751565b60405161051c9190614c0c565b60405180910390f35b61053f600480360381019061053a9190614fe2565b61279a565b005b61055b600480360381019061055691906150d7565b61285a565b005b61057760048036038101906105729190615120565b612cc3565b6040516105849190614c0c565b60405180910390f35b6105a760048036038101906105a29190614b87565b612d12565b6040516105b49190614ca1565b60405180910390f35b6105d760048036038101906105d29190615120565b612d7a565b6040516105e4919061519d565b60405180910390f35b610607600480360381019061060291906151fd565b612e95565b005b610623600480360381019061061e919061522a565b612f55565b6040516106309190614c0c565b60405180910390f35b610653600480360381019061064e919061526a565b612fdb565b005b61066f600480360381019061066a91906152bd565b6134ac565b60405161067c9190614a26565b60405180910390f35b61069f600480360381019061069a9190615120565b61366f565b6040516106ac9190614ca1565b60405180910390f35b6106bd6136ac565b6040516106ca9190614c0c565b60405180910390f35b6106ed60048036038101906106e89190614bd0565b6136b6565b005b61070960048036038101906107049190615120565b6137ae565b005b61072560048036038101906107209190614bd0565b613834565b60405161073291906153d8565b60405180910390f35b60008273ffffffffffffffffffffffffffffffffffffffff166013600084815260200190815260200160002060009054906101000a900473ffffffffffffffffffffffffffffffffffffffff1673ffffffffffffffffffffffffffffffffffffffff1614156107ad57600190506107b2565b600090505b92915050565b6000816040516020016107cb9190615474565b6040516020818303038152906040528051906020012090503373ffffffffffffffffffffffffffffffffffffffff166018600083815260200190815260200160002060009054906101000a900473ffffffffffffffffffffffffffffffffffffffff1673ffffffffffffffffffffffffffffffffffffffff161415610885576040517f08c379a000000000000000000000000000000000000000000000000000000000815260040161087c906154e8565b60405180910390fd5b6000801b601760003373ffffffffffffffffffffffffffffffffffffffff1673ffffffffffffffffffffffffffffffffffffffff168152602001908152602001600020600101541461090c576040517f08c379a000000000000000000000000000000000000000000000000000000000815260040161090390615554565b60405180910390fd5b600073ffffffffffffffffffffffffffffffffffffffff166018600083815260200190815260200160002060009054906101000a900473ffffffffffffffffffffffffffffffffffffffff1673ffffffffffffffffffffffffffffffffffffffff1614156109af576040517f08c379a00000000000000000000000000000000000000000000000000000000081526004016109a6906155c0565b60405180910390fd5b6000601660003373ffffffffffffffffffffffffffffffffffffffff1673ffffffffffffffffffffffffffffffffffffffff16815260200190815260200160002054146109fb57600080fd5b80601760003373ffffffffffffffffffffffffffffffffffffffff1673ffffffffffffffffffffffffffffffffffffffff168152602001908152602001600020600101819055505050565b6000601960003373ffffffffffffffffffffffffffffffffffffffff1673ffffffffffffffffffffffffffffffffffffffff16815260200190815260200160002054118015610a98575061041b600e54115b610aa157600080fd5b600f60009054906101000a900473ffffffffffffffffffffffffffffffffffffffff1673ffffffffffffffffffffffffffffffffffffffff1663e16acb8333670de0b6b3a7640000601960003373ffffffffffffffffffffffffffffffffffffffff1673ffffffffffffffffffffffffffffffffffffffff16815260200190815260200160002054610b33919061560f565b6040518363ffffffff1660e01b8152600401610b50929190615669565b600060405180830381600087803b158015610b6a57600080fd5b505af1158015610b7e573d6000803e3d6000fd5b505050506000601960003373ffffffffffffffffffffffffffffffffffffffff1673ffffffffffffffffffffffffffffffffffffffff16815260200190815260200160002081905550565b610bd1612602565b73ffffffffffffffffffffffffffffffffffffffff163373ffffffffffffffffffffffffffffffffffffffff161480610c575750601c60009054906101000a900473ffffffffffffffffffffffffffffffffffffffff1673ffffffffffffffffffffffffffffffffffffffff163373ffffffffffffffffffffffffffffffffffffffff16145b610c6057600080fd5b60008060126000600e548152602001908152602001600020600201541415610c9157610c8a612602565b9050610d0f565b6000610cb460126000600e54815260200190815260200160002060020154612cc3565b905060126000600e5481526020019081526020016000206001018181548110610ce057610cdf615692565b5b9060005260206000200160009054906101000a900473ffffffffffffffffffffffffffffffffffffffff169150505b6103e8600e5411610dda578060136000600e54815260200190815260200160002060006101000a81548173ffffffffffffffffffffffffffffffffffffffff021916908373ffffffffffffffffffffffffffffffffffffffff160217905550601460008273ffffffffffffffffffffffffffffffffffffffff1673ffffffffffffffffffffffffffffffffffffffff168152602001908152602001600020600001600e5490806001815401808255809150506001900390600052602060002001600090919091909150555b60126000600e54815260200190815260200160002060020154601a54610e00919061560f565b600080601b60009054906101000a900473ffffffffffffffffffffffffffffffffffffffff1673ffffffffffffffffffffffffffffffffffffffff1673ffffffffffffffffffffffffffffffffffffffff16815260200190815260200160002060008373ffffffffffffffffffffffffffffffffffffffff1673ffffffffffffffffffffffffffffffffffffffff1681526020019081526020016000206000828254610eac91906156c1565b925050819055508060126000600e54815260200190815260200160002060000160006101000a81548173ffffffffffffffffffffffffffffffffffffffff021916908373ffffffffffffffffffffffffffffffffffffffff1602179055506033600e5410158015610f20575061041b600e54105b8015610fd35750601060009054906101000a900473ffffffffffffffffffffffffffffffffffffffff1673ffffffffffffffffffffffffffffffffffffffff1663e472f1356032600e54610f749190615717565b6040518263ffffffff1660e01b8152600401610f909190614c0c565b602060405180830381865afa158015610fad573d6000803e3d6000fd5b505050506040513d601f19601f82011682018060405250810190610fd19190615777565b155b15610fe157610fe0613902565b5b61041b600e5410158015610ff85750610803600e54105b1561135357600060126000600e54815260200190815260200160002060010180548060200260200160405190810160405280929190818152602001828054801561109757602002820191906000526020600020905b8160009054906101000a900473ffffffffffffffffffffffffffffffffffffffff1673ffffffffffffffffffffffffffffffffffffffff168152602001906001019080831161104d575b505050505090506000815190506000811180156110c8575080670de0b6b3a7640000600b546110c6919061560f565b115b1561133557600081670de0b6b3a7640000600b546110e6919061560f565b6110f091906157d3565b905060005b8281101561133257600f60009054906101000a900473ffffffffffffffffffffffffffffffffffffffff1673ffffffffffffffffffffffffffffffffffffffff1663e16acb8385838151811061114e5761114d615692565b5b6020026020010151846040518363ffffffff1660e01b8152600401611174929190615669565b600060405180830381600087803b15801561118e57600080fd5b505af11580156111a2573d6000803e3d6000fd5b50505050600f60009054906101000a900473ffffffffffffffffffffffffffffffffffffffff1673ffffffffffffffffffffffffffffffffffffffff16634538dc258583815181106111f7576111f6615692565b5b602002602001015130856040518463ffffffff1660e01b815260040161121f93929190615804565b600060405180830381600087803b15801561123957600080fd5b505af115801561124d573d6000803e3d6000fd5b5050505081600080600f60009054906101000a900473ffffffffffffffffffffffffffffffffffffffff1673ffffffffffffffffffffffffffffffffffffffff1673ffffffffffffffffffffffffffffffffffffffff16815260200190815260200160002060008684815181106112c7576112c6615692565b5b602002602001015173ffffffffffffffffffffffffffffffffffffffff1673ffffffffffffffffffffffffffffffffffffffff168152602001908152602001600020600082825461131891906156c1565b92505081905550808061132a9061583b565b9150506110f5565b50505b600c54600d600082825461134991906156c1565b9250508190555050505b61041a600e5414156113db57611367613bb5565b61136f613dec565b611377613f88565b600f60009054906101000a900473ffffffffffffffffffffffffffffffffffffffff16601b60006101000a81548173ffffffffffffffffffffffffffffffffffffffff021916908373ffffffffffffffffffffffffffffffffffffffff1602179055505b600e60008154809291906113ee9061583b565b91905055507fe492814f88d415ab2b7d4431b7ab7b85b32be6ff85014754c52ce9894d9ebbcf816040516114229190614ca1565b60405180910390a150565b601a5461145c601b60009054906101000a900473ffffffffffffffffffffffffffffffffffffffff1633612f55565b10158015611473575061147133600e54614035565b155b6114b2576040517f08c379a00000000000000000000000000000000000000000000000000000000081526004016114a9906158d0565b60405180910390fd5b6000601660003373ffffffffffffffffffffffffffffffffffffffff1673ffffffffffffffffffffffffffffffffffffffff16815260200190815260200160002054148015611504575060c8601d5410155b15611512576115116141d9565b5b601660003373ffffffffffffffffffffffffffffffffffffffff1673ffffffffffffffffffffffffffffffffffffffff16815260200190815260200160002060008154809291906115629061583b565b9190505550601a54600080601b60009054906101000a900473ffffffffffffffffffffffffffffffffffffffff1673ffffffffffffffffffffffffffffffffffffffff1673ffffffffffffffffffffffffffffffffffffffff16815260200190815260200160002060003373ffffffffffffffffffffffffffffffffffffffff1673ffffffffffffffffffffffffffffffffffffffff16815260200190815260200160002060008282546116169190615717565b9250508190555060126000600e548152602001908152602001600020600101339080600181540180825580915050600190039060005260206000200160009091909190916101000a81548173ffffffffffffffffffffffffffffffffffffffff021916908373ffffffffffffffffffffffffffffffffffffffff16021790555060126000600e54815260200190815260200160002060020160008154809291906116bf9061583b565b9190505550565b6000601960008373ffffffffffffffffffffffffffffffffffffffff1673ffffffffffffffffffffffffffffffffffffffff168152602001908152602001600020549050919050565b6000600260008373ffffffffffffffffffffffffffffffffffffffff1673ffffffffffffffffffffffffffffffffffffffff168152602001908152602001600020549050919050565b60003390506000600360008573ffffffffffffffffffffffffffffffffffffffff1673ffffffffffffffffffffffffffffffffffffffff1681526020019081526020016000206000848152602001908152602001600020905080600301546000808360000160009054906101000a900473ffffffffffffffffffffffffffffffffffffffff1673ffffffffffffffffffffffffffffffffffffffff1673ffffffffffffffffffffffffffffffffffffffff16815260200190815260200160002060008473ffffffffffffffffffffffffffffffffffffffff1673ffffffffffffffffffffffffffffffffffffffff16815260200190815260200160002054101580156118b857506000600360008673ffffffffffffffffffffffffffffffffffffffff1673ffffffffffffffffffffffffffffffffffffffff16815260200190815260200160002060008581526020019081526020016000206005015414155b80156118cc57506118ca8285856134ac565b155b6118d557600080fd5b80600301546000808360000160009054906101000a900473ffffffffffffffffffffffffffffffffffffffff1673ffffffffffffffffffffffffffffffffffffffff1673ffffffffffffffffffffffffffffffffffffffff16815260200190815260200160002060008473ffffffffffffffffffffffffffffffffffffffff1673ffffffffffffffffffffffffffffffffffffffff16815260200190815260200160002060008282546119889190615717565b9250508190555080600201829080600181540180825580915050600190039060005260206000200160009091909190916101000a81548173ffffffffffffffffffffffffffffffffffffffff021916908373ffffffffffffffffffffffffffffffffffffffff16021790555060008160050160008154611a079061583b565b91905081905590508160040154811415611c7e576000611b89836040518060c00160405290816000820160009054906101000a900473ffffffffffffffffffffffffffffffffffffffff1673ffffffffffffffffffffffffffffffffffffffff1673ffffffffffffffffffffffffffffffffffffffff1681526020016001820160009054906101000a900473ffffffffffffffffffffffffffffffffffffffff1673ffffffffffffffffffffffffffffffffffffffff1673ffffffffffffffffffffffffffffffffffffffff16815260200160028201805480602002602001604051908101604052809291908181526020018280548015611b5d57602002820191906000526020600020905b8160009054906101000a900473ffffffffffffffffffffffffffffffffffffffff1673ffffffffffffffffffffffffffffffffffffffff1681526020019060010190808311611b13575b50505050508152602001600382015481526020016004820154815260200160058201548152505061432f565b9050808360010160006101000a81548173ffffffffffffffffffffffffffffffffffffffff021916908373ffffffffffffffffffffffffffffffffffffffff1602179055506000600360008873ffffffffffffffffffffffffffffffffffffffff1673ffffffffffffffffffffffffffffffffffffffff168152602001908152602001600020600087815260200190815260200160002060050181905550600160008773ffffffffffffffffffffffffffffffffffffffff1673ffffffffffffffffffffffffffffffffffffffff1681526020019081526020016000206000815480929190611c77906158f0565b9190505550505b5050505050565b611c8d614761565b73ffffffffffffffffffffffffffffffffffffffff16611cab612602565b73ffffffffffffffffffffffffffffffffffffffff1614611d01576040517f08c379a0000000000000000000000000000000000000000000000000000000008152600401611cf890615966565b60405180910390fd5b80601060006101000a81548173ffffffffffffffffffffffffffffffffffffffff021916908373ffffffffffffffffffffffffffffffffffffffff16021790555050565b6000600e54905090565b600081604051602001611d629190615474565b6040516020818303038152906040528051906020012090506000801b601760003373ffffffffffffffffffffffffffffffffffffffff1673ffffffffffffffffffffffffffffffffffffffff1681526020019081526020016000206000015414611dcb57600080fd5b600073ffffffffffffffffffffffffffffffffffffffff166018600083815260200190815260200160002060009054906101000a900473ffffffffffffffffffffffffffffffffffffffff1673ffffffffffffffffffffffffffffffffffffffff1614611e3757600080fd5b80601760003373ffffffffffffffffffffffffffffffffffffffff1673ffffffffffffffffffffffffffffffffffffffff16815260200190815260200160002060000181905550336018600083815260200190815260200160002060006101000a81548173ffffffffffffffffffffffffffffffffffffffff021916908373ffffffffffffffffffffffffffffffffffffffff1602179055505050565b6000601b60009054906101000a900473ffffffffffffffffffffffffffffffffffffffff16905090565b6000600d54905090565b6000601060009054906101000a900473ffffffffffffffffffffffffffffffffffffffff16905090565b6000600160008373ffffffffffffffffffffffffffffffffffffffff1673ffffffffffffffffffffffffffffffffffffffff168152602001908152602001600020549050919050565b611f83614761565b73ffffffffffffffffffffffffffffffffffffffff16611fa1612602565b73ffffffffffffffffffffffffffffffffffffffff1614611ff7576040517f08c379a0000000000000000000000000000000000000000000000000000000008152600401611fee90615966565b60405180910390fd5b80601c60006101000a81548173ffffffffffffffffffffffffffffffffffffffff021916908373ffffffffffffffffffffffffffffffffffffffff16021790555050565b806000808473ffffffffffffffffffffffffffffffffffffffff1673ffffffffffffffffffffffffffffffffffffffff16815260200190815260200160002060003373ffffffffffffffffffffffffffffffffffffffff1673ffffffffffffffffffffffffffffffffffffffff1681526020019081526020016000205410156120c357600080fd5b8173ffffffffffffffffffffffffffffffffffffffff1663a9059cbb33836040518363ffffffff1660e01b81526004016120fe929190615669565b6020604051808303816000875af115801561211d573d6000803e3d6000fd5b505050506040513d601f19601f820116820180604052508101906121419190615777565b61214a57600080fd5b806000808473ffffffffffffffffffffffffffffffffffffffff1673ffffffffffffffffffffffffffffffffffffffff16815260200190815260200160002060003373ffffffffffffffffffffffffffffffffffffffff1673ffffffffffffffffffffffffffffffffffffffff16815260200190815260200160002060008282546121d59190615717565b925050819055505050565b6121e861482f565b600360008473ffffffffffffffffffffffffffffffffffffffff1673ffffffffffffffffffffffffffffffffffffffff16815260200190815260200160002060008381526020019081526020016000206040518060c00160405290816000820160009054906101000a900473ffffffffffffffffffffffffffffffffffffffff1673ffffffffffffffffffffffffffffffffffffffff1673ffffffffffffffffffffffffffffffffffffffff1681526020016001820160009054906101000a900473ffffffffffffffffffffffffffffffffffffffff1673ffffffffffffffffffffffffffffffffffffffff1673ffffffffffffffffffffffffffffffffffffffff1681526020016002820180548060200260200160405190810160405280929190818152602001828054801561237457602002820191906000526020600020905b8160009054906101000a900473ffffffffffffffffffffffffffffffffffffffff1673ffffffffffffffffffffffffffffffffffffffff168152602001906001019080831161232a575b505050505081526020016003820154815260200160048201548152602001600582015481525050905092915050565b6123ab614761565b73ffffffffffffffffffffffffffffffffffffffff166123c9612602565b73ffffffffffffffffffffffffffffffffffffffff161461241f576040517f08c379a000000000000000000000000000000000000000000000000000000000815260040161241690615966565b60405180910390fd5b6124296000614769565b565b612433614761565b73ffffffffffffffffffffffffffffffffffffffff16612451612602565b73ffffffffffffffffffffffffffffffffffffffff16146124a7576040517f08c379a000000000000000000000000000000000000000000000000000000000815260040161249e90615966565b60405180910390fd5b3373ffffffffffffffffffffffffffffffffffffffff166013600083815260200190815260200160002060009054906101000a900473ffffffffffffffffffffffffffffffffffffffff1673ffffffffffffffffffffffffffffffffffffffff161461251257600080fd5b816013600083815260200190815260200160002060006101000a81548173ffffffffffffffffffffffffffffffffffffffff021916908373ffffffffffffffffffffffffffffffffffffffff1602179055505050565b6060601560008373ffffffffffffffffffffffffffffffffffffffff1673ffffffffffffffffffffffffffffffffffffffff1681526020019081526020016000206000018054806020026020016040519081016040528092919081815260200182805480156125f657602002820191906000526020600020905b8154815260200190600101908083116125e2575b50505050509050919050565b6000601160009054906101000a900473ffffffffffffffffffffffffffffffffffffffff16905090565b60003390508273ffffffffffffffffffffffffffffffffffffffff166323b872dd8230856040518463ffffffff1660e01b815260040161266e93929190615804565b6020604051808303816000875af115801561268d573d6000803e3d6000fd5b505050506040513d601f19601f820116820180604052508101906126b19190615777565b6126ba57600080fd5b816000808573ffffffffffffffffffffffffffffffffffffffff1673ffffffffffffffffffffffffffffffffffffffff16815260200190815260200160002060008373ffffffffffffffffffffffffffffffffffffffff1673ffffffffffffffffffffffffffffffffffffffff168152602001908152602001600020600082825461274591906156c1565b92505081905550505050565b6000601660008373ffffffffffffffffffffffffffffffffffffffff1673ffffffffffffffffffffffffffffffffffffffff168152602001908152602001600020549050919050565b6127a2614761565b73ffffffffffffffffffffffffffffffffffffffff166127c0612602565b73ffffffffffffffffffffffffffffffffffffffff1614612816576040517f08c379a000000000000000000000000000000000000000000000000000000000815260040161280d90615966565b60405180910390fd5b80601b60006101000a81548173ffffffffffffffffffffffffffffffffffffffff021916908373ffffffffffffffffffffffffffffffffffffffff16021790555050565b600081519050601a548161286e919061560f565b600080601b60009054906101000a900473ffffffffffffffffffffffffffffffffffffffff1673ffffffffffffffffffffffffffffffffffffffff1673ffffffffffffffffffffffffffffffffffffffff16815260200190815260200160002060003373ffffffffffffffffffffffffffffffffffffffff1673ffffffffffffffffffffffffffffffffffffffff16815260200190815260200160002054101561294d576040517f08c379a0000000000000000000000000000000000000000000000000000000008152600401612944906159d2565b60405180910390fd5b60005b60018261295d9190615717565b81101561299f57600e5483828151811061297a57612979615692565b5b60200260200101511161298c57600080fd5b80806129979061583b565b915050612950565b506000601660003373ffffffffffffffffffffffffffffffffffffffff1673ffffffffffffffffffffffffffffffffffffffff168152602001908152602001600020541480156129f2575060c8601d5410155b15612a00576129ff6141d9565b5b6000601560003373ffffffffffffffffffffffffffffffffffffffff1673ffffffffffffffffffffffffffffffffffffffff168152602001908152602001600020905060005b600183612a539190615717565b811015612cbd57612a7e33858381518110612a7157612a70615692565b5b6020026020010151614035565b612caa57601a54600080601b60009054906101000a900473ffffffffffffffffffffffffffffffffffffffff1673ffffffffffffffffffffffffffffffffffffffff1673ffffffffffffffffffffffffffffffffffffffff16815260200190815260200160002060003373ffffffffffffffffffffffffffffffffffffffff1673ffffffffffffffffffffffffffffffffffffffff1681526020019081526020016000206000828254612b319190615717565b9250508190555060126000858381518110612b4f57612b4e615692565b5b60200260200101518152602001908152602001600020600101339080600181540180825580915050600190039060005260206000200160009091909190916101000a81548173ffffffffffffffffffffffffffffffffffffffff021916908373ffffffffffffffffffffffffffffffffffffffff16021790555060126000858381518110612be057612bdf615692565b5b602002602001015181526020019081526020016000206002016000815480929190612c0a9061583b565b9190505550601660003373ffffffffffffffffffffffffffffffffffffffff1673ffffffffffffffffffffffffffffffffffffffff1681526020019081526020016000206000815480929190612c5f9061583b565b919050555081600001848281518110612c7b57612c7a615692565b5b602002602001015190806001815401808255809150506001900390600052602060002001600090919091909150555b8080612cb59061583b565b915050612a46565b50505050565b6000808214612d08578142604051602001612cde9190615a13565b6040516020818303038152906040528051906020012060001c612d019190615a2e565b9050612d0d565b600090505b919050565b60008082604051602001612d269190615474565b6040516020818303038152906040528051906020012090506018600082815260200190815260200160002060009054906101000a900473ffffffffffffffffffffffffffffffffffffffff16915050919050565b612d82614891565b601260008381526020019081526020016000206040518060600160405290816000820160009054906101000a900473ffffffffffffffffffffffffffffffffffffffff1673ffffffffffffffffffffffffffffffffffffffff1673ffffffffffffffffffffffffffffffffffffffff16815260200160018201805480602002602001604051908101604052809291908181526020018280548015612e7b57602002820191906000526020600020905b8160009054906101000a900473ffffffffffffffffffffffffffffffffffffffff1673ffffffffffffffffffffffffffffffffffffffff1681526020019060010190808311612e31575b505050505081526020016002820154815250509050919050565b612e9d614761565b73ffffffffffffffffffffffffffffffffffffffff16612ebb612602565b73ffffffffffffffffffffffffffffffffffffffff1614612f11576040517f08c379a0000000000000000000000000000000000000000000000000000000008152600401612f0890615966565b60405180910390fd5b80600f60006101000a81548173ffffffffffffffffffffffffffffffffffffffff021916908373ffffffffffffffffffffffffffffffffffffffff16021790555050565b60008060008473ffffffffffffffffffffffffffffffffffffffff1673ffffffffffffffffffffffffffffffffffffffff16815260200190815260200160002060008373ffffffffffffffffffffffffffffffffffffffff1673ffffffffffffffffffffffffffffffffffffffff16815260200190815260200160002054905092915050565b6000339050826000808673ffffffffffffffffffffffffffffffffffffffff1673ffffffffffffffffffffffffffffffffffffffff16815260200190815260200160002060008373ffffffffffffffffffffffffffffffffffffffff1673ffffffffffffffffffffffffffffffffffffffff16815260200190815260200160002054101580156130aa5750600a600160008373ffffffffffffffffffffffffffffffffffffffff1673ffffffffffffffffffffffffffffffffffffffff16815260200190815260200160002054105b80156130b857506103e88211155b80156130c45750600182115b6130cd57600080fd5b826000808673ffffffffffffffffffffffffffffffffffffffff1673ffffffffffffffffffffffffffffffffffffffff16815260200190815260200160002060008373ffffffffffffffffffffffffffffffffffffffff1673ffffffffffffffffffffffffffffffffffffffff16815260200190815260200160002060008282546131589190615717565b92505081905550600160008273ffffffffffffffffffffffffffffffffffffffff1673ffffffffffffffffffffffffffffffffffffffff16815260200190815260200160002060008154809291906131af9061583b565b91905055506000600260008373ffffffffffffffffffffffffffffffffffffffff1673ffffffffffffffffffffffffffffffffffffffff168152602001908152602001600020600081546132029061583b565b91905081905590505b6001156132f8576000600360008473ffffffffffffffffffffffffffffffffffffffff1673ffffffffffffffffffffffffffffffffffffffff1681526020019081526020016000206000838152602001908152602001600020600501541461328f5780806132789061583b565b915050600a816132889190615a2e565b90506132f3565b600360008373ffffffffffffffffffffffffffffffffffffffff1673ffffffffffffffffffffffffffffffffffffffff168152602001908152602001600020600082815260200190815260200160002060020160006132ee91906148c8565b6132f8565b61320b565b6000600360008473ffffffffffffffffffffffffffffffffffffffff1673ffffffffffffffffffffffffffffffffffffffff1681526020019081526020016000206000838152602001908152602001600020905080600201839080600181540180825580915050600190039060005260206000200160009091909190916101000a81548173ffffffffffffffffffffffffffffffffffffffff021916908373ffffffffffffffffffffffffffffffffffffffff160217905550848160030181905550838160040181905550858160000160006101000a81548173ffffffffffffffffffffffffffffffffffffffff021916908373ffffffffffffffffffffffffffffffffffffffff1602179055506001816005018190555060008160010160006101000a81548173ffffffffffffffffffffffffffffffffffffffff021916908373ffffffffffffffffffffffffffffffffffffffff16021790555083853373ffffffffffffffffffffffffffffffffffffffff167f6f1b31f27769fa94b13e0dd993d4dd2155660e9fa13d6bb178841fdd812853d28560405161349c9190614c0c565b60405180910390a4505050505050565b600080600360008573ffffffffffffffffffffffffffffffffffffffff1673ffffffffffffffffffffffffffffffffffffffff168152602001908152602001600020600084815260200190815260200160002060020180548060200260200160405190810160405280929190818152602001828054801561358257602002820191906000526020600020905b8160009054906101000a900473ffffffffffffffffffffffffffffffffffffffff1673ffffffffffffffffffffffffffffffffffffffff1681526020019060010190808311613538575b505050505090506000600360008673ffffffffffffffffffffffffffffffffffffffff1673ffffffffffffffffffffffffffffffffffffffff1681526020019081526020016000206000858152602001908152602001600020600501549050600086905060005b8281101561365f578173ffffffffffffffffffffffffffffffffffffffff1684828151811061361b5761361a615692565b5b602002602001015173ffffffffffffffffffffffffffffffffffffffff16141561364c576001945050505050613668565b80806136579061583b565b9150506135e9565b50600093505050505b9392505050565b60006013600083815260200190815260200160002060009054906101000a900473ffffffffffffffffffffffffffffffffffffffff169050919050565b6000601d54905090565b6136be614761565b73ffffffffffffffffffffffffffffffffffffffff166136dc612602565b73ffffffffffffffffffffffffffffffffffffffff1614613732576040517f08c379a000000000000000000000000000000000000000000000000000000000815260040161372990615966565b60405180910390fd5b600073ffffffffffffffffffffffffffffffffffffffff168173ffffffffffffffffffffffffffffffffffffffff1614156137a2576040517f08c379a000000000000000000000000000000000000000000000000000000000815260040161379990615ad1565b60405180910390fd5b6137ab81614769565b50565b6137b6614761565b73ffffffffffffffffffffffffffffffffffffffff166137d4612602565b73ffffffffffffffffffffffffffffffffffffffff161461382a576040517f08c379a000000000000000000000000000000000000000000000000000000000815260040161382190615966565b60405180910390fd5b80601a8190555050565b61383c6148e9565b601460008373ffffffffffffffffffffffffffffffffffffffff1673ffffffffffffffffffffffffffffffffffffffff168152602001908152602001600020604051806040016040529081600082018054806020026020016040519081016040528092919081815260200182805480156138d557602002820191906000526020600020905b8154815260200190600101908083116138c1575b505050505081526020016001820160009054906101000a900460ff1660ff1660ff16815250509050919050565b60006032905060006013600083600e5461391c9190615717565b815260200190815260200160002060009054906101000a900473ffffffffffffffffffffffffffffffffffffffff1690506000601460008373ffffffffffffffffffffffffffffffffffffffff1673ffffffffffffffffffffffffffffffffffffffff168152602001908152602001600020600001905060008180549050905060005b81811015613acb5784600e546139b59190615717565b8382815481106139c8576139c7615692565b5b90600052602060002001541415613ab8576001821415613a0e57828054806139f3576139f2615af1565b5b60019003818190600052602060002001600090559055613ab3565b60008190505b60018480549050613a259190615717565b811015613a8a5783600182613a3a91906156c1565b81548110613a4b57613a4a615692565b5b9060005260206000200154848281548110613a6957613a68615692565b5b90600052602060002001819055508080613a829061583b565b915050613a14565b5082805480613a9c57613a9b615af1565b5b600190038181906000526020600020016000905590555b613acb565b8080613ac39061583b565b91505061399f565b50613ad4612602565b6013600086600e54613ae69190615717565b815260200190815260200160002060006101000a81548173ffffffffffffffffffffffffffffffffffffffff021916908373ffffffffffffffffffffffffffffffffffffffff16021790555060146000613b3e612602565b73ffffffffffffffffffffffffffffffffffffffff1673ffffffffffffffffffffffffffffffffffffffff16815260200190815260200160002060000184600e54613b899190615717565b908060018154018082558091505060019003906000526020600020016000909190919091505550505050565b6000601060009054906101000a900473ffffffffffffffffffffffffffffffffffffffff1673ffffffffffffffffffffffffffffffffffffffff16638951764a6040518163ffffffff1660e01b8152600401600060405180830381865afa158015613c24573d6000803e3d6000fd5b505050506040513d6000823e3d601f19601f82011682018060405250810190613c4d9190615bcc565b90506000815190506000811115613de8576000670de0b6b3a764000082600554613c7791906157d3565b613c81919061560f565b905060005b82811015613de557600f60009054906101000a900473ffffffffffffffffffffffffffffffffffffffff1673ffffffffffffffffffffffffffffffffffffffff1663e16acb83601060009054906101000a900473ffffffffffffffffffffffffffffffffffffffff1673ffffffffffffffffffffffffffffffffffffffff16636352211e878581518110613d1d57613d1c615692565b5b60200260200101516040518263ffffffff1660e01b8152600401613d419190614c0c565b602060405180830381865afa158015613d5e573d6000803e3d6000fd5b505050506040513d601f19601f82011682018060405250810190613d829190615c2a565b846040518363ffffffff1660e01b8152600401613da0929190615669565b600060405180830381600087803b158015613dba57600080fd5b505af1158015613dce573d6000803e3d6000fd5b505050508080613ddd9061583b565b915050613c86565b50505b5050565b6000601060009054906101000a900473ffffffffffffffffffffffffffffffffffffffff1673ffffffffffffffffffffffffffffffffffffffff166379b354116040518163ffffffff1660e01b8152600401600060405180830381865afa158015613e5b573d6000803e3d6000fd5b505050506040513d6000823e3d601f19601f82011682018060405250810190613e849190615d1a565b90506000815190506000811115613f84576000670de0b6b3a764000082600654613eae91906157d3565b613eb8919061560f565b905060005b82811015613f8157600f60009054906101000a900473ffffffffffffffffffffffffffffffffffffffff1673ffffffffffffffffffffffffffffffffffffffff1663e16acb83858381518110613f1657613f15615692565b5b6020026020010151846040518363ffffffff1660e01b8152600401613f3c929190615669565b600060405180830381600087803b158015613f5657600080fd5b505af1158015613f6a573d6000803e3d6000fd5b505050508080613f799061583b565b915050613ebd565b50505b5050565b600f60009054906101000a900473ffffffffffffffffffffffffffffffffffffffff1673ffffffffffffffffffffffffffffffffffffffff1663e16acb83613fce612602565b670de0b6b3a7640000600754613fe4919061560f565b6040518363ffffffff1660e01b8152600401614001929190615669565b600060405180830381600087803b15801561401b57600080fd5b505af115801561402f573d6000803e3d6000fd5b50505050565b600080601260008481526020019081526020016000206040518060600160405290816000820160009054906101000a900473ffffffffffffffffffffffffffffffffffffffff1673ffffffffffffffffffffffffffffffffffffffff1673ffffffffffffffffffffffffffffffffffffffff1681526020016001820180548060200260200160405190810160405280929190818152602001828054801561413157602002820191906000526020600020905b8160009054906101000a900473ffffffffffffffffffffffffffffffffffffffff1673ffffffffffffffffffffffffffffffffffffffff16815260200190600101908083116140e7575b50505050508152602001600282015481525050905060008160400151905060005b818110156141cb578573ffffffffffffffffffffffffffffffffffffffff168360200151828151811061418857614187615692565b5b602002602001015173ffffffffffffffffffffffffffffffffffffffff1614156141b857600193505050506141d3565b80806141c39061583b565b915050614152565b506000925050505b92915050565b6000601760003373ffffffffffffffffffffffffffffffffffffffff1673ffffffffffffffffffffffffffffffffffffffff168152602001908152602001600020600101549050806000801b1461432c5760006018600083815260200190815260200160002060009054906101000a900473ffffffffffffffffffffffffffffffffffffffff16905060c8601d60008282546142759190615717565b925050819055506064601960003373ffffffffffffffffffffffffffffffffffffffff1673ffffffffffffffffffffffffffffffffffffffff16815260200190815260200160002060008282546142cc91906156c1565b925050819055506064601960008373ffffffffffffffffffffffffffffffffffffffff1673ffffffffffffffffffffffffffffffffffffffff168152602001908152602001600020600082825461432391906156c1565b92505081905550505b50565b60008061433f8360800151612cc3565b905082608001518360600151614355919061560f565b600080856000015173ffffffffffffffffffffffffffffffffffffffff1673ffffffffffffffffffffffffffffffffffffffff1681526020019081526020016000206000856040015184815181106143b0576143af615692565b5b602002602001015173ffffffffffffffffffffffffffffffffffffffff1673ffffffffffffffffffffffffffffffffffffffff168152602001908152602001600020600082825461440191906156c1565b925050819055506000836040015151905061041b600e54101580156144775750600f60009054906101000a900473ffffffffffffffffffffffffffffffffffffffff1673ffffffffffffffffffffffffffffffffffffffff16846000015173ffffffffffffffffffffffffffffffffffffffff16145b80156144915750600a8161448b919061560f565b600d5410155b80156144a95750678ac7230489e80000846060015110155b156147395760005b8181101561471257600f60009054906101000a900473ffffffffffffffffffffffffffffffffffffffff1673ffffffffffffffffffffffffffffffffffffffff1663e16acb838660400151838151811061450e5761450d615692565b5b6020026020010151678ac7230489e800006040518363ffffffff1660e01b815260040161453c929190615d9e565b600060405180830381600087803b15801561455657600080fd5b505af115801561456a573d6000803e3d6000fd5b50505050600f60009054906101000a900473ffffffffffffffffffffffffffffffffffffffff1673ffffffffffffffffffffffffffffffffffffffff16634538dc25866040015183815181106145c3576145c2615692565b5b602002602001015130678ac7230489e800006040518463ffffffff1660e01b81526004016145f393929190615dc7565b600060405180830381600087803b15801561460d57600080fd5b505af1158015614621573d6000803e3d6000fd5b50505050678ac7230489e80000600080600f60009054906101000a900473ffffffffffffffffffffffffffffffffffffffff1673ffffffffffffffffffffffffffffffffffffffff1673ffffffffffffffffffffffffffffffffffffffff1681526020019081526020016000206000876040015184815181106146a7576146a6615692565b5b602002602001015173ffffffffffffffffffffffffffffffffffffffff1673ffffffffffffffffffffffffffffffffffffffff16815260200190815260200160002060008282546146f891906156c1565b92505081905550808061470a9061583b565b9150506144b1565b50600a81614720919061560f565b600d60008282546147319190615717565b925050819055505b836040015182815181106147505761474f615692565b5b602002602001015192505050919050565b600033905090565b6000601160009054906101000a900473ffffffffffffffffffffffffffffffffffffffff16905081601160006101000a81548173ffffffffffffffffffffffffffffffffffffffff021916908373ffffffffffffffffffffffffffffffffffffffff1602179055508173ffffffffffffffffffffffffffffffffffffffff168173ffffffffffffffffffffffffffffffffffffffff167f8be0079c531659141344cd1fd0a4f28419497f9722a3daafe3b4186f6b6457e060405160405180910390a35050565b6040518060c00160405280600073ffffffffffffffffffffffffffffffffffffffff168152602001600073ffffffffffffffffffffffffffffffffffffffff168152602001606081526020016000815260200160008152602001600081525090565b6040518060600160405280600073ffffffffffffffffffffffffffffffffffffffff16815260200160608152602001600081525090565b50805460008255906000526020600020908101906148e69190614906565b50565b604051806040016040528060608152602001600060ff1681525090565b5b8082111561491f576000816000905550600101614907565b5090565b6000604051905090565b600080fd5b600080fd5b600073ffffffffffffffffffffffffffffffffffffffff82169050919050565b600061496282614937565b9050919050565b61497281614957565b811461497d57600080fd5b50565b60008135905061498f81614969565b92915050565b6000819050919050565b6149a881614995565b81146149b357600080fd5b50565b6000813590506149c58161499f565b92915050565b600080604083850312156149e2576149e161492d565b5b60006149f085828601614980565b9250506020614a01858286016149b6565b9150509250929050565b60008115159050919050565b614a2081614a0b565b82525050565b6000602082019050614a3b6000830184614a17565b92915050565b600080fd5b600080fd5b6000601f19601f8301169050919050565b7f4e487b7100000000000000000000000000000000000000000000000000000000600052604160045260246000fd5b614a9482614a4b565b810181811067ffffffffffffffff82111715614ab357614ab2614a5c565b5b80604052505050565b6000614ac6614923565b9050614ad28282614a8b565b919050565b600067ffffffffffffffff821115614af257614af1614a5c565b5b614afb82614a4b565b9050602081019050919050565b82818337600083830152505050565b6000614b2a614b2584614ad7565b614abc565b905082815260208101848484011115614b4657614b45614a46565b5b614b51848285614b08565b509392505050565b600082601f830112614b6e57614b6d614a41565b5b8135614b7e848260208601614b17565b91505092915050565b600060208284031215614b9d57614b9c61492d565b5b600082013567ffffffffffffffff811115614bbb57614bba614932565b5b614bc784828501614b59565b91505092915050565b600060208284031215614be657614be561492d565b5b6000614bf484828501614980565b91505092915050565b614c0681614995565b82525050565b6000602082019050614c216000830184614bfd565b92915050565b6000614c3282614957565b9050919050565b614c4281614c27565b8114614c4d57600080fd5b50565b600081359050614c5f81614c39565b92915050565b600060208284031215614c7b57614c7a61492d565b5b6000614c8984828501614c50565b91505092915050565b614c9b81614957565b82525050565b6000602082019050614cb66000830184614c92565b92915050565b6000614cc782614957565b9050919050565b614cd781614cbc565b8114614ce257600080fd5b50565b600081359050614cf481614cce565b92915050565b60008060408385031215614d1157614d1061492d565b5b6000614d1f85828601614ce5565b9250506020614d30858286016149b6565b9150509250929050565b6000819050919050565b6000614d5f614d5a614d5584614937565b614d3a565b614937565b9050919050565b6000614d7182614d44565b9050919050565b6000614d8382614d66565b9050919050565b614d9381614d78565b82525050565b614da281614957565b82525050565b600081519050919050565b600082825260208201905092915050565b6000819050602082019050919050565b6000614de08383614d99565b60208301905092915050565b6000602082019050919050565b6000614e0482614da8565b614e0e8185614db3565b9350614e1983614dc4565b8060005b83811015614e4a578151614e318882614dd4565b9750614e3c83614dec565b925050600181019050614e1d565b5085935050505092915050565b614e6081614995565b82525050565b600060c083016000830151614e7e6000860182614d8a565b506020830151614e916020860182614d99565b5060408301518482036040860152614ea98282614df9565b9150506060830151614ebe6060860182614e57565b506080830151614ed16080860182614e57565b5060a0830151614ee460a0860182614e57565b508091505092915050565b60006020820190508181036000830152614f098184614e66565b905092915050565b600081519050919050565b600082825260208201905092915050565b6000819050602082019050919050565b6000614f498383614e57565b60208301905092915050565b6000602082019050919050565b6000614f6d82614f11565b614f778185614f1c565b9350614f8283614f2d565b8060005b83811015614fb3578151614f9a8882614f3d565b9750614fa583614f55565b925050600181019050614f86565b5085935050505092915050565b60006020820190508181036000830152614fda8184614f62565b905092915050565b600060208284031215614ff857614ff761492d565b5b600061500684828501614ce5565b91505092915050565b600067ffffffffffffffff82111561502a57615029614a5c565b5b602082029050602081019050919050565b600080fd5b600061505361504e8461500f565b614abc565b905080838252602082019050602084028301858111156150765761507561503b565b5b835b8181101561509f578061508b88826149b6565b845260208401935050602081019050615078565b5050509392505050565b600082601f8301126150be576150bd614a41565b5b81356150ce848260208601615040565b91505092915050565b6000602082840312156150ed576150ec61492d565b5b600082013567ffffffffffffffff81111561510b5761510a614932565b5b615117848285016150a9565b91505092915050565b6000602082840312156151365761513561492d565b5b6000615144848285016149b6565b91505092915050565b60006060830160008301516151656000860182614d99565b506020830151848203602086015261517d8282614df9565b91505060408301516151926040860182614e57565b508091505092915050565b600060208201905081810360008301526151b7818461514d565b905092915050565b60006151ca82614957565b9050919050565b6151da816151bf565b81146151e557600080fd5b50565b6000813590506151f7816151d1565b92915050565b6000602082840312156152135761521261492d565b5b6000615221848285016151e8565b91505092915050565b600080604083850312156152415761524061492d565b5b600061524f85828601614ce5565b925050602061526085828601614980565b9150509250929050565b6000806000606084860312156152835761528261492d565b5b600061529186828701614ce5565b93505060206152a2868287016149b6565b92505060406152b3868287016149b6565b9150509250925092565b6000806000606084860312156152d6576152d561492d565b5b60006152e486828701614980565b93505060206152f586828701614980565b9250506040615306868287016149b6565b9150509250925092565b600082825260208201905092915050565b600061532c82614f11565b6153368185615310565b935061534183614f2d565b8060005b838110156153725781516153598882614f3d565b975061536483614f55565b925050600181019050615345565b5085935050505092915050565b600060ff82169050919050565b6153958161537f565b82525050565b600060408301600083015184820360008601526153b88282615321565b91505060208301516153cd602086018261538c565b508091505092915050565b600060208201905081810360008301526153f2818461539b565b905092915050565b600081519050919050565b600081905092915050565b60005b8381101561542e578082015181840152602081019050615413565b8381111561543d576000848401525b50505050565b600061544e826153fa565b6154588185615405565b9350615468818560208601615410565b80840191505092915050565b60006154808284615443565b915081905092915050565b600082825260208201905092915050565b7f74766f7900000000000000000000000000000000000000000000000000000000600082015250565b60006154d260048361548b565b91506154dd8261549c565b602082019050919050565b60006020820190508181036000830152615501816154c5565b9050919050565b7f796a650000000000000000000000000000000000000000000000000000000000600082015250565b600061553e60038361548b565b915061554982615508565b602082019050919050565b6000602082019050818103600083015261556d81615531565b9050919050565b7f6e65206368656900000000000000000000000000000000000000000000000000600082015250565b60006155aa60078361548b565b91506155b582615574565b602082019050919050565b600060208201905081810360008301526155d98161559d565b9050919050565b7f4e487b7100000000000000000000000000000000000000000000000000000000600052601160045260246000fd5b600061561a82614995565b915061562583614995565b9250817fffffffffffffffffffffffffffffffffffffffffffffffffffffffffffffffff048311821515161561565e5761565d6155e0565b5b828202905092915050565b600060408201905061567e6000830185614c92565b61568b6020830184614bfd565b9392505050565b7f4e487b7100000000000000000000000000000000000000000000000000000000600052603260045260246000fd5b60006156cc82614995565b91506156d783614995565b9250827fffffffffffffffffffffffffffffffffffffffffffffffffffffffffffffffff0382111561570c5761570b6155e0565b5b828201905092915050565b600061572282614995565b915061572d83614995565b9250828210156157405761573f6155e0565b5b828203905092915050565b61575481614a0b565b811461575f57600080fd5b50565b6000815190506157718161574b565b92915050565b60006020828403121561578d5761578c61492d565b5b600061579b84828501615762565b91505092915050565b7f4e487b7100000000000000000000000000000000000000000000000000000000600052601260045260246000fd5b60006157de82614995565b91506157e983614995565b9250826157f9576157f86157a4565b5b828204905092915050565b60006060820190506158196000830186614c92565b6158266020830185614c92565b6158336040830184614bfd565b949350505050565b600061584682614995565b91507fffffffffffffffffffffffffffffffffffffffffffffffffffffffffffffffff821415615879576158786155e0565b5b600182019050919050565b7f6e6f20616c6c6f77000000000000000000000000000000000000000000000000600082015250565b60006158ba60088361548b565b91506158c582615884565b602082019050919050565b600060208201905081810360008301526158e9816158ad565b9050919050565b60006158fb82614995565b9150600082141561590f5761590e6155e0565b5b600182039050919050565b7f4f776e61626c653a2063616c6c6572206973206e6f7420746865206f776e6572600082015250565b600061595060208361548b565b915061595b8261591a565b602082019050919050565b6000602082019050818103600083015261597f81615943565b9050919050565b7f6e6f7420656e6f75677468206d6f6e6579000000000000000000000000000000600082015250565b60006159bc60118361548b565b91506159c782615986565b602082019050919050565b600060208201905081810360008301526159eb816159af565b9050919050565b6000819050919050565b615a0d615a0882614995565b6159f2565b82525050565b6000615a1f82846159fc565b60208201915081905092915050565b6000615a3982614995565b9150615a4483614995565b925082615a5457615a536157a4565b5b828206905092915050565b7f4f776e61626c653a206e6577206f776e657220697320746865207a65726f206160008201527f6464726573730000000000000000000000000000000000000000000000000000602082015250565b6000615abb60268361548b565b9150615ac682615a5f565b604082019050919050565b60006020820190508181036000830152615aea81615aae565b9050919050565b7f4e487b7100000000000000000000000000000000000000000000000000000000600052603160045260246000fd5b600081519050615b2f8161499f565b92915050565b6000615b48615b438461500f565b614abc565b90508083825260208201905060208402830185811115615b6b57615b6a61503b565b5b835b81811015615b945780615b808882615b20565b845260208401935050602081019050615b6d565b5050509392505050565b600082601f830112615bb357615bb2614a41565b5b8151615bc3848260208601615b35565b91505092915050565b600060208284031215615be257615be161492d565b5b600082015167ffffffffffffffff811115615c0057615bff614932565b5b615c0c84828501615b9e565b91505092915050565b600081519050615c2481614969565b92915050565b600060208284031215615c4057615c3f61492d565b5b6000615c4e84828501615c15565b91505092915050565b600067ffffffffffffffff821115615c7257615c71614a5c565b5b602082029050602081019050919050565b6000615c96615c9184615c57565b614abc565b90508083825260208201905060208402830185811115615cb957615cb861503b565b5b835b81811015615ce25780615cce8882615c15565b845260208401935050602081019050615cbb565b5050509392505050565b600082601f830112615d0157615d00614a41565b5b8151615d11848260208601615c83565b91505092915050565b600060208284031215615d3057615d2f61492d565b5b600082015167ffffffffffffffff811115615d4e57615d4d614932565b5b615d5a84828501615cec565b91505092915050565b6000819050919050565b6000615d88615d83615d7e84615d63565b614d3a565b614995565b9050919050565b615d9881615d6d565b82525050565b6000604082019050615db36000830185614c92565b615dc06020830184615d8f565b9392505050565b6000606082019050615ddc6000830186614c92565b615de96020830185614c92565b615df66040830184615d8f565b94935050505056fea2646970667358221220ec8704dd80baf9a0360a973ae96013bee9271af120ad8741b93f39ff531e8cec64736f6c634300080b0033",
  "linkReferences": {},
  "deployedLinkReferences": {}
}