{
  "_format": "hh-sol-artifact-1",
  "contractName": "Lottery",
  "sourceName": "contracts/Lottery.sol",
  "abi": [
    {
      "inputs": [
        {
          "internalType": "contract IERC20",
          "name": "_tokenForLottery",
          "type": "address"
        },
        {
          "internalType": "uint256",
          "name": "_deposit",
          "type": "uint256"
        }
      ],
      "stateMutability": "nonpayable",
      "type": "constructor"
    },
    {
      "anonymous": false,
      "inputs": [
        {
          "indexed": true,
          "internalType": "address",
          "name": "previousOwner",
          "type": "address"
        },
        {
          "indexed": true,
          "internalType": "address",
          "name": "newOwner",
          "type": "address"
        }
      ],
      "name": "OwnershipTransferred",
      "type": "event"
    },
    {
      "anonymous": false,
      "inputs": [
        {
          "indexed": false,
          "internalType": "address",
          "name": "user",
          "type": "address"
        }
      ],
      "name": "enter",
      "type": "event"
    },
    {
      "anonymous": false,
      "inputs": [
        {
          "indexed": false,
          "internalType": "address",
          "name": "creator",
          "type": "address"
        },
        {
          "indexed": false,
          "internalType": "uint256",
          "name": "LobbyId",
          "type": "uint256"
        },
        {
          "indexed": false,
          "internalType": "address",
          "name": "user",
          "type": "address"
        },
        {
          "indexed": false,
          "internalType": "address[]",
          "name": "players",
          "type": "address[]"
        },
        {
          "indexed": false,
          "internalType": "uint256",
          "name": "deposit",
          "type": "uint256"
        },
        {
          "indexed": false,
          "internalType": "uint256",
          "name": "countOfPlayers",
          "type": "uint256"
        },
        {
          "indexed": false,
          "internalType": "contract IERC20",
          "name": "token",
          "type": "address"
        }
      ],
      "name": "enterLobby",
      "type": "event"
    },
    {
      "anonymous": false,
      "inputs": [
        {
          "indexed": true,
          "internalType": "address",
          "name": "creator",
          "type": "address"
        },
        {
          "indexed": true,
          "internalType": "uint256",
          "name": "deposit",
          "type": "uint256"
        },
        {
          "indexed": true,
          "internalType": "uint256",
          "name": "countOfPlayers",
          "type": "uint256"
        },
        {
          "indexed": false,
          "internalType": "uint256",
          "name": "LobbyId",
          "type": "uint256"
        }
      ],
      "name": "newLobby",
      "type": "event"
    },
    {
      "anonymous": false,
      "inputs": [
        {
          "indexed": false,
          "internalType": "address",
          "name": "winer",
          "type": "address"
        }
      ],
      "name": "play",
      "type": "event"
    },
    {
      "anonymous": false,
      "inputs": [
        {
          "indexed": false,
          "internalType": "address",
          "name": "creator",
          "type": "address"
        },
        {
          "indexed": false,
          "internalType": "uint256",
          "name": "LobbyId",
          "type": "uint256"
        },
        {
          "indexed": false,
          "internalType": "address[]",
          "name": "players",
          "type": "address[]"
        },
        {
          "indexed": false,
          "internalType": "uint256",
          "name": "deposit",
          "type": "uint256"
        },
        {
          "indexed": false,
          "internalType": "uint256",
          "name": "countOfPlayers",
          "type": "uint256"
        },
        {
          "indexed": false,
          "internalType": "contract IERC20",
          "name": "token",
          "type": "address"
        },
        {
          "indexed": false,
          "internalType": "address",
          "name": "winer",
          "type": "address"
        }
      ],
      "name": "playLobby",
      "type": "event"
    },
    {
      "inputs": [],
      "name": "Enter",
      "outputs": [],
      "stateMutability": "nonpayable",
      "type": "function"
    },
    {
      "inputs": [
        {
          "internalType": "address",
          "name": "lobbyCreator",
          "type": "address"
        },
        {
          "internalType": "uint256",
          "name": "lobbyId",
          "type": "uint256"
        }
      ],
      "name": "EnterLobby",
      "outputs": [],
      "stateMutability": "nonpayable",
      "type": "function"
    },
    {
      "inputs": [],
      "name": "Play",
      "outputs": [],
      "stateMutability": "nonpayable",
      "type": "function"
    },
    {
      "inputs": [],
      "name": "REF",
      "outputs": [],
      "stateMutability": "nonpayable",
      "type": "function"
    },
    {
      "inputs": [
        {
          "internalType": "contract IERC20",
          "name": "tokenAddress",
          "type": "address"
        },
        {
          "internalType": "uint256",
          "name": "value",
          "type": "uint256"
        }
      ],
      "name": "Withdrow",
      "outputs": [],
      "stateMutability": "nonpayable",
      "type": "function"
    },
    {
      "inputs": [
        {
          "internalType": "address",
          "name": "addres",
          "type": "address"
        }
      ],
      "name": "_allowToNFT",
      "outputs": [
        {
          "components": [
            {
              "internalType": "uint256[]",
              "name": "lotteryes",
              "type": "uint256[]"
            },
            {
              "internalType": "uint8",
              "name": "dont_use",
              "type": "uint8"
            }
          ],
          "internalType": "struct Lottery.wins",
          "name": "",
          "type": "tuple"
        }
      ],
      "stateMutability": "view",
      "type": "function"
    },
    {
      "inputs": [
        {
          "internalType": "address",
          "name": "a",
          "type": "address"
        },
        {
          "internalType": "uint256",
          "name": "TokenId",
          "type": "uint256"
        }
      ],
      "name": "_findAddressInfirst1000Winers",
      "outputs": [
        {
          "internalType": "bool",
          "name": "",
          "type": "bool"
        }
      ],
      "stateMutability": "view",
      "type": "function"
    },
    {
      "inputs": [
        {
          "internalType": "uint256[]",
          "name": "_lotteryes",
          "type": "uint256[]"
        }
      ],
      "name": "addToAutoEnter",
      "outputs": [],
      "stateMutability": "nonpayable",
      "type": "function"
    },
    {
      "inputs": [
        {
          "internalType": "contract IERC20",
          "name": "tokenAddress",
          "type": "address"
        },
        {
          "internalType": "uint256",
          "name": "deposit",
          "type": "uint256"
        }
      ],
      "name": "addTokensToBalance",
      "outputs": [],
      "stateMutability": "nonpayable",
      "type": "function"
    },
    {
      "inputs": [
        {
          "internalType": "uint256",
          "name": "TokenId",
          "type": "uint256"
        }
      ],
      "name": "allowToNFT",
      "outputs": [
        {
          "internalType": "address",
          "name": "",
          "type": "address"
        }
      ],
      "stateMutability": "view",
      "type": "function"
    },
    {
      "inputs": [
        {
          "internalType": "address",
          "name": "newAddress",
          "type": "address"
        },
        {
          "internalType": "uint256",
          "name": "TokenId",
          "type": "uint256"
        }
      ],
      "name": "changeAllowToMint",
      "outputs": [],
      "stateMutability": "nonpayable",
      "type": "function"
    },
    {
      "inputs": [
        {
          "internalType": "contract IERC20",
          "name": "tokenAddress",
          "type": "address"
        },
        {
          "internalType": "uint256",
          "name": "deposit",
          "type": "uint256"
        },
        {
          "internalType": "uint256",
          "name": "countOfPlayers",
          "type": "uint256"
        }
      ],
      "name": "createNewLobby",
      "outputs": [],
      "stateMutability": "nonpayable",
      "type": "function"
    },
    {
      "inputs": [
        {
          "internalType": "address",
          "name": "msgsender",
          "type": "address"
        },
        {
          "internalType": "address",
          "name": "lobbyCreator",
          "type": "address"
        },
        {
          "internalType": "uint256",
          "name": "lobbyId",
          "type": "uint256"
        }
      ],
      "name": "findPlayerInLobby",
      "outputs": [
        {
          "internalType": "bool",
          "name": "",
          "type": "bool"
        }
      ],
      "stateMutability": "view",
      "type": "function"
    },
    {
      "inputs": [],
      "name": "getAdrressNFT",
      "outputs": [
        {
          "internalType": "address",
          "name": "",
          "type": "address"
        }
      ],
      "stateMutability": "view",
      "type": "function"
    },
    {
      "inputs": [
        {
          "internalType": "address",
          "name": "a",
          "type": "address"
        }
      ],
      "name": "getAutoEnter",
      "outputs": [
        {
          "internalType": "uint256[]",
          "name": "",
          "type": "uint256[]"
        }
      ],
      "stateMutability": "view",
      "type": "function"
    },
    {
      "inputs": [
        {
          "internalType": "contract IERC20",
          "name": "tokenAddress",
          "type": "address"
        },
        {
          "internalType": "address",
          "name": "a",
          "type": "address"
        }
      ],
      "name": "getBalance",
      "outputs": [
        {
          "internalType": "uint256",
          "name": "",
          "type": "uint256"
        }
      ],
      "stateMutability": "view",
      "type": "function"
    },
    {
      "inputs": [],
      "name": "getHEEP",
      "outputs": [
        {
          "internalType": "uint256",
          "name": "",
          "type": "uint256"
        }
      ],
      "stateMutability": "view",
      "type": "function"
    },
    {
      "inputs": [
        {
          "internalType": "address",
          "name": "creator",
          "type": "address"
        },
        {
          "internalType": "uint256",
          "name": "lobbyid",
          "type": "uint256"
        }
      ],
      "name": "getLobby",
      "outputs": [
        {
          "components": [
            {
              "internalType": "contract IERC20",
              "name": "token",
              "type": "address"
            },
            {
              "internalType": "address",
              "name": "winer",
              "type": "address"
            },
            {
              "internalType": "address[]",
              "name": "players",
              "type": "address[]"
            },
            {
              "internalType": "uint256",
              "name": "deposit",
              "type": "uint256"
            },
            {
              "internalType": "uint256",
              "name": "countOfPlayers",
              "type": "uint256"
            },
            {
              "internalType": "uint256",
              "name": "nowInLobby",
              "type": "uint256"
            }
          ],
          "internalType": "struct Lobby.lobbyShablon",
          "name": "",
          "type": "tuple"
        }
      ],
      "stateMutability": "view",
      "type": "function"
    },
    {
      "inputs": [],
      "name": "getLotteryCount",
      "outputs": [
        {
          "internalType": "uint256",
          "name": "",
          "type": "uint256"
        }
      ],
      "stateMutability": "view",
      "type": "function"
    },
    {
      "inputs": [
        {
          "internalType": "uint256",
          "name": "lotteryId",
          "type": "uint256"
        }
      ],
      "name": "getLotteryShablonByIndex",
      "outputs": [
        {
          "components": [
            {
              "internalType": "address",
              "name": "winer",
              "type": "address"
            },
            {
              "internalType": "address[]",
              "name": "players",
              "type": "address[]"
            },
            {
              "internalType": "uint256",
              "name": "playersCount",
              "type": "uint256"
            }
          ],
          "internalType": "struct Lottery.LotteryShablon",
          "name": "",
          "type": "tuple"
        }
      ],
      "stateMutability": "view",
      "type": "function"
    },
    {
      "inputs": [
        {
          "internalType": "string",
          "name": "a",
          "type": "string"
        }
      ],
      "name": "getPromSetReverse",
      "outputs": [
        {
          "internalType": "address",
          "name": "",
          "type": "address"
        }
      ],
      "stateMutability": "view",
      "type": "function"
    },
    {
      "inputs": [],
      "name": "getREVARD_REF_ALLOW",
      "outputs": [
        {
          "internalType": "uint256",
          "name": "",
          "type": "uint256"
        }
      ],
      "stateMutability": "view",
      "type": "function"
    },
    {
      "inputs": [
        {
          "internalType": "uint256",
          "name": "_playersCount",
          "type": "uint256"
        }
      ],
      "name": "getRandNumber",
      "outputs": [
        {
          "internalType": "uint256",
          "name": "",
          "type": "uint256"
        }
      ],
      "stateMutability": "view",
      "type": "function"
    },
    {
      "inputs": [],
      "name": "getTokenForLottery",
      "outputs": [
        {
          "internalType": "address",
          "name": "",
          "type": "address"
        }
      ],
      "stateMutability": "view",
      "type": "function"
    },
    {
      "inputs": [
        {
          "internalType": "address",
          "name": "a",
          "type": "address"
        }
      ],
      "name": "getcountOfLotteryEnter",
      "outputs": [
        {
          "internalType": "uint256",
          "name": "",
          "type": "uint256"
        }
      ],
      "stateMutability": "view",
      "type": "function"
    },
    {
      "inputs": [
        {
          "internalType": "address",
          "name": "_address",
          "type": "address"
        }
      ],
      "name": "getlobbyCountForAddress",
      "outputs": [
        {
          "internalType": "uint256",
          "name": "",
          "type": "uint256"
        }
      ],
      "stateMutability": "view",
      "type": "function"
    },
    {
      "inputs": [
        {
          "internalType": "address",
          "name": "_address",
          "type": "address"
        }
      ],
      "name": "getlobbyCountForAddressHistory",
      "outputs": [
        {
          "internalType": "uint256",
          "name": "",
          "type": "uint256"
        }
      ],
      "stateMutability": "view",
      "type": "function"
    },
    {
      "inputs": [
        {
          "internalType": "address",
          "name": "a",
          "type": "address"
        }
      ],
      "name": "getshouldRevard",
      "outputs": [
        {
          "internalType": "uint256",
          "name": "",
          "type": "uint256"
        }
      ],
      "stateMutability": "view",
      "type": "function"
    },
    {
      "inputs": [],
      "name": "owner",
      "outputs": [
        {
          "internalType": "address",
          "name": "",
          "type": "address"
        }
      ],
      "stateMutability": "view",
      "type": "function"
    },
    {
      "inputs": [],
      "name": "renounceOwnership",
      "outputs": [],
      "stateMutability": "nonpayable",
      "type": "function"
    },
    {
      "inputs": [
        {
          "internalType": "contract ERC721with",
          "name": "token",
          "type": "address"
        }
      ],
      "name": "setAdrressNFT",
      "outputs": [],
      "stateMutability": "nonpayable",
      "type": "function"
    },
    {
      "inputs": [
        {
          "internalType": "address",
          "name": "a",
          "type": "address"
        }
      ],
      "name": "setAutotask",
      "outputs": [],
      "stateMutability": "nonpayable",
      "type": "function"
    },
    {
      "inputs": [
        {
          "internalType": "contract MUD",
          "name": "a",
          "type": "address"
        }
      ],
      "name": "setMUD",
      "outputs": [],
      "stateMutability": "nonpayable",
      "type": "function"
    },
    {
      "inputs": [
        {
          "internalType": "string",
          "name": "a",
          "type": "string"
        }
      ],
      "name": "setPromInput",
      "outputs": [],
      "stateMutability": "nonpayable",
      "type": "function"
    },
    {
      "inputs": [
        {
          "internalType": "string",
          "name": "a",
          "type": "string"
        }
      ],
      "name": "setPromSet",
      "outputs": [],
      "stateMutability": "nonpayable",
      "type": "function"
    },
    {
      "inputs": [
        {
          "internalType": "address",
          "name": "newOwner",
          "type": "address"
        }
      ],
      "name": "transferOwnership",
      "outputs": [],
      "stateMutability": "nonpayable",
      "type": "function"
    }
  ],
  "bytecode": "0x6080604052633b9aca00600455600860646004546200001f9190620002ec565b6200002b919062000324565b60055560136064600454620000419190620002ec565b6200004d919062000324565b600655600d6064600454620000639190620002ec565b6200006f919062000324565b600755601e6064600454620000859190620002ec565b62000091919062000324565b60085560096064600454620000a79190620002ec565b620000b3919062000324565b60095560156064600454620000c99190620002ec565b620000d5919062000324565b600a556103e8600954620000ea9190620002ec565b600b556103e8600854620000ff9190620002ec565b600c55600c54600d556001600e55600a54601d553480156200012057600080fd5b5060405162005dea38038062005dea833981810160405281019062000146919062000434565b620001666200015a620001b660201b60201c565b620001be60201b60201c565b81601660006101000a81548173ffffffffffffffffffffffffffffffffffffffff021916908373ffffffffffffffffffffffffffffffffffffffff1602179055508060158190555050506200047b565b600033905090565b6000601160009054906101000a900473ffffffffffffffffffffffffffffffffffffffff16905081601160006101000a81548173ffffffffffffffffffffffffffffffffffffffff021916908373ffffffffffffffffffffffffffffffffffffffff1602179055508173ffffffffffffffffffffffffffffffffffffffff168173ffffffffffffffffffffffffffffffffffffffff167f8be0079c531659141344cd1fd0a4f28419497f9722a3daafe3b4186f6b6457e060405160405180910390a35050565b6000819050919050565b7f4e487b7100000000000000000000000000000000000000000000000000000000600052601260045260246000fd5b7f4e487b7100000000000000000000000000000000000000000000000000000000600052601160045260246000fd5b6000620002f98262000284565b9150620003068362000284565b9250826200031957620003186200028e565b5b828204905092915050565b6000620003318262000284565b91506200033e8362000284565b9250817fffffffffffffffffffffffffffffffffffffffffffffffffffffffffffffffff04831182151516156200037a5762000379620002bd565b5b828202905092915050565b600080fd5b600073ffffffffffffffffffffffffffffffffffffffff82169050919050565b6000620003b7826200038a565b9050919050565b6000620003cb82620003aa565b9050919050565b620003dd81620003be565b8114620003e957600080fd5b50565b600081519050620003fd81620003d2565b92915050565b6200040e8162000284565b81146200041a57600080fd5b50565b6000815190506200042e8162000403565b92915050565b600080604083850312156200044e576200044d62000385565b5b60006200045e85828601620003ec565b925050602062000471858286016200041d565b9150509250929050565b61595f806200048b6000396000f3fe608060405234801561001057600080fd5b506004361061021c5760003560e01c8063715018a611610125578063cd8f98e8116100ad578063e8844e761161007c578063e8844e7614610623578063e9858a5814610653578063e9ed357614610683578063f2fde38b146106a1578063fb9c00c8146106bd5761021c565b8063cd8f98e81461058b578063cfd717da146105bb578063d4fac45d146105d7578063e1f97dd2146106075761021c565b8063a41c63e2116100f4578063a41c63e2146104c3578063a53aa0ac146104df578063aa78dda11461050f578063bd24435b1461052b578063c7766cc41461055b5761021c565b8063715018a61461044f57806371cf11271461045957806381e1e4b1146104755780638da5cb5b146104a55761021c565b80632f9aa1fe116101a85780635443a8fd116101775780635443a8fd1461039957806357b526fc146103b757806358a10e87146103e757806361a4c751146104035780636d12dce41461041f5761021c565b80632f9aa1fe146103235780634137fc641461034157806346254c3a1461035d57806347d9833d1461037b5761021c565b80631097e579116101ef5780631097e579146102815780631881cc031461028b5780631c64f010146102bb57806325876ddf146102eb57806329a4a281146103075761021c565b806304b675ae14610221578063053e3b4514610251578063066034fc1461026d5780630e2dce6914610277575b600080fd5b61023b60048036038101906102369190614547565b6106ed565b60405161024891906145a2565b60405180910390f35b61026b60048036038101906102669190614703565b61076a565b005b61027561091f565b005b61027f610a93565b005b610289611293565b005b6102a560048036038101906102a0919061474c565b61152d565b6040516102b29190614788565b60405180910390f35b6102d560048036038101906102d0919061474c565b611576565b6040516102e29190614788565b60405180910390f35b61030560048036038101906103009190614547565b6115bf565b005b610321600480360381019061031c91906147e1565b611bd0565b005b61032b611c1c565b6040516103389190614788565b60405180910390f35b61035b60048036038101906103569190614703565b611c26565b005b610365611dab565b604051610372919061481d565b60405180910390f35b610383611dd5565b6040516103909190614788565b60405180910390f35b6103a1611ddf565b6040516103ae919061481d565b60405180910390f35b6103d160048036038101906103cc919061474c565b611e09565b6040516103de9190614788565b60405180910390f35b61040160048036038101906103fc919061474c565b611e52565b005b61041d60048036038101906104189190614876565b611e9e565b005b61043960048036038101906104349190614547565b612043565b6040516104469190614a6b565b60405180910390f35b610457612206565b005b610473600480360381019061046e9190614547565b61221a565b005b61048f600480360381019061048a919061474c565b6122e3565b60405161049c9190614b3c565b60405180910390f35b6104ad61237d565b6040516104ba919061481d565b60405180910390f35b6104dd60048036038101906104d89190614876565b6123a7565b005b6104f960048036038101906104f4919061474c565b6124cc565b6040516105069190614788565b60405180910390f35b61052960048036038101906105249190614c26565b612515565b005b61054560048036038101906105409190614c6f565b612930565b6040516105529190614788565b60405180910390f35b61057560048036038101906105709190614703565b61297f565b604051610582919061481d565b60405180910390f35b6105a560048036038101906105a09190614c6f565b6129e7565b6040516105b29190614cec565b60405180910390f35b6105d560048036038101906105d09190614d4c565b612b02565b005b6105f160048036038101906105ec9190614d79565b612b4e565b6040516105fe9190614788565b60405180910390f35b610621600480360381019061061c9190614db9565b612bd4565b005b61063d60048036038101906106389190614e0c565b6130a5565b60405161064a91906145a2565b60405180910390f35b61066d60048036038101906106689190614c6f565b613268565b60405161067a919061481d565b60405180910390f35b61068b6132a5565b6040516106989190614788565b60405180910390f35b6106bb60048036038101906106b6919061474c565b6132af565b005b6106d760048036038101906106d2919061474c565b613333565b6040516106e49190614f27565b60405180910390f35b60008273ffffffffffffffffffffffffffffffffffffffff166013600084815260200190815260200160002060009054906101000a900473ffffffffffffffffffffffffffffffffffffffff1673ffffffffffffffffffffffffffffffffffffffff16141561075f5760019050610764565b600090505b92915050565b60008160405160200161077d9190614fc3565b6040516020818303038152906040528051906020012090503373ffffffffffffffffffffffffffffffffffffffff16601b600083815260200190815260200160002060009054906101000a900473ffffffffffffffffffffffffffffffffffffffff1673ffffffffffffffffffffffffffffffffffffffff16141561080157600080fd5b6000801b601a60003373ffffffffffffffffffffffffffffffffffffffff1673ffffffffffffffffffffffffffffffffffffffff168152602001908152602001600020600101541461085257600080fd5b600073ffffffffffffffffffffffffffffffffffffffff16601b600083815260200190815260200160002060009054906101000a900473ffffffffffffffffffffffffffffffffffffffff1673ffffffffffffffffffffffffffffffffffffffff1614156108bf57600080fd5b60006108ca336124cc565b146108d457600080fd5b80601a60003373ffffffffffffffffffffffffffffffffffffffff1673ffffffffffffffffffffffffffffffffffffffff168152602001908152602001600020600101819055505050565b6000601c60003373ffffffffffffffffffffffffffffffffffffffff1673ffffffffffffffffffffffffffffffffffffffff168152602001908152602001600020541161096b57600080fd5b600f60009054906101000a900473ffffffffffffffffffffffffffffffffffffffff1673ffffffffffffffffffffffffffffffffffffffff1663e16acb8333670de0b6b3a7640000601c60003373ffffffffffffffffffffffffffffffffffffffff1673ffffffffffffffffffffffffffffffffffffffff168152602001908152602001600020546109fd9190615009565b6040518363ffffffff1660e01b8152600401610a1a929190615063565b600060405180830381600087803b158015610a3457600080fd5b505af1158015610a48573d6000803e3d6000fd5b505050506000601c60003373ffffffffffffffffffffffffffffffffffffffff1673ffffffffffffffffffffffffffffffffffffffff16815260200190815260200160002081905550565b610a9b61237d565b73ffffffffffffffffffffffffffffffffffffffff163373ffffffffffffffffffffffffffffffffffffffff161480610b215750601760009054906101000a900473ffffffffffffffffffffffffffffffffffffffff1673ffffffffffffffffffffffffffffffffffffffff163373ffffffffffffffffffffffffffffffffffffffff16145b610b2a57600080fd5b60008060126000600e548152602001908152602001600020600201541415610b5b57610b5461237d565b9050610bd9565b6000610b7e60126000600e54815260200190815260200160002060020154612930565b905060126000600e5481526020019081526020016000206001018181548110610baa57610ba961508c565b5b9060005260206000200160009054906101000a900473ffffffffffffffffffffffffffffffffffffffff169150505b6103e8600e5411610ca4578060136000600e54815260200190815260200160002060006101000a81548173ffffffffffffffffffffffffffffffffffffffff021916908373ffffffffffffffffffffffffffffffffffffffff160217905550601460008273ffffffffffffffffffffffffffffffffffffffff1673ffffffffffffffffffffffffffffffffffffffff168152602001908152602001600020600001600e5490806001815401808255809150506001900390600052602060002001600090919091909150555b60126000600e54815260200190815260200160002060020154601554610cca9190615009565b600080601660009054906101000a900473ffffffffffffffffffffffffffffffffffffffff1673ffffffffffffffffffffffffffffffffffffffff1673ffffffffffffffffffffffffffffffffffffffff16815260200190815260200160002060008373ffffffffffffffffffffffffffffffffffffffff1673ffffffffffffffffffffffffffffffffffffffff1681526020019081526020016000206000828254610d7691906150bb565b925050819055508060126000600e54815260200190815260200160002060000160006101000a81548173ffffffffffffffffffffffffffffffffffffffff021916908373ffffffffffffffffffffffffffffffffffffffff1602179055506033600e5410158015610dea575061041b600e54105b8015610e9d5750601060009054906101000a900473ffffffffffffffffffffffffffffffffffffffff1673ffffffffffffffffffffffffffffffffffffffff1663e472f1356032600e54610e3e9190615111565b6040518263ffffffff1660e01b8152600401610e5a9190614788565b602060405180830381865afa158015610e77573d6000803e3d6000fd5b505050506040513d601f19601f82011682018060405250810190610e9b9190615171565b155b15610eab57610eaa613401565b5b61041b600e5410158015610ec25750610803600e54105b1561121d57600060126000600e548152602001908152602001600020600101805480602002602001604051908101604052809291908181526020018280548015610f6157602002820191906000526020600020905b8160009054906101000a900473ffffffffffffffffffffffffffffffffffffffff1673ffffffffffffffffffffffffffffffffffffffff1681526020019060010190808311610f17575b50505050509050600081519050600081118015610f92575080670de0b6b3a7640000600b54610f909190615009565b115b156111ff57600081670de0b6b3a7640000600b54610fb09190615009565b610fba91906151cd565b905060005b828110156111fc57600f60009054906101000a900473ffffffffffffffffffffffffffffffffffffffff1673ffffffffffffffffffffffffffffffffffffffff1663e16acb838583815181106110185761101761508c565b5b6020026020010151846040518363ffffffff1660e01b815260040161103e929190615063565b600060405180830381600087803b15801561105857600080fd5b505af115801561106c573d6000803e3d6000fd5b50505050600f60009054906101000a900473ffffffffffffffffffffffffffffffffffffffff1673ffffffffffffffffffffffffffffffffffffffff16634538dc258583815181106110c1576110c061508c565b5b602002602001015130856040518463ffffffff1660e01b81526004016110e9939291906151fe565b600060405180830381600087803b15801561110357600080fd5b505af1158015611117573d6000803e3d6000fd5b5050505081600080600f60009054906101000a900473ffffffffffffffffffffffffffffffffffffffff1673ffffffffffffffffffffffffffffffffffffffff1673ffffffffffffffffffffffffffffffffffffffff16815260200190815260200160002060008684815181106111915761119061508c565b5b602002602001015173ffffffffffffffffffffffffffffffffffffffff1673ffffffffffffffffffffffffffffffffffffffff16815260200190815260200160002060008282546111e291906150bb565b9250508190555080806111f490615235565b915050610fbf565b50505b600c54600d600082825461121391906150bb565b9250508190555050505b601e600e541415611241576112306136b4565b6112386138eb565b611240613a87565b5b600e600081548092919061125490615235565b91905055507fe492814f88d415ab2b7d4431b7ab7b85b32be6ff85014754c52ce9894d9ebbcf81604051611288919061481d565b60405180910390a150565b6015546112c2601660009054906101000a900473ffffffffffffffffffffffffffffffffffffffff1633612b4e565b101580156112d957506112d733600e54613b34565b155b6112e257600080fd5b6000601960003373ffffffffffffffffffffffffffffffffffffffff1673ffffffffffffffffffffffffffffffffffffffff16815260200190815260200160002054148015611334575060c8601d5410155b1561134257611341613cd8565b5b601960003373ffffffffffffffffffffffffffffffffffffffff1673ffffffffffffffffffffffffffffffffffffffff168152602001908152602001600020600081548092919061139290615235565b9190505550601554600080601660009054906101000a900473ffffffffffffffffffffffffffffffffffffffff1673ffffffffffffffffffffffffffffffffffffffff1673ffffffffffffffffffffffffffffffffffffffff16815260200190815260200160002060003373ffffffffffffffffffffffffffffffffffffffff1673ffffffffffffffffffffffffffffffffffffffff16815260200190815260200160002060008282546114469190615111565b9250508190555060126000600e548152602001908152602001600020600101339080600181540180825580915050600190039060005260206000200160009091909190916101000a81548173ffffffffffffffffffffffffffffffffffffffff021916908373ffffffffffffffffffffffffffffffffffffffff16021790555060126000600e54815260200190815260200160002060020160008154809291906114ef90615235565b91905055507fd014c01f429256f0effbc6f57d454747662e90d4015338812961a9d6490cb12333604051611523919061481d565b60405180910390a1565b6000601c60008373ffffffffffffffffffffffffffffffffffffffff1673ffffffffffffffffffffffffffffffffffffffff168152602001908152602001600020549050919050565b6000600260008373ffffffffffffffffffffffffffffffffffffffff1673ffffffffffffffffffffffffffffffffffffffff168152602001908152602001600020549050919050565b60003390506000600360008573ffffffffffffffffffffffffffffffffffffffff1673ffffffffffffffffffffffffffffffffffffffff1681526020019081526020016000206000848152602001908152602001600020905080600301546000808360000160009054906101000a900473ffffffffffffffffffffffffffffffffffffffff1673ffffffffffffffffffffffffffffffffffffffff1673ffffffffffffffffffffffffffffffffffffffff16815260200190815260200160002060008473ffffffffffffffffffffffffffffffffffffffff1673ffffffffffffffffffffffffffffffffffffffff168152602001908152602001600020541015801561171f57506000600360008673ffffffffffffffffffffffffffffffffffffffff1673ffffffffffffffffffffffffffffffffffffffff16815260200190815260200160002060008581526020019081526020016000206005015414155b801561173357506117318285856130a5565b155b61173c57600080fd5b80600301546000808360000160009054906101000a900473ffffffffffffffffffffffffffffffffffffffff1673ffffffffffffffffffffffffffffffffffffffff1673ffffffffffffffffffffffffffffffffffffffff16815260200190815260200160002060008473ffffffffffffffffffffffffffffffffffffffff1673ffffffffffffffffffffffffffffffffffffffff16815260200190815260200160002060008282546117ef9190615111565b9250508190555080600201829080600181540180825580915050600190039060005260206000200160009091909190916101000a81548173ffffffffffffffffffffffffffffffffffffffff021916908373ffffffffffffffffffffffffffffffffffffffff1602179055506000816005016000815461186e90615235565b91905081905590507f03f26bb8f4245c8a7354904e39927c6c0e4d2757e802f4a4626ea6ebec43ce6385853385600201866003015487600401548860000160009054906101000a900473ffffffffffffffffffffffffffffffffffffffff166040516118e0979695949392919061538a565b60405180910390a18160040154811415611bc9576000611a62836040518060c00160405290816000820160009054906101000a900473ffffffffffffffffffffffffffffffffffffffff1673ffffffffffffffffffffffffffffffffffffffff1673ffffffffffffffffffffffffffffffffffffffff1681526020016001820160009054906101000a900473ffffffffffffffffffffffffffffffffffffffff1673ffffffffffffffffffffffffffffffffffffffff1673ffffffffffffffffffffffffffffffffffffffff16815260200160028201805480602002602001604051908101604052809291908181526020018280548015611a3657602002820191906000526020600020905b8160009054906101000a900473ffffffffffffffffffffffffffffffffffffffff1673ffffffffffffffffffffffffffffffffffffffff16815260200190600101908083116119ec575b505050505081526020016003820154815260200160048201548152602001600582015481525050613e2e565b9050808360010160006101000a81548173ffffffffffffffffffffffffffffffffffffffff021916908373ffffffffffffffffffffffffffffffffffffffff1602179055506000600360008873ffffffffffffffffffffffffffffffffffffffff1673ffffffffffffffffffffffffffffffffffffffff168152602001908152602001600020600087815260200190815260200160002060050181905550600160008773ffffffffffffffffffffffffffffffffffffffff1673ffffffffffffffffffffffffffffffffffffffff1681526020019081526020016000206000815480929190611b5090615400565b91905055507fadadd10fc5ffa011ecf260e28f9a70ba6d153cc829d70d81751f9cd5c8eaca37868685600201866003015487600401548860000160009054906101000a900473ffffffffffffffffffffffffffffffffffffffff1687604051611bbf979695949392919061542a565b60405180910390a1505b5050505050565b611bd861425f565b80601060006101000a81548173ffffffffffffffffffffffffffffffffffffffff021916908373ffffffffffffffffffffffffffffffffffffffff16021790555050565b6000600e54905090565b600081604051602001611c399190614fc3565b6040516020818303038152906040528051906020012090506000801b601a60003373ffffffffffffffffffffffffffffffffffffffff1673ffffffffffffffffffffffffffffffffffffffff1681526020019081526020016000206000015414611ca257600080fd5b600073ffffffffffffffffffffffffffffffffffffffff16601b600083815260200190815260200160002060009054906101000a900473ffffffffffffffffffffffffffffffffffffffff1673ffffffffffffffffffffffffffffffffffffffff1614611d0e57600080fd5b80601a60003373ffffffffffffffffffffffffffffffffffffffff1673ffffffffffffffffffffffffffffffffffffffff1681526020019081526020016000206000018190555033601b600083815260200190815260200160002060006101000a81548173ffffffffffffffffffffffffffffffffffffffff021916908373ffffffffffffffffffffffffffffffffffffffff1602179055505050565b6000601660009054906101000a900473ffffffffffffffffffffffffffffffffffffffff16905090565b6000600d54905090565b6000601060009054906101000a900473ffffffffffffffffffffffffffffffffffffffff16905090565b6000600160008373ffffffffffffffffffffffffffffffffffffffff1673ffffffffffffffffffffffffffffffffffffffff168152602001908152602001600020549050919050565b611e5a61425f565b80601760006101000a81548173ffffffffffffffffffffffffffffffffffffffff021916908373ffffffffffffffffffffffffffffffffffffffff16021790555050565b806000808473ffffffffffffffffffffffffffffffffffffffff1673ffffffffffffffffffffffffffffffffffffffff16815260200190815260200160002060003373ffffffffffffffffffffffffffffffffffffffff1673ffffffffffffffffffffffffffffffffffffffff168152602001908152602001600020541015611f2657600080fd5b8173ffffffffffffffffffffffffffffffffffffffff1663a9059cbb33836040518363ffffffff1660e01b8152600401611f61929190615063565b6020604051808303816000875af1158015611f80573d6000803e3d6000fd5b505050506040513d601f19601f82011682018060405250810190611fa49190615171565b611fad57600080fd5b806000808473ffffffffffffffffffffffffffffffffffffffff1673ffffffffffffffffffffffffffffffffffffffff16815260200190815260200160002060003373ffffffffffffffffffffffffffffffffffffffff1673ffffffffffffffffffffffffffffffffffffffff16815260200190815260200160002060008282546120389190615111565b925050819055505050565b61204b6143ab565b600360008473ffffffffffffffffffffffffffffffffffffffff1673ffffffffffffffffffffffffffffffffffffffff16815260200190815260200160002060008381526020019081526020016000206040518060c00160405290816000820160009054906101000a900473ffffffffffffffffffffffffffffffffffffffff1673ffffffffffffffffffffffffffffffffffffffff1673ffffffffffffffffffffffffffffffffffffffff1681526020016001820160009054906101000a900473ffffffffffffffffffffffffffffffffffffffff1673ffffffffffffffffffffffffffffffffffffffff1673ffffffffffffffffffffffffffffffffffffffff168152602001600282018054806020026020016040519081016040528092919081815260200182805480156121d757602002820191906000526020600020905b8160009054906101000a900473ffffffffffffffffffffffffffffffffffffffff1673ffffffffffffffffffffffffffffffffffffffff168152602001906001019080831161218d575b505050505081526020016003820154815260200160048201548152602001600582015481525050905092915050565b61220e61425f565b61221860006142dd565b565b61222261425f565b3373ffffffffffffffffffffffffffffffffffffffff166013600083815260200190815260200160002060009054906101000a900473ffffffffffffffffffffffffffffffffffffffff1673ffffffffffffffffffffffffffffffffffffffff161461228d57600080fd5b816013600083815260200190815260200160002060006101000a81548173ffffffffffffffffffffffffffffffffffffffff021916908373ffffffffffffffffffffffffffffffffffffffff1602179055505050565b6060601860008373ffffffffffffffffffffffffffffffffffffffff1673ffffffffffffffffffffffffffffffffffffffff16815260200190815260200160002060000180548060200260200160405190810160405280929190818152602001828054801561237157602002820191906000526020600020905b81548152602001906001019080831161235d575b50505050509050919050565b6000601160009054906101000a900473ffffffffffffffffffffffffffffffffffffffff16905090565b60003390508273ffffffffffffffffffffffffffffffffffffffff166323b872dd8230856040518463ffffffff1660e01b81526004016123e9939291906151fe565b6020604051808303816000875af1158015612408573d6000803e3d6000fd5b505050506040513d601f19601f8201168201806040525081019061242c9190615171565b61243557600080fd5b816000808573ffffffffffffffffffffffffffffffffffffffff1673ffffffffffffffffffffffffffffffffffffffff16815260200190815260200160002060008373ffffffffffffffffffffffffffffffffffffffff1673ffffffffffffffffffffffffffffffffffffffff16815260200190815260200160002060008282546124c091906150bb565b92505081905550505050565b6000601960008373ffffffffffffffffffffffffffffffffffffffff1673ffffffffffffffffffffffffffffffffffffffff168152602001908152602001600020549050919050565b600081519050601554816125299190615009565b600080601660009054906101000a900473ffffffffffffffffffffffffffffffffffffffff1673ffffffffffffffffffffffffffffffffffffffff1673ffffffffffffffffffffffffffffffffffffffff16815260200190815260200160002060003373ffffffffffffffffffffffffffffffffffffffff1673ffffffffffffffffffffffffffffffffffffffff1681526020019081526020016000205410156125d257600080fd5b60005b8181101561261857600e548382815181106125f3576125f261508c565b5b60200260200101511161260557600080fd5b808061261090615235565b9150506125d5565b506000601960003373ffffffffffffffffffffffffffffffffffffffff1673ffffffffffffffffffffffffffffffffffffffff1681526020019081526020016000205414801561266b575060c8601d5410155b1561267957612678613cd8565b5b6000601860003373ffffffffffffffffffffffffffffffffffffffff1673ffffffffffffffffffffffffffffffffffffffff168152602001908152602001600020905060005b8281101561292a576126eb338583815181106126de576126dd61508c565b5b6020026020010151613b34565b61291757601554600080601660009054906101000a900473ffffffffffffffffffffffffffffffffffffffff1673ffffffffffffffffffffffffffffffffffffffff1673ffffffffffffffffffffffffffffffffffffffff16815260200190815260200160002060003373ffffffffffffffffffffffffffffffffffffffff1673ffffffffffffffffffffffffffffffffffffffff168152602001908152602001600020600082825461279e9190615111565b92505081905550601260008583815181106127bc576127bb61508c565b5b60200260200101518152602001908152602001600020600101339080600181540180825580915050600190039060005260206000200160009091909190916101000a81548173ffffffffffffffffffffffffffffffffffffffff021916908373ffffffffffffffffffffffffffffffffffffffff1602179055506012600085838151811061284d5761284c61508c565b5b60200260200101518152602001908152602001600020600201600081548092919061287790615235565b9190505550601960003373ffffffffffffffffffffffffffffffffffffffff1673ffffffffffffffffffffffffffffffffffffffff16815260200190815260200160002060008154809291906128cc90615235565b9190505550816000018482815181106128e8576128e761508c565b5b602002602001015190806001815401808255809150506001900390600052602060002001600090919091909150555b808061292290615235565b9150506126bf565b50505050565b600080821461297557814260405160200161294b91906154c1565b6040516020818303038152906040528051906020012060001c61296e91906154dc565b905061297a565b600090505b919050565b600080826040516020016129939190614fc3565b604051602081830303815290604052805190602001209050601b600082815260200190815260200160002060009054906101000a900473ffffffffffffffffffffffffffffffffffffffff16915050919050565b6129ef61440d565b601260008381526020019081526020016000206040518060600160405290816000820160009054906101000a900473ffffffffffffffffffffffffffffffffffffffff1673ffffffffffffffffffffffffffffffffffffffff1673ffffffffffffffffffffffffffffffffffffffff16815260200160018201805480602002602001604051908101604052809291908181526020018280548015612ae857602002820191906000526020600020905b8160009054906101000a900473ffffffffffffffffffffffffffffffffffffffff1673ffffffffffffffffffffffffffffffffffffffff1681526020019060010190808311612a9e575b505050505081526020016002820154815250509050919050565b612b0a61425f565b80600f60006101000a81548173ffffffffffffffffffffffffffffffffffffffff021916908373ffffffffffffffffffffffffffffffffffffffff16021790555050565b60008060008473ffffffffffffffffffffffffffffffffffffffff1673ffffffffffffffffffffffffffffffffffffffff16815260200190815260200160002060008373ffffffffffffffffffffffffffffffffffffffff1673ffffffffffffffffffffffffffffffffffffffff16815260200190815260200160002054905092915050565b6000339050826000808673ffffffffffffffffffffffffffffffffffffffff1673ffffffffffffffffffffffffffffffffffffffff16815260200190815260200160002060008373ffffffffffffffffffffffffffffffffffffffff1673ffffffffffffffffffffffffffffffffffffffff1681526020019081526020016000205410158015612ca35750600a600160008373ffffffffffffffffffffffffffffffffffffffff1673ffffffffffffffffffffffffffffffffffffffff16815260200190815260200160002054105b8015612cb157506103e88211155b8015612cbd5750600182115b612cc657600080fd5b826000808673ffffffffffffffffffffffffffffffffffffffff1673ffffffffffffffffffffffffffffffffffffffff16815260200190815260200160002060008373ffffffffffffffffffffffffffffffffffffffff1673ffffffffffffffffffffffffffffffffffffffff1681526020019081526020016000206000828254612d519190615111565b92505081905550600160008273ffffffffffffffffffffffffffffffffffffffff1673ffffffffffffffffffffffffffffffffffffffff1681526020019081526020016000206000815480929190612da890615235565b91905055506000600260008373ffffffffffffffffffffffffffffffffffffffff1673ffffffffffffffffffffffffffffffffffffffff16815260200190815260200160002060008154612dfb90615235565b91905081905590505b600115612ef1576000600360008473ffffffffffffffffffffffffffffffffffffffff1673ffffffffffffffffffffffffffffffffffffffff16815260200190815260200160002060008381526020019081526020016000206005015414612e88578080612e7190615235565b915050600a81612e8191906154dc565b9050612eec565b600360008373ffffffffffffffffffffffffffffffffffffffff1673ffffffffffffffffffffffffffffffffffffffff16815260200190815260200160002060008281526020019081526020016000206002016000612ee79190614444565b612ef1565b612e04565b6000600360008473ffffffffffffffffffffffffffffffffffffffff1673ffffffffffffffffffffffffffffffffffffffff1681526020019081526020016000206000838152602001908152602001600020905080600201839080600181540180825580915050600190039060005260206000200160009091909190916101000a81548173ffffffffffffffffffffffffffffffffffffffff021916908373ffffffffffffffffffffffffffffffffffffffff160217905550848160030181905550838160040181905550858160000160006101000a81548173ffffffffffffffffffffffffffffffffffffffff021916908373ffffffffffffffffffffffffffffffffffffffff1602179055506001816005018190555060008160010160006101000a81548173ffffffffffffffffffffffffffffffffffffffff021916908373ffffffffffffffffffffffffffffffffffffffff16021790555083853373ffffffffffffffffffffffffffffffffffffffff167f6f1b31f27769fa94b13e0dd993d4dd2155660e9fa13d6bb178841fdd812853d2856040516130959190614788565b60405180910390a4505050505050565b600080600360008573ffffffffffffffffffffffffffffffffffffffff1673ffffffffffffffffffffffffffffffffffffffff168152602001908152602001600020600084815260200190815260200160002060020180548060200260200160405190810160405280929190818152602001828054801561317b57602002820191906000526020600020905b8160009054906101000a900473ffffffffffffffffffffffffffffffffffffffff1673ffffffffffffffffffffffffffffffffffffffff1681526020019060010190808311613131575b505050505090506000600360008673ffffffffffffffffffffffffffffffffffffffff1673ffffffffffffffffffffffffffffffffffffffff1681526020019081526020016000206000858152602001908152602001600020600501549050600086905060005b82811015613258578173ffffffffffffffffffffffffffffffffffffffff168482815181106132145761321361508c565b5b602002602001015173ffffffffffffffffffffffffffffffffffffffff161415613245576001945050505050613261565b808061325090615235565b9150506131e2565b50600093505050505b9392505050565b60006013600083815260200190815260200160002060009054906101000a900473ffffffffffffffffffffffffffffffffffffffff169050919050565b6000601d54905090565b6132b761425f565b600073ffffffffffffffffffffffffffffffffffffffff168173ffffffffffffffffffffffffffffffffffffffff161415613327576040517f08c379a000000000000000000000000000000000000000000000000000000000815260040161331e90615590565b60405180910390fd5b613330816142dd565b50565b61333b614465565b601460008373ffffffffffffffffffffffffffffffffffffffff1673ffffffffffffffffffffffffffffffffffffffff168152602001908152602001600020604051806040016040529081600082018054806020026020016040519081016040528092919081815260200182805480156133d457602002820191906000526020600020905b8154815260200190600101908083116133c0575b505050505081526020016001820160009054906101000a900460ff1660ff1660ff16815250509050919050565b60006032905060006013600083600e5461341b9190615111565b815260200190815260200160002060009054906101000a900473ffffffffffffffffffffffffffffffffffffffff1690506000601460008373ffffffffffffffffffffffffffffffffffffffff1673ffffffffffffffffffffffffffffffffffffffff168152602001908152602001600020600001905060008180549050905060005b818110156135ca5784600e546134b49190615111565b8382815481106134c7576134c661508c565b5b906000526020600020015414156135b757600182141561350d57828054806134f2576134f16155b0565b5b600190038181906000526020600020016000905590556135b2565b60008190505b600184805490506135249190615111565b811015613589578360018261353991906150bb565b8154811061354a5761354961508c565b5b90600052602060002001548482815481106135685761356761508c565b5b9060005260206000200181905550808061358190615235565b915050613513565b508280548061359b5761359a6155b0565b5b600190038181906000526020600020016000905590555b6135ca565b80806135c290615235565b91505061349e565b506135d361237d565b6013600086600e546135e59190615111565b815260200190815260200160002060006101000a81548173ffffffffffffffffffffffffffffffffffffffff021916908373ffffffffffffffffffffffffffffffffffffffff1602179055506014600061363d61237d565b73ffffffffffffffffffffffffffffffffffffffff1673ffffffffffffffffffffffffffffffffffffffff16815260200190815260200160002060000184600e546136889190615111565b908060018154018082558091505060019003906000526020600020016000909190919091505550505050565b6000601060009054906101000a900473ffffffffffffffffffffffffffffffffffffffff1673ffffffffffffffffffffffffffffffffffffffff16638951764a6040518163ffffffff1660e01b8152600401600060405180830381865afa158015613723573d6000803e3d6000fd5b505050506040513d6000823e3d601f19601f8201168201806040525081019061374c919061568b565b905060008151905060008111156138e7576000670de0b6b3a76400008260055461377691906151cd565b6137809190615009565b905060005b828110156138e457600f60009054906101000a900473ffffffffffffffffffffffffffffffffffffffff1673ffffffffffffffffffffffffffffffffffffffff1663e16acb83601060009054906101000a900473ffffffffffffffffffffffffffffffffffffffff1673ffffffffffffffffffffffffffffffffffffffff16636352211e87858151811061381c5761381b61508c565b5b60200260200101516040518263ffffffff1660e01b81526004016138409190614788565b602060405180830381865afa15801561385d573d6000803e3d6000fd5b505050506040513d601f19601f8201168201806040525081019061388191906156e9565b846040518363ffffffff1660e01b815260040161389f929190615063565b600060405180830381600087803b1580156138b957600080fd5b505af11580156138cd573d6000803e3d6000fd5b5050505080806138dc90615235565b915050613785565b50505b5050565b6000601060009054906101000a900473ffffffffffffffffffffffffffffffffffffffff1673ffffffffffffffffffffffffffffffffffffffff166379b354116040518163ffffffff1660e01b8152600401600060405180830381865afa15801561395a573d6000803e3d6000fd5b505050506040513d6000823e3d601f19601f8201168201806040525081019061398391906157d9565b90506000815190506000811115613a83576000670de0b6b3a7640000826006546139ad91906151cd565b6139b79190615009565b905060005b82811015613a8057600f60009054906101000a900473ffffffffffffffffffffffffffffffffffffffff1673ffffffffffffffffffffffffffffffffffffffff1663e16acb83858381518110613a1557613a1461508c565b5b6020026020010151846040518363ffffffff1660e01b8152600401613a3b929190615063565b600060405180830381600087803b158015613a5557600080fd5b505af1158015613a69573d6000803e3d6000fd5b505050508080613a7890615235565b9150506139bc565b50505b5050565b600f60009054906101000a900473ffffffffffffffffffffffffffffffffffffffff1673ffffffffffffffffffffffffffffffffffffffff1663e16acb83613acd61237d565b670de0b6b3a7640000600754613ae39190615009565b6040518363ffffffff1660e01b8152600401613b00929190615063565b600060405180830381600087803b158015613b1a57600080fd5b505af1158015613b2e573d6000803e3d6000fd5b50505050565b600080601260008481526020019081526020016000206040518060600160405290816000820160009054906101000a900473ffffffffffffffffffffffffffffffffffffffff1673ffffffffffffffffffffffffffffffffffffffff1673ffffffffffffffffffffffffffffffffffffffff16815260200160018201805480602002602001604051908101604052809291908181526020018280548015613c3057602002820191906000526020600020905b8160009054906101000a900473ffffffffffffffffffffffffffffffffffffffff1673ffffffffffffffffffffffffffffffffffffffff1681526020019060010190808311613be6575b50505050508152602001600282015481525050905060008160400151905060005b81811015613cca578573ffffffffffffffffffffffffffffffffffffffff1683602001518281518110613c8757613c8661508c565b5b602002602001015173ffffffffffffffffffffffffffffffffffffffff161415613cb75760019350505050613cd2565b8080613cc290615235565b915050613c51565b506000925050505b92915050565b6000601a60003373ffffffffffffffffffffffffffffffffffffffff1673ffffffffffffffffffffffffffffffffffffffff168152602001908152602001600020600101549050806000801b14613e2b576000601b600083815260200190815260200160002060009054906101000a900473ffffffffffffffffffffffffffffffffffffffff16905060c8601d6000828254613d749190615111565b925050819055506064601c60003373ffffffffffffffffffffffffffffffffffffffff1673ffffffffffffffffffffffffffffffffffffffff1681526020019081526020016000206000828254613dcb91906150bb565b925050819055506064601c60008373ffffffffffffffffffffffffffffffffffffffff1673ffffffffffffffffffffffffffffffffffffffff1681526020019081526020016000206000828254613e2291906150bb565b92505081905550505b50565b600080613e3e8360800151612930565b905082608001518360600151613e549190615009565b600080856000015173ffffffffffffffffffffffffffffffffffffffff1673ffffffffffffffffffffffffffffffffffffffff168152602001908152602001600020600085604001518481518110613eaf57613eae61508c565b5b602002602001015173ffffffffffffffffffffffffffffffffffffffff1673ffffffffffffffffffffffffffffffffffffffff1681526020019081526020016000206000828254613f0091906150bb565b9250508190555060008360400151519050600f60009054906101000a900473ffffffffffffffffffffffffffffffffffffffff1673ffffffffffffffffffffffffffffffffffffffff16846000015173ffffffffffffffffffffffffffffffffffffffff16148015613f805750600a81613f7a9190615009565b600d5410155b8015613f985750678ac7230489e80000846060015110155b8015613fa75750601f600e5410155b156142375760005b8181101561421057600f60009054906101000a900473ffffffffffffffffffffffffffffffffffffffff1673ffffffffffffffffffffffffffffffffffffffff1663e16acb838660400151838151811061400c5761400b61508c565b5b6020026020010151678ac7230489e800006040518363ffffffff1660e01b815260040161403a92919061585d565b600060405180830381600087803b15801561405457600080fd5b505af1158015614068573d6000803e3d6000fd5b50505050600f60009054906101000a900473ffffffffffffffffffffffffffffffffffffffff1673ffffffffffffffffffffffffffffffffffffffff16634538dc25866040015183815181106140c1576140c061508c565b5b602002602001015130678ac7230489e800006040518463ffffffff1660e01b81526004016140f193929190615886565b600060405180830381600087803b15801561410b57600080fd5b505af115801561411f573d6000803e3d6000fd5b50505050678ac7230489e80000600080600f60009054906101000a900473ffffffffffffffffffffffffffffffffffffffff1673ffffffffffffffffffffffffffffffffffffffff1673ffffffffffffffffffffffffffffffffffffffff1681526020019081526020016000206000876040015184815181106141a5576141a461508c565b5b602002602001015173ffffffffffffffffffffffffffffffffffffffff1673ffffffffffffffffffffffffffffffffffffffff16815260200190815260200160002060008282546141f691906150bb565b92505081905550808061420890615235565b915050613faf565b50600a8161421e9190615009565b600d600082825461422f9190615111565b925050819055505b8360400151828151811061424e5761424d61508c565b5b602002602001015192505050919050565b6142676143a3565b73ffffffffffffffffffffffffffffffffffffffff1661428561237d565b73ffffffffffffffffffffffffffffffffffffffff16146142db576040517f08c379a00000000000000000000000000000000000000000000000000000000081526004016142d290615909565b60405180910390fd5b565b6000601160009054906101000a900473ffffffffffffffffffffffffffffffffffffffff16905081601160006101000a81548173ffffffffffffffffffffffffffffffffffffffff021916908373ffffffffffffffffffffffffffffffffffffffff1602179055508173ffffffffffffffffffffffffffffffffffffffff168173ffffffffffffffffffffffffffffffffffffffff167f8be0079c531659141344cd1fd0a4f28419497f9722a3daafe3b4186f6b6457e060405160405180910390a35050565b600033905090565b6040518060c00160405280600073ffffffffffffffffffffffffffffffffffffffff168152602001600073ffffffffffffffffffffffffffffffffffffffff168152602001606081526020016000815260200160008152602001600081525090565b6040518060600160405280600073ffffffffffffffffffffffffffffffffffffffff16815260200160608152602001600081525090565b50805460008255906000526020600020908101906144629190614482565b50565b604051806040016040528060608152602001600060ff1681525090565b5b8082111561449b576000816000905550600101614483565b5090565b6000604051905090565b600080fd5b600080fd5b600073ffffffffffffffffffffffffffffffffffffffff82169050919050565b60006144de826144b3565b9050919050565b6144ee816144d3565b81146144f957600080fd5b50565b60008135905061450b816144e5565b92915050565b6000819050919050565b61452481614511565b811461452f57600080fd5b50565b6000813590506145418161451b565b92915050565b6000806040838503121561455e5761455d6144a9565b5b600061456c858286016144fc565b925050602061457d85828601614532565b9150509250929050565b60008115159050919050565b61459c81614587565b82525050565b60006020820190506145b76000830184614593565b92915050565b600080fd5b600080fd5b6000601f19601f8301169050919050565b7f4e487b7100000000000000000000000000000000000000000000000000000000600052604160045260246000fd5b614610826145c7565b810181811067ffffffffffffffff8211171561462f5761462e6145d8565b5b80604052505050565b600061464261449f565b905061464e8282614607565b919050565b600067ffffffffffffffff82111561466e5761466d6145d8565b5b614677826145c7565b9050602081019050919050565b82818337600083830152505050565b60006146a66146a184614653565b614638565b9050828152602081018484840111156146c2576146c16145c2565b5b6146cd848285614684565b509392505050565b600082601f8301126146ea576146e96145bd565b5b81356146fa848260208601614693565b91505092915050565b600060208284031215614719576147186144a9565b5b600082013567ffffffffffffffff811115614737576147366144ae565b5b614743848285016146d5565b91505092915050565b600060208284031215614762576147616144a9565b5b6000614770848285016144fc565b91505092915050565b61478281614511565b82525050565b600060208201905061479d6000830184614779565b92915050565b60006147ae826144d3565b9050919050565b6147be816147a3565b81146147c957600080fd5b50565b6000813590506147db816147b5565b92915050565b6000602082840312156147f7576147f66144a9565b5b6000614805848285016147cc565b91505092915050565b614817816144d3565b82525050565b6000602082019050614832600083018461480e565b92915050565b6000614843826144d3565b9050919050565b61485381614838565b811461485e57600080fd5b50565b6000813590506148708161484a565b92915050565b6000806040838503121561488d5761488c6144a9565b5b600061489b85828601614861565b92505060206148ac85828601614532565b9150509250929050565b6000819050919050565b60006148db6148d66148d1846144b3565b6148b6565b6144b3565b9050919050565b60006148ed826148c0565b9050919050565b60006148ff826148e2565b9050919050565b61490f816148f4565b82525050565b61491e816144d3565b82525050565b600081519050919050565b600082825260208201905092915050565b6000819050602082019050919050565b600061495c8383614915565b60208301905092915050565b6000602082019050919050565b600061498082614924565b61498a818561492f565b935061499583614940565b8060005b838110156149c65781516149ad8882614950565b97506149b883614968565b925050600181019050614999565b5085935050505092915050565b6149dc81614511565b82525050565b600060c0830160008301516149fa6000860182614906565b506020830151614a0d6020860182614915565b5060408301518482036040860152614a258282614975565b9150506060830151614a3a60608601826149d3565b506080830151614a4d60808601826149d3565b5060a0830151614a6060a08601826149d3565b508091505092915050565b60006020820190508181036000830152614a8581846149e2565b905092915050565b600081519050919050565b600082825260208201905092915050565b6000819050602082019050919050565b6000614ac583836149d3565b60208301905092915050565b6000602082019050919050565b6000614ae982614a8d565b614af38185614a98565b9350614afe83614aa9565b8060005b83811015614b2f578151614b168882614ab9565b9750614b2183614ad1565b925050600181019050614b02565b5085935050505092915050565b60006020820190508181036000830152614b568184614ade565b905092915050565b600067ffffffffffffffff821115614b7957614b786145d8565b5b602082029050602081019050919050565b600080fd5b6000614ba2614b9d84614b5e565b614638565b90508083825260208201905060208402830185811115614bc557614bc4614b8a565b5b835b81811015614bee5780614bda8882614532565b845260208401935050602081019050614bc7565b5050509392505050565b600082601f830112614c0d57614c0c6145bd565b5b8135614c1d848260208601614b8f565b91505092915050565b600060208284031215614c3c57614c3b6144a9565b5b600082013567ffffffffffffffff811115614c5a57614c596144ae565b5b614c6684828501614bf8565b91505092915050565b600060208284031215614c8557614c846144a9565b5b6000614c9384828501614532565b91505092915050565b6000606083016000830151614cb46000860182614915565b5060208301518482036020860152614ccc8282614975565b9150506040830151614ce160408601826149d3565b508091505092915050565b60006020820190508181036000830152614d068184614c9c565b905092915050565b6000614d19826144d3565b9050919050565b614d2981614d0e565b8114614d3457600080fd5b50565b600081359050614d4681614d20565b92915050565b600060208284031215614d6257614d616144a9565b5b6000614d7084828501614d37565b91505092915050565b60008060408385031215614d9057614d8f6144a9565b5b6000614d9e85828601614861565b9250506020614daf858286016144fc565b9150509250929050565b600080600060608486031215614dd257614dd16144a9565b5b6000614de086828701614861565b9350506020614df186828701614532565b9250506040614e0286828701614532565b9150509250925092565b600080600060608486031215614e2557614e246144a9565b5b6000614e33868287016144fc565b9350506020614e44868287016144fc565b9250506040614e5586828701614532565b9150509250925092565b600082825260208201905092915050565b6000614e7b82614a8d565b614e858185614e5f565b9350614e9083614aa9565b8060005b83811015614ec1578151614ea88882614ab9565b9750614eb383614ad1565b925050600181019050614e94565b5085935050505092915050565b600060ff82169050919050565b614ee481614ece565b82525050565b60006040830160008301518482036000860152614f078282614e70565b9150506020830151614f1c6020860182614edb565b508091505092915050565b60006020820190508181036000830152614f418184614eea565b905092915050565b600081519050919050565b600081905092915050565b60005b83811015614f7d578082015181840152602081019050614f62565b83811115614f8c576000848401525b50505050565b6000614f9d82614f49565b614fa78185614f54565b9350614fb7818560208601614f5f565b80840191505092915050565b6000614fcf8284614f92565b915081905092915050565b7f4e487b7100000000000000000000000000000000000000000000000000000000600052601160045260246000fd5b600061501482614511565b915061501f83614511565b9250817fffffffffffffffffffffffffffffffffffffffffffffffffffffffffffffffff048311821515161561505857615057614fda565b5b828202905092915050565b6000604082019050615078600083018561480e565b6150856020830184614779565b9392505050565b7f4e487b7100000000000000000000000000000000000000000000000000000000600052603260045260246000fd5b60006150c682614511565b91506150d183614511565b9250827fffffffffffffffffffffffffffffffffffffffffffffffffffffffffffffffff0382111561510657615105614fda565b5b828201905092915050565b600061511c82614511565b915061512783614511565b92508282101561513a57615139614fda565b5b828203905092915050565b61514e81614587565b811461515957600080fd5b50565b60008151905061516b81615145565b92915050565b600060208284031215615187576151866144a9565b5b60006151958482850161515c565b91505092915050565b7f4e487b7100000000000000000000000000000000000000000000000000000000600052601260045260246000fd5b60006151d882614511565b91506151e383614511565b9250826151f3576151f261519e565b5b828204905092915050565b6000606082019050615213600083018661480e565b615220602083018561480e565b61522d6040830184614779565b949350505050565b600061524082614511565b91507fffffffffffffffffffffffffffffffffffffffffffffffffffffffffffffffff82141561527357615272614fda565b5b600182019050919050565b600081549050919050565b600082825260208201905092915050565b60008190508160005260206000209050919050565b60008160001c9050919050565b600073ffffffffffffffffffffffffffffffffffffffff82169050919050565b60006152ef6152ea836152af565b6152bc565b9050919050565b600061530282546152dc565b9050919050565b6000600182019050919050565b60006153218261527e565b61532b8185615289565b93506153368361529a565b8060005b8381101561536e5761534b826152f6565b6153558882614950565b975061536083615309565b92505060018101905061533a565b5085935050505092915050565b615384816148f4565b82525050565b600060e08201905061539f600083018a61480e565b6153ac6020830189614779565b6153b9604083018861480e565b81810360608301526153cb8187615316565b90506153da6080830186614779565b6153e760a0830185614779565b6153f460c083018461537b565b98975050505050505050565b600061540b82614511565b9150600082141561541f5761541e614fda565b5b600182039050919050565b600060e08201905061543f600083018a61480e565b61544c6020830189614779565b818103604083015261545e8188615316565b905061546d6060830187614779565b61547a6080830186614779565b61548760a083018561537b565b61549460c083018461480e565b98975050505050505050565b6000819050919050565b6154bb6154b682614511565b6154a0565b82525050565b60006154cd82846154aa565b60208201915081905092915050565b60006154e782614511565b91506154f283614511565b9250826155025761550161519e565b5b828206905092915050565b600082825260208201905092915050565b7f4f776e61626c653a206e6577206f776e657220697320746865207a65726f206160008201527f6464726573730000000000000000000000000000000000000000000000000000602082015250565b600061557a60268361550d565b91506155858261551e565b604082019050919050565b600060208201905081810360008301526155a98161556d565b9050919050565b7f4e487b7100000000000000000000000000000000000000000000000000000000600052603160045260246000fd5b6000815190506155ee8161451b565b92915050565b600061560761560284614b5e565b614638565b9050808382526020820190506020840283018581111561562a57615629614b8a565b5b835b81811015615653578061563f88826155df565b84526020840193505060208101905061562c565b5050509392505050565b600082601f830112615672576156716145bd565b5b81516156828482602086016155f4565b91505092915050565b6000602082840312156156a1576156a06144a9565b5b600082015167ffffffffffffffff8111156156bf576156be6144ae565b5b6156cb8482850161565d565b91505092915050565b6000815190506156e3816144e5565b92915050565b6000602082840312156156ff576156fe6144a9565b5b600061570d848285016156d4565b91505092915050565b600067ffffffffffffffff821115615731576157306145d8565b5b602082029050602081019050919050565b600061575561575084615716565b614638565b9050808382526020820190506020840283018581111561577857615777614b8a565b5b835b818110156157a1578061578d88826156d4565b84526020840193505060208101905061577a565b5050509392505050565b600082601f8301126157c0576157bf6145bd565b5b81516157d0848260208601615742565b91505092915050565b6000602082840312156157ef576157ee6144a9565b5b600082015167ffffffffffffffff81111561580d5761580c6144ae565b5b615819848285016157ab565b91505092915050565b6000819050919050565b600061584761584261583d84615822565b6148b6565b614511565b9050919050565b6158578161582c565b82525050565b6000604082019050615872600083018561480e565b61587f602083018461584e565b9392505050565b600060608201905061589b600083018661480e565b6158a8602083018561480e565b6158b5604083018461584e565b949350505050565b7f4f776e61626c653a2063616c6c6572206973206e6f7420746865206f776e6572600082015250565b60006158f360208361550d565b91506158fe826158bd565b602082019050919050565b60006020820190508181036000830152615922816158e6565b905091905056fea2646970667358221220413ca81b6b43c68e6b1998b0ff11aa27573bc0cf1cb2a1aacd605900d4b54a8464736f6c634300080b0033",
  "linkReferences": {},
  "deployedLinkReferences": {}
}