{
  "_format": "hh-sol-artifact-1",
  "contractName": "MudebzNFT",
  "sourceName": "contracts/MudebzNFT.sol",
  "abi": [
    {
      "inputs": [
        {
          "internalType": "contract Lottery",
          "name": "_lottery",
          "type": "address"
        }
      ],
      "stateMutability": "nonpayable",
      "type": "constructor"
    },
    {
      "anonymous": false,
      "inputs": [
        {
          "indexed": true,
          "internalType": "address",
          "name": "owner",
          "type": "address"
        },
        {
          "indexed": true,
          "internalType": "address",
          "name": "approved",
          "type": "address"
        },
        {
          "indexed": true,
          "internalType": "uint256",
          "name": "tokenId",
          "type": "uint256"
        }
      ],
      "name": "Approval",
      "type": "event"
    },
    {
      "anonymous": false,
      "inputs": [
        {
          "indexed": true,
          "internalType": "address",
          "name": "owner",
          "type": "address"
        },
        {
          "indexed": true,
          "internalType": "address",
          "name": "operator",
          "type": "address"
        },
        {
          "indexed": false,
          "internalType": "bool",
          "name": "approved",
          "type": "bool"
        }
      ],
      "name": "ApprovalForAll",
      "type": "event"
    },
    {
      "anonymous": false,
      "inputs": [
        {
          "indexed": false,
          "internalType": "address",
          "name": "owner",
          "type": "address"
        },
        {
          "indexed": false,
          "internalType": "uint256",
          "name": "tokenId",
          "type": "uint256"
        }
      ],
      "name": "NewNFT",
      "type": "event"
    },
    {
      "anonymous": false,
      "inputs": [
        {
          "indexed": true,
          "internalType": "address",
          "name": "previousOwner",
          "type": "address"
        },
        {
          "indexed": true,
          "internalType": "address",
          "name": "newOwner",
          "type": "address"
        }
      ],
      "name": "OwnershipTransferred",
      "type": "event"
    },
    {
      "anonymous": false,
      "inputs": [
        {
          "indexed": true,
          "internalType": "address",
          "name": "from",
          "type": "address"
        },
        {
          "indexed": true,
          "internalType": "address",
          "name": "to",
          "type": "address"
        },
        {
          "indexed": true,
          "internalType": "uint256",
          "name": "tokenId",
          "type": "uint256"
        }
      ],
      "name": "Transfer",
      "type": "event"
    },
    {
      "inputs": [
        {
          "internalType": "uint256",
          "name": "TokenId",
          "type": "uint256"
        }
      ],
      "name": "MintMarten",
      "outputs": [],
      "stateMutability": "payable",
      "type": "function"
    },
    {
      "inputs": [
        {
          "internalType": "address",
          "name": "to",
          "type": "address"
        },
        {
          "internalType": "uint256",
          "name": "tokenId",
          "type": "uint256"
        }
      ],
      "name": "approve",
      "outputs": [],
      "stateMutability": "nonpayable",
      "type": "function"
    },
    {
      "inputs": [
        {
          "internalType": "address",
          "name": "owner",
          "type": "address"
        }
      ],
      "name": "balanceOf",
      "outputs": [
        {
          "internalType": "uint256",
          "name": "",
          "type": "uint256"
        }
      ],
      "stateMutability": "view",
      "type": "function"
    },
    {
      "inputs": [
        {
          "internalType": "uint256",
          "name": "tokenId",
          "type": "uint256"
        }
      ],
      "name": "getApproved",
      "outputs": [
        {
          "internalType": "address",
          "name": "",
          "type": "address"
        }
      ],
      "stateMutability": "view",
      "type": "function"
    },
    {
      "inputs": [
        {
          "internalType": "address",
          "name": "tokenOwner",
          "type": "address"
        },
        {
          "internalType": "uint256",
          "name": "tokenId",
          "type": "uint256"
        }
      ],
      "name": "getCost",
      "outputs": [
        {
          "internalType": "uint256",
          "name": "",
          "type": "uint256"
        }
      ],
      "stateMutability": "view",
      "type": "function"
    },
    {
      "inputs": [
        {
          "internalType": "uint256",
          "name": "tokenId",
          "type": "uint256"
        }
      ],
      "name": "getTokenTransferCount",
      "outputs": [
        {
          "internalType": "uint256",
          "name": "",
          "type": "uint256"
        }
      ],
      "stateMutability": "view",
      "type": "function"
    },
    {
      "inputs": [
        {
          "internalType": "address",
          "name": "adres",
          "type": "address"
        }
      ],
      "name": "getTokensForAddress",
      "outputs": [
        {
          "components": [
            {
              "internalType": "uint256[]",
              "name": "ids",
              "type": "uint256[]"
            },
            {
              "internalType": "uint8",
              "name": "doNotUse",
              "type": "uint8"
            }
          ],
          "internalType": "struct ERC721with.Owns",
          "name": "",
          "type": "tuple"
        }
      ],
      "stateMutability": "view",
      "type": "function"
    },
    {
      "inputs": [],
      "name": "getaddressHowOwnedNFT",
      "outputs": [
        {
          "internalType": "address[]",
          "name": "",
          "type": "address[]"
        }
      ],
      "stateMutability": "view",
      "type": "function"
    },
    {
      "inputs": [],
      "name": "gettokensMints",
      "outputs": [
        {
          "internalType": "uint256[]",
          "name": "",
          "type": "uint256[]"
        }
      ],
      "stateMutability": "view",
      "type": "function"
    },
    {
      "inputs": [
        {
          "internalType": "address",
          "name": "owner",
          "type": "address"
        },
        {
          "internalType": "address",
          "name": "operator",
          "type": "address"
        }
      ],
      "name": "isApprovedForAll",
      "outputs": [
        {
          "internalType": "bool",
          "name": "",
          "type": "bool"
        }
      ],
      "stateMutability": "view",
      "type": "function"
    },
    {
      "inputs": [
        {
          "internalType": "address",
          "name": "a",
          "type": "address"
        }
      ],
      "name": "isOwnedEver",
      "outputs": [
        {
          "internalType": "bool",
          "name": "",
          "type": "bool"
        }
      ],
      "stateMutability": "view",
      "type": "function"
    },
    {
      "inputs": [
        {
          "internalType": "uint256",
          "name": "TokenId",
          "type": "uint256"
        }
      ],
      "name": "istokenMints",
      "outputs": [
        {
          "internalType": "bool",
          "name": "",
          "type": "bool"
        }
      ],
      "stateMutability": "view",
      "type": "function"
    },
    {
      "inputs": [],
      "name": "name",
      "outputs": [
        {
          "internalType": "string",
          "name": "",
          "type": "string"
        }
      ],
      "stateMutability": "view",
      "type": "function"
    },
    {
      "inputs": [],
      "name": "nftPrice",
      "outputs": [
        {
          "internalType": "uint256",
          "name": "",
          "type": "uint256"
        }
      ],
      "stateMutability": "view",
      "type": "function"
    },
    {
      "inputs": [],
      "name": "owner",
      "outputs": [
        {
          "internalType": "address",
          "name": "",
          "type": "address"
        }
      ],
      "stateMutability": "view",
      "type": "function"
    },
    {
      "inputs": [
        {
          "internalType": "uint256",
          "name": "tokenId",
          "type": "uint256"
        }
      ],
      "name": "ownerOf",
      "outputs": [
        {
          "internalType": "address",
          "name": "",
          "type": "address"
        }
      ],
      "stateMutability": "view",
      "type": "function"
    },
    {
      "inputs": [
        {
          "internalType": "uint256",
          "name": "tokenId",
          "type": "uint256"
        },
        {
          "internalType": "uint256",
          "name": "cost",
          "type": "uint256"
        }
      ],
      "name": "putOnSell",
      "outputs": [],
      "stateMutability": "nonpayable",
      "type": "function"
    },
    {
      "inputs": [
        {
          "internalType": "uint256",
          "name": "tokenId",
          "type": "uint256"
        }
      ],
      "name": "removeFromSell",
      "outputs": [],
      "stateMutability": "nonpayable",
      "type": "function"
    },
    {
      "inputs": [],
      "name": "renounceOwnership",
      "outputs": [],
      "stateMutability": "nonpayable",
      "type": "function"
    },
    {
      "inputs": [
        {
          "internalType": "address",
          "name": "from",
          "type": "address"
        },
        {
          "internalType": "address",
          "name": "to",
          "type": "address"
        },
        {
          "internalType": "uint256",
          "name": "tokenId",
          "type": "uint256"
        }
      ],
      "name": "safeTransferFrom",
      "outputs": [],
      "stateMutability": "nonpayable",
      "type": "function"
    },
    {
      "inputs": [
        {
          "internalType": "address",
          "name": "from",
          "type": "address"
        },
        {
          "internalType": "address",
          "name": "to",
          "type": "address"
        },
        {
          "internalType": "uint256",
          "name": "tokenId",
          "type": "uint256"
        },
        {
          "internalType": "bytes",
          "name": "_data",
          "type": "bytes"
        }
      ],
      "name": "safeTransferFrom",
      "outputs": [],
      "stateMutability": "nonpayable",
      "type": "function"
    },
    {
      "inputs": [
        {
          "internalType": "address",
          "name": "operator",
          "type": "address"
        },
        {
          "internalType": "bool",
          "name": "approved",
          "type": "bool"
        }
      ],
      "name": "setApprovalForAll",
      "outputs": [],
      "stateMutability": "nonpayable",
      "type": "function"
    },
    {
      "inputs": [
        {
          "internalType": "bytes4",
          "name": "interfaceId",
          "type": "bytes4"
        }
      ],
      "name": "supportsInterface",
      "outputs": [
        {
          "internalType": "bool",
          "name": "",
          "type": "bool"
        }
      ],
      "stateMutability": "view",
      "type": "function"
    },
    {
      "inputs": [],
      "name": "symbol",
      "outputs": [
        {
          "internalType": "string",
          "name": "",
          "type": "string"
        }
      ],
      "stateMutability": "view",
      "type": "function"
    },
    {
      "inputs": [
        {
          "internalType": "uint256",
          "name": "tokenId",
          "type": "uint256"
        }
      ],
      "name": "tokenURI",
      "outputs": [
        {
          "internalType": "string",
          "name": "",
          "type": "string"
        }
      ],
      "stateMutability": "view",
      "type": "function"
    },
    {
      "inputs": [
        {
          "internalType": "address",
          "name": "from",
          "type": "address"
        },
        {
          "internalType": "address",
          "name": "to",
          "type": "address"
        },
        {
          "internalType": "uint256",
          "name": "tokenId",
          "type": "uint256"
        }
      ],
      "name": "transferFrom",
      "outputs": [],
      "stateMutability": "nonpayable",
      "type": "function"
    },
    {
      "inputs": [
        {
          "internalType": "address",
          "name": "newOwner",
          "type": "address"
        }
      ],
      "name": "transferOwnership",
      "outputs": [],
      "stateMutability": "nonpayable",
      "type": "function"
    },
    {
      "inputs": [
        {
          "internalType": "address payable",
          "name": "tokenOwner",
          "type": "address"
        },
        {
          "internalType": "uint256",
          "name": "tokenId",
          "type": "uint256"
        }
      ],
      "name": "trigerSell",
      "outputs": [],
      "stateMutability": "payable",
      "type": "function"
    },
    {
      "inputs": [
        {
          "internalType": "address payable",
          "name": "_to",
          "type": "address"
        }
      ],
      "name": "withdrow",
      "outputs": [],
      "stateMutability": "nonpayable",
      "type": "function"
    }
  ],
  "bytecode": "0x60a06040523480156200001157600080fd5b50604051620048563803806200485683398181016040528101906200003791906200032e565b6040518060400160405280600681526020017f4d756465427a00000000000000000000000000000000000000000000000000008152506040518060400160405280600681526020017f4d756465427a00000000000000000000000000000000000000000000000000008152508160009080519060200190620000bb92919062000200565b508060019080519060200190620000d492919062000200565b505050620000f7620000eb6200013260201b60201c565b6200013a60201b60201c565b8073ffffffffffffffffffffffffffffffffffffffff1660808173ffffffffffffffffffffffffffffffffffffffff168152505050620003c5565b600033905090565b6000600c60009054906101000a900473ffffffffffffffffffffffffffffffffffffffff16905081600c60006101000a81548173ffffffffffffffffffffffffffffffffffffffff021916908373ffffffffffffffffffffffffffffffffffffffff1602179055508173ffffffffffffffffffffffffffffffffffffffff168173ffffffffffffffffffffffffffffffffffffffff167f8be0079c531659141344cd1fd0a4f28419497f9722a3daafe3b4186f6b6457e060405160405180910390a35050565b8280546200020e906200038f565b90600052602060002090601f0160209004810192826200023257600085556200027e565b82601f106200024d57805160ff19168380011785556200027e565b828001600101855582156200027e579182015b828111156200027d57825182559160200191906001019062000260565b5b5090506200028d919062000291565b5090565b5b80821115620002ac57600081600090555060010162000292565b5090565b600080fd5b600073ffffffffffffffffffffffffffffffffffffffff82169050919050565b6000620002e282620002b5565b9050919050565b6000620002f682620002d5565b9050919050565b6200030881620002e9565b81146200031457600080fd5b50565b6000815190506200032881620002fd565b92915050565b600060208284031215620003475762000346620002b0565b5b6000620003578482850162000317565b91505092915050565b7f4e487b7100000000000000000000000000000000000000000000000000000000600052602260045260246000fd5b60006002820490506001821680620003a857607f821691505b60208210811415620003bf57620003be62000360565b5b50919050565b608051614475620003e1600039600061164001526144756000f3fe6080604052600436106101c25760003560e01c806370a08231116100f7578063a22cb46511610095578063daacb71b11610064578063daacb71b14610669578063e472f13514610685578063e985e9c5146106c2578063f2fde38b146106ff576101c2565b8063a22cb465146105b1578063b88d4fde146105da578063c395d9cc14610603578063c87b56dd1461062c576101c2565b806379b35411116100d157806379b35411146105055780638951764a146105305780638da5cb5b1461055b57806395d89b4114610586576101c2565b806370a0823114610488578063715018a6146104c557806372593831146104dc576101c2565b806323b872dd1161016457806342842e0e1161013e57806342842e0e146103a857806352ea4f77146103d1578063580df0021461040e5780636352211e1461044b576101c2565b806323b872dd146103265780633951ee821461034f5780633ccb70e61461036b576101c2565b8063095ea7b3116101a0578063095ea7b31461026c5780630d39fc81146102955780630f60e3ce146102c05780631caf9e57146102fd576101c2565b806301ffc9a7146101c757806306fdde0314610204578063081812fc1461022f575b600080fd5b3480156101d357600080fd5b506101ee60048036038101906101e99190612c43565b610728565b6040516101fb9190612c8b565b60405180910390f35b34801561021057600080fd5b5061021961080a565b6040516102269190612d3f565b60405180910390f35b34801561023b57600080fd5b5061025660048036038101906102519190612d97565b61089c565b6040516102639190612e05565b60405180910390f35b34801561027857600080fd5b50610293600480360381019061028e9190612e4c565b610921565b005b3480156102a157600080fd5b506102aa610a39565b6040516102b79190612e9b565b60405180910390f35b3480156102cc57600080fd5b506102e760048036038101906102e29190612eb6565b610a44565b6040516102f49190612ffa565b60405180910390f35b34801561030957600080fd5b50610324600480360381019061031f919061301c565b610b12565b005b34801561033257600080fd5b5061034d6004803603810190610348919061305c565b610c80565b005b610369600480360381019061036491906130ed565b610ce0565b005b34801561037757600080fd5b50610392600480360381019061038d9190612d97565b610e6f565b60405161039f9190612e9b565b60405180910390f35b3480156103b457600080fd5b506103cf60048036038101906103ca919061305c565b610e8c565b005b3480156103dd57600080fd5b506103f860048036038101906103f39190612e4c565b610eac565b6040516104059190612e9b565b60405180910390f35b34801561041a57600080fd5b5061043560048036038101906104309190612eb6565b610f07565b6040516104429190612c8b565b60405180910390f35b34801561045757600080fd5b50610472600480360381019061046d9190612d97565b610f5d565b60405161047f9190612e05565b60405180910390f35b34801561049457600080fd5b506104af60048036038101906104aa9190612eb6565b61100f565b6040516104bc9190612e9b565b60405180910390f35b3480156104d157600080fd5b506104da6110c7565b005b3480156104e857600080fd5b5061050360048036038101906104fe919061312d565b61114f565b005b34801561051157600080fd5b5061051a611215565b6040516105279190613218565b60405180910390f35b34801561053c57600080fd5b506105456112a3565b60405161055291906132a9565b60405180910390f35b34801561056757600080fd5b506105706112fb565b60405161057d9190612e05565b60405180910390f35b34801561059257600080fd5b5061059b611325565b6040516105a89190612d3f565b60405180910390f35b3480156105bd57600080fd5b506105d860048036038101906105d391906132f7565b6113b7565b005b3480156105e657600080fd5b5061060160048036038101906105fc919061346c565b6113cd565b005b34801561060f57600080fd5b5061062a60048036038101906106259190612d97565b61142f565b005b34801561063857600080fd5b50610653600480360381019061064e9190612d97565b611592565b6040516106609190612d3f565b60405180910390f35b610683600480360381019061067e9190612d97565b611639565b005b34801561069157600080fd5b506106ac60048036038101906106a79190612d97565b6119b6565b6040516106b99190612c8b565b60405180910390f35b3480156106ce57600080fd5b506106e960048036038101906106e491906134ef565b6119e0565b6040516106f69190612c8b565b60405180910390f35b34801561070b57600080fd5b5061072660048036038101906107219190612eb6565b611a74565b005b60007f80ac58cd000000000000000000000000000000000000000000000000000000007bffffffffffffffffffffffffffffffffffffffffffffffffffffffff1916827bffffffffffffffffffffffffffffffffffffffffffffffffffffffff191614806107f357507f5b5e139f000000000000000000000000000000000000000000000000000000007bffffffffffffffffffffffffffffffffffffffffffffffffffffffff1916827bffffffffffffffffffffffffffffffffffffffffffffffffffffffff1916145b80610803575061080282611b6c565b5b9050919050565b6060600080546108199061355e565b80601f01602080910402602001604051908101604052809291908181526020018280546108459061355e565b80156108925780601f1061086757610100808354040283529160200191610892565b820191906000526020600020905b81548152906001019060200180831161087557829003601f168201915b5050505050905090565b60006108a782611bd6565b6108e6576040517f08c379a00000000000000000000000000000000000000000000000000000000081526004016108dd90613602565b60405180910390fd5b6004600083815260200190815260200160002060009054906101000a900473ffffffffffffffffffffffffffffffffffffffff169050919050565b600061092c82610f5d565b90508073ffffffffffffffffffffffffffffffffffffffff168373ffffffffffffffffffffffffffffffffffffffff16141561099d576040517f08c379a000000000000000000000000000000000000000000000000000000000815260040161099490613694565b60405180910390fd5b8073ffffffffffffffffffffffffffffffffffffffff166109bc611c42565b73ffffffffffffffffffffffffffffffffffffffff1614806109eb57506109ea816109e5611c42565b6119e0565b5b610a2a576040517f08c379a0000000000000000000000000000000000000000000000000000000008152600401610a2190613726565b60405180910390fd5b610a348383611c4a565b505050565b6671afd498d0000081565b610a4c612bba565b600960008373ffffffffffffffffffffffffffffffffffffffff1673ffffffffffffffffffffffffffffffffffffffff16815260200190815260200160002060405180604001604052908160008201805480602002602001604051908101604052809291908181526020018280548015610ae557602002820191906000526020600020905b815481526020019060010190808311610ad1575b505050505081526020016001820160009054906101000a900460ff1660ff1660ff16815250509050919050565b3373ffffffffffffffffffffffffffffffffffffffff16610b3283610f5d565b73ffffffffffffffffffffffffffffffffffffffff16148015610b555750600081115b610b94576040517f08c379a0000000000000000000000000000000000000000000000000000000008152600401610b8b90613792565b60405180910390fd5b6000600d60003373ffffffffffffffffffffffffffffffffffffffff1673ffffffffffffffffffffffffffffffffffffffff16815260200190815260200160002060008481526020019081526020016000205414610c27576040517f08c379a0000000000000000000000000000000000000000000000000000000008152600401610c1e906137fe565b60405180910390fd5b80600d60003373ffffffffffffffffffffffffffffffffffffffff1673ffffffffffffffffffffffffffffffffffffffff1681526020019081526020016000206000848152602001908152602001600020819055505050565b610c91610c8b611c42565b82611d03565b610cd0576040517f08c379a0000000000000000000000000000000000000000000000000000000008152600401610cc790613890565b60405180910390fd5b610cdb838383611de1565b505050565b600d60008373ffffffffffffffffffffffffffffffffffffffff1673ffffffffffffffffffffffffffffffffffffffff168152602001908152602001600020600082815260200190815260200160002054341015610d73576040517f08c379a0000000000000000000000000000000000000000000000000000000008152600401610d6a906138fc565b60405180910390fd5b8173ffffffffffffffffffffffffffffffffffffffff166108fc600d60008573ffffffffffffffffffffffffffffffffffffffff1673ffffffffffffffffffffffffffffffffffffffff1681526020019081526020016000206000848152602001908152602001600020549081150290604051600060405180830381858888f19350505050158015610e09573d6000803e3d6000fd5b506000600d60008473ffffffffffffffffffffffffffffffffffffffff1673ffffffffffffffffffffffffffffffffffffffff168152602001908152602001600020600083815260200190815260200160002081905550610e6b823383611de1565b5050565b6000600b6000838152602001908152602001600020549050919050565b610ea7838383604051806020016040528060008152506113cd565b505050565b6000600d60008473ffffffffffffffffffffffffffffffffffffffff1673ffffffffffffffffffffffffffffffffffffffff168152602001908152602001600020600083815260200190815260200160002054905092915050565b6000600760008373ffffffffffffffffffffffffffffffffffffffff1673ffffffffffffffffffffffffffffffffffffffff16815260200190815260200160002060009054906101000a900460ff169050919050565b6000806002600084815260200190815260200160002060009054906101000a900473ffffffffffffffffffffffffffffffffffffffff169050600073ffffffffffffffffffffffffffffffffffffffff168173ffffffffffffffffffffffffffffffffffffffff161415611006576040517f08c379a0000000000000000000000000000000000000000000000000000000008152600401610ffd9061398e565b60405180910390fd5b80915050919050565b60008073ffffffffffffffffffffffffffffffffffffffff168273ffffffffffffffffffffffffffffffffffffffff161415611080576040517f08c379a000000000000000000000000000000000000000000000000000000000815260040161107790613a20565b60405180910390fd5b600360008373ffffffffffffffffffffffffffffffffffffffff1673ffffffffffffffffffffffffffffffffffffffff168152602001908152602001600020549050919050565b6110cf611c42565b73ffffffffffffffffffffffffffffffffffffffff166110ed6112fb565b73ffffffffffffffffffffffffffffffffffffffff1614611143576040517f08c379a000000000000000000000000000000000000000000000000000000000815260040161113a90613a8c565b60405180910390fd5b61114d600061237c565b565b611157611c42565b73ffffffffffffffffffffffffffffffffffffffff166111756112fb565b73ffffffffffffffffffffffffffffffffffffffff16146111cb576040517f08c379a00000000000000000000000000000000000000000000000000000000081526004016111c290613a8c565b60405180910390fd5b8073ffffffffffffffffffffffffffffffffffffffff166108fc479081150290604051600060405180830381858888f19350505050158015611211573d6000803e3d6000fd5b5050565b6060600880548060200260200160405190810160405280929190818152602001828054801561129957602002820191906000526020600020905b8160009054906101000a900473ffffffffffffffffffffffffffffffffffffffff1673ffffffffffffffffffffffffffffffffffffffff168152602001906001019080831161124f575b5050505050905090565b6060600a8054806020026020016040519081016040528092919081815260200182805480156112f157602002820191906000526020600020905b8154815260200190600101908083116112dd575b5050505050905090565b6000600c60009054906101000a900473ffffffffffffffffffffffffffffffffffffffff16905090565b6060600180546113349061355e565b80601f01602080910402602001604051908101604052809291908181526020018280546113609061355e565b80156113ad5780601f10611382576101008083540402835291602001916113ad565b820191906000526020600020905b81548152906001019060200180831161139057829003601f168201915b5050505050905090565b6113c96113c2611c42565b8383612442565b5050565b6113de6113d8611c42565b83611d03565b61141d576040517f08c379a000000000000000000000000000000000000000000000000000000000815260040161141490613890565b60405180910390fd5b611429848484846125af565b50505050565b3373ffffffffffffffffffffffffffffffffffffffff1661144f82610f5d565b73ffffffffffffffffffffffffffffffffffffffff16146114a5576040517f08c379a000000000000000000000000000000000000000000000000000000000815260040161149c90613792565b60405180910390fd5b6000600d60003373ffffffffffffffffffffffffffffffffffffffff1673ffffffffffffffffffffffffffffffffffffffff1681526020019081526020016000206000838152602001908152602001600020541415611539576040517f08c379a000000000000000000000000000000000000000000000000000000000815260040161153090613af8565b60405180910390fd5b6000600d60003373ffffffffffffffffffffffffffffffffffffffff1673ffffffffffffffffffffffffffffffffffffffff16815260200190815260200160002060008381526020019081526020016000208190555050565b606061159d82611bd6565b6115dc576040517f08c379a00000000000000000000000000000000000000000000000000000000081526004016115d390613b8a565b60405180910390fd5b60006115e661260b565b905060008151116116065760405180602001604052806000815250611631565b8061161084612622565b604051602001611621929190613be6565b6040516020818303038152906040525b915050919050565b60003390507f000000000000000000000000000000000000000000000000000000000000000073ffffffffffffffffffffffffffffffffffffffff166304b675ae82846040518363ffffffff1660e01b8152600401611699929190613c0a565b602060405180830381865afa1580156116b6573d6000803e3d6000fd5b505050506040513d601f19601f820116820180604052508101906116da9190613c48565b611719576040517f08c379a000000000000000000000000000000000000000000000000000000000815260040161171090613cc1565b60405180910390fd5b6117216112fb565b73ffffffffffffffffffffffffffffffffffffffff163373ffffffffffffffffffffffffffffffffffffffff161461179e576671afd498d0000034101561179d576040517f08c379a000000000000000000000000000000000000000000000000000000000815260040161179490613d2d565b60405180910390fd5b5b6117a88183612783565b6117b1826127a1565b600b600083815260200190815260200160002060008154809291906117d590613d7c565b9190505550600760008273ffffffffffffffffffffffffffffffffffffffff1673ffffffffffffffffffffffffffffffffffffffff16815260200190815260200160002060009054906101000a900460ff166118e7576001600760008373ffffffffffffffffffffffffffffffffffffffff1673ffffffffffffffffffffffffffffffffffffffff16815260200190815260200160002060006101000a81548160ff0219169083151502179055506008819080600181540180825580915050600190039060005260206000200160009091909190916101000a81548173ffffffffffffffffffffffffffffffffffffffff021916908373ffffffffffffffffffffffffffffffffffffffff1602179055505b600960008273ffffffffffffffffffffffffffffffffffffffff1673ffffffffffffffffffffffffffffffffffffffff168152602001908152602001600020600001829080600181540180825580915050600190039060005260206000200160009091909190915055600a8290806001815401808255809150506001900390600052602060002001600090919091909150557f56a2167b6735d8ab481c24910717cff4b1efc14a660a456533081066afd0643f33836040516119aa929190613c0a565b60405180910390a15050565b60006006600083815260200190815260200160002060009054906101000a900460ff169050919050565b6000600560008473ffffffffffffffffffffffffffffffffffffffff1673ffffffffffffffffffffffffffffffffffffffff16815260200190815260200160002060008373ffffffffffffffffffffffffffffffffffffffff1673ffffffffffffffffffffffffffffffffffffffff16815260200190815260200160002060009054906101000a900460ff16905092915050565b611a7c611c42565b73ffffffffffffffffffffffffffffffffffffffff16611a9a6112fb565b73ffffffffffffffffffffffffffffffffffffffff1614611af0576040517f08c379a0000000000000000000000000000000000000000000000000000000008152600401611ae790613a8c565b60405180910390fd5b600073ffffffffffffffffffffffffffffffffffffffff168173ffffffffffffffffffffffffffffffffffffffff161415611b60576040517f08c379a0000000000000000000000000000000000000000000000000000000008152600401611b5790613e37565b60405180910390fd5b611b698161237c565b50565b60007f01ffc9a7000000000000000000000000000000000000000000000000000000007bffffffffffffffffffffffffffffffffffffffffffffffffffffffff1916827bffffffffffffffffffffffffffffffffffffffffffffffffffffffff1916149050919050565b60008073ffffffffffffffffffffffffffffffffffffffff166002600084815260200190815260200160002060009054906101000a900473ffffffffffffffffffffffffffffffffffffffff1673ffffffffffffffffffffffffffffffffffffffff1614159050919050565b600033905090565b816004600083815260200190815260200160002060006101000a81548173ffffffffffffffffffffffffffffffffffffffff021916908373ffffffffffffffffffffffffffffffffffffffff160217905550808273ffffffffffffffffffffffffffffffffffffffff16611cbd83610f5d565b73ffffffffffffffffffffffffffffffffffffffff167f8c5be1e5ebec7d5bd14f71427d1e84f3dd0314c0f7b2291e5b200ac8c7c3b92560405160405180910390a45050565b6000611d0e82611bd6565b611d4d576040517f08c379a0000000000000000000000000000000000000000000000000000000008152600401611d4490613ec9565b60405180910390fd5b6000611d5883610f5d565b90508073ffffffffffffffffffffffffffffffffffffffff168473ffffffffffffffffffffffffffffffffffffffff161480611dc757508373ffffffffffffffffffffffffffffffffffffffff16611daf8461089c565b73ffffffffffffffffffffffffffffffffffffffff16145b80611dd85750611dd781856119e0565b5b91505092915050565b8273ffffffffffffffffffffffffffffffffffffffff16611e0182610f5d565b73ffffffffffffffffffffffffffffffffffffffff1614611e57576040517f08c379a0000000000000000000000000000000000000000000000000000000008152600401611e4e90613f5b565b60405180910390fd5b600073ffffffffffffffffffffffffffffffffffffffff168273ffffffffffffffffffffffffffffffffffffffff161415611ec7576040517f08c379a0000000000000000000000000000000000000000000000000000000008152600401611ebe90613fed565b60405180910390fd5b611ed28383836127d0565b611edd600082611c4a565b6000600960008573ffffffffffffffffffffffffffffffffffffffff1673ffffffffffffffffffffffffffffffffffffffff168152602001908152602001600020600001905060008180549050905060005b8181101561204e5783838281548110611f4b57611f4a61400d565b5b9060005260206000200154141561203b576001821415611f915782805480611f7657611f7561403c565b5b60019003818190600052602060002001600090559055612036565b60008190505b60018480549050611fa8919061406b565b81101561200d5783600182611fbd919061409f565b81548110611fce57611fcd61400d565b5b9060005260206000200154848281548110611fec57611feb61400d565b5b9060005260206000200181905550808061200590613d7c565b915050611f97565b508280548061201f5761201e61403c565b5b600190038181906000526020600020016000905590555b61204e565b808061204690613d7c565b915050611f2f565b50600960008573ffffffffffffffffffffffffffffffffffffffff1673ffffffffffffffffffffffffffffffffffffffff1681526020019081526020016000206000018390806001815401808255809150506001900390600052602060002001600090919091909150556001600360008773ffffffffffffffffffffffffffffffffffffffff1673ffffffffffffffffffffffffffffffffffffffff1681526020019081526020016000206000828254612108919061406b565b925050819055506001600360008673ffffffffffffffffffffffffffffffffffffffff1673ffffffffffffffffffffffffffffffffffffffff168152602001908152602001600020600082825461215f919061409f565b92505081905550836002600085815260200190815260200160002060006101000a81548173ffffffffffffffffffffffffffffffffffffffff021916908373ffffffffffffffffffffffffffffffffffffffff1602179055506064600b6000858152602001908152602001600020541080156122255750600760008573ffffffffffffffffffffffffffffffffffffffff1673ffffffffffffffffffffffffffffffffffffffff16815260200190815260200160002060009054906101000a900460ff16155b1561230f57600b6000848152602001908152602001600020600081548092919061224e90613d7c565b91905055506001600760008673ffffffffffffffffffffffffffffffffffffffff1673ffffffffffffffffffffffffffffffffffffffff16815260200190815260200160002060006101000a81548160ff0219169083151502179055506008849080600181540180825580915050600190039060005260206000200160009091909190916101000a81548173ffffffffffffffffffffffffffffffffffffffff021916908373ffffffffffffffffffffffffffffffffffffffff1602179055505b828473ffffffffffffffffffffffffffffffffffffffff168673ffffffffffffffffffffffffffffffffffffffff167fddf252ad1be2c89b69c2b068fc378daa952ba7f163c4a11628f55a4df523b3ef60405160405180910390a46123758585856127d5565b5050505050565b6000600c60009054906101000a900473ffffffffffffffffffffffffffffffffffffffff16905081600c60006101000a81548173ffffffffffffffffffffffffffffffffffffffff021916908373ffffffffffffffffffffffffffffffffffffffff1602179055508173ffffffffffffffffffffffffffffffffffffffff168173ffffffffffffffffffffffffffffffffffffffff167f8be0079c531659141344cd1fd0a4f28419497f9722a3daafe3b4186f6b6457e060405160405180910390a35050565b8173ffffffffffffffffffffffffffffffffffffffff168373ffffffffffffffffffffffffffffffffffffffff1614156124b1576040517f08c379a00000000000000000000000000000000000000000000000000000000081526004016124a890614141565b60405180910390fd5b80600560008573ffffffffffffffffffffffffffffffffffffffff1673ffffffffffffffffffffffffffffffffffffffff16815260200190815260200160002060008473ffffffffffffffffffffffffffffffffffffffff1673ffffffffffffffffffffffffffffffffffffffff16815260200190815260200160002060006101000a81548160ff0219169083151502179055508173ffffffffffffffffffffffffffffffffffffffff168373ffffffffffffffffffffffffffffffffffffffff167f17307eab39ab6107e8899845ad3d59bd9653f200f220920489ca2b5937696c31836040516125a29190612c8b565b60405180910390a3505050565b6125ba848484611de1565b6125c6848484846127da565b612605576040517f08c379a00000000000000000000000000000000000000000000000000000000081526004016125fc906141d3565b60405180910390fd5b50505050565b606060405180602001604052806000815250905090565b6060600082141561266a576040518060400160405280600181526020017f3000000000000000000000000000000000000000000000000000000000000000815250905061277e565b600082905060005b6000821461269c57808061268590613d7c565b915050600a826126959190614222565b9150612672565b60008167ffffffffffffffff8111156126b8576126b7613341565b5b6040519080825280601f01601f1916602001820160405280156126ea5781602001600182028036833780820191505090505b5090505b6000851461277757600182612703919061406b565b9150600a856127129190614253565b603061271e919061409f565b60f81b8183815181106127345761273361400d565b5b60200101907effffffffffffffffffffffffffffffffffffffffffffffffffffffffffffff1916908160001a905350600a856127709190614222565b94506126ee565b8093505050505b919050565b61279d828260405180602001604052806000815250612962565b5050565b60016006600083815260200190815260200160002060006101000a81548160ff02191690831515021790555050565b505050565b505050565b60006127fb8473ffffffffffffffffffffffffffffffffffffffff166129bd565b15612955578373ffffffffffffffffffffffffffffffffffffffff1663150b7a02612824611c42565b8786866040518563ffffffff1660e01b815260040161284694939291906142d9565b6020604051808303816000875af192505050801561288257506040513d601f19601f8201168201806040525081019061287f919061433a565b60015b612905573d80600081146128b2576040519150601f19603f3d011682016040523d82523d6000602084013e6128b7565b606091505b506000815114156128fd576040517f08c379a00000000000000000000000000000000000000000000000000000000081526004016128f4906141d3565b60405180910390fd5b805181602001fd5b63150b7a0260e01b7bffffffffffffffffffffffffffffffffffffffffffffffffffffffff1916817bffffffffffffffffffffffffffffffffffffffffffffffffffffffff19161491505061295a565b600190505b949350505050565b61296c83836129e0565b61297960008484846127da565b6129b8576040517f08c379a00000000000000000000000000000000000000000000000000000000081526004016129af906141d3565b60405180910390fd5b505050565b6000808273ffffffffffffffffffffffffffffffffffffffff163b119050919050565b600073ffffffffffffffffffffffffffffffffffffffff168273ffffffffffffffffffffffffffffffffffffffff161415612a50576040517f08c379a0000000000000000000000000000000000000000000000000000000008152600401612a47906143b3565b60405180910390fd5b612a5981611bd6565b15612a99576040517f08c379a0000000000000000000000000000000000000000000000000000000008152600401612a909061441f565b60405180910390fd5b612aa5600083836127d0565b6001600360008473ffffffffffffffffffffffffffffffffffffffff1673ffffffffffffffffffffffffffffffffffffffff1681526020019081526020016000206000828254612af5919061409f565b92505081905550816002600083815260200190815260200160002060006101000a81548173ffffffffffffffffffffffffffffffffffffffff021916908373ffffffffffffffffffffffffffffffffffffffff160217905550808273ffffffffffffffffffffffffffffffffffffffff16600073ffffffffffffffffffffffffffffffffffffffff167fddf252ad1be2c89b69c2b068fc378daa952ba7f163c4a11628f55a4df523b3ef60405160405180910390a4612bb6600083836127d5565b5050565b604051806040016040528060608152602001600060ff1681525090565b6000604051905090565b600080fd5b600080fd5b60007fffffffff0000000000000000000000000000000000000000000000000000000082169050919050565b612c2081612beb565b8114612c2b57600080fd5b50565b600081359050612c3d81612c17565b92915050565b600060208284031215612c5957612c58612be1565b5b6000612c6784828501612c2e565b91505092915050565b60008115159050919050565b612c8581612c70565b82525050565b6000602082019050612ca06000830184612c7c565b92915050565b600081519050919050565b600082825260208201905092915050565b60005b83811015612ce0578082015181840152602081019050612cc5565b83811115612cef576000848401525b50505050565b6000601f19601f8301169050919050565b6000612d1182612ca6565b612d1b8185612cb1565b9350612d2b818560208601612cc2565b612d3481612cf5565b840191505092915050565b60006020820190508181036000830152612d598184612d06565b905092915050565b6000819050919050565b612d7481612d61565b8114612d7f57600080fd5b50565b600081359050612d9181612d6b565b92915050565b600060208284031215612dad57612dac612be1565b5b6000612dbb84828501612d82565b91505092915050565b600073ffffffffffffffffffffffffffffffffffffffff82169050919050565b6000612def82612dc4565b9050919050565b612dff81612de4565b82525050565b6000602082019050612e1a6000830184612df6565b92915050565b612e2981612de4565b8114612e3457600080fd5b50565b600081359050612e4681612e20565b92915050565b60008060408385031215612e6357612e62612be1565b5b6000612e7185828601612e37565b9250506020612e8285828601612d82565b9150509250929050565b612e9581612d61565b82525050565b6000602082019050612eb06000830184612e8c565b92915050565b600060208284031215612ecc57612ecb612be1565b5b6000612eda84828501612e37565b91505092915050565b600081519050919050565b600082825260208201905092915050565b6000819050602082019050919050565b612f1881612d61565b82525050565b6000612f2a8383612f0f565b60208301905092915050565b6000602082019050919050565b6000612f4e82612ee3565b612f588185612eee565b9350612f6383612eff565b8060005b83811015612f94578151612f7b8882612f1e565b9750612f8683612f36565b925050600181019050612f67565b5085935050505092915050565b600060ff82169050919050565b612fb781612fa1565b82525050565b60006040830160008301518482036000860152612fda8282612f43565b9150506020830151612fef6020860182612fae565b508091505092915050565b600060208201905081810360008301526130148184612fbd565b905092915050565b6000806040838503121561303357613032612be1565b5b600061304185828601612d82565b925050602061305285828601612d82565b9150509250929050565b60008060006060848603121561307557613074612be1565b5b600061308386828701612e37565b935050602061309486828701612e37565b92505060406130a586828701612d82565b9150509250925092565b60006130ba82612dc4565b9050919050565b6130ca816130af565b81146130d557600080fd5b50565b6000813590506130e7816130c1565b92915050565b6000806040838503121561310457613103612be1565b5b6000613112858286016130d8565b925050602061312385828601612d82565b9150509250929050565b60006020828403121561314357613142612be1565b5b6000613151848285016130d8565b91505092915050565b600081519050919050565b600082825260208201905092915050565b6000819050602082019050919050565b61318f81612de4565b82525050565b60006131a18383613186565b60208301905092915050565b6000602082019050919050565b60006131c58261315a565b6131cf8185613165565b93506131da83613176565b8060005b8381101561320b5781516131f28882613195565b97506131fd836131ad565b9250506001810190506131de565b5085935050505092915050565b6000602082019050818103600083015261323281846131ba565b905092915050565b600082825260208201905092915050565b600061325682612ee3565b613260818561323a565b935061326b83612eff565b8060005b8381101561329c5781516132838882612f1e565b975061328e83612f36565b92505060018101905061326f565b5085935050505092915050565b600060208201905081810360008301526132c3818461324b565b905092915050565b6132d481612c70565b81146132df57600080fd5b50565b6000813590506132f1816132cb565b92915050565b6000806040838503121561330e5761330d612be1565b5b600061331c85828601612e37565b925050602061332d858286016132e2565b9150509250929050565b600080fd5b600080fd5b7f4e487b7100000000000000000000000000000000000000000000000000000000600052604160045260246000fd5b61337982612cf5565b810181811067ffffffffffffffff8211171561339857613397613341565b5b80604052505050565b60006133ab612bd7565b90506133b78282613370565b919050565b600067ffffffffffffffff8211156133d7576133d6613341565b5b6133e082612cf5565b9050602081019050919050565b82818337600083830152505050565b600061340f61340a846133bc565b6133a1565b90508281526020810184848401111561342b5761342a61333c565b5b6134368482856133ed565b509392505050565b600082601f83011261345357613452613337565b5b81356134638482602086016133fc565b91505092915050565b6000806000806080858703121561348657613485612be1565b5b600061349487828801612e37565b94505060206134a587828801612e37565b93505060406134b687828801612d82565b925050606085013567ffffffffffffffff8111156134d7576134d6612be6565b5b6134e38782880161343e565b91505092959194509250565b6000806040838503121561350657613505612be1565b5b600061351485828601612e37565b925050602061352585828601612e37565b9150509250929050565b7f4e487b7100000000000000000000000000000000000000000000000000000000600052602260045260246000fd5b6000600282049050600182168061357657607f821691505b6020821081141561358a5761358961352f565b5b50919050565b7f4552433732313a20617070726f76656420717565727920666f72206e6f6e657860008201527f697374656e7420746f6b656e0000000000000000000000000000000000000000602082015250565b60006135ec602c83612cb1565b91506135f782613590565b604082019050919050565b6000602082019050818103600083015261361b816135df565b9050919050565b7f4552433732313a20617070726f76616c20746f2063757272656e74206f776e6560008201527f7200000000000000000000000000000000000000000000000000000000000000602082015250565b600061367e602183612cb1565b915061368982613622565b604082019050919050565b600060208201905081810360008301526136ad81613671565b9050919050565b7f4552433732313a20617070726f76652063616c6c6572206973206e6f74206f7760008201527f6e6572206e6f7220617070726f76656420666f7220616c6c0000000000000000602082015250565b6000613710603883612cb1565b915061371b826136b4565b604082019050919050565b6000602082019050818103600083015261373f81613703565b9050919050565b7f6e6f7420796f757220746f6b656e000000000000000000000000000000000000600082015250565b600061377c600e83612cb1565b915061378782613746565b602082019050919050565b600060208201905081810360008301526137ab8161376f565b9050919050565b7f746f6b656e20616c7265616479206f6e2073656c6c0000000000000000000000600082015250565b60006137e8601583612cb1565b91506137f3826137b2565b602082019050919050565b60006020820190508181036000830152613817816137db565b9050919050565b7f4552433732313a207472616e736665722063616c6c6572206973206e6f74206f60008201527f776e6572206e6f7220617070726f766564000000000000000000000000000000602082015250565b600061387a603183612cb1565b91506138858261381e565b604082019050919050565b600060208201905081810360008301526138a98161386d565b9050919050565b7f6e6f7420656e6f6774682076616c756500000000000000000000000000000000600082015250565b60006138e6601083612cb1565b91506138f1826138b0565b602082019050919050565b60006020820190508181036000830152613915816138d9565b9050919050565b7f4552433732313a206f776e657220717565727920666f72206e6f6e657869737460008201527f656e7420746f6b656e0000000000000000000000000000000000000000000000602082015250565b6000613978602983612cb1565b91506139838261391c565b604082019050919050565b600060208201905081810360008301526139a78161396b565b9050919050565b7f4552433732313a2062616c616e636520717565727920666f7220746865207a6560008201527f726f206164647265737300000000000000000000000000000000000000000000602082015250565b6000613a0a602a83612cb1565b9150613a15826139ae565b604082019050919050565b60006020820190508181036000830152613a39816139fd565b9050919050565b7f4f776e61626c653a2063616c6c6572206973206e6f7420746865206f776e6572600082015250565b6000613a76602083612cb1565b9150613a8182613a40565b602082019050919050565b60006020820190508181036000830152613aa581613a69565b9050919050565b7f746f6b656e206e6f74206f6e2073656c6c000000000000000000000000000000600082015250565b6000613ae2601183612cb1565b9150613aed82613aac565b602082019050919050565b60006020820190508181036000830152613b1181613ad5565b9050919050565b7f4552433732314d657461646174613a2055524920717565727920666f72206e6f60008201527f6e6578697374656e7420746f6b656e0000000000000000000000000000000000602082015250565b6000613b74602f83612cb1565b9150613b7f82613b18565b604082019050919050565b60006020820190508181036000830152613ba381613b67565b9050919050565b600081905092915050565b6000613bc082612ca6565b613bca8185613baa565b9350613bda818560208601612cc2565b80840191505092915050565b6000613bf28285613bb5565b9150613bfe8284613bb5565b91508190509392505050565b6000604082019050613c1f6000830185612df6565b613c2c6020830184612e8c565b9392505050565b600081519050613c42816132cb565b92915050565b600060208284031215613c5e57613c5d612be1565b5b6000613c6c84828501613c33565b91505092915050565b7f4e6f7420796f75727320746f6b656e0000000000000000000000000000000000600082015250565b6000613cab600f83612cb1565b9150613cb682613c75565b602082019050919050565b60006020820190508181036000830152613cda81613c9e565b9050919050565b7f57726f6e672073656e642076616c756500000000000000000000000000000000600082015250565b6000613d17601083612cb1565b9150613d2282613ce1565b602082019050919050565b60006020820190508181036000830152613d4681613d0a565b9050919050565b7f4e487b7100000000000000000000000000000000000000000000000000000000600052601160045260246000fd5b6000613d8782612d61565b91507fffffffffffffffffffffffffffffffffffffffffffffffffffffffffffffffff821415613dba57613db9613d4d565b5b600182019050919050565b7f4f776e61626c653a206e6577206f776e657220697320746865207a65726f206160008201527f6464726573730000000000000000000000000000000000000000000000000000602082015250565b6000613e21602683612cb1565b9150613e2c82613dc5565b604082019050919050565b60006020820190508181036000830152613e5081613e14565b9050919050565b7f4552433732313a206f70657261746f7220717565727920666f72206e6f6e657860008201527f697374656e7420746f6b656e0000000000000000000000000000000000000000602082015250565b6000613eb3602c83612cb1565b9150613ebe82613e57565b604082019050919050565b60006020820190508181036000830152613ee281613ea6565b9050919050565b7f4552433732313a207472616e736665722066726f6d20696e636f72726563742060008201527f6f776e6572000000000000000000000000000000000000000000000000000000602082015250565b6000613f45602583612cb1565b9150613f5082613ee9565b604082019050919050565b60006020820190508181036000830152613f7481613f38565b9050919050565b7f4552433732313a207472616e7366657220746f20746865207a65726f2061646460008201527f7265737300000000000000000000000000000000000000000000000000000000602082015250565b6000613fd7602483612cb1565b9150613fe282613f7b565b604082019050919050565b6000602082019050818103600083015261400681613fca565b9050919050565b7f4e487b7100000000000000000000000000000000000000000000000000000000600052603260045260246000fd5b7f4e487b7100000000000000000000000000000000000000000000000000000000600052603160045260246000fd5b600061407682612d61565b915061408183612d61565b92508282101561409457614093613d4d565b5b828203905092915050565b60006140aa82612d61565b91506140b583612d61565b9250827fffffffffffffffffffffffffffffffffffffffffffffffffffffffffffffffff038211156140ea576140e9613d4d565b5b828201905092915050565b7f4552433732313a20617070726f766520746f2063616c6c657200000000000000600082015250565b600061412b601983612cb1565b9150614136826140f5565b602082019050919050565b6000602082019050818103600083015261415a8161411e565b9050919050565b7f4552433732313a207472616e7366657220746f206e6f6e20455243373231526560008201527f63656976657220696d706c656d656e7465720000000000000000000000000000602082015250565b60006141bd603283612cb1565b91506141c882614161565b604082019050919050565b600060208201905081810360008301526141ec816141b0565b9050919050565b7f4e487b7100000000000000000000000000000000000000000000000000000000600052601260045260246000fd5b600061422d82612d61565b915061423883612d61565b925082614248576142476141f3565b5b828204905092915050565b600061425e82612d61565b915061426983612d61565b925082614279576142786141f3565b5b828206905092915050565b600081519050919050565b600082825260208201905092915050565b60006142ab82614284565b6142b5818561428f565b93506142c5818560208601612cc2565b6142ce81612cf5565b840191505092915050565b60006080820190506142ee6000830187612df6565b6142fb6020830186612df6565b6143086040830185612e8c565b818103606083015261431a81846142a0565b905095945050505050565b60008151905061433481612c17565b92915050565b6000602082840312156143505761434f612be1565b5b600061435e84828501614325565b91505092915050565b7f4552433732313a206d696e7420746f20746865207a65726f2061646472657373600082015250565b600061439d602083612cb1565b91506143a882614367565b602082019050919050565b600060208201905081810360008301526143cc81614390565b9050919050565b7f4552433732313a20746f6b656e20616c7265616479206d696e74656400000000600082015250565b6000614409601c83612cb1565b9150614414826143d3565b602082019050919050565b60006020820190508181036000830152614438816143fc565b905091905056fea2646970667358221220dca4e9ed2a5e448cd646457d9127bd9c6c1bf0f6565eabcb639dcc008654ff4064736f6c634300080b0033",
  "linkReferences": {},
  "deployedLinkReferences": {}
}