{
  "_format": "hh-sol-artifact-1",
  "contractName": "MudebzNFT",
  "sourceName": "contracts/MudebzNFT.sol",
  "abi": [
    {
      "inputs": [
        {
          "internalType": "contract Lottery",
          "name": "_lottery",
          "type": "address"
        }
      ],
      "stateMutability": "nonpayable",
      "type": "constructor"
    },
    {
      "anonymous": false,
      "inputs": [
        {
          "indexed": true,
          "internalType": "address",
          "name": "owner",
          "type": "address"
        },
        {
          "indexed": true,
          "internalType": "address",
          "name": "approved",
          "type": "address"
        },
        {
          "indexed": true,
          "internalType": "uint256",
          "name": "tokenId",
          "type": "uint256"
        }
      ],
      "name": "Approval",
      "type": "event"
    },
    {
      "anonymous": false,
      "inputs": [
        {
          "indexed": true,
          "internalType": "address",
          "name": "owner",
          "type": "address"
        },
        {
          "indexed": true,
          "internalType": "address",
          "name": "operator",
          "type": "address"
        },
        {
          "indexed": false,
          "internalType": "bool",
          "name": "approved",
          "type": "bool"
        }
      ],
      "name": "ApprovalForAll",
      "type": "event"
    },
    {
      "anonymous": false,
      "inputs": [
        {
          "indexed": false,
          "internalType": "address",
          "name": "owner",
          "type": "address"
        },
        {
          "indexed": false,
          "internalType": "uint256",
          "name": "tokenId",
          "type": "uint256"
        }
      ],
      "name": "NewNFT",
      "type": "event"
    },
    {
      "anonymous": false,
      "inputs": [
        {
          "indexed": true,
          "internalType": "address",
          "name": "previousOwner",
          "type": "address"
        },
        {
          "indexed": true,
          "internalType": "address",
          "name": "newOwner",
          "type": "address"
        }
      ],
      "name": "OwnershipTransferred",
      "type": "event"
    },
    {
      "anonymous": false,
      "inputs": [
        {
          "indexed": true,
          "internalType": "address",
          "name": "from",
          "type": "address"
        },
        {
          "indexed": true,
          "internalType": "address",
          "name": "to",
          "type": "address"
        },
        {
          "indexed": true,
          "internalType": "uint256",
          "name": "tokenId",
          "type": "uint256"
        }
      ],
      "name": "Transfer",
      "type": "event"
    },
    {
      "inputs": [
        {
          "internalType": "uint256",
          "name": "TokenId",
          "type": "uint256"
        }
      ],
      "name": "MintMarten",
      "outputs": [],
      "stateMutability": "payable",
      "type": "function"
    },
    {
      "inputs": [
        {
          "internalType": "address",
          "name": "to",
          "type": "address"
        },
        {
          "internalType": "uint256",
          "name": "tokenId",
          "type": "uint256"
        }
      ],
      "name": "approve",
      "outputs": [],
      "stateMutability": "nonpayable",
      "type": "function"
    },
    {
      "inputs": [
        {
          "internalType": "address",
          "name": "owner",
          "type": "address"
        }
      ],
      "name": "balanceOf",
      "outputs": [
        {
          "internalType": "uint256",
          "name": "",
          "type": "uint256"
        }
      ],
      "stateMutability": "view",
      "type": "function"
    },
    {
      "inputs": [
        {
          "internalType": "uint256",
          "name": "tokenId",
          "type": "uint256"
        }
      ],
      "name": "getApproved",
      "outputs": [
        {
          "internalType": "address",
          "name": "",
          "type": "address"
        }
      ],
      "stateMutability": "view",
      "type": "function"
    },
    {
      "inputs": [
        {
          "internalType": "address",
          "name": "tokenOwner",
          "type": "address"
        },
        {
          "internalType": "uint256",
          "name": "tokenId",
          "type": "uint256"
        }
      ],
      "name": "getCost",
      "outputs": [
        {
          "internalType": "uint256",
          "name": "",
          "type": "uint256"
        }
      ],
      "stateMutability": "view",
      "type": "function"
    },
    {
      "inputs": [
        {
          "internalType": "uint256",
          "name": "tokenId",
          "type": "uint256"
        }
      ],
      "name": "getTokenTransferCount",
      "outputs": [
        {
          "internalType": "uint256",
          "name": "",
          "type": "uint256"
        }
      ],
      "stateMutability": "view",
      "type": "function"
    },
    {
      "inputs": [
        {
          "internalType": "address",
          "name": "adres",
          "type": "address"
        }
      ],
      "name": "getTokensForAddress",
      "outputs": [
        {
          "components": [
            {
              "internalType": "uint256[]",
              "name": "ids",
              "type": "uint256[]"
            },
            {
              "internalType": "uint8",
              "name": "doNotUse",
              "type": "uint8"
            }
          ],
          "internalType": "struct ERC721with.Owns",
          "name": "",
          "type": "tuple"
        }
      ],
      "stateMutability": "view",
      "type": "function"
    },
    {
      "inputs": [],
      "name": "getaddressHowOwnedNFT",
      "outputs": [
        {
          "internalType": "address[]",
          "name": "",
          "type": "address[]"
        }
      ],
      "stateMutability": "view",
      "type": "function"
    },
    {
      "inputs": [],
      "name": "gettokensMints",
      "outputs": [
        {
          "internalType": "uint256[]",
          "name": "",
          "type": "uint256[]"
        }
      ],
      "stateMutability": "view",
      "type": "function"
    },
    {
      "inputs": [
        {
          "internalType": "address",
          "name": "owner",
          "type": "address"
        },
        {
          "internalType": "address",
          "name": "operator",
          "type": "address"
        }
      ],
      "name": "isApprovedForAll",
      "outputs": [
        {
          "internalType": "bool",
          "name": "",
          "type": "bool"
        }
      ],
      "stateMutability": "view",
      "type": "function"
    },
    {
      "inputs": [
        {
          "internalType": "address",
          "name": "a",
          "type": "address"
        }
      ],
      "name": "isOwnedEver",
      "outputs": [
        {
          "internalType": "bool",
          "name": "",
          "type": "bool"
        }
      ],
      "stateMutability": "view",
      "type": "function"
    },
    {
      "inputs": [
        {
          "internalType": "uint256",
          "name": "TokenId",
          "type": "uint256"
        }
      ],
      "name": "istokenMints",
      "outputs": [
        {
          "internalType": "bool",
          "name": "",
          "type": "bool"
        }
      ],
      "stateMutability": "view",
      "type": "function"
    },
    {
      "inputs": [],
      "name": "name",
      "outputs": [
        {
          "internalType": "string",
          "name": "",
          "type": "string"
        }
      ],
      "stateMutability": "view",
      "type": "function"
    },
    {
      "inputs": [],
      "name": "nftPrice",
      "outputs": [
        {
          "internalType": "uint256",
          "name": "",
          "type": "uint256"
        }
      ],
      "stateMutability": "view",
      "type": "function"
    },
    {
      "inputs": [],
      "name": "owner",
      "outputs": [
        {
          "internalType": "address",
          "name": "",
          "type": "address"
        }
      ],
      "stateMutability": "view",
      "type": "function"
    },
    {
      "inputs": [
        {
          "internalType": "uint256",
          "name": "tokenId",
          "type": "uint256"
        }
      ],
      "name": "ownerOf",
      "outputs": [
        {
          "internalType": "address",
          "name": "",
          "type": "address"
        }
      ],
      "stateMutability": "view",
      "type": "function"
    },
    {
      "inputs": [
        {
          "internalType": "uint256",
          "name": "tokenId",
          "type": "uint256"
        },
        {
          "internalType": "uint256",
          "name": "cost",
          "type": "uint256"
        }
      ],
      "name": "putOnSell",
      "outputs": [],
      "stateMutability": "nonpayable",
      "type": "function"
    },
    {
      "inputs": [
        {
          "internalType": "uint256",
          "name": "tokenId",
          "type": "uint256"
        }
      ],
      "name": "removeFromSell",
      "outputs": [],
      "stateMutability": "nonpayable",
      "type": "function"
    },
    {
      "inputs": [],
      "name": "renounceOwnership",
      "outputs": [],
      "stateMutability": "nonpayable",
      "type": "function"
    },
    {
      "inputs": [
        {
          "internalType": "address",
          "name": "from",
          "type": "address"
        },
        {
          "internalType": "address",
          "name": "to",
          "type": "address"
        },
        {
          "internalType": "uint256",
          "name": "tokenId",
          "type": "uint256"
        }
      ],
      "name": "safeTransferFrom",
      "outputs": [],
      "stateMutability": "nonpayable",
      "type": "function"
    },
    {
      "inputs": [
        {
          "internalType": "address",
          "name": "from",
          "type": "address"
        },
        {
          "internalType": "address",
          "name": "to",
          "type": "address"
        },
        {
          "internalType": "uint256",
          "name": "tokenId",
          "type": "uint256"
        },
        {
          "internalType": "bytes",
          "name": "data",
          "type": "bytes"
        }
      ],
      "name": "safeTransferFrom",
      "outputs": [],
      "stateMutability": "nonpayable",
      "type": "function"
    },
    {
      "inputs": [
        {
          "internalType": "address",
          "name": "operator",
          "type": "address"
        },
        {
          "internalType": "bool",
          "name": "approved",
          "type": "bool"
        }
      ],
      "name": "setApprovalForAll",
      "outputs": [],
      "stateMutability": "nonpayable",
      "type": "function"
    },
    {
      "inputs": [
        {
          "internalType": "bytes4",
          "name": "interfaceId",
          "type": "bytes4"
        }
      ],
      "name": "supportsInterface",
      "outputs": [
        {
          "internalType": "bool",
          "name": "",
          "type": "bool"
        }
      ],
      "stateMutability": "view",
      "type": "function"
    },
    {
      "inputs": [],
      "name": "symbol",
      "outputs": [
        {
          "internalType": "string",
          "name": "",
          "type": "string"
        }
      ],
      "stateMutability": "view",
      "type": "function"
    },
    {
      "inputs": [
        {
          "internalType": "uint256",
          "name": "tokenId",
          "type": "uint256"
        }
      ],
      "name": "tokenURI",
      "outputs": [
        {
          "internalType": "string",
          "name": "",
          "type": "string"
        }
      ],
      "stateMutability": "view",
      "type": "function"
    },
    {
      "inputs": [
        {
          "internalType": "address",
          "name": "from",
          "type": "address"
        },
        {
          "internalType": "address",
          "name": "to",
          "type": "address"
        },
        {
          "internalType": "uint256",
          "name": "tokenId",
          "type": "uint256"
        }
      ],
      "name": "transferFrom",
      "outputs": [],
      "stateMutability": "nonpayable",
      "type": "function"
    },
    {
      "inputs": [
        {
          "internalType": "address",
          "name": "newOwner",
          "type": "address"
        }
      ],
      "name": "transferOwnership",
      "outputs": [],
      "stateMutability": "nonpayable",
      "type": "function"
    },
    {
      "inputs": [
        {
          "internalType": "address payable",
          "name": "tokenOwner",
          "type": "address"
        },
        {
          "internalType": "uint256",
          "name": "tokenId",
          "type": "uint256"
        }
      ],
      "name": "trigerSell",
      "outputs": [],
      "stateMutability": "payable",
      "type": "function"
    },
    {
      "inputs": [
        {
          "internalType": "address payable",
          "name": "_to",
          "type": "address"
        }
      ],
      "name": "withdrow",
      "outputs": [],
      "stateMutability": "nonpayable",
      "type": "function"
    }
  ],
  "bytecode": "0x60a06040523480156200001157600080fd5b50604051620045203803806200452083398181016040528101906200003791906200032e565b6040518060400160405280600681526020017f4d756465427a00000000000000000000000000000000000000000000000000008152506040518060400160405280600681526020017f4d756465427a00000000000000000000000000000000000000000000000000008152508160009080519060200190620000bb92919062000200565b508060019080519060200190620000d492919062000200565b505050620000f7620000eb6200013260201b60201c565b6200013a60201b60201c565b8073ffffffffffffffffffffffffffffffffffffffff1660808173ffffffffffffffffffffffffffffffffffffffff168152505050620003c5565b600033905090565b6000600c60009054906101000a900473ffffffffffffffffffffffffffffffffffffffff16905081600c60006101000a81548173ffffffffffffffffffffffffffffffffffffffff021916908373ffffffffffffffffffffffffffffffffffffffff1602179055508173ffffffffffffffffffffffffffffffffffffffff168173ffffffffffffffffffffffffffffffffffffffff167f8be0079c531659141344cd1fd0a4f28419497f9722a3daafe3b4186f6b6457e060405160405180910390a35050565b8280546200020e906200038f565b90600052602060002090601f0160209004810192826200023257600085556200027e565b82601f106200024d57805160ff19168380011785556200027e565b828001600101855582156200027e579182015b828111156200027d57825182559160200191906001019062000260565b5b5090506200028d919062000291565b5090565b5b80821115620002ac57600081600090555060010162000292565b5090565b600080fd5b600073ffffffffffffffffffffffffffffffffffffffff82169050919050565b6000620002e282620002b5565b9050919050565b6000620002f682620002d5565b9050919050565b6200030881620002e9565b81146200031457600080fd5b50565b6000815190506200032881620002fd565b92915050565b600060208284031215620003475762000346620002b0565b5b6000620003578482850162000317565b91505092915050565b7f4e487b7100000000000000000000000000000000000000000000000000000000600052602260045260246000fd5b60006002820490506001821680620003a857607f821691505b60208210811415620003bf57620003be62000360565b5b50919050565b60805161413f620003e160003960006114da015261413f6000f3fe6080604052600436106101c25760003560e01c806370a08231116100f7578063a22cb46511610095578063daacb71b11610064578063daacb71b14610669578063e472f13514610685578063e985e9c5146106c2578063f2fde38b146106ff576101c2565b8063a22cb465146105b1578063b88d4fde146105da578063c395d9cc14610603578063c87b56dd1461062c576101c2565b806379b35411116100d157806379b35411146105055780638951764a146105305780638da5cb5b1461055b57806395d89b4114610586576101c2565b806370a0823114610488578063715018a6146104c557806372593831146104dc576101c2565b806323b872dd1161016457806342842e0e1161013e57806342842e0e146103a857806352ea4f77146103d1578063580df0021461040e5780636352211e1461044b576101c2565b806323b872dd146103265780633951ee821461034f5780633ccb70e61461036b576101c2565b8063095ea7b3116101a0578063095ea7b31461026c5780630d39fc81146102955780630f60e3ce146102c05780631caf9e57146102fd576101c2565b806301ffc9a7146101c757806306fdde0314610204578063081812fc1461022f575b600080fd5b3480156101d357600080fd5b506101ee60048036038101906101e99190612ae9565b610728565b6040516101fb9190612b31565b60405180910390f35b34801561021057600080fd5b5061021961080a565b6040516102269190612be5565b60405180910390f35b34801561023b57600080fd5b5061025660048036038101906102519190612c3d565b61089c565b6040516102639190612cab565b60405180910390f35b34801561027857600080fd5b50610293600480360381019061028e9190612cf2565b6108e2565b005b3480156102a157600080fd5b506102aa6109fa565b6040516102b79190612d41565b60405180910390f35b3480156102cc57600080fd5b506102e760048036038101906102e29190612d5c565b610a05565b6040516102f49190612ea0565b60405180910390f35b34801561030957600080fd5b50610324600480360381019061031f9190612ec2565b610ad3565b005b34801561033257600080fd5b5061034d60048036038101906103489190612f02565b610c41565b005b61036960048036038101906103649190612f93565b610ca1565b005b34801561037757600080fd5b50610392600480360381019061038d9190612c3d565b610e30565b60405161039f9190612d41565b60405180910390f35b3480156103b457600080fd5b506103cf60048036038101906103ca9190612f02565b610e4d565b005b3480156103dd57600080fd5b506103f860048036038101906103f39190612cf2565b610e6d565b6040516104059190612d41565b60405180910390f35b34801561041a57600080fd5b5061043560048036038101906104309190612d5c565b610ec8565b6040516104429190612b31565b60405180910390f35b34801561045757600080fd5b50610472600480360381019061046d9190612c3d565b610f1e565b60405161047f9190612cab565b60405180910390f35b34801561049457600080fd5b506104af60048036038101906104aa9190612d5c565b610fd0565b6040516104bc9190612d41565b60405180910390f35b3480156104d157600080fd5b506104da611088565b005b3480156104e857600080fd5b5061050360048036038101906104fe9190612fd3565b61109c565b005b34801561051157600080fd5b5061051a6110ee565b60405161052791906130be565b60405180910390f35b34801561053c57600080fd5b5061054561117c565b604051610552919061314f565b60405180910390f35b34801561056757600080fd5b506105706111d4565b60405161057d9190612cab565b60405180910390f35b34801561059257600080fd5b5061059b6111fe565b6040516105a89190612be5565b60405180910390f35b3480156105bd57600080fd5b506105d860048036038101906105d3919061319d565b611290565b005b3480156105e657600080fd5b5061060160048036038101906105fc9190613312565b6112a6565b005b34801561060f57600080fd5b5061062a60048036038101906106259190612c3d565b611308565b005b34801561063857600080fd5b50610653600480360381019061064e9190612c3d565b61146b565b6040516106609190612be5565b60405180910390f35b610683600480360381019061067e9190612c3d565b6114d3565b005b34801561069157600080fd5b506106ac60048036038101906106a79190612c3d565b611850565b6040516106b99190612b31565b60405180910390f35b3480156106ce57600080fd5b506106e960048036038101906106e49190613395565b61187a565b6040516106f69190612b31565b60405180910390f35b34801561070b57600080fd5b5061072660048036038101906107219190612d5c565b61190e565b005b60007f80ac58cd000000000000000000000000000000000000000000000000000000007bffffffffffffffffffffffffffffffffffffffffffffffffffffffff1916827bffffffffffffffffffffffffffffffffffffffffffffffffffffffff191614806107f357507f5b5e139f000000000000000000000000000000000000000000000000000000007bffffffffffffffffffffffffffffffffffffffffffffffffffffffff1916827bffffffffffffffffffffffffffffffffffffffffffffffffffffffff1916145b80610803575061080282611992565b5b9050919050565b60606000805461081990613404565b80601f016020809104026020016040519081016040528092919081815260200182805461084590613404565b80156108925780601f1061086757610100808354040283529160200191610892565b820191906000526020600020905b81548152906001019060200180831161087557829003601f168201915b5050505050905090565b60006108a7826119fc565b6004600083815260200190815260200160002060009054906101000a900473ffffffffffffffffffffffffffffffffffffffff169050919050565b60006108ed82610f1e565b90508073ffffffffffffffffffffffffffffffffffffffff168373ffffffffffffffffffffffffffffffffffffffff16141561095e576040517f08c379a0000000000000000000000000000000000000000000000000000000008152600401610955906134a8565b60405180910390fd5b8073ffffffffffffffffffffffffffffffffffffffff1661097d611a47565b73ffffffffffffffffffffffffffffffffffffffff1614806109ac57506109ab816109a6611a47565b61187a565b5b6109eb576040517f08c379a00000000000000000000000000000000000000000000000000000000081526004016109e29061353a565b60405180910390fd5b6109f58383611a4f565b505050565b6671afd498d0000081565b610a0d612a60565b600960008373ffffffffffffffffffffffffffffffffffffffff1673ffffffffffffffffffffffffffffffffffffffff16815260200190815260200160002060405180604001604052908160008201805480602002602001604051908101604052809291908181526020018280548015610aa657602002820191906000526020600020905b815481526020019060010190808311610a92575b505050505081526020016001820160009054906101000a900460ff1660ff1660ff16815250509050919050565b3373ffffffffffffffffffffffffffffffffffffffff16610af383610f1e565b73ffffffffffffffffffffffffffffffffffffffff16148015610b165750600081115b610b55576040517f08c379a0000000000000000000000000000000000000000000000000000000008152600401610b4c906135a6565b60405180910390fd5b6000600d60003373ffffffffffffffffffffffffffffffffffffffff1673ffffffffffffffffffffffffffffffffffffffff16815260200190815260200160002060008481526020019081526020016000205414610be8576040517f08c379a0000000000000000000000000000000000000000000000000000000008152600401610bdf90613612565b60405180910390fd5b80600d60003373ffffffffffffffffffffffffffffffffffffffff1673ffffffffffffffffffffffffffffffffffffffff1681526020019081526020016000206000848152602001908152602001600020819055505050565b610c52610c4c611a47565b82611b08565b610c91576040517f08c379a0000000000000000000000000000000000000000000000000000000008152600401610c88906136a4565b60405180910390fd5b610c9c838383611b9d565b505050565b600d60008373ffffffffffffffffffffffffffffffffffffffff1673ffffffffffffffffffffffffffffffffffffffff168152602001908152602001600020600082815260200190815260200160002054341015610d34576040517f08c379a0000000000000000000000000000000000000000000000000000000008152600401610d2b90613710565b60405180910390fd5b8173ffffffffffffffffffffffffffffffffffffffff166108fc600d60008573ffffffffffffffffffffffffffffffffffffffff1673ffffffffffffffffffffffffffffffffffffffff1681526020019081526020016000206000848152602001908152602001600020549081150290604051600060405180830381858888f19350505050158015610dca573d6000803e3d6000fd5b506000600d60008473ffffffffffffffffffffffffffffffffffffffff1673ffffffffffffffffffffffffffffffffffffffff168152602001908152602001600020600083815260200190815260200160002081905550610e2c823383611b9d565b5050565b6000600b6000838152602001908152602001600020549050919050565b610e68838383604051806020016040528060008152506112a6565b505050565b6000600d60008473ffffffffffffffffffffffffffffffffffffffff1673ffffffffffffffffffffffffffffffffffffffff168152602001908152602001600020600083815260200190815260200160002054905092915050565b6000600760008373ffffffffffffffffffffffffffffffffffffffff1673ffffffffffffffffffffffffffffffffffffffff16815260200190815260200160002060009054906101000a900460ff169050919050565b6000806002600084815260200190815260200160002060009054906101000a900473ffffffffffffffffffffffffffffffffffffffff169050600073ffffffffffffffffffffffffffffffffffffffff168173ffffffffffffffffffffffffffffffffffffffff161415610fc7576040517f08c379a0000000000000000000000000000000000000000000000000000000008152600401610fbe9061377c565b60405180910390fd5b80915050919050565b60008073ffffffffffffffffffffffffffffffffffffffff168273ffffffffffffffffffffffffffffffffffffffff161415611041576040517f08c379a00000000000000000000000000000000000000000000000000000000081526004016110389061380e565b60405180910390fd5b600360008373ffffffffffffffffffffffffffffffffffffffff1673ffffffffffffffffffffffffffffffffffffffff168152602001908152602001600020549050919050565b611090612138565b61109a60006121b6565b565b6110a4612138565b8073ffffffffffffffffffffffffffffffffffffffff166108fc479081150290604051600060405180830381858888f193505050501580156110ea573d6000803e3d6000fd5b5050565b6060600880548060200260200160405190810160405280929190818152602001828054801561117257602002820191906000526020600020905b8160009054906101000a900473ffffffffffffffffffffffffffffffffffffffff1673ffffffffffffffffffffffffffffffffffffffff1681526020019060010190808311611128575b5050505050905090565b6060600a8054806020026020016040519081016040528092919081815260200182805480156111ca57602002820191906000526020600020905b8154815260200190600101908083116111b6575b5050505050905090565b6000600c60009054906101000a900473ffffffffffffffffffffffffffffffffffffffff16905090565b60606001805461120d90613404565b80601f016020809104026020016040519081016040528092919081815260200182805461123990613404565b80156112865780601f1061125b57610100808354040283529160200191611286565b820191906000526020600020905b81548152906001019060200180831161126957829003601f168201915b5050505050905090565b6112a261129b611a47565b838361227c565b5050565b6112b76112b1611a47565b83611b08565b6112f6576040517f08c379a00000000000000000000000000000000000000000000000000000000081526004016112ed906136a4565b60405180910390fd5b611302848484846123e9565b50505050565b3373ffffffffffffffffffffffffffffffffffffffff1661132882610f1e565b73ffffffffffffffffffffffffffffffffffffffff161461137e576040517f08c379a0000000000000000000000000000000000000000000000000000000008152600401611375906135a6565b60405180910390fd5b6000600d60003373ffffffffffffffffffffffffffffffffffffffff1673ffffffffffffffffffffffffffffffffffffffff1681526020019081526020016000206000838152602001908152602001600020541415611412576040517f08c379a00000000000000000000000000000000000000000000000000000000081526004016114099061387a565b60405180910390fd5b6000600d60003373ffffffffffffffffffffffffffffffffffffffff1673ffffffffffffffffffffffffffffffffffffffff16815260200190815260200160002060008381526020019081526020016000208190555050565b6060611476826119fc565b6000611480612445565b905060008151116114a057604051806020016040528060008152506114cb565b806114aa8461245c565b6040516020016114bb9291906138d6565b6040516020818303038152906040525b915050919050565b60003390507f000000000000000000000000000000000000000000000000000000000000000073ffffffffffffffffffffffffffffffffffffffff166304b675ae82846040518363ffffffff1660e01b81526004016115339291906138fa565b602060405180830381865afa158015611550573d6000803e3d6000fd5b505050506040513d601f19601f820116820180604052508101906115749190613938565b6115b3576040517f08c379a00000000000000000000000000000000000000000000000000000000081526004016115aa906139b1565b60405180910390fd5b6115bb6111d4565b73ffffffffffffffffffffffffffffffffffffffff163373ffffffffffffffffffffffffffffffffffffffff1614611638576671afd498d00000341015611637576040517f08c379a000000000000000000000000000000000000000000000000000000000815260040161162e90613a1d565b60405180910390fd5b5b61164281836125bd565b61164b826125db565b600b6000838152602001908152602001600020600081548092919061166f90613a6c565b9190505550600760008273ffffffffffffffffffffffffffffffffffffffff1673ffffffffffffffffffffffffffffffffffffffff16815260200190815260200160002060009054906101000a900460ff16611781576001600760008373ffffffffffffffffffffffffffffffffffffffff1673ffffffffffffffffffffffffffffffffffffffff16815260200190815260200160002060006101000a81548160ff0219169083151502179055506008819080600181540180825580915050600190039060005260206000200160009091909190916101000a81548173ffffffffffffffffffffffffffffffffffffffff021916908373ffffffffffffffffffffffffffffffffffffffff1602179055505b600960008273ffffffffffffffffffffffffffffffffffffffff1673ffffffffffffffffffffffffffffffffffffffff168152602001908152602001600020600001829080600181540180825580915050600190039060005260206000200160009091909190915055600a8290806001815401808255809150506001900390600052602060002001600090919091909150557f56a2167b6735d8ab481c24910717cff4b1efc14a660a456533081066afd0643f33836040516118449291906138fa565b60405180910390a15050565b60006006600083815260200190815260200160002060009054906101000a900460ff169050919050565b6000600560008473ffffffffffffffffffffffffffffffffffffffff1673ffffffffffffffffffffffffffffffffffffffff16815260200190815260200160002060008373ffffffffffffffffffffffffffffffffffffffff1673ffffffffffffffffffffffffffffffffffffffff16815260200190815260200160002060009054906101000a900460ff16905092915050565b611916612138565b600073ffffffffffffffffffffffffffffffffffffffff168173ffffffffffffffffffffffffffffffffffffffff161415611986576040517f08c379a000000000000000000000000000000000000000000000000000000000815260040161197d90613b27565b60405180910390fd5b61198f816121b6565b50565b60007f01ffc9a7000000000000000000000000000000000000000000000000000000007bffffffffffffffffffffffffffffffffffffffffffffffffffffffff1916827bffffffffffffffffffffffffffffffffffffffffffffffffffffffff1916149050919050565b611a058161260a565b611a44576040517f08c379a0000000000000000000000000000000000000000000000000000000008152600401611a3b9061377c565b60405180910390fd5b50565b600033905090565b816004600083815260200190815260200160002060006101000a81548173ffffffffffffffffffffffffffffffffffffffff021916908373ffffffffffffffffffffffffffffffffffffffff160217905550808273ffffffffffffffffffffffffffffffffffffffff16611ac283610f1e565b73ffffffffffffffffffffffffffffffffffffffff167f8c5be1e5ebec7d5bd14f71427d1e84f3dd0314c0f7b2291e5b200ac8c7c3b92560405160405180910390a45050565b600080611b1483610f1e565b90508073ffffffffffffffffffffffffffffffffffffffff168473ffffffffffffffffffffffffffffffffffffffff161480611b565750611b55818561187a565b5b80611b9457508373ffffffffffffffffffffffffffffffffffffffff16611b7c8461089c565b73ffffffffffffffffffffffffffffffffffffffff16145b91505092915050565b8273ffffffffffffffffffffffffffffffffffffffff16611bbd82610f1e565b73ffffffffffffffffffffffffffffffffffffffff1614611c13576040517f08c379a0000000000000000000000000000000000000000000000000000000008152600401611c0a90613bb9565b60405180910390fd5b600073ffffffffffffffffffffffffffffffffffffffff168273ffffffffffffffffffffffffffffffffffffffff161415611c83576040517f08c379a0000000000000000000000000000000000000000000000000000000008152600401611c7a90613c4b565b60405180910390fd5b611c8e838383612676565b611c99600082611a4f565b6000600960008573ffffffffffffffffffffffffffffffffffffffff1673ffffffffffffffffffffffffffffffffffffffff168152602001908152602001600020600001905060008180549050905060005b81811015611e0a5783838281548110611d0757611d06613c6b565b5b90600052602060002001541415611df7576001821415611d4d5782805480611d3257611d31613c9a565b5b60019003818190600052602060002001600090559055611df2565b60008190505b60018480549050611d649190613cc9565b811015611dc95783600182611d799190613cfd565b81548110611d8a57611d89613c6b565b5b9060005260206000200154848281548110611da857611da7613c6b565b5b90600052602060002001819055508080611dc190613a6c565b915050611d53565b5082805480611ddb57611dda613c9a565b5b600190038181906000526020600020016000905590555b611e0a565b8080611e0290613a6c565b915050611ceb565b50600960008573ffffffffffffffffffffffffffffffffffffffff1673ffffffffffffffffffffffffffffffffffffffff1681526020019081526020016000206000018390806001815401808255809150506001900390600052602060002001600090919091909150556001600360008773ffffffffffffffffffffffffffffffffffffffff1673ffffffffffffffffffffffffffffffffffffffff1681526020019081526020016000206000828254611ec49190613cc9565b925050819055506001600360008673ffffffffffffffffffffffffffffffffffffffff1673ffffffffffffffffffffffffffffffffffffffff1681526020019081526020016000206000828254611f1b9190613cfd565b92505081905550836002600085815260200190815260200160002060006101000a81548173ffffffffffffffffffffffffffffffffffffffff021916908373ffffffffffffffffffffffffffffffffffffffff1602179055506064600b600085815260200190815260200160002054108015611fe15750600760008573ffffffffffffffffffffffffffffffffffffffff1673ffffffffffffffffffffffffffffffffffffffff16815260200190815260200160002060009054906101000a900460ff16155b156120cb57600b6000848152602001908152602001600020600081548092919061200a90613a6c565b91905055506001600760008673ffffffffffffffffffffffffffffffffffffffff1673ffffffffffffffffffffffffffffffffffffffff16815260200190815260200160002060006101000a81548160ff0219169083151502179055506008849080600181540180825580915050600190039060005260206000200160009091909190916101000a81548173ffffffffffffffffffffffffffffffffffffffff021916908373ffffffffffffffffffffffffffffffffffffffff1602179055505b828473ffffffffffffffffffffffffffffffffffffffff168673ffffffffffffffffffffffffffffffffffffffff167fddf252ad1be2c89b69c2b068fc378daa952ba7f163c4a11628f55a4df523b3ef60405160405180910390a461213185858561267b565b5050505050565b612140611a47565b73ffffffffffffffffffffffffffffffffffffffff1661215e6111d4565b73ffffffffffffffffffffffffffffffffffffffff16146121b4576040517f08c379a00000000000000000000000000000000000000000000000000000000081526004016121ab90613d9f565b60405180910390fd5b565b6000600c60009054906101000a900473ffffffffffffffffffffffffffffffffffffffff16905081600c60006101000a81548173ffffffffffffffffffffffffffffffffffffffff021916908373ffffffffffffffffffffffffffffffffffffffff1602179055508173ffffffffffffffffffffffffffffffffffffffff168173ffffffffffffffffffffffffffffffffffffffff167f8be0079c531659141344cd1fd0a4f28419497f9722a3daafe3b4186f6b6457e060405160405180910390a35050565b8173ffffffffffffffffffffffffffffffffffffffff168373ffffffffffffffffffffffffffffffffffffffff1614156122eb576040517f08c379a00000000000000000000000000000000000000000000000000000000081526004016122e290613e0b565b60405180910390fd5b80600560008573ffffffffffffffffffffffffffffffffffffffff1673ffffffffffffffffffffffffffffffffffffffff16815260200190815260200160002060008473ffffffffffffffffffffffffffffffffffffffff1673ffffffffffffffffffffffffffffffffffffffff16815260200190815260200160002060006101000a81548160ff0219169083151502179055508173ffffffffffffffffffffffffffffffffffffffff168373ffffffffffffffffffffffffffffffffffffffff167f17307eab39ab6107e8899845ad3d59bd9653f200f220920489ca2b5937696c31836040516123dc9190612b31565b60405180910390a3505050565b6123f4848484611b9d565b61240084848484612680565b61243f576040517f08c379a000000000000000000000000000000000000000000000000000000000815260040161243690613e9d565b60405180910390fd5b50505050565b606060405180602001604052806000815250905090565b606060008214156124a4576040518060400160405280600181526020017f300000000000000000000000000000000000000000000000000000000000000081525090506125b8565b600082905060005b600082146124d65780806124bf90613a6c565b915050600a826124cf9190613eec565b91506124ac565b60008167ffffffffffffffff8111156124f2576124f16131e7565b5b6040519080825280601f01601f1916602001820160405280156125245781602001600182028036833780820191505090505b5090505b600085146125b15760018261253d9190613cc9565b9150600a8561254c9190613f1d565b60306125589190613cfd565b60f81b81838151811061256e5761256d613c6b565b5b60200101907effffffffffffffffffffffffffffffffffffffffffffffffffffffffffffff1916908160001a905350600a856125aa9190613eec565b9450612528565b8093505050505b919050565b6125d7828260405180602001604052806000815250612808565b5050565b60016006600083815260200190815260200160002060006101000a81548160ff02191690831515021790555050565b60008073ffffffffffffffffffffffffffffffffffffffff166002600084815260200190815260200160002060009054906101000a900473ffffffffffffffffffffffffffffffffffffffff1673ffffffffffffffffffffffffffffffffffffffff1614159050919050565b505050565b505050565b60006126a18473ffffffffffffffffffffffffffffffffffffffff16612863565b156127fb578373ffffffffffffffffffffffffffffffffffffffff1663150b7a026126ca611a47565b8786866040518563ffffffff1660e01b81526004016126ec9493929190613fa3565b6020604051808303816000875af192505050801561272857506040513d601f19601f820116820180604052508101906127259190614004565b60015b6127ab573d8060008114612758576040519150601f19603f3d011682016040523d82523d6000602084013e61275d565b606091505b506000815114156127a3576040517f08c379a000000000000000000000000000000000000000000000000000000000815260040161279a90613e9d565b60405180910390fd5b805181602001fd5b63150b7a0260e01b7bffffffffffffffffffffffffffffffffffffffffffffffffffffffff1916817bffffffffffffffffffffffffffffffffffffffffffffffffffffffff191614915050612800565b600190505b949350505050565b6128128383612886565b61281f6000848484612680565b61285e576040517f08c379a000000000000000000000000000000000000000000000000000000000815260040161285590613e9d565b60405180910390fd5b505050565b6000808273ffffffffffffffffffffffffffffffffffffffff163b119050919050565b600073ffffffffffffffffffffffffffffffffffffffff168273ffffffffffffffffffffffffffffffffffffffff1614156128f6576040517f08c379a00000000000000000000000000000000000000000000000000000000081526004016128ed9061407d565b60405180910390fd5b6128ff8161260a565b1561293f576040517f08c379a0000000000000000000000000000000000000000000000000000000008152600401612936906140e9565b60405180910390fd5b61294b60008383612676565b6001600360008473ffffffffffffffffffffffffffffffffffffffff1673ffffffffffffffffffffffffffffffffffffffff168152602001908152602001600020600082825461299b9190613cfd565b92505081905550816002600083815260200190815260200160002060006101000a81548173ffffffffffffffffffffffffffffffffffffffff021916908373ffffffffffffffffffffffffffffffffffffffff160217905550808273ffffffffffffffffffffffffffffffffffffffff16600073ffffffffffffffffffffffffffffffffffffffff167fddf252ad1be2c89b69c2b068fc378daa952ba7f163c4a11628f55a4df523b3ef60405160405180910390a4612a5c6000838361267b565b5050565b604051806040016040528060608152602001600060ff1681525090565b6000604051905090565b600080fd5b600080fd5b60007fffffffff0000000000000000000000000000000000000000000000000000000082169050919050565b612ac681612a91565b8114612ad157600080fd5b50565b600081359050612ae381612abd565b92915050565b600060208284031215612aff57612afe612a87565b5b6000612b0d84828501612ad4565b91505092915050565b60008115159050919050565b612b2b81612b16565b82525050565b6000602082019050612b466000830184612b22565b92915050565b600081519050919050565b600082825260208201905092915050565b60005b83811015612b86578082015181840152602081019050612b6b565b83811115612b95576000848401525b50505050565b6000601f19601f8301169050919050565b6000612bb782612b4c565b612bc18185612b57565b9350612bd1818560208601612b68565b612bda81612b9b565b840191505092915050565b60006020820190508181036000830152612bff8184612bac565b905092915050565b6000819050919050565b612c1a81612c07565b8114612c2557600080fd5b50565b600081359050612c3781612c11565b92915050565b600060208284031215612c5357612c52612a87565b5b6000612c6184828501612c28565b91505092915050565b600073ffffffffffffffffffffffffffffffffffffffff82169050919050565b6000612c9582612c6a565b9050919050565b612ca581612c8a565b82525050565b6000602082019050612cc06000830184612c9c565b92915050565b612ccf81612c8a565b8114612cda57600080fd5b50565b600081359050612cec81612cc6565b92915050565b60008060408385031215612d0957612d08612a87565b5b6000612d1785828601612cdd565b9250506020612d2885828601612c28565b9150509250929050565b612d3b81612c07565b82525050565b6000602082019050612d566000830184612d32565b92915050565b600060208284031215612d7257612d71612a87565b5b6000612d8084828501612cdd565b91505092915050565b600081519050919050565b600082825260208201905092915050565b6000819050602082019050919050565b612dbe81612c07565b82525050565b6000612dd08383612db5565b60208301905092915050565b6000602082019050919050565b6000612df482612d89565b612dfe8185612d94565b9350612e0983612da5565b8060005b83811015612e3a578151612e218882612dc4565b9750612e2c83612ddc565b925050600181019050612e0d565b5085935050505092915050565b600060ff82169050919050565b612e5d81612e47565b82525050565b60006040830160008301518482036000860152612e808282612de9565b9150506020830151612e956020860182612e54565b508091505092915050565b60006020820190508181036000830152612eba8184612e63565b905092915050565b60008060408385031215612ed957612ed8612a87565b5b6000612ee785828601612c28565b9250506020612ef885828601612c28565b9150509250929050565b600080600060608486031215612f1b57612f1a612a87565b5b6000612f2986828701612cdd565b9350506020612f3a86828701612cdd565b9250506040612f4b86828701612c28565b9150509250925092565b6000612f6082612c6a565b9050919050565b612f7081612f55565b8114612f7b57600080fd5b50565b600081359050612f8d81612f67565b92915050565b60008060408385031215612faa57612fa9612a87565b5b6000612fb885828601612f7e565b9250506020612fc985828601612c28565b9150509250929050565b600060208284031215612fe957612fe8612a87565b5b6000612ff784828501612f7e565b91505092915050565b600081519050919050565b600082825260208201905092915050565b6000819050602082019050919050565b61303581612c8a565b82525050565b6000613047838361302c565b60208301905092915050565b6000602082019050919050565b600061306b82613000565b613075818561300b565b93506130808361301c565b8060005b838110156130b1578151613098888261303b565b97506130a383613053565b925050600181019050613084565b5085935050505092915050565b600060208201905081810360008301526130d88184613060565b905092915050565b600082825260208201905092915050565b60006130fc82612d89565b61310681856130e0565b935061311183612da5565b8060005b838110156131425781516131298882612dc4565b975061313483612ddc565b925050600181019050613115565b5085935050505092915050565b6000602082019050818103600083015261316981846130f1565b905092915050565b61317a81612b16565b811461318557600080fd5b50565b60008135905061319781613171565b92915050565b600080604083850312156131b4576131b3612a87565b5b60006131c285828601612cdd565b92505060206131d385828601613188565b9150509250929050565b600080fd5b600080fd5b7f4e487b7100000000000000000000000000000000000000000000000000000000600052604160045260246000fd5b61321f82612b9b565b810181811067ffffffffffffffff8211171561323e5761323d6131e7565b5b80604052505050565b6000613251612a7d565b905061325d8282613216565b919050565b600067ffffffffffffffff82111561327d5761327c6131e7565b5b61328682612b9b565b9050602081019050919050565b82818337600083830152505050565b60006132b56132b084613262565b613247565b9050828152602081018484840111156132d1576132d06131e2565b5b6132dc848285613293565b509392505050565b600082601f8301126132f9576132f86131dd565b5b81356133098482602086016132a2565b91505092915050565b6000806000806080858703121561332c5761332b612a87565b5b600061333a87828801612cdd565b945050602061334b87828801612cdd565b935050604061335c87828801612c28565b925050606085013567ffffffffffffffff81111561337d5761337c612a8c565b5b613389878288016132e4565b91505092959194509250565b600080604083850312156133ac576133ab612a87565b5b60006133ba85828601612cdd565b92505060206133cb85828601612cdd565b9150509250929050565b7f4e487b7100000000000000000000000000000000000000000000000000000000600052602260045260246000fd5b6000600282049050600182168061341c57607f821691505b602082108114156134305761342f6133d5565b5b50919050565b7f4552433732313a20617070726f76616c20746f2063757272656e74206f776e6560008201527f7200000000000000000000000000000000000000000000000000000000000000602082015250565b6000613492602183612b57565b915061349d82613436565b604082019050919050565b600060208201905081810360008301526134c181613485565b9050919050565b7f4552433732313a20617070726f76652063616c6c6572206973206e6f7420746f60008201527f6b656e206f776e6572206e6f7220617070726f76656420666f7220616c6c0000602082015250565b6000613524603e83612b57565b915061352f826134c8565b604082019050919050565b6000602082019050818103600083015261355381613517565b9050919050565b7f6e6f7420796f757220746f6b656e000000000000000000000000000000000000600082015250565b6000613590600e83612b57565b915061359b8261355a565b602082019050919050565b600060208201905081810360008301526135bf81613583565b9050919050565b7f746f6b656e20616c7265616479206f6e2073656c6c0000000000000000000000600082015250565b60006135fc601583612b57565b9150613607826135c6565b602082019050919050565b6000602082019050818103600083015261362b816135ef565b9050919050565b7f4552433732313a2063616c6c6572206973206e6f7420746f6b656e206f776e6560008201527f72206e6f7220617070726f766564000000000000000000000000000000000000602082015250565b600061368e602e83612b57565b915061369982613632565b604082019050919050565b600060208201905081810360008301526136bd81613681565b9050919050565b7f6e6f7420656e6f6774682076616c756500000000000000000000000000000000600082015250565b60006136fa601083612b57565b9150613705826136c4565b602082019050919050565b60006020820190508181036000830152613729816136ed565b9050919050565b7f4552433732313a20696e76616c696420746f6b656e2049440000000000000000600082015250565b6000613766601883612b57565b915061377182613730565b602082019050919050565b6000602082019050818103600083015261379581613759565b9050919050565b7f4552433732313a2061646472657373207a65726f206973206e6f74206120766160008201527f6c6964206f776e65720000000000000000000000000000000000000000000000602082015250565b60006137f8602983612b57565b91506138038261379c565b604082019050919050565b60006020820190508181036000830152613827816137eb565b9050919050565b7f746f6b656e206e6f74206f6e2073656c6c000000000000000000000000000000600082015250565b6000613864601183612b57565b915061386f8261382e565b602082019050919050565b6000602082019050818103600083015261389381613857565b9050919050565b600081905092915050565b60006138b082612b4c565b6138ba818561389a565b93506138ca818560208601612b68565b80840191505092915050565b60006138e282856138a5565b91506138ee82846138a5565b91508190509392505050565b600060408201905061390f6000830185612c9c565b61391c6020830184612d32565b9392505050565b60008151905061393281613171565b92915050565b60006020828403121561394e5761394d612a87565b5b600061395c84828501613923565b91505092915050565b7f4e6f7420796f75727320746f6b656e0000000000000000000000000000000000600082015250565b600061399b600f83612b57565b91506139a682613965565b602082019050919050565b600060208201905081810360008301526139ca8161398e565b9050919050565b7f57726f6e672073656e642076616c756500000000000000000000000000000000600082015250565b6000613a07601083612b57565b9150613a12826139d1565b602082019050919050565b60006020820190508181036000830152613a36816139fa565b9050919050565b7f4e487b7100000000000000000000000000000000000000000000000000000000600052601160045260246000fd5b6000613a7782612c07565b91507fffffffffffffffffffffffffffffffffffffffffffffffffffffffffffffffff821415613aaa57613aa9613a3d565b5b600182019050919050565b7f4f776e61626c653a206e6577206f776e657220697320746865207a65726f206160008201527f6464726573730000000000000000000000000000000000000000000000000000602082015250565b6000613b11602683612b57565b9150613b1c82613ab5565b604082019050919050565b60006020820190508181036000830152613b4081613b04565b9050919050565b7f4552433732313a207472616e736665722066726f6d20696e636f72726563742060008201527f6f776e6572000000000000000000000000000000000000000000000000000000602082015250565b6000613ba3602583612b57565b9150613bae82613b47565b604082019050919050565b60006020820190508181036000830152613bd281613b96565b9050919050565b7f4552433732313a207472616e7366657220746f20746865207a65726f2061646460008201527f7265737300000000000000000000000000000000000000000000000000000000602082015250565b6000613c35602483612b57565b9150613c4082613bd9565b604082019050919050565b60006020820190508181036000830152613c6481613c28565b9050919050565b7f4e487b7100000000000000000000000000000000000000000000000000000000600052603260045260246000fd5b7f4e487b7100000000000000000000000000000000000000000000000000000000600052603160045260246000fd5b6000613cd482612c07565b9150613cdf83612c07565b925082821015613cf257613cf1613a3d565b5b828203905092915050565b6000613d0882612c07565b9150613d1383612c07565b9250827fffffffffffffffffffffffffffffffffffffffffffffffffffffffffffffffff03821115613d4857613d47613a3d565b5b828201905092915050565b7f4f776e61626c653a2063616c6c6572206973206e6f7420746865206f776e6572600082015250565b6000613d89602083612b57565b9150613d9482613d53565b602082019050919050565b60006020820190508181036000830152613db881613d7c565b9050919050565b7f4552433732313a20617070726f766520746f2063616c6c657200000000000000600082015250565b6000613df5601983612b57565b9150613e0082613dbf565b602082019050919050565b60006020820190508181036000830152613e2481613de8565b9050919050565b7f4552433732313a207472616e7366657220746f206e6f6e20455243373231526560008201527f63656976657220696d706c656d656e7465720000000000000000000000000000602082015250565b6000613e87603283612b57565b9150613e9282613e2b565b604082019050919050565b60006020820190508181036000830152613eb681613e7a565b9050919050565b7f4e487b7100000000000000000000000000000000000000000000000000000000600052601260045260246000fd5b6000613ef782612c07565b9150613f0283612c07565b925082613f1257613f11613ebd565b5b828204905092915050565b6000613f2882612c07565b9150613f3383612c07565b925082613f4357613f42613ebd565b5b828206905092915050565b600081519050919050565b600082825260208201905092915050565b6000613f7582613f4e565b613f7f8185613f59565b9350613f8f818560208601612b68565b613f9881612b9b565b840191505092915050565b6000608082019050613fb86000830187612c9c565b613fc56020830186612c9c565b613fd26040830185612d32565b8181036060830152613fe48184613f6a565b905095945050505050565b600081519050613ffe81612abd565b92915050565b60006020828403121561401a57614019612a87565b5b600061402884828501613fef565b91505092915050565b7f4552433732313a206d696e7420746f20746865207a65726f2061646472657373600082015250565b6000614067602083612b57565b915061407282614031565b602082019050919050565b600060208201905081810360008301526140968161405a565b9050919050565b7f4552433732313a20746f6b656e20616c7265616479206d696e74656400000000600082015250565b60006140d3601c83612b57565b91506140de8261409d565b602082019050919050565b60006020820190508181036000830152614102816140c6565b905091905056fea2646970667358221220aeb77f0c17bc543ed1cc8c50298bf40a6282a2d98df40df03294454ef32e340864736f6c634300080b0033",
  "linkReferences": {},
  "deployedLinkReferences": {}
}